{
  "contractName": "AuctioneerManaged",
  "abi": [
    {
      "constant": true,
      "inputs": [],
      "name": "auctioneer",
      "outputs": [
        {
          "name": "",
          "type": "address"
        }
      ],
      "payable": false,
      "stateMutability": "view",
      "type": "function"
    },
    {
      "constant": false,
      "inputs": [
        {
          "name": "_auctioneer",
          "type": "address"
        }
      ],
      "name": "updateAuctioneer",
      "outputs": [],
      "payable": false,
      "stateMutability": "nonpayable",
      "type": "function"
    }
  ],
  "bytecode": "0x608060405234801561001057600080fd5b50610298806100206000396000f30060806040526004361061004b5763ffffffff7c01000000000000000000000000000000000000000000000000000000006000350416635ec2c7bf8114610050578063796a80761461008e575b600080fd5b34801561005c57600080fd5b506100656100be565b6040805173ffffffffffffffffffffffffffffffffffffffff9092168252519081900360200190f35b34801561009a57600080fd5b506100bc73ffffffffffffffffffffffffffffffffffffffff600435166100da565b005b60005473ffffffffffffffffffffffffffffffffffffffff1681565b60005473ffffffffffffffffffffffffffffffffffffffff16331461018657604080517f08c379a000000000000000000000000000000000000000000000000000000000815260206004820152602a60248201527f4f6e6c79207468652061756374696f6e6565722063616e206e6f6d696e61746560448201527f2061206e6577206f6e6500000000000000000000000000000000000000000000606482015290519081900360840190fd5b73ffffffffffffffffffffffffffffffffffffffff8116151561023057604080517f08c379a000000000000000000000000000000000000000000000000000000000815260206004820152602660248201527f5468652061756374696f6e656572206d75737420626520612076616c6964206160448201527f6464726573730000000000000000000000000000000000000000000000000000606482015290519081900360840190fd5b6000805473ffffffffffffffffffffffffffffffffffffffff191673ffffffffffffffffffffffffffffffffffffffff929092169190911790555600a165627a7a7230582013649d9226cbecff1f3ac3d83d72c48854cbcd580e32a3d6de9f60ad82cd65e90029",
  "source": "pragma solidity ^0.4.11;\n\ncontract AuctioneerManaged {\n    // auctioneer has the power to manage some variables\n    address public auctioneer;\n\n    function updateAuctioneer(\n        address _auctioneer\n    )\n        public\n        onlyAuctioneer\n    {\n        require(_auctioneer != address(0), \"The auctioneer must be a valid address\");\n        auctioneer = _auctioneer;\n    }\n\n    // > Modifiers\n    modifier onlyAuctioneer() {\n        // Only allows auctioneer to proceed\n        // R1\n        // require(msg.sender == auctioneer, \"Only auctioneer can perform this operation\");\n        require(msg.sender == auctioneer, \"Only the auctioneer can nominate a new one\");\n        _;\n    }\n}",
  "sourcePath": "/mnt/bf1642c6-3903-4bb8-b254-88a427e7ab47/Home/David/Documents/Work/Gnosis/dx-contracts/contracts/base/AuctioneerManaged.sol",
  "compiler": {
    "name": "solc",
    "version": "0.4.25+commit.59dbf8f1.Emscripten.clang"
  },
  "schemaVersion": "2.0.2",
  "updatedAt": "2019-01-04T11:06:42.148Z"
}