{
  "contractName": "AuctioneerManaged",
  "abi": [
    {
      "constant": true,
      "inputs": [],
      "name": "auctioneer",
      "outputs": [
        {
          "name": "",
          "type": "address"
        }
      ],
      "payable": false,
      "stateMutability": "view",
      "type": "function"
    },
    {
      "constant": false,
      "inputs": [
        {
          "name": "_auctioneer",
          "type": "address"
        }
      ],
      "name": "updateAuctioneer",
      "outputs": [],
      "payable": false,
      "stateMutability": "nonpayable",
      "type": "function"
    }
  ],
  "bytecode": "0x608060405234801561001057600080fd5b5061026f806100206000396000f3fe608060405234801561001057600080fd5b5060043610610052577c010000000000000000000000000000000000000000000000000000000060003504635ec2c7bf8114610057578063796a807614610088575b600080fd5b61005f6100bd565b6040805173ffffffffffffffffffffffffffffffffffffffff9092168252519081900360200190f35b6100bb6004803603602081101561009e57600080fd5b503573ffffffffffffffffffffffffffffffffffffffff166100d9565b005b60005473ffffffffffffffffffffffffffffffffffffffff1681565b60005473ffffffffffffffffffffffffffffffffffffffff163314610149576040517f08c379a000000000000000000000000000000000000000000000000000000000815260040180806020018281038252602a81526020018061021a602a913960400191505060405180910390fd5b73ffffffffffffffffffffffffffffffffffffffff811615156101b7576040517f08c379a00000000000000000000000000000000000000000000000000000000081526004018080602001828103825260268152602001806101f46026913960400191505060405180910390fd5b6000805473ffffffffffffffffffffffffffffffffffffffff191673ffffffffffffffffffffffffffffffffffffffff9290921691909117905556fe5468652061756374696f6e656572206d75737420626520612076616c696420616464726573734f6e6c79207468652061756374696f6e6565722063616e206e6f6d696e6174652061206e6577206f6e65a165627a7a72305820480d773ef2bd880b780e6b8d3b448d4f09f0b7c60448045c17aefe7af99762c10029",
  "source": "pragma solidity ^0.5.2;\n\n\ncontract AuctioneerManaged {\n    // auctioneer has the power to manage some variables\n    address public auctioneer;\n\n    function updateAuctioneer(address _auctioneer) public onlyAuctioneer {\n        require(_auctioneer != address(0), \"The auctioneer must be a valid address\");\n        auctioneer = _auctioneer;\n    }\n\n    // > Modifiers\n    modifier onlyAuctioneer() {\n        // Only allows auctioneer to proceed\n        // R1\n        // require(msg.sender == auctioneer, \"Only auctioneer can perform this operation\");\n        require(msg.sender == auctioneer, \"Only the auctioneer can nominate a new one\");\n        _;\n    }\n}\n",
  "sourcePath": "@gnosis.pm/dx-contracts/contracts/base/AuctioneerManaged.sol",
  "compiler": {
    "name": "solc",
    "version": "0.5.2+commit.1df8f40c.Emscripten.clang"
  },
  "schemaVersion": "3.0.1",
  "updatedAt": "2019-01-18T08:01:22.360Z",
  "devdoc": {
    "methods": {}
  },
  "userdoc": {
    "methods": {}
  }
}