{
  "contractName": "DSAuth",
  "abi": [
    {
      "constant": true,
      "inputs": [],
      "name": "owner",
      "outputs": [
        {
          "name": "",
          "type": "address"
        }
      ],
      "payable": false,
      "stateMutability": "view",
      "type": "function"
    },
    {
      "constant": true,
      "inputs": [],
      "name": "authority",
      "outputs": [
        {
          "name": "",
          "type": "address"
        }
      ],
      "payable": false,
      "stateMutability": "view",
      "type": "function"
    },
    {
      "inputs": [],
      "payable": false,
      "stateMutability": "nonpayable",
      "type": "constructor"
    },
    {
      "anonymous": false,
      "inputs": [
        {
          "indexed": true,
          "name": "authority",
          "type": "address"
        }
      ],
      "name": "LogSetAuthority",
      "type": "event"
    },
    {
      "anonymous": false,
      "inputs": [
        {
          "indexed": true,
          "name": "owner",
          "type": "address"
        }
      ],
      "name": "LogSetOwner",
      "type": "event"
    },
    {
      "constant": false,
      "inputs": [
        {
          "name": "owner_",
          "type": "address"
        }
      ],
      "name": "setOwner",
      "outputs": [],
      "payable": false,
      "stateMutability": "nonpayable",
      "type": "function"
    },
    {
      "constant": false,
      "inputs": [
        {
          "name": "authority_",
          "type": "address"
        }
      ],
      "name": "setAuthority",
      "outputs": [],
      "payable": false,
      "stateMutability": "nonpayable",
      "type": "function"
    }
  ],
  "bytecode": "0x608060405234801561001057600080fd5b5060018054600160a060020a031916339081179091556040517fce241d7ca1f669fee44b6fc00b8eba2df3bb514eed0f6f668f8f89096e81ed9490600090a26104308061005e6000396000f3fe608060405234801561001057600080fd5b5060043610610068577c0100000000000000000000000000000000000000000000000000000000600035046313af4035811461006d5780637a9e5e4b146100955780638da5cb5b146100bb578063bf7e214f146100df575b600080fd5b6100936004803603602081101561008357600080fd5b5035600160a060020a03166100e7565b005b610093600480360360208110156100ab57600080fd5b5035600160a060020a03166101dc565b6100c36102cd565b60408051600160a060020a039092168252519081900360200190f35b6100c36102dc565b610112336000357bffffffffffffffffffffffffffffffffffffffffffffffffffffffff19166102eb565b151561017f57604080517f08c379a000000000000000000000000000000000000000000000000000000000815260206004820152601d60248201527f4974206d75737420626520616e20617574686f72697a65642063616c6c000000604482015290519081900360640190fd5b6001805473ffffffffffffffffffffffffffffffffffffffff1916600160a060020a0383811691909117918290556040519116907fce241d7ca1f669fee44b6fc00b8eba2df3bb514eed0f6f668f8f89096e81ed9490600090a250565b610207336000357bffffffffffffffffffffffffffffffffffffffffffffffffffffffff19166102eb565b151561027457604080517f08c379a000000000000000000000000000000000000000000000000000000000815260206004820152601d60248201527f4974206d75737420626520616e20617574686f72697a65642063616c6c000000604482015290519081900360640190fd5b6000805473ffffffffffffffffffffffffffffffffffffffff1916600160a060020a03838116919091178083556040519116917f1abebea81bfa2637f28358c371278fb15ede7ea8dd28d2e03b112ff6d936ada491a250565b600154600160a060020a031681565b600054600160a060020a031681565b6000600160a060020a038316301415610306575060016103fe565b600154600160a060020a0384811691161415610324575060016103fe565b600054600160a060020a0316151561033e575060006103fe565b600054604080517fb7009613000000000000000000000000000000000000000000000000000000008152600160a060020a0386811660048301523060248301527bffffffffffffffffffffffffffffffffffffffffffffffffffffffff19861660448301529151919092169163b7009613916064808301926020929190829003018186803b1580156103cf57600080fd5b505afa1580156103e3573d6000803e3d6000fd5b505050506040513d60208110156103f957600080fd5b505190505b9291505056fea165627a7a72305820745f5705c1c471ca4235cec53f04456d61146a97997a315eb998403505727ec50029",
  "source": "pragma solidity ^0.5.2;\n\n\ncontract DSAuthority {\n    function canCall(address src, address dst, bytes4 sig) public view returns (bool);\n}\n\n\ncontract DSAuthEvents {\n    event LogSetAuthority(address indexed authority);\n    event LogSetOwner(address indexed owner);\n}\n\n\ncontract DSAuth is DSAuthEvents {\n    DSAuthority public authority;\n    address public owner;\n\n    constructor() public {\n        owner = msg.sender;\n        emit LogSetOwner(msg.sender);\n    }\n\n    function setOwner(address owner_) public auth {\n        owner = owner_;\n        emit LogSetOwner(owner);\n    }\n\n    function setAuthority(DSAuthority authority_) public auth {\n        authority = authority_;\n        emit LogSetAuthority(address(authority));\n    }\n\n    modifier auth {\n        require(isAuthorized(msg.sender, msg.sig), \"It must be an authorized call\");\n        _;\n    }\n\n    function isAuthorized(address src, bytes4 sig) internal view returns (bool) {\n        if (src == address(this)) {\n            return true;\n        } else if (src == owner) {\n            return true;\n        } else if (authority == DSAuthority(0)) {\n            return false;\n        } else {\n            return authority.canCall(src, address(this), sig);\n        }\n    }\n}\n",
  "sourcePath": "@gnosis.pm/dx-contracts/contracts/Oracle/DSAuth.sol",
  "compiler": {
    "name": "solc",
    "version": "0.5.2+commit.1df8f40c.Emscripten.clang"
  },
  "schemaVersion": "3.0.1",
  "updatedAt": "2019-01-18T08:01:22.349Z",
  "devdoc": {
    "methods": {}
  },
  "userdoc": {
    "methods": {}
  }
}