{
  "contractName": "DSThing",
  "abi": [
    {
      "constant": false,
      "inputs": [
        {
          "name": "owner_",
          "type": "address"
        }
      ],
      "name": "setOwner",
      "outputs": [],
      "payable": false,
      "stateMutability": "nonpayable",
      "type": "function"
    },
    {
      "constant": false,
      "inputs": [
        {
          "name": "authority_",
          "type": "address"
        }
      ],
      "name": "setAuthority",
      "outputs": [],
      "payable": false,
      "stateMutability": "nonpayable",
      "type": "function"
    },
    {
      "constant": true,
      "inputs": [],
      "name": "owner",
      "outputs": [
        {
          "name": "",
          "type": "address"
        }
      ],
      "payable": false,
      "stateMutability": "view",
      "type": "function"
    },
    {
      "constant": true,
      "inputs": [],
      "name": "authority",
      "outputs": [
        {
          "name": "",
          "type": "address"
        }
      ],
      "payable": false,
      "stateMutability": "view",
      "type": "function"
    },
    {
      "anonymous": true,
      "inputs": [
        {
          "indexed": true,
          "name": "sig",
          "type": "bytes4"
        },
        {
          "indexed": true,
          "name": "guy",
          "type": "address"
        },
        {
          "indexed": true,
          "name": "foo",
          "type": "bytes32"
        },
        {
          "indexed": true,
          "name": "bar",
          "type": "bytes32"
        },
        {
          "indexed": false,
          "name": "wad",
          "type": "uint256"
        },
        {
          "indexed": false,
          "name": "fax",
          "type": "bytes"
        }
      ],
      "name": "LogNote",
      "type": "event"
    },
    {
      "anonymous": false,
      "inputs": [
        {
          "indexed": true,
          "name": "authority",
          "type": "address"
        }
      ],
      "name": "LogSetAuthority",
      "type": "event"
    },
    {
      "anonymous": false,
      "inputs": [
        {
          "indexed": true,
          "name": "owner",
          "type": "address"
        }
      ],
      "name": "LogSetOwner",
      "type": "event"
    }
  ],
  "bytecode": "0x6080604081905260018054600160a060020a03191633908117909155907fce241d7ca1f669fee44b6fc00b8eba2df3bb514eed0f6f668f8f89096e81ed9490600090a261043e806100516000396000f3006080604052600436106100615763ffffffff7c010000000000000000000000000000000000000000000000000000000060003504166313af403581146100665780637a9e5e4b146100895780638da5cb5b146100aa578063bf7e214f146100db575b600080fd5b34801561007257600080fd5b50610087600160a060020a03600435166100f0565b005b34801561009557600080fd5b50610087600160a060020a03600435166101e5565b3480156100b657600080fd5b506100bf6102d6565b60408051600160a060020a039092168252519081900360200190f35b3480156100e757600080fd5b506100bf6102e5565b61011b336000357bffffffffffffffffffffffffffffffffffffffffffffffffffffffff19166102f4565b151561018857604080517f08c379a000000000000000000000000000000000000000000000000000000000815260206004820152601d60248201527f4974206d75737420626520616e20617574686f72697a65642063616c6c000000604482015290519081900360640190fd5b6001805473ffffffffffffffffffffffffffffffffffffffff1916600160a060020a0383811691909117918290556040519116907fce241d7ca1f669fee44b6fc00b8eba2df3bb514eed0f6f668f8f89096e81ed9490600090a250565b610210336000357bffffffffffffffffffffffffffffffffffffffffffffffffffffffff19166102f4565b151561027d57604080517f08c379a000000000000000000000000000000000000000000000000000000000815260206004820152601d60248201527f4974206d75737420626520616e20617574686f72697a65642063616c6c000000604482015290519081900360640190fd5b6000805473ffffffffffffffffffffffffffffffffffffffff1916600160a060020a03838116919091178083556040519116917f1abebea81bfa2637f28358c371278fb15ede7ea8dd28d2e03b112ff6d936ada491a250565b600154600160a060020a031681565b600054600160a060020a031681565b6000600160a060020a03831630141561030f5750600161040c565b600154600160a060020a038481169116141561032d5750600161040c565b600054600160a060020a031615156103475750600061040c565b60008054604080517fb7009613000000000000000000000000000000000000000000000000000000008152600160a060020a0387811660048301523060248301527bffffffffffffffffffffffffffffffffffffffffffffffffffffffff19871660448301529151919092169263b700961392606480820193602093909283900390910190829087803b1580156103dd57600080fd5b505af11580156103f1573d6000803e3d6000fd5b505050506040513d602081101561040757600080fd5b505190505b929150505600a165627a7a72305820f74c862ed167ca5a59623698aa8d9fef94647c9d0dd8427421bec134d076b3820029",
  "source": "pragma solidity ^0.4.24;\n\n\nimport \"../Oracle/DSMath.sol\";\nimport \"../Oracle/DSAuth.sol\";\nimport \"../Oracle/DSNote.sol\";\n\n\ncontract DSThing is DSAuth, DSNote, DSMath {\n}",
  "sourcePath": "/mnt/bf1642c6-3903-4bb8-b254-88a427e7ab47/Home/David/Documents/Work/Gnosis/dx-contracts/contracts/Oracle/DSThing.sol",
  "compiler": {
    "name": "solc",
    "version": "0.4.25+commit.59dbf8f1.Emscripten.clang"
  },
  "schemaVersion": "2.0.2",
  "updatedAt": "2019-01-04T11:06:42.145Z"
}