{
  "contractName": "DSThing",
  "abi": [
    {
      "constant": false,
      "inputs": [
        {
          "name": "owner_",
          "type": "address"
        }
      ],
      "name": "setOwner",
      "outputs": [],
      "payable": false,
      "stateMutability": "nonpayable",
      "type": "function"
    },
    {
      "constant": false,
      "inputs": [
        {
          "name": "authority_",
          "type": "address"
        }
      ],
      "name": "setAuthority",
      "outputs": [],
      "payable": false,
      "stateMutability": "nonpayable",
      "type": "function"
    },
    {
      "constant": true,
      "inputs": [],
      "name": "owner",
      "outputs": [
        {
          "name": "",
          "type": "address"
        }
      ],
      "payable": false,
      "stateMutability": "view",
      "type": "function"
    },
    {
      "constant": true,
      "inputs": [],
      "name": "authority",
      "outputs": [
        {
          "name": "",
          "type": "address"
        }
      ],
      "payable": false,
      "stateMutability": "view",
      "type": "function"
    },
    {
      "anonymous": false,
      "inputs": [
        {
          "indexed": true,
          "name": "sig",
          "type": "bytes4"
        },
        {
          "indexed": true,
          "name": "guy",
          "type": "address"
        },
        {
          "indexed": true,
          "name": "foo",
          "type": "bytes32"
        },
        {
          "indexed": false,
          "name": "bar",
          "type": "bytes32"
        },
        {
          "indexed": false,
          "name": "wad",
          "type": "uint256"
        },
        {
          "indexed": false,
          "name": "fax",
          "type": "bytes"
        }
      ],
      "name": "LogNote",
      "type": "event"
    },
    {
      "anonymous": false,
      "inputs": [
        {
          "indexed": true,
          "name": "authority",
          "type": "address"
        }
      ],
      "name": "LogSetAuthority",
      "type": "event"
    },
    {
      "anonymous": false,
      "inputs": [
        {
          "indexed": true,
          "name": "owner",
          "type": "address"
        }
      ],
      "name": "LogSetOwner",
      "type": "event"
    }
  ],
  "bytecode": "0x6080604081905260018054600160a060020a03191633908117909155907fce241d7ca1f669fee44b6fc00b8eba2df3bb514eed0f6f668f8f89096e81ed9490600090a2610430806100516000396000f3fe608060405234801561001057600080fd5b5060043610610068577c0100000000000000000000000000000000000000000000000000000000600035046313af4035811461006d5780637a9e5e4b146100955780638da5cb5b146100bb578063bf7e214f146100df575b600080fd5b6100936004803603602081101561008357600080fd5b5035600160a060020a03166100e7565b005b610093600480360360208110156100ab57600080fd5b5035600160a060020a03166101dc565b6100c36102cd565b60408051600160a060020a039092168252519081900360200190f35b6100c36102dc565b610112336000357bffffffffffffffffffffffffffffffffffffffffffffffffffffffff19166102eb565b151561017f57604080517f08c379a000000000000000000000000000000000000000000000000000000000815260206004820152601d60248201527f4974206d75737420626520616e20617574686f72697a65642063616c6c000000604482015290519081900360640190fd5b6001805473ffffffffffffffffffffffffffffffffffffffff1916600160a060020a0383811691909117918290556040519116907fce241d7ca1f669fee44b6fc00b8eba2df3bb514eed0f6f668f8f89096e81ed9490600090a250565b610207336000357bffffffffffffffffffffffffffffffffffffffffffffffffffffffff19166102eb565b151561027457604080517f08c379a000000000000000000000000000000000000000000000000000000000815260206004820152601d60248201527f4974206d75737420626520616e20617574686f72697a65642063616c6c000000604482015290519081900360640190fd5b6000805473ffffffffffffffffffffffffffffffffffffffff1916600160a060020a03838116919091178083556040519116917f1abebea81bfa2637f28358c371278fb15ede7ea8dd28d2e03b112ff6d936ada491a250565b600154600160a060020a031681565b600054600160a060020a031681565b6000600160a060020a038316301415610306575060016103fe565b600154600160a060020a0384811691161415610324575060016103fe565b600054600160a060020a0316151561033e575060006103fe565b600054604080517fb7009613000000000000000000000000000000000000000000000000000000008152600160a060020a0386811660048301523060248301527bffffffffffffffffffffffffffffffffffffffffffffffffffffffff19861660448301529151919092169163b7009613916064808301926020929190829003018186803b1580156103cf57600080fd5b505afa1580156103e3573d6000803e3d6000fd5b505050506040513d60208110156103f957600080fd5b505190505b9291505056fea165627a7a723058204fc96b0129355bfe7d44721a9f1c276cb19b31049877afb9907fc1196bd61c1d0029",
  "source": "pragma solidity ^0.5.2;\n\nimport \"../Oracle/DSMath.sol\";\nimport \"../Oracle/DSAuth.sol\";\nimport \"../Oracle/DSNote.sol\";\n\n\ncontract DSThing is DSAuth, DSNote, DSMath {}\n",
  "sourcePath": "@gnosis.pm/dx-contracts/contracts/Oracle/DSThing.sol",
  "compiler": {
    "name": "solc",
    "version": "0.5.2+commit.1df8f40c.Emscripten.clang"
  },
  "schemaVersion": "3.0.1",
  "updatedAt": "2019-01-18T08:01:22.355Z",
  "devdoc": {
    "methods": {}
  },
  "userdoc": {
    "methods": {}
  }
}