{
  "contractName": "DSValue",
  "abi": [
    {
      "constant": false,
      "inputs": [
        {
          "name": "owner_",
          "type": "address"
        }
      ],
      "name": "setOwner",
      "outputs": [],
      "payable": false,
      "stateMutability": "nonpayable",
      "type": "function"
    },
    {
      "constant": false,
      "inputs": [
        {
          "name": "authority_",
          "type": "address"
        }
      ],
      "name": "setAuthority",
      "outputs": [],
      "payable": false,
      "stateMutability": "nonpayable",
      "type": "function"
    },
    {
      "constant": true,
      "inputs": [],
      "name": "owner",
      "outputs": [
        {
          "name": "",
          "type": "address"
        }
      ],
      "payable": false,
      "stateMutability": "view",
      "type": "function"
    },
    {
      "constant": true,
      "inputs": [],
      "name": "authority",
      "outputs": [
        {
          "name": "",
          "type": "address"
        }
      ],
      "payable": false,
      "stateMutability": "view",
      "type": "function"
    },
    {
      "anonymous": false,
      "inputs": [
        {
          "indexed": true,
          "name": "sig",
          "type": "bytes4"
        },
        {
          "indexed": true,
          "name": "guy",
          "type": "address"
        },
        {
          "indexed": true,
          "name": "foo",
          "type": "bytes32"
        },
        {
          "indexed": false,
          "name": "bar",
          "type": "bytes32"
        },
        {
          "indexed": false,
          "name": "wad",
          "type": "uint256"
        },
        {
          "indexed": false,
          "name": "fax",
          "type": "bytes"
        }
      ],
      "name": "LogNote",
      "type": "event"
    },
    {
      "anonymous": false,
      "inputs": [
        {
          "indexed": true,
          "name": "authority",
          "type": "address"
        }
      ],
      "name": "LogSetAuthority",
      "type": "event"
    },
    {
      "anonymous": false,
      "inputs": [
        {
          "indexed": true,
          "name": "owner",
          "type": "address"
        }
      ],
      "name": "LogSetOwner",
      "type": "event"
    },
    {
      "constant": true,
      "inputs": [],
      "name": "peek",
      "outputs": [
        {
          "name": "",
          "type": "bytes32"
        },
        {
          "name": "",
          "type": "bool"
        }
      ],
      "payable": false,
      "stateMutability": "view",
      "type": "function"
    },
    {
      "constant": true,
      "inputs": [],
      "name": "read",
      "outputs": [
        {
          "name": "",
          "type": "bytes32"
        }
      ],
      "payable": false,
      "stateMutability": "view",
      "type": "function"
    },
    {
      "constant": false,
      "inputs": [
        {
          "name": "wut",
          "type": "bytes32"
        }
      ],
      "name": "poke",
      "outputs": [],
      "payable": true,
      "stateMutability": "payable",
      "type": "function"
    },
    {
      "constant": false,
      "inputs": [],
      "name": "void",
      "outputs": [],
      "payable": true,
      "stateMutability": "payable",
      "type": "function"
    }
  ],
  "bytecode": "0x6080604081905260018054600160a060020a03191633908117909155907fce241d7ca1f669fee44b6fc00b8eba2df3bb514eed0f6f668f8f89096e81ed9490600090a261075f806100516000396000f3fe608060405260043610610098576000357c0100000000000000000000000000000000000000000000000000000000900480637a9e5e4b1161006b5780637a9e5e4b146101445780638da5cb5b14610177578063ac4c25b2146101a8578063bf7e214f146101b057610098565b806313af40351461009d5780631504460f146100d257806357de26a4146100ef57806359e02dd714610116575b600080fd5b3480156100a957600080fd5b506100d0600480360360208110156100c057600080fd5b5035600160a060020a03166101c5565b005b6100d0600480360360208110156100e857600080fd5b503561027c565b3480156100fb57600080fd5b506101046103c7565b60408051918252519081900360200190f35b34801561012257600080fd5b5061012b6103e7565b6040805192835290151560208301528051918290030190f35b34801561015057600080fd5b506100d06004803603602081101561016757600080fd5b5035600160a060020a031661040d565b34801561018357600080fd5b5061018c6104c0565b60408051600160a060020a039092168252519081900360200190f35b6100d06104cf565b3480156101bc57600080fd5b5061018c610600565b6101db33600035600160e060020a03191661060f565b151561021f576040805160e560020a62461bcd02815260206004820152601d6024820152600080516020610714833981519152604482015290519081900360640190fd5b6001805473ffffffffffffffffffffffffffffffffffffffff1916600160a060020a0383811691909117918290556040519116907fce241d7ca1f669fee44b6fc00b8eba2df3bb514eed0f6f668f8f89096e81ed9490600090a250565b600080600435915060243590508133600160a060020a0316600035600160e060020a0319167bffffffffffffffffffffffffffffffffffffffffffffffffffffffff19167f644843f351d3fba4abcd60109eaff9f54bac8fb8ccf0bab941009c21df21cf31843460003660405180858152602001848152602001806020018281038252848482818152602001925080828437600083820152604051601f909101601f191690920182900397509095505050505050a461034733600035600160e060020a03191661060f565b151561038b576040805160e560020a62461bcd02815260206004820152601d6024820152600080516020610714833981519152604482015290519081900360640190fd5b50506002556001805474ff0000000000000000000000000000000000000000191674010000000000000000000000000000000000000000179055565b60008060006103d46103e7565b915091508015156103e157fe5b50905090565b60025460015460ff74010000000000000000000000000000000000000000909104169091565b61042333600035600160e060020a03191661060f565b1515610467576040805160e560020a62461bcd02815260206004820152601d6024820152600080516020610714833981519152604482015290519081900360640190fd5b6000805473ffffffffffffffffffffffffffffffffffffffff1916600160a060020a03838116919091178083556040519116917f1abebea81bfa2637f28358c371278fb15ede7ea8dd28d2e03b112ff6d936ada491a250565b600154600160a060020a031681565b600080600435915060243590508133600160a060020a0316600035600160e060020a0319167bffffffffffffffffffffffffffffffffffffffffffffffffffffffff19167f644843f351d3fba4abcd60109eaff9f54bac8fb8ccf0bab941009c21df21cf31843460003660405180858152602001848152602001806020018281038252848482818152602001925080828437600083820152604051601f909101601f191690920182900397509095505050505050a461059a33600035600160e060020a03191661060f565b15156105de576040805160e560020a62461bcd02815260206004820152601d6024820152600080516020610714833981519152604482015290519081900360640190fd5b50506001805474ff000000000000000000000000000000000000000019169055565b600054600160a060020a031681565b6000600160a060020a03831630141561062a5750600161070d565b600154600160a060020a03848116911614156106485750600161070d565b600054600160a060020a031615156106625750600061070d565b600054604080517fb7009613000000000000000000000000000000000000000000000000000000008152600160a060020a038681166004830152306024830152600160e060020a0319861660448301529151919092169163b7009613916064808301926020929190829003018186803b1580156106de57600080fd5b505afa1580156106f2573d6000803e3d6000fd5b505050506040513d602081101561070857600080fd5b505190505b9291505056fe4974206d75737420626520616e20617574686f72697a65642063616c6c000000a165627a7a723058207adb7da21bd5dc7e522f0c63f4baa3c9796e85bad487616deb0dcd5f872acc0b0029",
  "source": "pragma solidity ^0.5.2;\n\nimport \"../Oracle/DSThing.sol\";\n\n\ncontract DSValue is DSThing {\n    bool has;\n    bytes32 val;\n    function peek() public view returns (bytes32, bool) {\n        return (val, has);\n    }\n\n    function read() public view returns (bytes32) {\n        (bytes32 wut, bool _has) = peek();\n        assert(_has);\n        return wut;\n    }\n\n    function poke(bytes32 wut) public payable note auth {\n        val = wut;\n        has = true;\n    }\n\n    function void() public payable note auth {\n        // unset the value\n        has = false;\n    }\n}\n",
  "sourcePath": "@gnosis.pm/dx-contracts/contracts/Oracle/DSValue.sol",
  "compiler": {
    "name": "solc",
    "version": "0.5.2+commit.1df8f40c.Emscripten.clang"
  },
  "schemaVersion": "3.0.1",
  "updatedAt": "2019-01-18T08:01:22.355Z",
  "devdoc": {
    "methods": {}
  },
  "userdoc": {
    "methods": {}
  }
}