{
  "contractName": "DSValue",
  "abi": [
    {
      "constant": false,
      "inputs": [
        {
          "name": "owner_",
          "type": "address"
        }
      ],
      "name": "setOwner",
      "outputs": [],
      "payable": false,
      "stateMutability": "nonpayable",
      "type": "function"
    },
    {
      "constant": false,
      "inputs": [
        {
          "name": "authority_",
          "type": "address"
        }
      ],
      "name": "setAuthority",
      "outputs": [],
      "payable": false,
      "stateMutability": "nonpayable",
      "type": "function"
    },
    {
      "constant": true,
      "inputs": [],
      "name": "owner",
      "outputs": [
        {
          "name": "",
          "type": "address"
        }
      ],
      "payable": false,
      "stateMutability": "view",
      "type": "function"
    },
    {
      "constant": true,
      "inputs": [],
      "name": "authority",
      "outputs": [
        {
          "name": "",
          "type": "address"
        }
      ],
      "payable": false,
      "stateMutability": "view",
      "type": "function"
    },
    {
      "anonymous": true,
      "inputs": [
        {
          "indexed": true,
          "name": "sig",
          "type": "bytes4"
        },
        {
          "indexed": true,
          "name": "guy",
          "type": "address"
        },
        {
          "indexed": true,
          "name": "foo",
          "type": "bytes32"
        },
        {
          "indexed": true,
          "name": "bar",
          "type": "bytes32"
        },
        {
          "indexed": false,
          "name": "wad",
          "type": "uint256"
        },
        {
          "indexed": false,
          "name": "fax",
          "type": "bytes"
        }
      ],
      "name": "LogNote",
      "type": "event"
    },
    {
      "anonymous": false,
      "inputs": [
        {
          "indexed": true,
          "name": "authority",
          "type": "address"
        }
      ],
      "name": "LogSetAuthority",
      "type": "event"
    },
    {
      "anonymous": false,
      "inputs": [
        {
          "indexed": true,
          "name": "owner",
          "type": "address"
        }
      ],
      "name": "LogSetOwner",
      "type": "event"
    },
    {
      "constant": true,
      "inputs": [],
      "name": "peek",
      "outputs": [
        {
          "name": "",
          "type": "bytes32"
        },
        {
          "name": "",
          "type": "bool"
        }
      ],
      "payable": false,
      "stateMutability": "view",
      "type": "function"
    },
    {
      "constant": true,
      "inputs": [],
      "name": "read",
      "outputs": [
        {
          "name": "",
          "type": "bytes32"
        }
      ],
      "payable": false,
      "stateMutability": "view",
      "type": "function"
    },
    {
      "constant": false,
      "inputs": [
        {
          "name": "wut",
          "type": "bytes32"
        }
      ],
      "name": "poke",
      "outputs": [],
      "payable": false,
      "stateMutability": "nonpayable",
      "type": "function"
    },
    {
      "constant": false,
      "inputs": [],
      "name": "void",
      "outputs": [],
      "payable": false,
      "stateMutability": "nonpayable",
      "type": "function"
    }
  ],
  "bytecode": "0x6080604081905260018054600160a060020a03191633908117909155907fce241d7ca1f669fee44b6fc00b8eba2df3bb514eed0f6f668f8f89096e81ed9490600090a2610675806100516000396000f30060806040526004361061008d5763ffffffff7c010000000000000000000000000000000000000000000000000000000060003504166313af403581146100925780631504460f146100b557806357de26a4146100cd57806359e02dd7146100f45780637a9e5e4b146101225780638da5cb5b14610143578063ac4c25b214610174578063bf7e214f14610189575b600080fd5b34801561009e57600080fd5b506100b3600160a060020a036004351661019e565b005b3480156100c157600080fd5b506100b3600435610255565b3480156100d957600080fd5b506100e261033c565b60408051918252519081900360200190f35b34801561010057600080fd5b5061010961035c565b6040805192835290151560208301528051918290030190f35b34801561012e57600080fd5b506100b3600160a060020a0360043516610382565b34801561014f57600080fd5b50610158610435565b60408051600160a060020a039092168252519081900360200190f35b34801561018057600080fd5b506100b3610444565b34801561019557600080fd5b50610158610511565b6101b433600035600160e060020a031916610520565b15156101f8576040805160e560020a62461bcd02815260206004820152601d602482015260008051602061062a833981519152604482015290519081900360640190fd5b6001805473ffffffffffffffffffffffffffffffffffffffff1916600160a060020a0383811691909117918290556040519116907fce241d7ca1f669fee44b6fc00b8eba2df3bb514eed0f6f668f8f89096e81ed9490600090a250565b60408051348082526020820183815236938301849052600435936024359384938693339360008035600160e060020a031916949092606082018484808284376040519201829003965090945050505050a46102bc33600035600160e060020a031916610520565b1515610300576040805160e560020a62461bcd02815260206004820152601d602482015260008051602061062a833981519152604482015290519081900360640190fd5b50506002556001805474ff0000000000000000000000000000000000000000191674010000000000000000000000000000000000000000179055565b600080600061034961035c565b9150915080151561035657fe5b50919050565b60025460015460ff74010000000000000000000000000000000000000000909104169091565b61039833600035600160e060020a031916610520565b15156103dc576040805160e560020a62461bcd02815260206004820152601d602482015260008051602061062a833981519152604482015290519081900360640190fd5b6000805473ffffffffffffffffffffffffffffffffffffffff1916600160a060020a03838116919091178083556040519116917f1abebea81bfa2637f28358c371278fb15ede7ea8dd28d2e03b112ff6d936ada491a250565b600154600160a060020a031681565b60408051348082526020820183815236938301849052600435936024359384938693339360008035600160e060020a031916949092606082018484808284376040519201829003965090945050505050a46104ab33600035600160e060020a031916610520565b15156104ef576040805160e560020a62461bcd02815260206004820152601d602482015260008051602061062a833981519152604482015290519081900360640190fd5b50506001805474ff000000000000000000000000000000000000000019169055565b600054600160a060020a031681565b6000600160a060020a03831630141561053b57506001610623565b600154600160a060020a038481169116141561055957506001610623565b600054600160a060020a0316151561057357506000610623565b60008054604080517fb7009613000000000000000000000000000000000000000000000000000000008152600160a060020a038781166004830152306024830152600160e060020a0319871660448301529151919092169263b700961392606480820193602093909283900390910190829087803b1580156105f457600080fd5b505af1158015610608573d6000803e3d6000fd5b505050506040513d602081101561061e57600080fd5b505190505b9291505056004974206d75737420626520616e20617574686f72697a65642063616c6c000000a165627a7a72305820e239affd695b39f933d4e90c270473f66396af9f78083e5f69f24dd08318ca400029",
  "source": "pragma solidity ^0.4.24;\n\nimport \"../Oracle/DSThing.sol\";\n\ncontract DSValue is DSThing {\n    bool    has;\n    bytes32 val;\n    function peek() public view returns (bytes32, bool) {\n        return (val, has);\n    }\n    function read() public view returns (bytes32) {\n        (bytes32 wut, bool _has) = peek();\n        assert(_has);\n        return wut;\n    }\n    function poke(bytes32 wut) public note auth {\n        val = wut;\n        has = true;\n    }\n    function void() public note auth { // unset the value\n        has = false;\n    }\n}",
  "sourcePath": "/mnt/bf1642c6-3903-4bb8-b254-88a427e7ab47/Home/David/Documents/Work/Gnosis/dx-contracts/contracts/Oracle/DSValue.sol",
  "compiler": {
    "name": "solc",
    "version": "0.4.25+commit.59dbf8f1.Emscripten.clang"
  },
  "schemaVersion": "2.0.2",
  "updatedAt": "2019-01-04T11:06:42.151Z"
}