{
  "contractName": "DutchXPriceOracle",
  "abi": [
    {
      "constant": true,
      "inputs": [],
      "name": "dutchX",
      "outputs": [
        {
          "name": "",
          "type": "address"
        }
      ],
      "payable": false,
      "stateMutability": "view",
      "type": "function"
    },
    {
      "constant": true,
      "inputs": [],
      "name": "ethToken",
      "outputs": [
        {
          "name": "",
          "type": "address"
        }
      ],
      "payable": false,
      "stateMutability": "view",
      "type": "function"
    },
    {
      "inputs": [
        {
          "name": "_dutchX",
          "type": "address"
        },
        {
          "name": "_ethToken",
          "type": "address"
        }
      ],
      "payable": false,
      "stateMutability": "nonpayable",
      "type": "constructor"
    },
    {
      "constant": true,
      "inputs": [
        {
          "name": "token",
          "type": "address"
        }
      ],
      "name": "getPrice",
      "outputs": [
        {
          "name": "num",
          "type": "uint256"
        },
        {
          "name": "den",
          "type": "uint256"
        }
      ],
      "payable": false,
      "stateMutability": "view",
      "type": "function"
    },
    {
      "constant": true,
      "inputs": [
        {
          "name": "token",
          "type": "address"
        },
        {
          "name": "time",
          "type": "uint256"
        },
        {
          "name": "requireWhitelisted",
          "type": "bool"
        },
        {
          "name": "maximumTimePeriod",
          "type": "uint256"
        },
        {
          "name": "numberOfAuctions",
          "type": "uint256"
        }
      ],
      "name": "getPriceCustom",
      "outputs": [
        {
          "name": "num",
          "type": "uint256"
        },
        {
          "name": "den",
          "type": "uint256"
        }
      ],
      "payable": false,
      "stateMutability": "view",
      "type": "function"
    },
    {
      "constant": true,
      "inputs": [
        {
          "name": "token",
          "type": "address"
        },
        {
          "name": "numberOfAuctions",
          "type": "uint256"
        },
        {
          "name": "auctionIndex",
          "type": "uint256"
        }
      ],
      "name": "getPricesAndMedian",
      "outputs": [
        {
          "name": "",
          "type": "uint256"
        },
        {
          "name": "",
          "type": "uint256"
        }
      ],
      "payable": false,
      "stateMutability": "view",
      "type": "function"
    },
    {
      "constant": true,
      "inputs": [
        {
          "name": "token",
          "type": "address"
        },
        {
          "name": "lowerBound",
          "type": "uint256"
        },
        {
          "name": "initialUpperBound",
          "type": "uint256"
        },
        {
          "name": "upperBound",
          "type": "uint256"
        },
        {
          "name": "time",
          "type": "uint256"
        }
      ],
      "name": "computeAuctionIndex",
      "outputs": [
        {
          "name": "",
          "type": "uint256"
        }
      ],
      "payable": false,
      "stateMutability": "view",
      "type": "function"
    },
    {
      "constant": true,
      "inputs": [
        {
          "name": "num1",
          "type": "uint256"
        },
        {
          "name": "den1",
          "type": "uint256"
        },
        {
          "name": "num2",
          "type": "uint256"
        },
        {
          "name": "den2",
          "type": "uint256"
        }
      ],
      "name": "isSmaller",
      "outputs": [
        {
          "name": "",
          "type": "bool"
        }
      ],
      "payable": false,
      "stateMutability": "pure",
      "type": "function"
    },
    {
      "constant": true,
      "inputs": [
        {
          "name": "token",
          "type": "address"
        }
      ],
      "name": "isWhitelisted",
      "outputs": [
        {
          "name": "",
          "type": "bool"
        }
      ],
      "payable": false,
      "stateMutability": "view",
      "type": "function"
    }
  ],
  "bytecode": "0x608060405234801561001057600080fd5b506040516040806113178339810180604052604081101561003057600080fd5b810190808051906020019092919080519060200190929190505050816000806101000a81548173ffffffffffffffffffffffffffffffffffffffff021916908373ffffffffffffffffffffffffffffffffffffffff16021790555080600160006101000a81548173ffffffffffffffffffffffffffffffffffffffff021916908373ffffffffffffffffffffffffffffffffffffffff160217905550505061123a806100dd6000396000f3fe608060405260043610610088576000357c01000000000000000000000000000000000000000000000000000000009004806325071db01461008d57806331f2f705146100e45780633af32abf1461016457806341976e09146101cd5780634440fd97146102395780637bf1a627146102cf5780637cd484e214610326578063969d6e3c14610397575b600080fd5b34801561009957600080fd5b506100a2610424565b604051808273ffffffffffffffffffffffffffffffffffffffff1673ffffffffffffffffffffffffffffffffffffffff16815260200191505060405180910390f35b3480156100f057600080fd5b506101476004803603606081101561010757600080fd5b81019080803573ffffffffffffffffffffffffffffffffffffffff1690602001909291908035906020019092919080359060200190929190505050610449565b604051808381526020018281526020019250505060405180910390f35b34801561017057600080fd5b506101b36004803603602081101561018757600080fd5b81019080803573ffffffffffffffffffffffffffffffffffffffff16906020019092919050505061089c565b604051808215151515815260200191505060405180910390f35b3480156101d957600080fd5b5061021c600480360360208110156101f057600080fd5b81019080803573ffffffffffffffffffffffffffffffffffffffff16906020019092919050505061099a565b604051808381526020018281526020019250505060405180910390f35b34801561024557600080fd5b506102b2600480360360a081101561025c57600080fd5b81019080803573ffffffffffffffffffffffffffffffffffffffff1690602001909291908035906020019092919080351515906020019092919080359060200190929190803590602001909291905050506109bd565b604051808381526020018281526020019250505060405180910390f35b3480156102db57600080fd5b506102e4610cbe565b604051808273ffffffffffffffffffffffffffffffffffffffff1673ffffffffffffffffffffffffffffffffffffffff16815260200191505060405180910390f35b34801561033257600080fd5b5061037d6004803603608081101561034957600080fd5b8101908080359060200190929190803590602001909291908035906020019092919080359060200190929190505050610ce4565b604051808215151515815260200191505060405180910390f35b3480156103a357600080fd5b5061040e600480360360a08110156103ba57600080fd5b81019080803573ffffffffffffffffffffffffffffffffffffffff16906020019092919080359060200190929190803590602001909291908035906020019092919080359060200190929190505050610cf7565b6040518082815260200191505060405180910390f35b6000809054906101000a900473ffffffffffffffffffffffffffffffffffffffff1681565b60008060608460405190808252806020026020018201604052801561047d5781602001602082028038833980820191505090505b5090506060856040519080825280602002602001820160405280156104b15781602001602082028038833980820191505090505b5090506060866040519080825280602002602001820160405280156104e55781602001602082028038833980820191505090505b509050600080600090505b88811015610810576000806000809054906101000a900473ffffffffffffffffffffffffffffffffffffffff1673ffffffffffffffffffffffffffffffffffffffff16634bf8e7a28d600160009054906101000a900473ffffffffffffffffffffffffffffffffffffffff168660018f03036040518463ffffffff167c0100000000000000000000000000000000000000000000000000000000028152600401808473ffffffffffffffffffffffffffffffffffffffff1673ffffffffffffffffffffffffffffffffffffffff1681526020018373ffffffffffffffffffffffffffffffffffffffff1673ffffffffffffffffffffffffffffffffffffffff1681526020018281526020019350505050604080518083038186803b15801561061757600080fd5b505afa15801561062b573d6000803e3d6000fd5b505050506040513d604081101561064157600080fd5b810190808051906020019092919080519060200190929190505050915091508181888581518110151561067057fe5b906020019060200201888681518110151561068757fe5b9060200190602002018281525082815250505060008086868151811015156106ab57fe5b90602001906020020151905060008090505b858110156107fe576106ff85858c858151811015156106d857fe5b906020019060200201518c868151811015156106f057fe5b90602001906020020151610ce4565b1561076f5781888781518110151561071357fe5b9060200190602002018181525050600081141561074c5785888881518110151561073957fe5b906020019060200201818152505061076a565b85888481518110151561075b57fe5b90602001906020020181815250505b6107fe565b600186038114156107d357878781518110151561078857fe5b9060200190602002015188878151811015156107a057fe5b90602001906020020181815250508588838151811015156107bd57fe5b90602001906020020181815250508596506107f1565b81925087828151811015156107e457fe5b9060200190602002015191505b80806001019150506106bd565b505050505080806001019150506104f0565b50600081905060008090505b600260018b0181151561082b57fe5b0481101561085a57838281518110151561084157fe5b906020019060200201519150808060010191505061081c565b50848181518110151561086957fe5b90602001906020020151848281518110151561088157fe5b90602001906020020151965096505050505050935093915050565b60008060009054906101000a900473ffffffffffffffffffffffffffffffffffffffff1673ffffffffffffffffffffffffffffffffffffffff16636d1ea3fa836040518263ffffffff167c0100000000000000000000000000000000000000000000000000000000028152600401808273ffffffffffffffffffffffffffffffffffffffff1673ffffffffffffffffffffffffffffffffffffffff16815260200191505060206040518083038186803b15801561095857600080fd5b505afa15801561096c573d6000803e3d6000fd5b505050506040513d602081101561098257600080fd5b81019080805190602001909291905050509050919050565b6000806109b083600060016205eec060096109bd565b8092508193505050915091565b6000806000600160009054906101000a900473ffffffffffffffffffffffffffffffffffffffff1690506000806000809054906101000a900473ffffffffffffffffffffffffffffffffffffffff1673ffffffffffffffffffffffffffffffffffffffff166314584a9d8b856040518363ffffffff167c0100000000000000000000000000000000000000000000000000000000028152600401808373ffffffffffffffffffffffffffffffffffffffff1673ffffffffffffffffffffffffffffffffffffffff1681526020018273ffffffffffffffffffffffffffffffffffffffff1673ffffffffffffffffffffffffffffffffffffffff1681526020019250505060206040518083038186803b158015610ad857600080fd5b505afa158015610aec573d6000803e3d6000fd5b505050506040513d6020811015610b0257600080fd5b810190808051906020019092919050505090506000891415610b2957809150429850610b42565b6001610b3e8b6001808503600186038e610cf7565b0191505b60008060009054906101000a900473ffffffffffffffffffffffffffffffffffffffff1673ffffffffffffffffffffffffffffffffffffffff16637420a32f8c8660018b8803036040518463ffffffff167c0100000000000000000000000000000000000000000000000000000000028152600401808473ffffffffffffffffffffffffffffffffffffffff1673ffffffffffffffffffffffffffffffffffffffff1681526020018373ffffffffffffffffffffffffffffffffffffffff1673ffffffffffffffffffffffffffffffffffffffff168152602001828152602001935050505060206040518083038186803b158015610c3f57600080fd5b505afa158015610c53573d6000803e3d6000fd5b505050506040513d6020811015610c6957600080fd5b8101908080519060200190929190505050905087818b031115610c9c576000808191508090509550955050505050610cb4565b610ca78b8885610449565b8096508197505050505050505b9550959350505050565b600160009054906101000a900473ffffffffffffffffffffffffffffffffffffffff1681565b6000838302828602109050949350505050565b6000806001868503141561105b57600186111515610edb576000809054906101000a900473ffffffffffffffffffffffffffffffffffffffff1673ffffffffffffffffffffffffffffffffffffffff16637420a32f88600160009054906101000a900473ffffffffffffffffffffffffffffffffffffffff16896040518463ffffffff167c0100000000000000000000000000000000000000000000000000000000028152600401808473ffffffffffffffffffffffffffffffffffffffff1673ffffffffffffffffffffffffffffffffffffffff1681526020018373ffffffffffffffffffffffffffffffffffffffff1673ffffffffffffffffffffffffffffffffffffffff168152602001828152602001935050505060206040518083038186803b158015610e2757600080fd5b505afa158015610e3b573d6000803e3d6000fd5b505050506040513d6020811015610e5157600080fd5b8101908080519060200190929190505050905080831015610eda576040517f08c379a000000000000000000000000000000000000000000000000000000000815260040180806020018281038252600e8152602001807f74696d6520746f6f20736d616c6c00000000000000000000000000000000000081525060200191505060405180910390fd5b5b84841415611052576000809054906101000a900473ffffffffffffffffffffffffffffffffffffffff1673ffffffffffffffffffffffffffffffffffffffff16637420a32f88600160009054906101000a900473ffffffffffffffffffffffffffffffffffffffff16876040518463ffffffff167c0100000000000000000000000000000000000000000000000000000000028152600401808473ffffffffffffffffffffffffffffffffffffffff1673ffffffffffffffffffffffffffffffffffffffff1681526020018373ffffffffffffffffffffffffffffffffffffffff1673ffffffffffffffffffffffffffffffffffffffff168152602001828152602001935050505060206040518083038186803b158015610ffb57600080fd5b505afa15801561100f573d6000803e3d6000fd5b505050506040513d602081101561102557600080fd5b81019080805190602001909291905050509050808310156110495785915050611205565b83915050611205565b85915050611205565b6000600285880181151561106b57fe5b0490506000809054906101000a900473ffffffffffffffffffffffffffffffffffffffff1673ffffffffffffffffffffffffffffffffffffffff16637420a32f89600160009054906101000a900473ffffffffffffffffffffffffffffffffffffffff16846040518463ffffffff167c0100000000000000000000000000000000000000000000000000000000028152600401808473ffffffffffffffffffffffffffffffffffffffff1673ffffffffffffffffffffffffffffffffffffffff1681526020018373ffffffffffffffffffffffffffffffffffffffff1673ffffffffffffffffffffffffffffffffffffffff168152602001828152602001935050505060206040518083038186803b15801561118657600080fd5b505afa15801561119a573d6000803e3d6000fd5b505050506040513d60208110156111b057600080fd5b81019080805190602001909291905050509150818410156111e1576111d88888888488610cf7565b92505050611205565b818414156111f3578092505050611205565b6112008882888888610cf7565b925050505b9594505050505056fea165627a7a72305820ab926cb64a2e953879037b05a2f63ec2ccfe68a0752471339f05c7024aa590e90029",
  "source": "pragma solidity ^0.5.0;\n\ninterface DutchX {\n    // TODO\n\n    function approvedTokens(address)\n        external\n        view\n        returns (bool);\n\n    function getAuctionIndex(\n        address token1,\n        address token2\n    )\n        external\n        view\n        returns (uint auctionIndex);\n\n    function getClearingTime(\n        address token1,\n        address token2,\n        uint auctionIndex\n    )\n        external\n        view\n        returns (uint time);\n\n    function getPriceInPastAuction(\n        address token1,\n        address token2,\n        uint auctionIndex\n    )\n        external\n        view\n        // price < 10^31\n        returns (uint num, uint den);\n}\n\n/// @title A contract that uses the DutchX platform to provide a reliable price oracle for any token traded on the DutchX\n/// @author Dominik Teiml - dominik@gnosis.pm\n\ncontract DutchXPriceOracle {\n\n    DutchX public dutchX;\n    address public ethToken;\n    \n    /// @notice constructor takes DutchX proxy address and WETH token address\n    /// @param _dutchX address of DutchX proxy\n    /// @param _ethToken address of WETH token\n    constructor(DutchX _dutchX, address _ethToken)\n        public\n    {\n        dutchX = _dutchX;\n        ethToken = _ethToken;\n    }\n\n    /// @notice Get price, in ETH, of an ERC-20 token `token.address()`\n    /// @param token address of ERC-20 token in question\n    /// @return The numerator of the price of the token\n    /// @return The denominator of the price of the token\n    function getPrice(address token)\n        public\n        view\n        returns (uint num, uint den)\n    {\n        (num, den) = getPriceCustom(token, 0, true, 4.5 days, 9);\n    }\n\n    /// @dev More fine-grained price oracle for token `token.address()`\n    /// @param token address of ERC-20 token in question\n    /// @param time 0 for current price, a Unix timestamp for a price at any point in time\n    /// @param requireWhitelisted Require the token be whitelisted on the DutchX? (Unwhitelisted addresses might not conform to the ERC-20 standard and/or might be malicious)\n    /// @param maximumTimePeriod maximum time period between clearing time of last auction and `time`\n    /// @param numberOfAuctions how many auctions to consider\n    /// @return The numerator of the price of the token\n    /// @return The denominator of the price of the token\n    function getPriceCustom(\n        address token,\n        uint time,\n        bool requireWhitelisted,\n        uint maximumTimePeriod,\n        uint numberOfAuctions\n    )\n        public\n        view\n        returns (uint num, uint den)\n    {\n        // // Whitelist check\n        // if (requireWhitelisted && !isWhitelisted(token)) {\n        //     return (0, 0);\n        // }\n\n        address ethTokenMem = ethToken;\n\n        uint auctionIndex;\n        uint latestAuctionIndex = dutchX.getAuctionIndex(token, ethTokenMem);\n\n        if (time == 0) {\n            auctionIndex = latestAuctionIndex;\n            time = now;\n        } else {\n            // We need to add one at the end, because the way getPricesAndMedian works, it starts from \n            // the previous auction (see below for why it does that)\n            auctionIndex = computeAuctionIndex(token, 1, \n                latestAuctionIndex - 1, latestAuctionIndex - 1, time) + 1;\n        }\n\n        // Activity check\n        uint clearingTime = dutchX.getClearingTime(token, ethTokenMem, auctionIndex - numberOfAuctions - 1);\n\n        if (time - clearingTime > maximumTimePeriod) {\n            return (0, 0);\n        } else {\n            (num, den) = getPricesAndMedian(token, numberOfAuctions, auctionIndex);\n        }\n    }\n\n    /// @notice gets prices, starting \n    /// @dev search starts at auctionIndex - 1. The reason for this is we expect the most common use case to be the latest auction index and for that the clearingTime is not available yet. So we need to start at the one before\n    /// @param token address of ERC-20 token in question\n    /// @param numberOfAuctions how many auctions to consider\n    /// @param auctionIndex search will begin at auctionIndex - 1\n    /// @return The numerator of the price of the token\n    /// @return The denominator of the price of the token\n    function getPricesAndMedian(\n        address token,\n        uint numberOfAuctions,\n        uint auctionIndex\n    )\n        public\n        view\n        returns (uint, uint)\n    {\n        // This function repeatedly calls dutchX.getPriceInPastAuction (which is a weighted average of the two closing prices for one auction pair) and saves them in nums[] and dens[]\n        // It keeps a linked list of indices of the sorted prices so that there is no array shifting\n        // Whenever a new price is added, we traverse the indices until we find a smaller price\n        // then we update the linked list in O(1)\n        // (It could be viewed as a linked list version of insertion sort)\n\n        uint[] memory nums = new uint[](numberOfAuctions);\n        uint[] memory dens = new uint[](numberOfAuctions);\n        uint[] memory linkedListOfIndices = new uint[](numberOfAuctions);\n        uint indexOfSmallest;\n\n        for (uint i = 0; i < numberOfAuctions; i++) {\n            // Loop begins by calling auctionIndex - 1 and ends by calling auctionIndex - numberOfAcutions\n            // That gives numberOfAuctions calls\n            (uint num, uint den) = dutchX.getPriceInPastAuction(token, ethToken, auctionIndex - 1 - i);\n\n            (nums[i], dens[i]) = (num, den);\n\n            // We begin by comparing latest price to smallest price\n            // Smallest price is given by prices[linkedListOfIndices.indexOfLargest]\n            uint previousIndex;\n            uint index = linkedListOfIndices[indexOfSmallest];\n\n            for (uint j = 0; j < i; j++) {\n                if (isSmaller(num, den, nums[index], dens[index])) {\n\n                    // Update new term to point to next term\n                    linkedListOfIndices[i] = index;\n\n                    if (j == 0) {\n                        // Loop is at first iteration\n                        linkedListOfIndices[indexOfSmallest] = i;\n                    } else {\n                        // Update current term to point to new term\n                        // Current term is given by \n                        linkedListOfIndices[previousIndex] = i;\n                    }\n\n                    break;\n                }\n\n                if (j == i - 1) {\n                    // Loop is at last iteration\n                    linkedListOfIndices[i] = linkedListOfIndices[indexOfSmallest];\n                    linkedListOfIndices[index] = i;\n                    indexOfSmallest = i;\n                } else {\n                    // Nothing happened, update temp vars and run body again\n                    previousIndex = index;\n                    index = linkedListOfIndices[index];\n                }\n            }\n        }\n\n        // Array is fully sorted\n\n        uint index = indexOfSmallest;\n\n        // Traverse array to find median\n        for (uint i = 0; i < (numberOfAuctions + 1) / 2; i++) {\n            index = linkedListOfIndices[index];\n        }\n\n        // We return floor-of-half value, because if we computed arithmetic average\n        // between two middle values, the order of the numbers would increase\n        return (nums[index], dens[index]);\n    }\n\n    /// @dev compute largest auctionIndex with clearing time smaller than desired time. Use case: user provides a time and this function will find the largest auctionIndex that had a cleared auction before that time. It is used to get historical price oracle values\n    /// @param token address of ERC-20 token in question\n    /// @param lowerBound lowerBound of result. Recommended that it is > 0, because 0th price is set by whoever adds token pair\n    /// @param initialUpperBound initial upper bound when this recursive fn is called for the first time\n    /// @param upperBound current upper bound of result\n    /// @param time desired time\n    /// @return largest auctionIndex s.t. clearingTime[auctionIndex] <= time\n    function computeAuctionIndex(\n        address token,\n        uint lowerBound, \n        uint initialUpperBound,\n        uint upperBound,\n        uint time\n    )\n        public\n        view\n        returns (uint)\n    {\n        // computeAuctionIndex works by recursively lowering lower and upperBound\n        // The result begins in [lowerBound, upperBound] (invariant)\n        // If we never decrease the upperBound, it will stay in that range\n        // If we ever decrease it, the result will be in [lowerBound, upperBound - 1]\n\n        uint clearingTime;\n\n        if (upperBound - lowerBound == 1) {\n            // Recursion base case\n\n            if (lowerBound <= 1) {\n                clearingTime = dutchX.getClearingTime(token, ethToken, lowerBound); \n\n                if (time < clearingTime) {\n                    revert(\"time too small\");\n                }\n            }\n\n            if (upperBound == initialUpperBound) {\n                clearingTime = dutchX.getClearingTime(token, ethToken, upperBound);\n\n                if (time < clearingTime) {\n                    return lowerBound;\n                } else {\n                    // Can only happen if answer is initialUpperBound\n                    return upperBound;\n                }            \n            } else {\n                // In most cases, we'll have bounds [loweBound, loweBound + 1), which results in lowerBound\n                return lowerBound;\n            }\n        }\n\n        uint mid = (lowerBound + upperBound) / 2;\n        clearingTime = dutchX.getClearingTime(token, ethToken, mid);\n\n        if (time < clearingTime) {\n            // Answer is in lower half\n            return computeAuctionIndex(token, lowerBound, initialUpperBound, mid, time);\n        } else if (time == clearingTime) {\n            // We found answer\n            return mid;\n        } else {\n            // Answer is in upper half\n            return computeAuctionIndex(token, mid, initialUpperBound, upperBound, time);\n        }\n    }\n\n    /// @notice compares two fractions and returns if first is smaller\n    /// @param num1 Numerator of first fraction\n    /// @param den1 Denominator of first fraction\n    /// @param num2 Numerator of second fraction\n    /// @param den2 Denominator of second fraction\n    /// @return bool - whether first fraction is (strictly) smaller than second\n    function isSmaller(uint num1, uint den1, uint num2, uint den2)\n        public\n        pure\n        returns (bool)\n    {\n        return (num1 * den2 < num2 * den1);\n    }\n\n    /// @notice determines whether token has been approved (whitelisted) on DutchX\n    /// @param token address of ERC-20 token in question\n    /// @return bool - whether token has been approved (whitelisted)\n    function isWhitelisted(address token) \n        public\n        view\n        returns (bool) \n    {\n        return dutchX.approvedTokens(token);\n    }\n}",
  "sourcePath": "/Users/dteiml/bc/dx-price-oracle/contracts/DutchXPriceOracle.sol",
  "compiler": {
    "name": "solc",
    "version": "0.5.1+commit.c8a2cb62.Emscripten.clang"
  },
  "schemaVersion": "3.0.0-beta.2",
  "updatedAt": "2019-01-12T12:26:31.626Z",
  "devdoc": {
    "author": "Dominik Teiml - dominik@gnosis.pm",
    "methods": {
      "computeAuctionIndex(address,uint256,uint256,uint256,uint256)": {
        "details": "compute largest auctionIndex with clearing time smaller than desired time. Use case: user provides a time and this function will find the largest auctionIndex that had a cleared auction before that time. It is used to get historical price oracle values",
        "params": {
          "initialUpperBound": "initial upper bound when this recursive fn is called for the first time",
          "lowerBound": "lowerBound of result. Recommended that it is > 0, because 0th price is set by whoever adds token pair",
          "time": "desired time",
          "token": "address of ERC-20 token in question",
          "upperBound": "current upper bound of result"
        },
        "return": "largest auctionIndex s.t. clearingTime[auctionIndex] <= time"
      },
      "constructor": {
        "params": {
          "_dutchX": "address of DutchX proxy",
          "_ethToken": "address of WETH token"
        }
      },
      "getPrice(address)": {
        "params": {
          "token": "address of ERC-20 token in question"
        },
        "return": "The numerator of the price of the tokenThe denominator of the price of the token"
      },
      "getPriceCustom(address,uint256,bool,uint256,uint256)": {
        "details": "More fine-grained price oracle for token `token.address()`",
        "params": {
          "maximumTimePeriod": "maximum time period between clearing time of last auction and `time`",
          "numberOfAuctions": "how many auctions to consider",
          "requireWhitelisted": "Require the token be whitelisted on the DutchX? (Unwhitelisted addresses might not conform to the ERC-20 standard and/or might be malicious)",
          "time": "0 for current price, a Unix timestamp for a price at any point in time",
          "token": "address of ERC-20 token in question"
        },
        "return": "The numerator of the price of the tokenThe denominator of the price of the token"
      },
      "getPricesAndMedian(address,uint256,uint256)": {
        "details": "search starts at auctionIndex - 1. The reason for this is we expect the most common use case to be the latest auction index and for that the clearingTime is not available yet. So we need to start at the one before",
        "params": {
          "auctionIndex": "search will begin at auctionIndex - 1",
          "numberOfAuctions": "how many auctions to consider",
          "token": "address of ERC-20 token in question"
        },
        "return": "The numerator of the price of the tokenThe denominator of the price of the token"
      },
      "isSmaller(uint256,uint256,uint256,uint256)": {
        "params": {
          "den1": "Denominator of first fraction",
          "den2": "Denominator of second fraction",
          "num1": "Numerator of first fraction",
          "num2": "Numerator of second fraction"
        },
        "return": "bool - whether first fraction is (strictly) smaller than second"
      },
      "isWhitelisted(address)": {
        "params": {
          "token": "address of ERC-20 token in question"
        },
        "return": "bool - whether token has been approved (whitelisted)"
      }
    },
    "title": "A contract that uses the DutchX platform to provide a reliable price oracle for any token traded on the DutchX"
  },
  "userdoc": {
    "methods": {
      "constructor": "constructor takes DutchX proxy address and WETH token address",
      "getPrice(address)": {
        "notice": "Get price, in ETH, of an ERC-20 token `token.address()`"
      },
      "getPricesAndMedian(address,uint256,uint256)": {
        "notice": "gets prices, starting "
      },
      "isSmaller(uint256,uint256,uint256,uint256)": {
        "notice": "compares two fractions and returns if first is smaller"
      },
      "isWhitelisted(address)": {
        "notice": "determines whether token has been approved (whitelisted) on DutchX"
      }
    }
  }
}