{
  "contractName": "DutchExchangeProxy",
  "abi": [
    {
      "constant": true,
      "inputs": [],
      "name": "masterCopy",
      "outputs": [
        {
          "name": "",
          "type": "address"
        }
      ],
      "payable": false,
      "stateMutability": "view",
      "type": "function"
    },
    {
      "inputs": [
        {
          "name": "_masterCopy",
          "type": "address"
        }
      ],
      "payable": false,
      "stateMutability": "nonpayable",
      "type": "constructor"
    },
    {
      "payable": true,
      "stateMutability": "payable",
      "type": "fallback"
    }
  ],
  "bytecode": "0x608060405234801561001057600080fd5b506040516020806101c9833981016040525180600160a060020a038116151561009a57604080517f08c379a000000000000000000000000000000000000000000000000000000000815260206004820152601b60248201527f546865206d617374657220636f70792069732072657175697265640000000000604482015290519081900360640190fd5b60008054600160a060020a03909216600160a060020a03199092169190911790555060ff806100ca6000396000f300608060405260043610603e5763ffffffff7c0100000000000000000000000000000000000000000000000000000000600035041663a619486e8114607c575b6000805473ffffffffffffffffffffffffffffffffffffffff169036908037600080368184600019f43d6000803e8080156077573d6000f35b3d6000fd5b348015608757600080fd5b50608e60b7565b6040805173ffffffffffffffffffffffffffffffffffffffff9092168252519081900360200190f35b60005473ffffffffffffffffffffffffffffffffffffffff16815600a165627a7a72305820ff2facf596c58b33481d9515ccd902f2fee0c0cc5a56a2d6cc63d7f94ef9b4610029",
  "source": "pragma solidity ^0.4.24;\n\nimport \"@gnosis.pm/util-contracts/contracts/Proxy.sol\";\n\ncontract DutchExchangeProxy is Proxy {\n    constructor(address _masterCopy) Proxy (_masterCopy) public {\n    }\n}",
  "sourcePath": "/mnt/bf1642c6-3903-4bb8-b254-88a427e7ab47/Home/David/Documents/Work/Gnosis/dx-contracts/contracts/DutchExchangeProxy.sol",
  "compiler": {
    "name": "solc",
    "version": "0.4.25+commit.59dbf8f1.Emscripten.clang"
  },
  "schemaVersion": "2.0.2",
  "updatedAt": "2019-01-04T11:06:45.298Z"
}