{
  "contractName": "DutchXPriceOracle",
  "abi": [
    {
      "inputs": [
        {
          "name": "_dutchX",
          "type": "address"
        },
        {
          "name": "_ethToken",
          "type": "address"
        }
      ],
      "payable": false,
      "stateMutability": "nonpayable",
      "type": "constructor"
    },
    {
      "constant": true,
      "inputs": [
        {
          "name": "token",
          "type": "address"
        }
      ],
      "name": "getPrice",
      "outputs": [
        {
          "name": "num",
          "type": "uint256"
        },
        {
          "name": "den",
          "type": "uint256"
        }
      ],
      "payable": false,
      "stateMutability": "view",
      "type": "function"
    },
    {
      "constant": true,
      "inputs": [
        {
          "name": "token",
          "type": "address"
        },
        {
          "name": "requireWhitelisted",
          "type": "bool"
        },
        {
          "name": "maximumTimePeriod",
          "type": "uint256"
        },
        {
          "name": "numberOfAuctions",
          "type": "uint256"
        }
      ],
      "name": "getPriceCustom",
      "outputs": [
        {
          "name": "num",
          "type": "uint256"
        },
        {
          "name": "den",
          "type": "uint256"
        }
      ],
      "payable": false,
      "stateMutability": "view",
      "type": "function"
    },
    {
      "constant": true,
      "inputs": [
        {
          "name": "token",
          "type": "address"
        },
        {
          "name": "numberOfAuctions",
          "type": "uint256"
        },
        {
          "name": "latestAuctionIndex",
          "type": "uint256"
        }
      ],
      "name": "getPricesAndMedian",
      "outputs": [
        {
          "name": "",
          "type": "uint256"
        },
        {
          "name": "",
          "type": "uint256"
        }
      ],
      "payable": false,
      "stateMutability": "view",
      "type": "function"
    },
    {
      "constant": true,
      "inputs": [
        {
          "name": "num1",
          "type": "uint256"
        },
        {
          "name": "den1",
          "type": "uint256"
        },
        {
          "name": "num2",
          "type": "uint256"
        },
        {
          "name": "den2",
          "type": "uint256"
        }
      ],
      "name": "isSmaller",
      "outputs": [
        {
          "name": "",
          "type": "bool"
        }
      ],
      "payable": false,
      "stateMutability": "pure",
      "type": "function"
    },
    {
      "constant": true,
      "inputs": [
        {
          "name": "token",
          "type": "address"
        }
      ],
      "name": "isWhitelisted",
      "outputs": [
        {
          "name": "",
          "type": "bool"
        }
      ],
      "payable": false,
      "stateMutability": "view",
      "type": "function"
    }
  ],
  "bytecode": "0x608060405234801561001057600080fd5b50604051604080610ceb8339810180604052604081101561003057600080fd5b810190808051906020019092919080519060200190929190505050816000806101000a81548173ffffffffffffffffffffffffffffffffffffffff021916908373ffffffffffffffffffffffffffffffffffffffff16021790555080600160006101000a81548173ffffffffffffffffffffffffffffffffffffffff021916908373ffffffffffffffffffffffffffffffffffffffff1602179055505050610c0e806100dd6000396000f3fe608060405260043610610067576000357c01000000000000000000000000000000000000000000000000000000009004806331f2f7051461006c5780633201f6f2146100ec5780633af32abf1461017857806341976e09146101e15780637cd484e21461024d575b600080fd5b34801561007857600080fd5b506100cf6004803603606081101561008f57600080fd5b81019080803573ffffffffffffffffffffffffffffffffffffffff16906020019092919080359060200190929190803590602001909291905050506102be565b604051808381526020018281526020019250505060405180910390f35b3480156100f857600080fd5b5061015b6004803603608081101561010f57600080fd5b81019080803573ffffffffffffffffffffffffffffffffffffffff16906020019092919080351515906020019092919080359060200190929190803590602001909291905050506107a5565b604051808381526020018281526020019250505060405180910390f35b34801561018457600080fd5b506101c76004803603602081101561019b57600080fd5b81019080803573ffffffffffffffffffffffffffffffffffffffff169060200190929190505050610ab0565b604051808215151515815260200191505060405180910390f35b3480156101ed57600080fd5b506102306004803603602081101561020457600080fd5b81019080803573ffffffffffffffffffffffffffffffffffffffff169060200190929190505050610bae565b604051808381526020018281526020019250505060405180910390f35b34801561025957600080fd5b506102a46004803603608081101561027057600080fd5b8101908080359060200190929190803590602001909291908035906020019092919080359060200190929190505050610bcf565b604051808215151515815260200191505060405180910390f35b6000806060846040519080825280602002602001820160405280156102f25781602001602082028038833980820191505090505b5090506060856040519080825280602002602001820160405280156103265781602001602082028038833980820191505090505b50905060608660405190808252806020026020018201604052801561035a5781602001602082028038833980820191505090505b509050600080600090505b88811015610635576000806000809054906101000a900473ffffffffffffffffffffffffffffffffffffffff1673ffffffffffffffffffffffffffffffffffffffff16634bf8e7a28d600160009054906101000a900473ffffffffffffffffffffffffffffffffffffffff168660018f03036040518463ffffffff167c0100000000000000000000000000000000000000000000000000000000028152600401808473ffffffffffffffffffffffffffffffffffffffff1673ffffffffffffffffffffffffffffffffffffffff1681526020018373ffffffffffffffffffffffffffffffffffffffff1673ffffffffffffffffffffffffffffffffffffffff1681526020018281526020019350505050604080518083038186803b15801561048c57600080fd5b505afa1580156104a0573d6000803e3d6000fd5b505050506040513d60408110156104b657600080fd5b81019080805190602001909291908051906020019092919050505091509150818188858151811015156104e557fe5b90602001906020020188868151811015156104fc57fe5b9060200190602002018281525082815250505060008085905060008090505b858110156106235761055d85858c8581518110151561053657fe5b906020019060200201518c8681518110151561054e57fe5b90602001906020020151610bcf565b156105ae5785888481518110151561057157fe5b906020019060200201818152505081888781518110151561058e57fe5b906020019060200201818152505060008114156105a9578596505b610623565b600186038114156105f8578588838151811015156105c857fe5b90602001906020020181815250508688878151811015156105e557fe5b9060200190602002018181525050610616565b819250878281518110151561060957fe5b9060200190602002015191505b808060010191505061051b565b50505050508080600101915050610365565b50600081905060008090505b600260018b0381151561065057fe5b0481101561067f57838281518110151561066657fe5b9060200190602002015191508080600101915050610641565b50600160028a81151561068e57fe5b0614156106d35784818151811015156106a357fe5b9060200190602002015184828151811015156106bb57fe5b9060200190602002015196509650505050505061079d565b600083828151811015156106e357fe5b906020019060200201519050600085838151811015156106ff57fe5b90602001906020020151878381518110151561071757fe5b9060200190602002015102868381518110151561073057fe5b90602001906020020151888581518110151561074857fe5b90602001906020020151020190506000868381518110151561076657fe5b90602001906020020151878581518110151561077e57fe5b9060200190602002015160020202905081819950995050505050505050505b935093915050565b6000808480156107bb57506107b986610ab0565b155b156107d25760008081915080905091509150610aa7565b60008060009054906101000a900473ffffffffffffffffffffffffffffffffffffffff1673ffffffffffffffffffffffffffffffffffffffff166314584a9d88600160009054906101000a900473ffffffffffffffffffffffffffffffffffffffff166040518363ffffffff167c0100000000000000000000000000000000000000000000000000000000028152600401808373ffffffffffffffffffffffffffffffffffffffff1673ffffffffffffffffffffffffffffffffffffffff1681526020018273ffffffffffffffffffffffffffffffffffffffff1673ffffffffffffffffffffffffffffffffffffffff1681526020019250505060206040518083038186803b1580156108e457600080fd5b505afa1580156108f8573d6000803e3d6000fd5b505050506040513d602081101561090e57600080fd5b810190808051906020019092919050505090508442036000809054906101000a900473ffffffffffffffffffffffffffffffffffffffff1673ffffffffffffffffffffffffffffffffffffffff1663a68c515289600160009054906101000a900473ffffffffffffffffffffffffffffffffffffffff168886036040518463ffffffff167c0100000000000000000000000000000000000000000000000000000000028152600401808473ffffffffffffffffffffffffffffffffffffffff1673ffffffffffffffffffffffffffffffffffffffff1681526020018373ffffffffffffffffffffffffffffffffffffffff1673ffffffffffffffffffffffffffffffffffffffff168152602001828152602001935050505060206040518083038186803b158015610a3e57600080fd5b505afa158015610a52573d6000803e3d6000fd5b505050506040513d6020811015610a6857600080fd5b81019080805190602001909291905050501015610a92576000808191508090509250925050610aa7565b610a9d8785836102be565b8093508194505050505b94509492505050565b60008060009054906101000a900473ffffffffffffffffffffffffffffffffffffffff1673ffffffffffffffffffffffffffffffffffffffff16636d1ea3fa836040518263ffffffff167c0100000000000000000000000000000000000000000000000000000000028152600401808273ffffffffffffffffffffffffffffffffffffffff1673ffffffffffffffffffffffffffffffffffffffff16815260200191505060206040518083038186803b158015610b6c57600080fd5b505afa158015610b80573d6000803e3d6000fd5b505050506040513d6020811015610b9657600080fd5b81019080805190602001909291905050509050919050565b600080610bc28360016205eec060096107a5565b8092508193505050915091565b600083830282860210905094935050505056fea165627a7a72305820c1c5e41f60c683ed113165f1c52abca03b3bf05bce1ffada7ddcc6ac9e3757c30029",
  "source": "pragma solidity ^0.5.0;\n\ncontract DutchX {\n    // TODO\n\n    mapping (address => bool) public approvedTokens;\n\n    function getAuctionIndex(\n        address token1,\n        address token2\n    )\n        public\n        view\n        returns (uint auctionIndex);\n\n    function getAuctionStart(\n        address token1,\n        address token2,\n        uint auctionIndex\n    )\n        public\n        view\n        returns (uint auctionStart);\n\n    function getPriceInPastAuction(\n        address token1,\n        address token2,\n        uint auctionIndex\n    )\n        public\n        view\n        // price < 10^31\n        returns (uint num, uint den);\n}\n\ncontract DutchXPriceOracle {\n\n    DutchX dutchX;\n    address ethToken;\n    \n    constructor(DutchX _dutchX, address _ethToken)\n        public\n    {\n        dutchX = _dutchX;\n        ethToken = _ethToken;\n    }\n\n    function getPrice(address token)\n        public\n        view\n        returns (uint num, uint den)\n    {\n        (num, den) = getPriceCustom(token, true, 4.5 days, 9);\n    }\n    \n    function getPriceCustom(\n        address token,\n        bool requireWhitelisted,\n        uint maximumTimePeriod,\n        uint numberOfAuctions\n    )\n        public\n        view\n        returns (uint num, uint den)\n    {\n        // Whitelist check\n        if (requireWhitelisted && !isWhitelisted(token)) {\n            return (0, 0);\n        }\n\n        // Activity check\n        uint latestAuctionIndex = dutchX.getAuctionIndex(token, ethToken);\n        if (dutchX.getAuctionStart(token, ethToken, latestAuctionIndex - numberOfAuctions) < now - maximumTimePeriod) {\n            return (0, 0);\n        }\n\n        (num, den) = getPricesAndMedian(token, numberOfAuctions, latestAuctionIndex);\n    }\n\n    function getPricesAndMedian(\n        address token,\n        uint numberOfAuctions,\n        uint latestAuctionIndex\n    )\n        public\n        view\n        returns (uint, uint)\n    {\n        uint[] memory nums = new uint[](numberOfAuctions);\n        uint[] memory dens = new uint[](numberOfAuctions);\n        uint[] memory linkedListOfIndices = new uint[](numberOfAuctions);\n        uint indexOfSmallest;\n\n        for (uint i = 0; i < numberOfAuctions; i++) {\n            // Loop begins by calling auction index lAI - 1 and ends by calling lAI - numberOfAcutions\n            // That gives numberOfAuctions calls\n            (uint num, uint den) = dutchX.getPriceInPastAuction(token, ethToken, latestAuctionIndex - 1 - i);\n\n            (nums[i], dens[i]) = (num, den);\n\n            // We begin by comparing latest price to smallest price\n            // Smallest price is given by prices[linkedListOfIndices.indexOfLargest]\n            uint previousIndex;\n            uint index = indexOfSmallest;\n\n            for (uint j = 0; j < i; j++) {\n                if (isSmaller(num, den, nums[index], dens[index])) {\n                    // Update current term to point to new term\n                    // Current term is given by \n                    linkedListOfIndices[previousIndex] = i;\n\n                    // Update new term to point to next term\n                    linkedListOfIndices[i] = index;\n                    \n                    if (j == 0) {\n                        indexOfSmallest = i;\n                    }\n\n                    break;\n                }\n\n                if (j == i - 1) {\n                    // Loop is at last iteration\n                    linkedListOfIndices[index] = i;\n                    linkedListOfIndices[i] = indexOfSmallest;\n                } else {\n                    previousIndex = index;\n                    index = linkedListOfIndices[index];\n                }\n            }\n        }\n\n        uint index = indexOfSmallest;\n\n        for (uint i = 0; i < (numberOfAuctions - 1) / 2; i++) {\n            index = linkedListOfIndices[index];\n        }\n\n        if (numberOfAuctions % 2 == 1) {\n            // odd number of auctions\n            return (nums[index], dens[index]);\n        } else {\n            // get next element\n            uint nextIndex = linkedListOfIndices[index];\n        \n            // return average\n            uint num = nums[index] * dens[nextIndex] + nums[nextIndex] * dens[index];\n            uint den = 2 * dens[index] * dens[nextIndex];\n\n            return (num, den);\n        }\n    }\n\n    function isSmaller(uint num1, uint den1, uint num2, uint den2)\n        public\n        pure\n        returns (bool)\n    {\n        return (num1 * den2 < num2 * den1);\n    }\n\n    function isWhitelisted(address token) \n        public\n        view\n        returns (bool)\n    {\n        return dutchX.approvedTokens(token);\n    }\n}",
  "sourcePath": "/Users/dteiml/bc/dx-price-oracle/contracts/DutchXPriceOracle.sol",
  "compiler": {
    "name": "solc",
    "version": "0.5.1+commit.c8a2cb62.Emscripten.clang"
  },
  "schemaVersion": "3.0.0-beta.2",
  "updatedAt": "2018-12-21T13:19:25.041Z",
  "devdoc": {
    "methods": {}
  },
  "userdoc": {
    "methods": {}
  }
}