{
  "contractName": "DutchXPriceOracle",
  "abi": [
    {
      "inputs": [
        {
          "name": "_dutchX",
          "type": "address"
        },
        {
          "name": "_ethToken",
          "type": "address"
        }
      ],
      "payable": false,
      "stateMutability": "nonpayable",
      "type": "constructor"
    },
    {
      "constant": true,
      "inputs": [
        {
          "name": "token",
          "type": "address"
        }
      ],
      "name": "getPrice",
      "outputs": [
        {
          "name": "num",
          "type": "uint256"
        },
        {
          "name": "den",
          "type": "uint256"
        }
      ],
      "payable": false,
      "stateMutability": "view",
      "type": "function"
    },
    {
      "constant": true,
      "inputs": [
        {
          "name": "token",
          "type": "address"
        },
        {
          "name": "numberOfAuctions",
          "type": "uint256"
        }
      ],
      "name": "getPriceFromLastNAuctions",
      "outputs": [
        {
          "name": "num",
          "type": "uint256"
        },
        {
          "name": "den",
          "type": "uint256"
        }
      ],
      "payable": false,
      "stateMutability": "view",
      "type": "function"
    },
    {
      "constant": true,
      "inputs": [
        {
          "name": "nums",
          "type": "uint256[]"
        },
        {
          "name": "dens",
          "type": "uint256[]"
        }
      ],
      "name": "getMedian",
      "outputs": [
        {
          "name": "num",
          "type": "uint256"
        },
        {
          "name": "den",
          "type": "uint256"
        }
      ],
      "payable": false,
      "stateMutability": "pure",
      "type": "function"
    },
    {
      "constant": true,
      "inputs": [
        {
          "name": "num1",
          "type": "uint256"
        },
        {
          "name": "den1",
          "type": "uint256"
        },
        {
          "name": "num2",
          "type": "uint256"
        },
        {
          "name": "den2",
          "type": "uint256"
        }
      ],
      "name": "isSmallerFraction",
      "outputs": [
        {
          "name": "",
          "type": "bool"
        }
      ],
      "payable": false,
      "stateMutability": "pure",
      "type": "function"
    },
    {
      "constant": true,
      "inputs": [
        {
          "name": "token",
          "type": "address"
        }
      ],
      "name": "isWhitelisted",
      "outputs": [
        {
          "name": "",
          "type": "bool"
        }
      ],
      "payable": false,
      "stateMutability": "view",
      "type": "function"
    }
  ],
  "bytecode": "0x608060405234801561001057600080fd5b50604051604080610c048339810180604052604081101561003057600080fd5b810190808051906020019092919080519060200190929190505050816000806101000a81548173ffffffffffffffffffffffffffffffffffffffff021916908373ffffffffffffffffffffffffffffffffffffffff16021790555080600160006101000a81548173ffffffffffffffffffffffffffffffffffffffff021916908373ffffffffffffffffffffffffffffffffffffffff1602179055505050610b27806100dd6000396000f3fe608060405260043610610067576000357c0100000000000000000000000000000000000000000000000000000000900480631cb4cf811461006c57806323acd444146100e25780633af32abf1461025657806341976e09146102bf578063b4ca8e7f1461032b575b600080fd5b34801561007857600080fd5b506100c56004803603604081101561008f57600080fd5b81019080803573ffffffffffffffffffffffffffffffffffffffff1690602001909291908035906020019092919050505061039c565b604051808381526020018281526020019250505060405180910390f35b3480156100ee57600080fd5b506102396004803603604081101561010557600080fd5b810190808035906020019064010000000081111561012257600080fd5b82018360208201111561013457600080fd5b8035906020019184602083028401116401000000008311171561015657600080fd5b919080806020026020016040519081016040528093929190818152602001838360200280828437600081840152601f19601f820116905080830192505050505050509192919290803590602001906401000000008111156101b657600080fd5b8201836020820111156101c857600080fd5b803590602001918460208302840111640100000000831117156101ea57600080fd5b919080806020026020016040519081016040528093929190818152602001838360200280828437600081840152601f19601f820116905080830192505050505050509192919290505050610827565b604051808381526020018281526020019250505060405180910390f35b34801561026257600080fd5b506102a56004803603602081101561027957600080fd5b81019080803573ffffffffffffffffffffffffffffffffffffffff169060200190929190505050610831565b604051808215151515815260200191505060405180910390f35b3480156102cb57600080fd5b5061030e600480360360208110156102e257600080fd5b81019080803573ffffffffffffffffffffffffffffffffffffffff16906020019092919050505061092f565b604051808381526020018281526020019250505060405180910390f35b34801561033757600080fd5b506103826004803603608081101561034e57600080fd5b8101908080359060200190929190803590602001909291908035906020019092919080359060200190929190505050610ae8565b604051808215151515815260200191505060405180910390f35b60008060008060009054906101000a900473ffffffffffffffffffffffffffffffffffffffff1673ffffffffffffffffffffffffffffffffffffffff166314584a9d86600160009054906101000a900473ffffffffffffffffffffffffffffffffffffffff166040518363ffffffff167c0100000000000000000000000000000000000000000000000000000000028152600401808373ffffffffffffffffffffffffffffffffffffffff1673ffffffffffffffffffffffffffffffffffffffff1681526020018273ffffffffffffffffffffffffffffffffffffffff1673ffffffffffffffffffffffffffffffffffffffff1681526020019250505060206040518083038186803b1580156104b157600080fd5b505afa1580156104c5573d6000803e3d6000fd5b505050506040513d60208110156104db57600080fd5b8101908080519060200190929190505050905060018410151515610567576040517f08c379a000000000000000000000000000000000000000000000000000000000815260040180806020018281038252600b8152602001807f63616e6e6f74206265203000000000000000000000000000000000000000000081525060200191505060405180910390fd5b6001840181101515156105e2576040517f08c379a00000000000000000000000000000000000000000000000000000000081526004018080602001828103825260138152602001807f6e6f7420656e6f7567682061756374696f6e730000000000000000000000000081525060200191505060405180910390fd5b6060846040519080825280602002602001820160405280156106135781602001602082028038833980820191505090505b5090506060856040519080825280602002602001820160405280156106475781602001602082028038833980820191505090505b50905060008090505b8681101561080a576000806000809054906101000a900473ffffffffffffffffffffffffffffffffffffffff1673ffffffffffffffffffffffffffffffffffffffff16634bf8e7a28b600160009054906101000a900473ffffffffffffffffffffffffffffffffffffffff168660018b03036040518463ffffffff167c0100000000000000000000000000000000000000000000000000000000028152600401808473ffffffffffffffffffffffffffffffffffffffff1673ffffffffffffffffffffffffffffffffffffffff1681526020018373ffffffffffffffffffffffffffffffffffffffff1673ffffffffffffffffffffffffffffffffffffffff1681526020018281526020019350505050604080518083038186803b15801561077757600080fd5b505afa15801561078b573d6000803e3d6000fd5b505050506040513d60408110156107a157600080fd5b810190808051906020019092919080519060200190929190505050915091508185848151811015156107cf57fe5b90602001906020020181815250508084848151811015156107ec57fe5b90602001906020020181815250505050808060019003915050610650565b506108158282610827565b80955081965050505050509250929050565b6000809250929050565b60008060009054906101000a900473ffffffffffffffffffffffffffffffffffffffff1673ffffffffffffffffffffffffffffffffffffffff16636d1ea3fa836040518263ffffffff167c0100000000000000000000000000000000000000000000000000000000028152600401808273ffffffffffffffffffffffffffffffffffffffff1673ffffffffffffffffffffffffffffffffffffffff16815260200191505060206040518083038186803b1580156108ed57600080fd5b505afa158015610901573d6000803e3d6000fd5b505050506040513d602081101561091757600080fd5b81019080805190602001909291905050509050919050565b60008061093b83610831565b15156109535760008081915080905091509150610ae3565b60008060009054906101000a900473ffffffffffffffffffffffffffffffffffffffff1673ffffffffffffffffffffffffffffffffffffffff16631006a41f85600160009054906101000a900473ffffffffffffffffffffffffffffffffffffffff166040518363ffffffff167c0100000000000000000000000000000000000000000000000000000000028152600401808373ffffffffffffffffffffffffffffffffffffffff1673ffffffffffffffffffffffffffffffffffffffff1681526020018273ffffffffffffffffffffffffffffffffffffffff1673ffffffffffffffffffffffffffffffffffffffff1681526020019250505060206040518083038186803b158015610a6557600080fd5b505afa158015610a79573d6000803e3d6000fd5b505050506040513d6020811015610a8f57600080fd5b8101908080519060200190929190505050905062015180420381108015610ab65750600181115b15610ace576000808191508090509250925050610ae3565b610ad984600961039c565b8093508194505050505b915091565b600083830282860210905094935050505056fea165627a7a7230582093f58edac933e722bce777824ca13f09cef1a8ee297dcc28a7c2a530ede54b6a0029",
  "source": "pragma solidity ^0.5.0;\n\ncontract DutchX {\n    // TODO\n\n    mapping (address => mapping (address => uint)) public auctionStarts;\n    mapping (address => bool) public approvedTokens;\n\n    function getAuctionIndex(\n        address token1,\n        address token2\n    )\n        public\n        view\n        returns (uint auctionIndex);\n\n    function getPriceInPastAuction(\n        address token1,\n        address token2,\n        uint auctionIndex\n    )\n        public\n        view\n        // price < 10^31\n        returns (uint num, uint den);\n}\n\ncontract DutchXPriceOracle {\n\n   \n    DutchX dutchX;\n    address ethToken;\n    \n    constructor(DutchX _dutchX, address _ethToken)\n        public\n    {\n        dutchX = _dutchX;\n        ethToken = _ethToken;\n    }\n\n    function getPrice(address token)\n        public\n        view\n        returns (uint num, uint den)\n    {\n        if (!isWhitelisted(token)) {\n            return (0, 0);\n        }\n\n        uint auctionStart = dutchX.auctionStarts(token, ethToken);\n\n        // naive inactivity logic\n        // 86400 = 24 hours\n        if (auctionStart < now - 86400 && auctionStart > 1) {\n            return (0, 0);\n        }\n\n        (num, den) = getPriceFromLastNAuctions(token, 9);\n    }\n    \n    function getPriceFromLastNAuctions(address token, uint numberOfAuctions)\n        public\n        view\n        returns (uint num, uint den)\n    {\n        uint latestAuctionIndex = dutchX.getAuctionIndex(token, ethToken);\n\n        // TODO: optional requires:\n        require(numberOfAuctions >= 1, \"cannot be 0\");\n        require(latestAuctionIndex >= numberOfAuctions + 1, \"not enough auctions\");\n\n        uint[] memory nums = new uint[](numberOfAuctions);\n        uint[] memory dens = new uint[](numberOfAuctions);\n\n        for (uint i = 0; i < numberOfAuctions; i--) {\n            // Loop should begin by calling auction index lAI - 1\n            // and end by calling lAI - numberOfAcutions\n            // That gives numberOfAuctions calls\n            (uint _num, uint _den) = dutchX.getPriceInPastAuction(token, ethToken, latestAuctionIndex - 1 - i);\n\n            // Prices are now sorted in reverse chronological order\n            nums[i] = _num;\n            dens[i] = _den;\n        }\n\n        (num, den) = getMedian(nums, dens);\n    }\n\n    function getMedian(uint[] memory nums, uint[] memory dens)\n        public\n        pure\n        returns (uint num, uint den)\n    {\n        // TODO\n        // Will use algorithm described in https://stackoverflow.com/a/28822243\n    }\n\n    function isSmallerFraction(uint num1, uint den1, uint num2, uint den2)\n        public\n        pure\n        returns (bool)\n    {\n        // Possibly use floating point numbers?\n\n        return (num1 * den2 < num2 * den1);\n    }\n\n    function isWhitelisted(address token) \n        public\n        view\n        returns (bool)\n    {\n        return dutchX.approvedTokens(token);\n    }\n}",
  "sourcePath": "/Users/dteiml/bc/dx-price-oracle/contracts/DutchXPriceOracle.sol",
  "compiler": {
    "name": "solc",
    "version": "0.5.1+commit.c8a2cb62.Emscripten.clang"
  },
  "schemaVersion": "3.0.0-beta.2",
  "updatedAt": "2018-12-19T11:09:01.709Z",
  "devdoc": {
    "methods": {}
  },
  "userdoc": {
    "methods": {}
  }
}