{
  "contractName": "DxMath",
  "abi": [
    {
      "constant": true,
      "inputs": [
        {
          "name": "a",
          "type": "uint256"
        },
        {
          "name": "b",
          "type": "uint256"
        }
      ],
      "name": "min",
      "outputs": [
        {
          "name": "",
          "type": "uint256"
        }
      ],
      "payable": false,
      "stateMutability": "pure",
      "type": "function"
    },
    {
      "constant": true,
      "inputs": [
        {
          "name": "a",
          "type": "int256"
        }
      ],
      "name": "atleastZero",
      "outputs": [
        {
          "name": "",
          "type": "uint256"
        }
      ],
      "payable": false,
      "stateMutability": "pure",
      "type": "function"
    },
    {
      "constant": true,
      "inputs": [
        {
          "name": "a",
          "type": "uint256"
        },
        {
          "name": "b",
          "type": "uint256"
        }
      ],
      "name": "safeToAdd",
      "outputs": [
        {
          "name": "",
          "type": "bool"
        }
      ],
      "payable": false,
      "stateMutability": "pure",
      "type": "function"
    },
    {
      "constant": true,
      "inputs": [
        {
          "name": "a",
          "type": "uint256"
        },
        {
          "name": "b",
          "type": "uint256"
        }
      ],
      "name": "safeToSub",
      "outputs": [
        {
          "name": "",
          "type": "bool"
        }
      ],
      "payable": false,
      "stateMutability": "pure",
      "type": "function"
    },
    {
      "constant": true,
      "inputs": [
        {
          "name": "a",
          "type": "uint256"
        },
        {
          "name": "b",
          "type": "uint256"
        }
      ],
      "name": "safeToMul",
      "outputs": [
        {
          "name": "",
          "type": "bool"
        }
      ],
      "payable": false,
      "stateMutability": "pure",
      "type": "function"
    },
    {
      "constant": true,
      "inputs": [
        {
          "name": "a",
          "type": "uint256"
        },
        {
          "name": "b",
          "type": "uint256"
        }
      ],
      "name": "add",
      "outputs": [
        {
          "name": "",
          "type": "uint256"
        }
      ],
      "payable": false,
      "stateMutability": "pure",
      "type": "function"
    },
    {
      "constant": true,
      "inputs": [
        {
          "name": "a",
          "type": "uint256"
        },
        {
          "name": "b",
          "type": "uint256"
        }
      ],
      "name": "sub",
      "outputs": [
        {
          "name": "",
          "type": "uint256"
        }
      ],
      "payable": false,
      "stateMutability": "pure",
      "type": "function"
    },
    {
      "constant": true,
      "inputs": [
        {
          "name": "a",
          "type": "uint256"
        },
        {
          "name": "b",
          "type": "uint256"
        }
      ],
      "name": "mul",
      "outputs": [
        {
          "name": "",
          "type": "uint256"
        }
      ],
      "payable": false,
      "stateMutability": "pure",
      "type": "function"
    }
  ],
  "bytecode": "0x608060405234801561001057600080fd5b506102c9806100206000396000f3fe608060405234801561001057600080fd5b50600436106100a5576000357c010000000000000000000000000000000000000000000000000000000090048063b67d77c511610078578063b67d77c514610156578063c8a4ac9c14610179578063cb10fa761461019c578063e31c71c4146101bf576100a5565b806330690468146100aa5780634e30a66c146100d9578063771602f7146101105780637ae2b5c714610133575b600080fd5b6100c7600480360360208110156100c057600080fd5b50356101e2565b60408051918252519081900360200190f35b6100fc600480360360408110156100ef57600080fd5b50803590602001356101fc565b604080519115158252519081900360200190f35b6100c76004803603604081101561012657600080fd5b5080359060200135610209565b6100c76004803603604081101561014957600080fd5b5080359060200135610225565b6100c76004803603604081101561016c57600080fd5b508035906020013561023d565b6100c76004803603604081101561018f57600080fd5b508035906020013561025a565b6100fc600480360360408110156101b257600080fd5b5080359060200135610276565b6100fc600480360360408110156101d557600080fd5b5080359060200135610298565b6000808212156101f4575060006101f7565b50805b919050565b8082018211155b92915050565b600061021583836101fc565b151561022057600080fd5b500190565b600081831015610236575081610203565b5080610203565b60006102498383610298565b151561025457600080fd5b50900390565b60006102668383610276565b151561027157600080fd5b500290565b60008115806102915750828283850281151561028e57fe5b04145b9392505050565b11159056fea165627a7a72305820573786222f3969da058ff285478cef669d9b0775e0a059b725baaa1530fb06030029",
  "source": "pragma solidity ^0.5.2;\n\n\ncontract DxMath {\n    // > Math fns\n    function min(uint a, uint b) public pure returns (uint) {\n        if (a < b) {\n            return a;\n        } else {\n            return b;\n        }\n    }\n\n    function atleastZero(int a) public pure returns (uint) {\n        if (a < 0) {\n            return 0;\n        } else {\n            return uint(a);\n        }\n    }\n    \n    /// @dev Returns whether an add operation causes an overflow\n    /// @param a First addend\n    /// @param b Second addend\n    /// @return Did no overflow occur?\n    function safeToAdd(uint a, uint b) public pure returns (bool) {\n        return a + b >= a;\n    }\n\n    /// @dev Returns whether a subtraction operation causes an underflow\n    /// @param a Minuend\n    /// @param b Subtrahend\n    /// @return Did no underflow occur?\n    function safeToSub(uint a, uint b) public pure returns (bool) {\n        return a >= b;\n    }\n\n    /// @dev Returns whether a multiply operation causes an overflow\n    /// @param a First factor\n    /// @param b Second factor\n    /// @return Did no overflow occur?\n    function safeToMul(uint a, uint b) public pure returns (bool) {\n        return b == 0 || a * b / b == a;\n    }\n\n    /// @dev Returns sum if no overflow occurred\n    /// @param a First addend\n    /// @param b Second addend\n    /// @return Sum\n    function add(uint a, uint b) public pure returns (uint) {\n        require(safeToAdd(a, b));\n        return a + b;\n    }\n\n    /// @dev Returns difference if no overflow occurred\n    /// @param a Minuend\n    /// @param b Subtrahend\n    /// @return Difference\n    function sub(uint a, uint b) public pure returns (uint) {\n        require(safeToSub(a, b));\n        return a - b;\n    }\n\n    /// @dev Returns product if no overflow occurred\n    /// @param a First factor\n    /// @param b Second factor\n    /// @return Product\n    function mul(uint a, uint b) public pure returns (uint) {\n        require(safeToMul(a, b));\n        return a * b;\n    }\n}\n",
  "sourcePath": "@gnosis.pm/dx-contracts/contracts/base/DxMath.sol",
  "compiler": {
    "name": "solc",
    "version": "0.5.2+commit.1df8f40c.Emscripten.clang"
  },
  "schemaVersion": "3.0.1",
  "updatedAt": "2019-01-18T08:01:22.360Z",
  "devdoc": {
    "methods": {
      "add(uint256,uint256)": {
        "details": "Returns sum if no overflow occurred",
        "params": {
          "a": "First addend",
          "b": "Second addend"
        },
        "return": "Sum"
      },
      "mul(uint256,uint256)": {
        "details": "Returns product if no overflow occurred",
        "params": {
          "a": "First factor",
          "b": "Second factor"
        },
        "return": "Product"
      },
      "safeToAdd(uint256,uint256)": {
        "details": "Returns whether an add operation causes an overflow",
        "params": {
          "a": "First addend",
          "b": "Second addend"
        },
        "return": "Did no overflow occur?"
      },
      "safeToMul(uint256,uint256)": {
        "details": "Returns whether a multiply operation causes an overflow",
        "params": {
          "a": "First factor",
          "b": "Second factor"
        },
        "return": "Did no overflow occur?"
      },
      "safeToSub(uint256,uint256)": {
        "details": "Returns whether a subtraction operation causes an underflow",
        "params": {
          "a": "Minuend",
          "b": "Subtrahend"
        },
        "return": "Did no underflow occur?"
      },
      "sub(uint256,uint256)": {
        "details": "Returns difference if no overflow occurred",
        "params": {
          "a": "Minuend",
          "b": "Subtrahend"
        },
        "return": "Difference"
      }
    }
  },
  "userdoc": {
    "methods": {}
  }
}