{
  "contractName": "DxMath",
  "abi": [
    {
      "constant": true,
      "inputs": [
        {
          "name": "a",
          "type": "uint256"
        },
        {
          "name": "b",
          "type": "uint256"
        }
      ],
      "name": "min",
      "outputs": [
        {
          "name": "",
          "type": "uint256"
        }
      ],
      "payable": false,
      "stateMutability": "pure",
      "type": "function"
    },
    {
      "constant": true,
      "inputs": [
        {
          "name": "a",
          "type": "int256"
        }
      ],
      "name": "atleastZero",
      "outputs": [
        {
          "name": "",
          "type": "uint256"
        }
      ],
      "payable": false,
      "stateMutability": "pure",
      "type": "function"
    },
    {
      "constant": true,
      "inputs": [
        {
          "name": "a",
          "type": "uint256"
        },
        {
          "name": "b",
          "type": "uint256"
        }
      ],
      "name": "safeToAdd",
      "outputs": [
        {
          "name": "",
          "type": "bool"
        }
      ],
      "payable": false,
      "stateMutability": "pure",
      "type": "function"
    },
    {
      "constant": true,
      "inputs": [
        {
          "name": "a",
          "type": "uint256"
        },
        {
          "name": "b",
          "type": "uint256"
        }
      ],
      "name": "safeToSub",
      "outputs": [
        {
          "name": "",
          "type": "bool"
        }
      ],
      "payable": false,
      "stateMutability": "pure",
      "type": "function"
    },
    {
      "constant": true,
      "inputs": [
        {
          "name": "a",
          "type": "uint256"
        },
        {
          "name": "b",
          "type": "uint256"
        }
      ],
      "name": "safeToMul",
      "outputs": [
        {
          "name": "",
          "type": "bool"
        }
      ],
      "payable": false,
      "stateMutability": "pure",
      "type": "function"
    },
    {
      "constant": true,
      "inputs": [
        {
          "name": "a",
          "type": "uint256"
        },
        {
          "name": "b",
          "type": "uint256"
        }
      ],
      "name": "add",
      "outputs": [
        {
          "name": "",
          "type": "uint256"
        }
      ],
      "payable": false,
      "stateMutability": "pure",
      "type": "function"
    },
    {
      "constant": true,
      "inputs": [
        {
          "name": "a",
          "type": "uint256"
        },
        {
          "name": "b",
          "type": "uint256"
        }
      ],
      "name": "sub",
      "outputs": [
        {
          "name": "",
          "type": "uint256"
        }
      ],
      "payable": false,
      "stateMutability": "pure",
      "type": "function"
    },
    {
      "constant": true,
      "inputs": [
        {
          "name": "a",
          "type": "uint256"
        },
        {
          "name": "b",
          "type": "uint256"
        }
      ],
      "name": "mul",
      "outputs": [
        {
          "name": "",
          "type": "uint256"
        }
      ],
      "payable": false,
      "stateMutability": "pure",
      "type": "function"
    }
  ],
  "bytecode": "0x608060405234801561001057600080fd5b50610274806100206000396000f30060806040526004361061008d5763ffffffff7c01000000000000000000000000000000000000000000000000000000006000350416633069046881146100925780634e30a66c146100bc578063771602f7146100eb5780637ae2b5c714610106578063b67d77c514610121578063c8a4ac9c1461013c578063cb10fa7614610157578063e31c71c414610172575b600080fd5b34801561009e57600080fd5b506100aa60043561018d565b60408051918252519081900360200190f35b3480156100c857600080fd5b506100d76004356024356101a7565b604080519115158252519081900360200190f35b3480156100f757600080fd5b506100aa6004356024356101b4565b34801561011257600080fd5b506100aa6004356024356101d0565b34801561012d57600080fd5b506100aa6004356024356101e8565b34801561014857600080fd5b506100aa600435602435610205565b34801561016357600080fd5b506100d7600435602435610221565b34801561017e57600080fd5b506100d7600435602435610243565b60008082121561019f575060006101a2565b50805b919050565b8082018211155b92915050565b60006101c083836101a7565b15156101cb57600080fd5b500190565b6000818310156101e15750816101ae565b50806101ae565b60006101f48383610243565b15156101ff57600080fd5b50900390565b60006102118383610221565b151561021c57600080fd5b500290565b600081158061023c5750828283850281151561023957fe5b04145b9392505050565b1115905600a165627a7a72305820417b1a23a86118c1f4b61f15f0e97c2ff25d75081dbde76b5c2834f5e42efab30029",
  "source": "pragma solidity ^0.4.11;\n\ncontract DxMath {\n// > Math fns\n    function min(uint a, uint b) \n        public\n        pure\n        returns (uint)\n    {\n        if (a < b) {\n            return a;\n        } else {\n            return b;\n        }\n    }\n\n    function atleastZero(int a)\n        public\n        pure\n        returns (uint)\n    {\n        if (a < 0) {\n            return 0;\n        } else {\n            return uint(a);\n        }\n    }\n    /// @dev Returns whether an add operation causes an overflow\n    /// @param a First addend\n    /// @param b Second addend\n    /// @return Did no overflow occur?\n    function safeToAdd(uint a, uint b)\n        public\n        pure\n        returns (bool)\n    {\n        return a + b >= a;\n    }\n\n    /// @dev Returns whether a subtraction operation causes an underflow\n    /// @param a Minuend\n    /// @param b Subtrahend\n    /// @return Did no underflow occur?\n    function safeToSub(uint a, uint b)\n        public\n        pure\n        returns (bool)\n    {\n        return a >= b;\n    }\n\n    /// @dev Returns whether a multiply operation causes an overflow\n    /// @param a First factor\n    /// @param b Second factor\n    /// @return Did no overflow occur?\n    function safeToMul(uint a, uint b)\n        public\n        pure\n        returns (bool)\n    {\n        return b == 0 || a * b / b == a;\n    }\n\n    /// @dev Returns sum if no overflow occurred\n    /// @param a First addend\n    /// @param b Second addend\n    /// @return Sum\n    function add(uint a, uint b)\n        public\n        pure\n        returns (uint)\n    {\n        require(safeToAdd(a, b));\n        return a + b;\n    }\n\n    /// @dev Returns difference if no overflow occurred\n    /// @param a Minuend\n    /// @param b Subtrahend\n    /// @return Difference\n    function sub(uint a, uint b)\n        public\n        pure\n        returns (uint)\n    {\n        require(safeToSub(a, b));\n        return a - b;\n    }\n\n    /// @dev Returns product if no overflow occurred\n    /// @param a First factor\n    /// @param b Second factor\n    /// @return Product\n    function mul(uint a, uint b)\n        public\n        pure\n        returns (uint)\n    {\n        require(safeToMul(a, b));\n        return a * b;\n    }\n}",
  "sourcePath": "/mnt/bf1642c6-3903-4bb8-b254-88a427e7ab47/Home/David/Documents/Work/Gnosis/dx-contracts/contracts/base/DxMath.sol",
  "compiler": {
    "name": "solc",
    "version": "0.4.25+commit.59dbf8f1.Emscripten.clang"
  },
  "schemaVersion": "2.0.2",
  "updatedAt": "2019-01-04T11:06:42.166Z"
}