{
  "contractName": "DxUpgrade",
  "abi": [
    {
      "constant": true,
      "inputs": [],
      "name": "masterCopyCountdown",
      "outputs": [
        {
          "name": "",
          "type": "uint256"
        }
      ],
      "payable": false,
      "stateMutability": "view",
      "type": "function"
    },
    {
      "constant": true,
      "inputs": [
        {
          "name": "a",
          "type": "int256"
        }
      ],
      "name": "atleastZero",
      "outputs": [
        {
          "name": "",
          "type": "uint256"
        }
      ],
      "payable": false,
      "stateMutability": "pure",
      "type": "function"
    },
    {
      "constant": true,
      "inputs": [
        {
          "name": "a",
          "type": "uint256"
        },
        {
          "name": "b",
          "type": "uint256"
        }
      ],
      "name": "safeToAdd",
      "outputs": [
        {
          "name": "",
          "type": "bool"
        }
      ],
      "payable": false,
      "stateMutability": "pure",
      "type": "function"
    },
    {
      "constant": true,
      "inputs": [],
      "name": "auctioneer",
      "outputs": [
        {
          "name": "",
          "type": "address"
        }
      ],
      "payable": false,
      "stateMutability": "view",
      "type": "function"
    },
    {
      "constant": true,
      "inputs": [],
      "name": "newMasterCopy",
      "outputs": [
        {
          "name": "",
          "type": "address"
        }
      ],
      "payable": false,
      "stateMutability": "view",
      "type": "function"
    },
    {
      "constant": true,
      "inputs": [
        {
          "name": "a",
          "type": "uint256"
        },
        {
          "name": "b",
          "type": "uint256"
        }
      ],
      "name": "add",
      "outputs": [
        {
          "name": "",
          "type": "uint256"
        }
      ],
      "payable": false,
      "stateMutability": "pure",
      "type": "function"
    },
    {
      "constant": false,
      "inputs": [
        {
          "name": "_auctioneer",
          "type": "address"
        }
      ],
      "name": "updateAuctioneer",
      "outputs": [],
      "payable": false,
      "stateMutability": "nonpayable",
      "type": "function"
    },
    {
      "constant": true,
      "inputs": [
        {
          "name": "a",
          "type": "uint256"
        },
        {
          "name": "b",
          "type": "uint256"
        }
      ],
      "name": "min",
      "outputs": [
        {
          "name": "",
          "type": "uint256"
        }
      ],
      "payable": false,
      "stateMutability": "pure",
      "type": "function"
    },
    {
      "constant": true,
      "inputs": [],
      "name": "masterCopy",
      "outputs": [
        {
          "name": "",
          "type": "address"
        }
      ],
      "payable": false,
      "stateMutability": "view",
      "type": "function"
    },
    {
      "constant": true,
      "inputs": [
        {
          "name": "a",
          "type": "uint256"
        },
        {
          "name": "b",
          "type": "uint256"
        }
      ],
      "name": "sub",
      "outputs": [
        {
          "name": "",
          "type": "uint256"
        }
      ],
      "payable": false,
      "stateMutability": "pure",
      "type": "function"
    },
    {
      "constant": true,
      "inputs": [
        {
          "name": "a",
          "type": "uint256"
        },
        {
          "name": "b",
          "type": "uint256"
        }
      ],
      "name": "mul",
      "outputs": [
        {
          "name": "",
          "type": "uint256"
        }
      ],
      "payable": false,
      "stateMutability": "pure",
      "type": "function"
    },
    {
      "constant": true,
      "inputs": [
        {
          "name": "a",
          "type": "uint256"
        },
        {
          "name": "b",
          "type": "uint256"
        }
      ],
      "name": "safeToMul",
      "outputs": [
        {
          "name": "",
          "type": "bool"
        }
      ],
      "payable": false,
      "stateMutability": "pure",
      "type": "function"
    },
    {
      "constant": true,
      "inputs": [
        {
          "name": "a",
          "type": "uint256"
        },
        {
          "name": "b",
          "type": "uint256"
        }
      ],
      "name": "safeToSub",
      "outputs": [
        {
          "name": "",
          "type": "bool"
        }
      ],
      "payable": false,
      "stateMutability": "pure",
      "type": "function"
    },
    {
      "anonymous": false,
      "inputs": [
        {
          "indexed": false,
          "name": "newMasterCopy",
          "type": "address"
        }
      ],
      "name": "NewMasterCopyProposal",
      "type": "event"
    },
    {
      "constant": false,
      "inputs": [
        {
          "name": "_masterCopy",
          "type": "address"
        }
      ],
      "name": "startMasterCopyCountdown",
      "outputs": [],
      "payable": false,
      "stateMutability": "nonpayable",
      "type": "function"
    },
    {
      "constant": false,
      "inputs": [],
      "name": "updateMasterCopy",
      "outputs": [],
      "payable": false,
      "stateMutability": "nonpayable",
      "type": "function"
    }
  ],
  "bytecode": "0x608060405234801561001057600080fd5b50610843806100206000396000f3006080604052600436106100da5763ffffffff7c01000000000000000000000000000000000000000000000000000000006000350416630e7c0f8081146100df5780632cef4dac14610106578063306904681461011d5780634e30a66c146101355780635ec2c7bf146101645780636ea6836014610195578063771602f7146101aa578063796a8076146101c55780637ae2b5c7146101e6578063a619486e14610201578063b67d77c514610216578063c8a4ac9c14610231578063cb10fa761461024c578063e31c71c414610267578063f625ee2814610282575b600080fd5b3480156100eb57600080fd5b506100f46102a3565b60408051918252519081900360200190f35b34801561011257600080fd5b5061011b6102a9565b005b34801561012957600080fd5b506100f460043561046d565b34801561014157600080fd5b50610150600435602435610487565b604080519115158252519081900360200190f35b34801561017057600080fd5b50610179610494565b60408051600160a060020a039092168252519081900360200190f35b3480156101a157600080fd5b506101796104a3565b3480156101b657600080fd5b506100f46004356024356104b2565b3480156101d157600080fd5b5061011b600160a060020a03600435166104ce565b3480156101f257600080fd5b506100f460043560243561060b565b34801561020d57600080fd5b50610179610623565b34801561022257600080fd5b506100f4600435602435610632565b34801561023d57600080fd5b506100f460043560243561064f565b34801561025857600080fd5b5061015060043560243561066b565b34801561027357600080fd5b5061015060043560243561068d565b34801561028e57600080fd5b5061011b600160a060020a0360043516610692565b60035481565b600154600160a060020a03163314610331576040805160e560020a62461bcd02815260206004820152602a60248201527f4f6e6c79207468652061756374696f6e6565722063616e206e6f6d696e61746560448201527f2061206e6577206f6e6500000000000000000000000000000000000000000000606482015290519081900360840190fd5b600254600160a060020a031615156103b9576040805160e560020a62461bcd02815260206004820152602b60248201527f546865206e6577206d617374657220636f7079206d757374206265206120766160448201527f6c69642061646472657373000000000000000000000000000000000000000000606482015290519081900360840190fd5b600354421015610439576040805160e560020a62461bcd02815260206004820152603960248201527f546865206d617374657220636f6e74726163742063616e6e6f7420626520757060448201527f646174656420696e20612077616974696e6720706572696f6400000000000000606482015290519081900360840190fd5b600280546000805473ffffffffffffffffffffffffffffffffffffffff19908116600160a060020a03841617909155169055565b60008082121561047f57506000610482565b50805b919050565b8082018211155b92915050565b600154600160a060020a031681565b600254600160a060020a031681565b60006104be8383610487565b15156104c957600080fd5b500190565b600154600160a060020a03163314610556576040805160e560020a62461bcd02815260206004820152602a60248201527f4f6e6c79207468652061756374696f6e6565722063616e206e6f6d696e61746560448201527f2061206e6577206f6e6500000000000000000000000000000000000000000000606482015290519081900360840190fd5b600160a060020a03811615156105dc576040805160e560020a62461bcd02815260206004820152602660248201527f5468652061756374696f6e656572206d75737420626520612076616c6964206160448201527f6464726573730000000000000000000000000000000000000000000000000000606482015290519081900360840190fd5b6001805473ffffffffffffffffffffffffffffffffffffffff1916600160a060020a0392909216919091179055565b60008183101561061c57508161048e565b508061048e565b600054600160a060020a031681565b600061063e838361068d565b151561064957600080fd5b50900390565b600061065b838361066b565b151561066657600080fd5b500290565b60008115806106865750828283850281151561068357fe5b04145b9392505050565b111590565b600154600160a060020a0316331461071a576040805160e560020a62461bcd02815260206004820152602a60248201527f4f6e6c79207468652061756374696f6e6565722063616e206e6f6d696e61746560448201527f2061206e6577206f6e6500000000000000000000000000000000000000000000606482015290519081900360840190fd5b600160a060020a03811615156107a0576040805160e560020a62461bcd02815260206004820152602b60248201527f546865206e6577206d617374657220636f7079206d757374206265206120766160448201527f6c69642061646472657373000000000000000000000000000000000000000000606482015290519081900360840190fd5b6002805473ffffffffffffffffffffffffffffffffffffffff1916600160a060020a0383161790556107d54262278d006104b2565b60035560408051600160a060020a038316815290517f36dceb79f427eda3edba9ac3c1d4db7a6e4d0b8637d97320847d93fa8e2f7a049181900360200190a1505600a165627a7a72305820493b94352a710ea1a6f159950c0d556c9acdb135ac6b0b607cf1bc793e8d32a60029",
  "source": "pragma solidity ^0.4.11;\n\nimport \"./DxMath.sol\";\nimport \"./AuctioneerManaged.sol\";\nimport \"@gnosis.pm/util-contracts/contracts/Proxy.sol\";\n\ncontract DxUpgrade is Proxied, AuctioneerManaged, DxMath {\n    uint constant WAITING_PERIOD_CHANGE_MASTERCOPY = 30 days;\n\n    address public newMasterCopy;\n    // Time when new masterCopy is updatabale\n    uint public masterCopyCountdown;\n\n    event NewMasterCopyProposal(\n         address newMasterCopy\n    );\n\n    function startMasterCopyCountdown (\n        address _masterCopy\n    )\n        public\n        onlyAuctioneer\n    {\n        require(_masterCopy != address(0), \"The new master copy must be a valid address\");\n\n        // Update masterCopyCountdown\n        newMasterCopy = _masterCopy;\n        masterCopyCountdown = add(block.timestamp, WAITING_PERIOD_CHANGE_MASTERCOPY);\n        emit NewMasterCopyProposal(_masterCopy);\n    }\n\n    function updateMasterCopy()\n        public\n        onlyAuctioneer\n    {\n        require(newMasterCopy != address(0), \"The new master copy must be a valid address\");\n        require(block.timestamp >= masterCopyCountdown, \"The master contract cannot be updated in a waiting period\");\n\n        // Update masterCopy\n        masterCopy = newMasterCopy;\n        newMasterCopy = address(0);\n    }\n    \n}\n",
  "sourcePath": "/mnt/bf1642c6-3903-4bb8-b254-88a427e7ab47/Home/David/Documents/Work/Gnosis/dx-contracts/contracts/base/DxUpgrade.sol",
  "compiler": {
    "name": "solc",
    "version": "0.4.25+commit.59dbf8f1.Emscripten.clang"
  },
  "schemaVersion": "2.0.2",
  "updatedAt": "2019-01-04T11:06:42.155Z"
}