{
  "contractName": "DxUpgrade",
  "abi": [
    {
      "constant": true,
      "inputs": [],
      "name": "masterCopyCountdown",
      "outputs": [
        {
          "name": "",
          "type": "uint256"
        }
      ],
      "payable": false,
      "stateMutability": "view",
      "type": "function"
    },
    {
      "constant": true,
      "inputs": [
        {
          "name": "a",
          "type": "int256"
        }
      ],
      "name": "atleastZero",
      "outputs": [
        {
          "name": "",
          "type": "uint256"
        }
      ],
      "payable": false,
      "stateMutability": "pure",
      "type": "function"
    },
    {
      "constant": true,
      "inputs": [
        {
          "name": "a",
          "type": "uint256"
        },
        {
          "name": "b",
          "type": "uint256"
        }
      ],
      "name": "safeToAdd",
      "outputs": [
        {
          "name": "",
          "type": "bool"
        }
      ],
      "payable": false,
      "stateMutability": "pure",
      "type": "function"
    },
    {
      "constant": true,
      "inputs": [],
      "name": "auctioneer",
      "outputs": [
        {
          "name": "",
          "type": "address"
        }
      ],
      "payable": false,
      "stateMutability": "view",
      "type": "function"
    },
    {
      "constant": true,
      "inputs": [],
      "name": "newMasterCopy",
      "outputs": [
        {
          "name": "",
          "type": "address"
        }
      ],
      "payable": false,
      "stateMutability": "view",
      "type": "function"
    },
    {
      "constant": true,
      "inputs": [
        {
          "name": "a",
          "type": "uint256"
        },
        {
          "name": "b",
          "type": "uint256"
        }
      ],
      "name": "add",
      "outputs": [
        {
          "name": "",
          "type": "uint256"
        }
      ],
      "payable": false,
      "stateMutability": "pure",
      "type": "function"
    },
    {
      "constant": false,
      "inputs": [
        {
          "name": "_auctioneer",
          "type": "address"
        }
      ],
      "name": "updateAuctioneer",
      "outputs": [],
      "payable": false,
      "stateMutability": "nonpayable",
      "type": "function"
    },
    {
      "constant": true,
      "inputs": [
        {
          "name": "a",
          "type": "uint256"
        },
        {
          "name": "b",
          "type": "uint256"
        }
      ],
      "name": "min",
      "outputs": [
        {
          "name": "",
          "type": "uint256"
        }
      ],
      "payable": false,
      "stateMutability": "pure",
      "type": "function"
    },
    {
      "constant": true,
      "inputs": [],
      "name": "masterCopy",
      "outputs": [
        {
          "name": "",
          "type": "address"
        }
      ],
      "payable": false,
      "stateMutability": "view",
      "type": "function"
    },
    {
      "constant": true,
      "inputs": [
        {
          "name": "a",
          "type": "uint256"
        },
        {
          "name": "b",
          "type": "uint256"
        }
      ],
      "name": "sub",
      "outputs": [
        {
          "name": "",
          "type": "uint256"
        }
      ],
      "payable": false,
      "stateMutability": "pure",
      "type": "function"
    },
    {
      "constant": true,
      "inputs": [
        {
          "name": "a",
          "type": "uint256"
        },
        {
          "name": "b",
          "type": "uint256"
        }
      ],
      "name": "mul",
      "outputs": [
        {
          "name": "",
          "type": "uint256"
        }
      ],
      "payable": false,
      "stateMutability": "pure",
      "type": "function"
    },
    {
      "constant": true,
      "inputs": [
        {
          "name": "a",
          "type": "uint256"
        },
        {
          "name": "b",
          "type": "uint256"
        }
      ],
      "name": "safeToMul",
      "outputs": [
        {
          "name": "",
          "type": "bool"
        }
      ],
      "payable": false,
      "stateMutability": "pure",
      "type": "function"
    },
    {
      "constant": true,
      "inputs": [
        {
          "name": "a",
          "type": "uint256"
        },
        {
          "name": "b",
          "type": "uint256"
        }
      ],
      "name": "safeToSub",
      "outputs": [
        {
          "name": "",
          "type": "bool"
        }
      ],
      "payable": false,
      "stateMutability": "pure",
      "type": "function"
    },
    {
      "anonymous": false,
      "inputs": [
        {
          "indexed": false,
          "name": "newMasterCopy",
          "type": "address"
        }
      ],
      "name": "NewMasterCopyProposal",
      "type": "event"
    },
    {
      "constant": false,
      "inputs": [
        {
          "name": "_masterCopy",
          "type": "address"
        }
      ],
      "name": "startMasterCopyCountdown",
      "outputs": [],
      "payable": false,
      "stateMutability": "nonpayable",
      "type": "function"
    },
    {
      "constant": false,
      "inputs": [],
      "name": "updateMasterCopy",
      "outputs": [],
      "payable": false,
      "stateMutability": "nonpayable",
      "type": "function"
    }
  ],
  "bytecode": "0x608060405234801561001057600080fd5b50610745806100206000396000f3fe608060405234801561001057600080fd5b5060043610610112576000357c010000000000000000000000000000000000000000000000000000000090048063796a8076116100b4578063c8a4ac9c11610083578063c8a4ac9c14610252578063cb10fa7614610275578063e31c71c414610298578063f625ee28146102bb57610112565b8063796a8076146101de5780637ae2b5c714610204578063a619486e14610227578063b67d77c51461022f57610112565b80634e30a66c116100f05780634e30a66c146101585780635ec2c7bf1461018f5780636ea68360146101b3578063771602f7146101bb57610112565b80630e7c0f80146101175780632cef4dac14610131578063306904681461013b575b600080fd5b61011f6102e1565b60408051918252519081900360200190f35b6101396102e7565b005b61011f6004803603602081101561015157600080fd5b50356103ab565b61017b6004803603604081101561016e57600080fd5b50803590602001356103c5565b604080519115158252519081900360200190f35b6101976103d2565b60408051600160a060020a039092168252519081900360200190f35b6101976103e1565b61011f600480360360408110156101d157600080fd5b50803590602001356103f0565b610139600480360360208110156101f457600080fd5b5035600160a060020a031661040c565b61011f6004803603604081101561021a57600080fd5b50803590602001356104d1565b6101976104e9565b61011f6004803603604081101561024557600080fd5b50803590602001356104f8565b61011f6004803603604081101561026857600080fd5b5080359060200135610515565b61017b6004803603604081101561028b57600080fd5b5080359060200135610531565b61017b600480360360408110156102ae57600080fd5b5080359060200135610553565b610139600480360360208110156102d157600080fd5b5035600160a060020a0316610558565b60035481565b600254600160a060020a031615156103335760405160e560020a62461bcd02815260040180806020018281038252602b8152602001806106ef602b913960400191505060405180910390fd5b6003544210156103775760405160e560020a62461bcd02815260040180806020018281038252603981526020018061068c6039913960400191505060405180910390fd5b600280546000805473ffffffffffffffffffffffffffffffffffffffff19908116600160a060020a03841617909155169055565b6000808212156103bd575060006103c0565b50805b919050565b8082018211155b92915050565b600154600160a060020a031681565b600254600160a060020a031681565b60006103fc83836103c5565b151561040757600080fd5b500190565b600154600160a060020a031633146104585760405160e560020a62461bcd02815260040180806020018281038252602a8152602001806106c5602a913960400191505060405180910390fd5b600160a060020a03811615156104a25760405160e560020a62461bcd0281526004018080602001828103825260268152602001806106666026913960400191505060405180910390fd5b6001805473ffffffffffffffffffffffffffffffffffffffff1916600160a060020a0392909216919091179055565b6000818310156104e25750816103cc565b50806103cc565b600054600160a060020a031681565b60006105048383610553565b151561050f57600080fd5b50900390565b60006105218383610531565b151561052c57600080fd5b500290565b600081158061054c5750828283850281151561054957fe5b04145b9392505050565b111590565b600154600160a060020a031633146105a45760405160e560020a62461bcd02815260040180806020018281038252602a8152602001806106c5602a913960400191505060405180910390fd5b600160a060020a03811615156105ee5760405160e560020a62461bcd02815260040180806020018281038252602b8152602001806106ef602b913960400191505060405180910390fd5b6002805473ffffffffffffffffffffffffffffffffffffffff1916600160a060020a0383161790556106234262278d006103f0565b60035560408051600160a060020a038316815290517f36dceb79f427eda3edba9ac3c1d4db7a6e4d0b8637d97320847d93fa8e2f7a049181900360200190a15056fe5468652061756374696f6e656572206d75737420626520612076616c69642061646472657373546865206d617374657220636f6e74726163742063616e6e6f74206265207570646174656420696e20612077616974696e6720706572696f644f6e6c79207468652061756374696f6e6565722063616e206e6f6d696e6174652061206e6577206f6e65546865206e6577206d617374657220636f7079206d75737420626520612076616c69642061646472657373a165627a7a7230582095f953c3fa0f8ea148df2a2b2393ba0cb2136c9b8ed9ed3a75bdb844f9c7941b0029",
  "source": "pragma solidity ^0.5.2;\n\nimport \"./DxMath.sol\";\nimport \"./AuctioneerManaged.sol\";\nimport \"@gnosis.pm/util-contracts/contracts/Proxy.sol\";\n\n\ncontract DxUpgrade is Proxied, AuctioneerManaged, DxMath {\n    uint constant WAITING_PERIOD_CHANGE_MASTERCOPY = 30 days;\n\n    address public newMasterCopy;\n    // Time when new masterCopy is updatabale\n    uint public masterCopyCountdown;\n\n    event NewMasterCopyProposal(address newMasterCopy);\n\n    function startMasterCopyCountdown(address _masterCopy) public onlyAuctioneer {\n        require(_masterCopy != address(0), \"The new master copy must be a valid address\");\n\n        // Update masterCopyCountdown\n        newMasterCopy = _masterCopy;\n        masterCopyCountdown = add(block.timestamp, WAITING_PERIOD_CHANGE_MASTERCOPY);\n        emit NewMasterCopyProposal(_masterCopy);\n    }\n\n    function updateMasterCopy() public {\n        require(newMasterCopy != address(0), \"The new master copy must be a valid address\");\n        require(block.timestamp >= masterCopyCountdown, \"The master contract cannot be updated in a waiting period\");\n\n        // Update masterCopy\n        masterCopy = newMasterCopy;\n        newMasterCopy = address(0);\n    }\n\n}\n",
  "sourcePath": "@gnosis.pm/dx-contracts/contracts/base/DxUpgrade.sol",
  "compiler": {
    "name": "solc",
    "version": "0.5.2+commit.1df8f40c.Emscripten.clang"
  },
  "schemaVersion": "3.0.1",
  "updatedAt": "2019-01-18T08:01:22.360Z",
  "devdoc": {
    "methods": {
      "add(uint256,uint256)": {
        "details": "Returns sum if no overflow occurred",
        "params": {
          "a": "First addend",
          "b": "Second addend"
        },
        "return": "Sum"
      },
      "mul(uint256,uint256)": {
        "details": "Returns product if no overflow occurred",
        "params": {
          "a": "First factor",
          "b": "Second factor"
        },
        "return": "Product"
      },
      "safeToAdd(uint256,uint256)": {
        "details": "Returns whether an add operation causes an overflow",
        "params": {
          "a": "First addend",
          "b": "Second addend"
        },
        "return": "Did no overflow occur?"
      },
      "safeToMul(uint256,uint256)": {
        "details": "Returns whether a multiply operation causes an overflow",
        "params": {
          "a": "First factor",
          "b": "Second factor"
        },
        "return": "Did no overflow occur?"
      },
      "safeToSub(uint256,uint256)": {
        "details": "Returns whether a subtraction operation causes an underflow",
        "params": {
          "a": "Minuend",
          "b": "Subtrahend"
        },
        "return": "Did no underflow occur?"
      },
      "sub(uint256,uint256)": {
        "details": "Returns difference if no overflow occurred",
        "params": {
          "a": "Minuend",
          "b": "Subtrahend"
        },
        "return": "Difference"
      }
    }
  },
  "userdoc": {
    "methods": {}
  }
}