{
  "contractName": "EthOracle",
  "abi": [
    {
      "constant": true,
      "inputs": [
        {
          "name": "a",
          "type": "int256"
        }
      ],
      "name": "atleastZero",
      "outputs": [
        {
          "name": "",
          "type": "uint256"
        }
      ],
      "payable": false,
      "stateMutability": "pure",
      "type": "function"
    },
    {
      "constant": true,
      "inputs": [
        {
          "name": "a",
          "type": "uint256"
        },
        {
          "name": "b",
          "type": "uint256"
        }
      ],
      "name": "safeToAdd",
      "outputs": [
        {
          "name": "",
          "type": "bool"
        }
      ],
      "payable": false,
      "stateMutability": "pure",
      "type": "function"
    },
    {
      "constant": true,
      "inputs": [],
      "name": "auctioneer",
      "outputs": [
        {
          "name": "",
          "type": "address"
        }
      ],
      "payable": false,
      "stateMutability": "view",
      "type": "function"
    },
    {
      "constant": true,
      "inputs": [],
      "name": "ethUSDOracle",
      "outputs": [
        {
          "name": "",
          "type": "address"
        }
      ],
      "payable": false,
      "stateMutability": "view",
      "type": "function"
    },
    {
      "constant": true,
      "inputs": [
        {
          "name": "a",
          "type": "uint256"
        },
        {
          "name": "b",
          "type": "uint256"
        }
      ],
      "name": "add",
      "outputs": [
        {
          "name": "",
          "type": "uint256"
        }
      ],
      "payable": false,
      "stateMutability": "pure",
      "type": "function"
    },
    {
      "constant": false,
      "inputs": [
        {
          "name": "_auctioneer",
          "type": "address"
        }
      ],
      "name": "updateAuctioneer",
      "outputs": [],
      "payable": false,
      "stateMutability": "nonpayable",
      "type": "function"
    },
    {
      "constant": true,
      "inputs": [
        {
          "name": "a",
          "type": "uint256"
        },
        {
          "name": "b",
          "type": "uint256"
        }
      ],
      "name": "min",
      "outputs": [
        {
          "name": "",
          "type": "uint256"
        }
      ],
      "payable": false,
      "stateMutability": "pure",
      "type": "function"
    },
    {
      "constant": true,
      "inputs": [],
      "name": "oracleInterfaceCountdown",
      "outputs": [
        {
          "name": "",
          "type": "uint256"
        }
      ],
      "payable": false,
      "stateMutability": "view",
      "type": "function"
    },
    {
      "constant": true,
      "inputs": [
        {
          "name": "a",
          "type": "uint256"
        },
        {
          "name": "b",
          "type": "uint256"
        }
      ],
      "name": "sub",
      "outputs": [
        {
          "name": "",
          "type": "uint256"
        }
      ],
      "payable": false,
      "stateMutability": "pure",
      "type": "function"
    },
    {
      "constant": true,
      "inputs": [
        {
          "name": "a",
          "type": "uint256"
        },
        {
          "name": "b",
          "type": "uint256"
        }
      ],
      "name": "mul",
      "outputs": [
        {
          "name": "",
          "type": "uint256"
        }
      ],
      "payable": false,
      "stateMutability": "pure",
      "type": "function"
    },
    {
      "constant": true,
      "inputs": [
        {
          "name": "a",
          "type": "uint256"
        },
        {
          "name": "b",
          "type": "uint256"
        }
      ],
      "name": "safeToMul",
      "outputs": [
        {
          "name": "",
          "type": "bool"
        }
      ],
      "payable": false,
      "stateMutability": "pure",
      "type": "function"
    },
    {
      "constant": true,
      "inputs": [],
      "name": "newProposalEthUSDOracle",
      "outputs": [
        {
          "name": "",
          "type": "address"
        }
      ],
      "payable": false,
      "stateMutability": "view",
      "type": "function"
    },
    {
      "constant": true,
      "inputs": [
        {
          "name": "a",
          "type": "uint256"
        },
        {
          "name": "b",
          "type": "uint256"
        }
      ],
      "name": "safeToSub",
      "outputs": [
        {
          "name": "",
          "type": "bool"
        }
      ],
      "payable": false,
      "stateMutability": "pure",
      "type": "function"
    },
    {
      "anonymous": false,
      "inputs": [
        {
          "indexed": false,
          "name": "priceOracleInterface",
          "type": "address"
        }
      ],
      "name": "NewOracleProposal",
      "type": "event"
    },
    {
      "constant": false,
      "inputs": [
        {
          "name": "_ethUSDOracle",
          "type": "address"
        }
      ],
      "name": "initiateEthUsdOracleUpdate",
      "outputs": [],
      "payable": false,
      "stateMutability": "nonpayable",
      "type": "function"
    },
    {
      "constant": false,
      "inputs": [],
      "name": "updateEthUSDOracle",
      "outputs": [],
      "payable": false,
      "stateMutability": "nonpayable",
      "type": "function"
    }
  ],
  "bytecode": "0x608060405234801561001057600080fd5b5061075d806100206000396000f3fe608060405234801561001057600080fd5b5060043610610112576000357c0100000000000000000000000000000000000000000000000000000000900480637ae2b5c7116100b4578063cb10fa7611610083578063cb10fa761461028b578063cd04ccfc146102ae578063e31c71c4146102b6578063f4279d1f146102d957610112565b80637ae2b5c71461021a578063a48cef4a1461023d578063b67d77c514610245578063c8a4ac9c1461026857610112565b80635ec2c7bf116100f05780635ec2c7bf146101a5578063706eb3ab146101c9578063771602f7146101d1578063796a8076146101f457610112565b80633069046814610117578063403fbf54146101465780634e30a66c1461016e575b600080fd5b6101346004803603602081101561012d57600080fd5b50356102e1565b60408051918252519081900360200190f35b61016c6004803603602081101561015c57600080fd5b5035600160a060020a03166102fb565b005b6101916004803603604081101561018457600080fd5b508035906020013561041e565b604080519115158252519081900360200190f35b6101ad61042b565b60408051600160a060020a039092168252519081900360200190f35b6101ad61043a565b610134600480360360408110156101e757600080fd5b5080359060200135610449565b61016c6004803603602081101561020a57600080fd5b5035600160a060020a0316610465565b6101346004803603604081101561023057600080fd5b508035906020013561052a565b610134610542565b6101346004803603604081101561025b57600080fd5b5080359060200135610548565b6101346004803603604081101561027e57600080fd5b5080359060200135610565565b610191600480360360408110156102a157600080fd5b5080359060200135610581565b6101ad6105a3565b610191600480360360408110156102cc57600080fd5b50803590602001356105b2565b61016c6105b7565b6000808212156102f3575060006102f6565b50805b919050565b600054600160a060020a031633146103475760405160e560020a62461bcd02815260040180806020018281038252602a8152602001806106c8602a913960400191505060405180910390fd5b600160a060020a03811615156103a7576040805160e560020a62461bcd02815260206004820181905260248201527f546865206f7261636c652061646472657373206d7573742062652076616c6964604482015290519081900360640190fd5b6002805473ffffffffffffffffffffffffffffffffffffffff1916600160a060020a0383161790556103dc4262278d00610449565b60035560408051600160a060020a038316815290517f3f174cfd713408ca6e4620d1efcc241b23fc39aa7d4694bd98610d3384dc001c9181900360200190a150565b8082018211155b92915050565b600054600160a060020a031681565b600154600160a060020a031681565b6000610455838361041e565b151561046057600080fd5b500190565b600054600160a060020a031633146104b15760405160e560020a62461bcd02815260040180806020018281038252602a8152602001806106c8602a913960400191505060405180910390fd5b600160a060020a03811615156104fb5760405160e560020a62461bcd0281526004018080602001828103825260268152602001806106a26026913960400191505060405180910390fd5b6000805473ffffffffffffffffffffffffffffffffffffffff1916600160a060020a0392909216919091179055565b60008183101561053b575081610425565b5080610425565b60035481565b600061055483836105b2565b151561055f57600080fd5b50900390565b60006105718383610581565b151561057c57600080fd5b500290565b600081158061059c5750828283850281151561059957fe5b04145b9392505050565b600254600160a060020a031681565b111590565b600254600160a060020a031615156106035760405160e560020a62461bcd02815260040180806020018281038252602781526020018061067b6027913960400191505060405180910390fd5b60035442116106465760405160e560020a62461bcd0281526004018080602001828103825260408152602001806106f26040913960400191505060405180910390fd5b600280546001805473ffffffffffffffffffffffffffffffffffffffff19908116600160a060020a0384161790915516905556fe546865206e65772070726f706f73616c206d75737420626520612076616c6964206164647265735468652061756374696f6e656572206d75737420626520612076616c696420616464726573734f6e6c79207468652061756374696f6e6565722063616e206e6f6d696e6174652061206e6577206f6e6549742773206e6f7420706f737369626c6520746f2075706461746520746865206f7261636c6520647572696e67207468652077616974696e6720706572696f64a165627a7a723058209e0c20ab72730c88ace7ed26ebb25cd38262a3a5aeca381e4da8842cf995862d0029",
  "source": "pragma solidity ^0.5.2;\n\nimport \"../Oracle/PriceOracleInterface.sol\";\nimport \"./AuctioneerManaged.sol\";\nimport \"./DxMath.sol\";\n\n\ncontract EthOracle is AuctioneerManaged, DxMath {\n    uint constant WAITING_PERIOD_CHANGE_ORACLE = 30 days;\n\n    // Price Oracle interface\n    PriceOracleInterface public ethUSDOracle;\n    // Price Oracle interface proposals during update process\n    PriceOracleInterface public newProposalEthUSDOracle;\n\n    uint public oracleInterfaceCountdown;\n\n    event NewOracleProposal(PriceOracleInterface priceOracleInterface);\n\n    function initiateEthUsdOracleUpdate(PriceOracleInterface _ethUSDOracle) public onlyAuctioneer {\n        require(address(_ethUSDOracle) != address(0), \"The oracle address must be valid\");\n        newProposalEthUSDOracle = _ethUSDOracle;\n        oracleInterfaceCountdown = add(block.timestamp, WAITING_PERIOD_CHANGE_ORACLE);\n        emit NewOracleProposal(_ethUSDOracle);\n    }\n\n    function updateEthUSDOracle() public {\n        require(address(newProposalEthUSDOracle) != address(0), \"The new proposal must be a valid addres\");\n        require(\n            oracleInterfaceCountdown < block.timestamp,\n            \"It's not possible to update the oracle during the waiting period\"\n        );\n        ethUSDOracle = newProposalEthUSDOracle;\n        newProposalEthUSDOracle = PriceOracleInterface(0);\n    }\n}\n",
  "sourcePath": "@gnosis.pm/dx-contracts/contracts/base/EthOracle.sol",
  "compiler": {
    "name": "solc",
    "version": "0.5.2+commit.1df8f40c.Emscripten.clang"
  },
  "schemaVersion": "3.0.1",
  "updatedAt": "2019-01-18T08:01:22.361Z",
  "devdoc": {
    "methods": {
      "add(uint256,uint256)": {
        "details": "Returns sum if no overflow occurred",
        "params": {
          "a": "First addend",
          "b": "Second addend"
        },
        "return": "Sum"
      },
      "mul(uint256,uint256)": {
        "details": "Returns product if no overflow occurred",
        "params": {
          "a": "First factor",
          "b": "Second factor"
        },
        "return": "Product"
      },
      "safeToAdd(uint256,uint256)": {
        "details": "Returns whether an add operation causes an overflow",
        "params": {
          "a": "First addend",
          "b": "Second addend"
        },
        "return": "Did no overflow occur?"
      },
      "safeToMul(uint256,uint256)": {
        "details": "Returns whether a multiply operation causes an overflow",
        "params": {
          "a": "First factor",
          "b": "Second factor"
        },
        "return": "Did no overflow occur?"
      },
      "safeToSub(uint256,uint256)": {
        "details": "Returns whether a subtraction operation causes an underflow",
        "params": {
          "a": "Minuend",
          "b": "Subtrahend"
        },
        "return": "Did no underflow occur?"
      },
      "sub(uint256,uint256)": {
        "details": "Returns difference if no overflow occurred",
        "params": {
          "a": "Minuend",
          "b": "Subtrahend"
        },
        "return": "Difference"
      }
    }
  },
  "userdoc": {
    "methods": {}
  }
}