{
  "contractName": "EthOracle",
  "abi": [
    {
      "constant": true,
      "inputs": [
        {
          "name": "a",
          "type": "int256"
        }
      ],
      "name": "atleastZero",
      "outputs": [
        {
          "name": "",
          "type": "uint256"
        }
      ],
      "payable": false,
      "stateMutability": "pure",
      "type": "function"
    },
    {
      "constant": true,
      "inputs": [
        {
          "name": "a",
          "type": "uint256"
        },
        {
          "name": "b",
          "type": "uint256"
        }
      ],
      "name": "safeToAdd",
      "outputs": [
        {
          "name": "",
          "type": "bool"
        }
      ],
      "payable": false,
      "stateMutability": "pure",
      "type": "function"
    },
    {
      "constant": true,
      "inputs": [],
      "name": "auctioneer",
      "outputs": [
        {
          "name": "",
          "type": "address"
        }
      ],
      "payable": false,
      "stateMutability": "view",
      "type": "function"
    },
    {
      "constant": true,
      "inputs": [],
      "name": "ethUSDOracle",
      "outputs": [
        {
          "name": "",
          "type": "address"
        }
      ],
      "payable": false,
      "stateMutability": "view",
      "type": "function"
    },
    {
      "constant": true,
      "inputs": [
        {
          "name": "a",
          "type": "uint256"
        },
        {
          "name": "b",
          "type": "uint256"
        }
      ],
      "name": "add",
      "outputs": [
        {
          "name": "",
          "type": "uint256"
        }
      ],
      "payable": false,
      "stateMutability": "pure",
      "type": "function"
    },
    {
      "constant": false,
      "inputs": [
        {
          "name": "_auctioneer",
          "type": "address"
        }
      ],
      "name": "updateAuctioneer",
      "outputs": [],
      "payable": false,
      "stateMutability": "nonpayable",
      "type": "function"
    },
    {
      "constant": true,
      "inputs": [
        {
          "name": "a",
          "type": "uint256"
        },
        {
          "name": "b",
          "type": "uint256"
        }
      ],
      "name": "min",
      "outputs": [
        {
          "name": "",
          "type": "uint256"
        }
      ],
      "payable": false,
      "stateMutability": "pure",
      "type": "function"
    },
    {
      "constant": true,
      "inputs": [],
      "name": "oracleInterfaceCountdown",
      "outputs": [
        {
          "name": "",
          "type": "uint256"
        }
      ],
      "payable": false,
      "stateMutability": "view",
      "type": "function"
    },
    {
      "constant": true,
      "inputs": [
        {
          "name": "a",
          "type": "uint256"
        },
        {
          "name": "b",
          "type": "uint256"
        }
      ],
      "name": "sub",
      "outputs": [
        {
          "name": "",
          "type": "uint256"
        }
      ],
      "payable": false,
      "stateMutability": "pure",
      "type": "function"
    },
    {
      "constant": true,
      "inputs": [
        {
          "name": "a",
          "type": "uint256"
        },
        {
          "name": "b",
          "type": "uint256"
        }
      ],
      "name": "mul",
      "outputs": [
        {
          "name": "",
          "type": "uint256"
        }
      ],
      "payable": false,
      "stateMutability": "pure",
      "type": "function"
    },
    {
      "constant": true,
      "inputs": [
        {
          "name": "a",
          "type": "uint256"
        },
        {
          "name": "b",
          "type": "uint256"
        }
      ],
      "name": "safeToMul",
      "outputs": [
        {
          "name": "",
          "type": "bool"
        }
      ],
      "payable": false,
      "stateMutability": "pure",
      "type": "function"
    },
    {
      "constant": true,
      "inputs": [],
      "name": "newProposalEthUSDOracle",
      "outputs": [
        {
          "name": "",
          "type": "address"
        }
      ],
      "payable": false,
      "stateMutability": "view",
      "type": "function"
    },
    {
      "constant": true,
      "inputs": [
        {
          "name": "a",
          "type": "uint256"
        },
        {
          "name": "b",
          "type": "uint256"
        }
      ],
      "name": "safeToSub",
      "outputs": [
        {
          "name": "",
          "type": "bool"
        }
      ],
      "payable": false,
      "stateMutability": "pure",
      "type": "function"
    },
    {
      "anonymous": false,
      "inputs": [
        {
          "indexed": false,
          "name": "priceOracleInterface",
          "type": "address"
        }
      ],
      "name": "NewOracleProposal",
      "type": "event"
    },
    {
      "constant": false,
      "inputs": [
        {
          "name": "_ethUSDOracle",
          "type": "address"
        }
      ],
      "name": "initiateEthUsdOracleUpdate",
      "outputs": [],
      "payable": false,
      "stateMutability": "nonpayable",
      "type": "function"
    },
    {
      "constant": false,
      "inputs": [],
      "name": "updateEthUSDOracle",
      "outputs": [],
      "payable": false,
      "stateMutability": "nonpayable",
      "type": "function"
    }
  ],
  "bytecode": "0x608060405234801561001057600080fd5b5061081c806100206000396000f3006080604052600436106100da5763ffffffff7c01000000000000000000000000000000000000000000000000000000006000350416633069046881146100df578063403fbf54146101095780634e30a66c1461012c5780635ec2c7bf1461015b578063706eb3ab1461018c578063771602f7146101a1578063796a8076146101bc5780637ae2b5c7146101dd578063a48cef4a146101f8578063b67d77c51461020d578063c8a4ac9c14610228578063cb10fa7614610243578063cd04ccfc1461025e578063e31c71c414610273578063f4279d1f1461028e575b600080fd5b3480156100eb57600080fd5b506100f76004356102a3565b60408051918252519081900360200190f35b34801561011557600080fd5b5061012a600160a060020a03600435166102bd565b005b34801561013857600080fd5b5061014760043560243561041c565b604080519115158252519081900360200190f35b34801561016757600080fd5b50610170610429565b60408051600160a060020a039092168252519081900360200190f35b34801561019857600080fd5b50610170610438565b3480156101ad57600080fd5b506100f7600435602435610447565b3480156101c857600080fd5b5061012a600160a060020a0360043516610463565b3480156101e957600080fd5b506100f76004356024356105a0565b34801561020457600080fd5b506100f76105b8565b34801561021957600080fd5b506100f76004356024356105be565b34801561023457600080fd5b506100f76004356024356105db565b34801561024f57600080fd5b506101476004356024356105f7565b34801561026a57600080fd5b50610170610619565b34801561027f57600080fd5b50610147600435602435610628565b34801561029a57600080fd5b5061012a61062d565b6000808212156102b5575060006102b8565b50805b919050565b600054600160a060020a03163314610345576040805160e560020a62461bcd02815260206004820152602a60248201527f4f6e6c79207468652061756374696f6e6565722063616e206e6f6d696e61746560448201527f2061206e6577206f6e6500000000000000000000000000000000000000000000606482015290519081900360840190fd5b600160a060020a03811615156103a5576040805160e560020a62461bcd02815260206004820181905260248201527f546865206f7261636c652061646472657373206d7573742062652076616c6964604482015290519081900360640190fd5b6002805473ffffffffffffffffffffffffffffffffffffffff1916600160a060020a0383161790556103da4262278d00610447565b60035560408051600160a060020a038316815290517f3f174cfd713408ca6e4620d1efcc241b23fc39aa7d4694bd98610d3384dc001c9181900360200190a150565b8082018211155b92915050565b600054600160a060020a031681565b600154600160a060020a031681565b6000610453838361041c565b151561045e57600080fd5b500190565b600054600160a060020a031633146104eb576040805160e560020a62461bcd02815260206004820152602a60248201527f4f6e6c79207468652061756374696f6e6565722063616e206e6f6d696e61746560448201527f2061206e6577206f6e6500000000000000000000000000000000000000000000606482015290519081900360840190fd5b600160a060020a0381161515610571576040805160e560020a62461bcd02815260206004820152602660248201527f5468652061756374696f6e656572206d75737420626520612076616c6964206160448201527f6464726573730000000000000000000000000000000000000000000000000000606482015290519081900360840190fd5b6000805473ffffffffffffffffffffffffffffffffffffffff1916600160a060020a0392909216919091179055565b6000818310156105b1575081610423565b5080610423565b60035481565b60006105ca8383610628565b15156105d557600080fd5b50900390565b60006105e783836105f7565b15156105f257600080fd5b500290565b60008115806106125750828283850281151561060f57fe5b04145b9392505050565b600254600160a060020a031681565b111590565b600054600160a060020a031633146106b5576040805160e560020a62461bcd02815260206004820152602a60248201527f4f6e6c79207468652061756374696f6e6565722063616e206e6f6d696e61746560448201527f2061206e6577206f6e6500000000000000000000000000000000000000000000606482015290519081900360840190fd5b600254600160a060020a0316151561073d576040805160e560020a62461bcd02815260206004820152602760248201527f546865206e65772070726f706f73616c206d75737420626520612076616c696460448201527f2061646472657300000000000000000000000000000000000000000000000000606482015290519081900360840190fd5b60035442116107bc576040805160e560020a62461bcd02815260206004820152602481018290527f49742773206e6f7420706f737369626c6520746f20757064617465207468652060448201527f6f7261636c6520647572696e67207468652077616974696e6720706572696f64606482015290519081900360840190fd5b600280546001805473ffffffffffffffffffffffffffffffffffffffff19908116600160a060020a038416179091551690555600a165627a7a723058201600f4e6955082682e594b57b8fd420117c62718e88715d9cb8b797d6d3c112b0029",
  "source": "pragma solidity ^0.4.11;\n\nimport \"../Oracle/PriceOracleInterface.sol\";\nimport \"./AuctioneerManaged.sol\";\nimport \"./DxMath.sol\";\n\ncontract EthOracle is AuctioneerManaged, DxMath {\n    uint constant WAITING_PERIOD_CHANGE_ORACLE = 30 days;\n    \n    // Price Oracle interface \n    PriceOracleInterface public ethUSDOracle;\n    // Price Oracle interface proposals during update process\n    PriceOracleInterface public newProposalEthUSDOracle;\n    \n    uint public oracleInterfaceCountdown;\n\n    event NewOracleProposal(\n         PriceOracleInterface priceOracleInterface\n    );\n\n    function initiateEthUsdOracleUpdate(\n        PriceOracleInterface _ethUSDOracle\n    )\n        public\n        onlyAuctioneer\n    {         \n        require(address(_ethUSDOracle) != address(0), \"The oracle address must be valid\");\n        newProposalEthUSDOracle = _ethUSDOracle;\n        oracleInterfaceCountdown = add(block.timestamp, WAITING_PERIOD_CHANGE_ORACLE);\n        emit NewOracleProposal(_ethUSDOracle);\n    }\n\n\n    function updateEthUSDOracle()\n        public\n        onlyAuctioneer\n    {\n        require(address(newProposalEthUSDOracle) != address(0), \"The new proposal must be a valid addres\");\n        require(oracleInterfaceCountdown < block.timestamp, \"It's not possible to update the oracle during the waiting period\");\n        ethUSDOracle = newProposalEthUSDOracle;\n        newProposalEthUSDOracle = PriceOracleInterface(0);\n    }\n}\n",
  "sourcePath": "/mnt/bf1642c6-3903-4bb8-b254-88a427e7ab47/Home/David/Documents/Work/Gnosis/dx-contracts/contracts/base/EthOracle.sol",
  "compiler": {
    "name": "solc",
    "version": "0.4.25+commit.59dbf8f1.Emscripten.clang"
  },
  "schemaVersion": "2.0.2",
  "updatedAt": "2019-01-04T11:06:42.161Z"
}