{
  "contractName": "GnosisStandardToken",
  "abi": [
    {
      "anonymous": false,
      "inputs": [
        {
          "indexed": true,
          "name": "from",
          "type": "address"
        },
        {
          "indexed": true,
          "name": "to",
          "type": "address"
        },
        {
          "indexed": false,
          "name": "value",
          "type": "uint256"
        }
      ],
      "name": "Transfer",
      "type": "event"
    },
    {
      "anonymous": false,
      "inputs": [
        {
          "indexed": true,
          "name": "owner",
          "type": "address"
        },
        {
          "indexed": true,
          "name": "spender",
          "type": "address"
        },
        {
          "indexed": false,
          "name": "value",
          "type": "uint256"
        }
      ],
      "name": "Approval",
      "type": "event"
    },
    {
      "constant": false,
      "inputs": [
        {
          "name": "to",
          "type": "address"
        },
        {
          "name": "value",
          "type": "uint256"
        }
      ],
      "name": "transfer",
      "outputs": [
        {
          "name": "",
          "type": "bool"
        }
      ],
      "payable": false,
      "stateMutability": "nonpayable",
      "type": "function"
    },
    {
      "constant": false,
      "inputs": [
        {
          "name": "from",
          "type": "address"
        },
        {
          "name": "to",
          "type": "address"
        },
        {
          "name": "value",
          "type": "uint256"
        }
      ],
      "name": "transferFrom",
      "outputs": [
        {
          "name": "",
          "type": "bool"
        }
      ],
      "payable": false,
      "stateMutability": "nonpayable",
      "type": "function"
    },
    {
      "constant": false,
      "inputs": [
        {
          "name": "spender",
          "type": "address"
        },
        {
          "name": "value",
          "type": "uint256"
        }
      ],
      "name": "approve",
      "outputs": [
        {
          "name": "",
          "type": "bool"
        }
      ],
      "payable": false,
      "stateMutability": "nonpayable",
      "type": "function"
    },
    {
      "constant": true,
      "inputs": [
        {
          "name": "owner",
          "type": "address"
        },
        {
          "name": "spender",
          "type": "address"
        }
      ],
      "name": "allowance",
      "outputs": [
        {
          "name": "",
          "type": "uint256"
        }
      ],
      "payable": false,
      "stateMutability": "view",
      "type": "function"
    },
    {
      "constant": true,
      "inputs": [
        {
          "name": "owner",
          "type": "address"
        }
      ],
      "name": "balanceOf",
      "outputs": [
        {
          "name": "",
          "type": "uint256"
        }
      ],
      "payable": false,
      "stateMutability": "view",
      "type": "function"
    },
    {
      "constant": true,
      "inputs": [],
      "name": "totalSupply",
      "outputs": [
        {
          "name": "",
          "type": "uint256"
        }
      ],
      "payable": false,
      "stateMutability": "view",
      "type": "function"
    }
  ],
  "bytecode": "0x608060405234801561001057600080fd5b50610454806100206000396000f3006080604052600436106100775763ffffffff7c0100000000000000000000000000000000000000000000000000000000600035041663095ea7b3811461007c57806318160ddd146100b457806323b872dd146100db57806370a0823114610105578063a9059cbb14610126578063dd62ed3e1461014a575b600080fd5b34801561008857600080fd5b506100a0600160a060020a0360043516602435610171565b604080519115158252519081900360200190f35b3480156100c057600080fd5b506100c96101d8565b60408051918252519081900360200190f35b3480156100e757600080fd5b506100a0600160a060020a03600435811690602435166044356101de565b34801561011157600080fd5b506100c9600160a060020a036004351661030b565b34801561013257600080fd5b506100a0600160a060020a0360043516602435610326565b34801561015657600080fd5b506100c9600160a060020a03600435811690602435166103f1565b336000818152600160209081526040808320600160a060020a038716808552908352818420869055815186815291519394909390927f8c5be1e5ebec7d5bd14f71427d1e84f3dd0314c0f7b2291e5b200ac8c7c3b925928290030190a35060015b92915050565b60025490565b600160a060020a038316600090815260208190526040812054610207908363ffffffff61041c16565b15806102445750600160a060020a0384166000908152600160209081526040808320338452909152902054610242908363ffffffff61041c16565b155b806102755750600160a060020a038316600090815260208190526040902054610273908363ffffffff61042116565b155b1561028257506000610304565b600160a060020a038085166000818152602081815260408083208054889003905560018252808320338452825280832080548890039055938716808352828252918490208054870190558351868152935191937fddf252ad1be2c89b69c2b068fc378daa952ba7f163c4a11628f55a4df523b3ef929081900390910190a35060015b9392505050565b600160a060020a031660009081526020819052604090205490565b33600090815260208190526040812054610346908363ffffffff61041c16565b15806103785750600160a060020a038316600090815260208190526040902054610376908363ffffffff61042116565b155b15610385575060006101d2565b3360008181526020818152604080832080548790039055600160a060020a03871680845292819020805487019055805186815290519293927fddf252ad1be2c89b69c2b068fc378daa952ba7f163c4a11628f55a4df523b3ef929181900390910190a350600192915050565b600160a060020a03918216600090815260016020908152604080832093909416825291909152205490565b111590565b81011015905600a165627a7a72305820f0c4d623388dd569bb6185d2809990284d4f96699609f4fd30a6fb136ec2671f0029",
  "source": "pragma solidity ^0.4.24;\nimport \"./Token.sol\";\nimport \"./Math.sol\";\nimport \"./Proxy.sol\";\n\n\n/**\n * Deprecated: Use Open Zeppeling one instead\n */\ncontract StandardTokenData {\n\n    /*\n     *  Storage\n     */\n    mapping (address => uint) balances;\n    mapping (address => mapping (address => uint)) allowances;\n    uint totalTokens;\n}\n\n\n/**\n * Deprecated: Use Open Zeppeling one instead\n */\n/// @title Standard token contract with overflow protection\ncontract GnosisStandardToken is Token, StandardTokenData {\n    using Math for *;\n\n    /*\n     *  Public functions\n     */\n    /// @dev Transfers sender's tokens to a given address. Returns success\n    /// @param to Address of token receiver\n    /// @param value Number of tokens to transfer\n    /// @return Was transfer successful?\n    function transfer(address to, uint value)\n        public\n        returns (bool)\n    {\n        if (!balances[msg.sender].safeToSub(value) ||\n            !balances[to].safeToAdd(value)) {\n            return false;\n        }\n\n        balances[msg.sender] -= value;\n        balances[to] += value;\n        emit Transfer(msg.sender, to, value);\n        return true;\n    }\n\n    /// @dev Allows allowed third party to transfer tokens from one address to another. Returns success\n    /// @param from Address from where tokens are withdrawn\n    /// @param to Address to where tokens are sent\n    /// @param value Number of tokens to transfer\n    /// @return Was transfer successful?\n    function transferFrom(address from, address to, uint value)\n        public\n        returns (bool)\n    {\n        if (!balances[from].safeToSub(value) ||\n            !allowances[from][msg.sender].safeToSub(value) ||\n            !balances[to].safeToAdd(value)){\n            return false;\n        }\n        balances[from] -= value;\n        allowances[from][msg.sender] -= value;\n        balances[to] += value;\n        emit Transfer(from, to, value);\n        return true;\n    }\n\n    /// @dev Sets approved amount of tokens for spender. Returns success\n    /// @param spender Address of allowed account\n    /// @param value Number of approved tokens\n    /// @return Was approval successful?\n    function approve(address spender, uint value)\n        public\n        returns (bool)\n    {\n        allowances[msg.sender][spender] = value;\n        emit Approval(msg.sender, spender, value);\n        return true;\n    }\n\n    /// @dev Returns number of allowed tokens for given address\n    /// @param owner Address of token owner\n    /// @param spender Address of token spender\n    /// @return Remaining allowance for spender\n    function allowance(address owner, address spender)\n        public\n        view\n        returns (uint)\n    {\n        return allowances[owner][spender];\n    }\n\n    /// @dev Returns number of tokens owned by given address\n    /// @param owner Address of token owner\n    /// @return Balance of owner\n    function balanceOf(address owner)\n        public\n        view\n        returns (uint)\n    {\n        return balances[owner];\n    }\n\n    /// @dev Returns total supply of tokens\n    /// @return Total supply\n    function totalSupply()\n        public\n        view\n        returns (uint)\n    {\n        return totalTokens;\n    }\n}\n",
  "sourcePath": "@gnosis.pm/util-contracts/contracts/GnosisStandardToken.sol",
  "compiler": {
    "name": "solc",
    "version": "0.4.25+commit.59dbf8f1.Emscripten.clang"
  },
  "schemaVersion": "2.0.2",
  "updatedAt": "2019-01-04T11:06:42.171Z"
}