{
  "contractName": "InternalTests",
  "abi": [
    {
      "constant": true,
      "inputs": [
        {
          "name": "token1",
          "type": "address"
        },
        {
          "name": "token2",
          "type": "address"
        }
      ],
      "name": "getTokenOrder",
      "outputs": [
        {
          "name": "",
          "type": "address"
        },
        {
          "name": "",
          "type": "address"
        }
      ],
      "payable": false,
      "stateMutability": "pure",
      "type": "function"
    },
    {
      "constant": true,
      "inputs": [
        {
          "name": "auctionSellTokens",
          "type": "address[]"
        },
        {
          "name": "auctionBuyTokens",
          "type": "address[]"
        },
        {
          "name": "user",
          "type": "address"
        }
      ],
      "name": "getSellerBalancesOfCurrentAuctions",
      "outputs": [
        {
          "name": "",
          "type": "uint256[]"
        }
      ],
      "payable": false,
      "stateMutability": "view",
      "type": "function"
    },
    {
      "constant": true,
      "inputs": [
        {
          "name": "addressToCheck",
          "type": "address[]"
        }
      ],
      "name": "getApprovedAddressesOfList",
      "outputs": [
        {
          "name": "",
          "type": "bool[]"
        }
      ],
      "payable": false,
      "stateMutability": "view",
      "type": "function"
    },
    {
      "constant": true,
      "inputs": [],
      "name": "getMasterCopy",
      "outputs": [
        {
          "name": "",
          "type": "address"
        }
      ],
      "payable": false,
      "stateMutability": "view",
      "type": "function"
    },
    {
      "constant": false,
      "inputs": [
        {
          "name": "sellToken",
          "type": "address"
        },
        {
          "name": "buyToken",
          "type": "address"
        },
        {
          "name": "user",
          "type": "address"
        },
        {
          "name": "auctionIndex",
          "type": "uint256"
        },
        {
          "name": "amount",
          "type": "uint256"
        }
      ],
      "name": "claimAndWithdraw",
      "outputs": [
        {
          "name": "returned",
          "type": "uint256"
        },
        {
          "name": "frtsIssued",
          "type": "uint256"
        },
        {
          "name": "newBal",
          "type": "uint256"
        }
      ],
      "payable": false,
      "stateMutability": "nonpayable",
      "type": "function"
    },
    {
      "constant": false,
      "inputs": [
        {
          "name": "auctionSellTokens",
          "type": "address[]"
        },
        {
          "name": "auctionBuyTokens",
          "type": "address[]"
        },
        {
          "name": "auctionIndices",
          "type": "uint256[]"
        }
      ],
      "name": "claimAndWithdrawTokensFromSeveralAuctionsAsBuyer",
      "outputs": [
        {
          "name": "",
          "type": "uint256[]"
        },
        {
          "name": "frtsIssued",
          "type": "uint256"
        }
      ],
      "payable": false,
      "stateMutability": "nonpayable",
      "type": "function"
    },
    {
      "constant": true,
      "inputs": [],
      "name": "masterCopyCountdown",
      "outputs": [
        {
          "name": "",
          "type": "uint256"
        }
      ],
      "payable": false,
      "stateMutability": "view",
      "type": "function"
    },
    {
      "constant": true,
      "inputs": [
        {
          "name": "",
          "type": "address"
        },
        {
          "name": "",
          "type": "address"
        }
      ],
      "name": "auctionStarts",
      "outputs": [
        {
          "name": "",
          "type": "uint256"
        }
      ],
      "payable": false,
      "stateMutability": "view",
      "type": "function"
    },
    {
      "constant": true,
      "inputs": [
        {
          "name": "token1",
          "type": "address"
        },
        {
          "name": "token2",
          "type": "address"
        }
      ],
      "name": "getAuctionIndex",
      "outputs": [
        {
          "name": "auctionIndex",
          "type": "uint256"
        }
      ],
      "payable": false,
      "stateMutability": "view",
      "type": "function"
    },
    {
      "constant": false,
      "inputs": [],
      "name": "updateMasterCopy",
      "outputs": [],
      "payable": false,
      "stateMutability": "nonpayable",
      "type": "function"
    },
    {
      "constant": true,
      "inputs": [
        {
          "name": "a",
          "type": "int256"
        }
      ],
      "name": "atleastZero",
      "outputs": [
        {
          "name": "",
          "type": "uint256"
        }
      ],
      "payable": false,
      "stateMutability": "pure",
      "type": "function"
    },
    {
      "constant": true,
      "inputs": [
        {
          "name": "",
          "type": "address"
        },
        {
          "name": "",
          "type": "address"
        },
        {
          "name": "",
          "type": "uint256"
        },
        {
          "name": "",
          "type": "address"
        }
      ],
      "name": "buyerBalances",
      "outputs": [
        {
          "name": "",
          "type": "uint256"
        }
      ],
      "payable": false,
      "stateMutability": "view",
      "type": "function"
    },
    {
      "constant": false,
      "inputs": [
        {
          "name": "_ethUSDOracle",
          "type": "address"
        }
      ],
      "name": "initiateEthUsdOracleUpdate",
      "outputs": [],
      "payable": false,
      "stateMutability": "nonpayable",
      "type": "function"
    },
    {
      "constant": false,
      "inputs": [
        {
          "name": "tokenAddress",
          "type": "address"
        },
        {
          "name": "amount",
          "type": "uint256"
        }
      ],
      "name": "deposit",
      "outputs": [
        {
          "name": "",
          "type": "uint256"
        }
      ],
      "payable": false,
      "stateMutability": "nonpayable",
      "type": "function"
    },
    {
      "constant": true,
      "inputs": [
        {
          "name": "token1",
          "type": "address"
        },
        {
          "name": "token2",
          "type": "address"
        },
        {
          "name": "auctionIndex",
          "type": "uint256"
        }
      ],
      "name": "getPriceInPastAuction",
      "outputs": [
        {
          "name": "num",
          "type": "uint256"
        },
        {
          "name": "den",
          "type": "uint256"
        }
      ],
      "payable": false,
      "stateMutability": "view",
      "type": "function"
    },
    {
      "constant": true,
      "inputs": [
        {
          "name": "a",
          "type": "uint256"
        },
        {
          "name": "b",
          "type": "uint256"
        }
      ],
      "name": "safeToAdd",
      "outputs": [
        {
          "name": "",
          "type": "bool"
        }
      ],
      "payable": false,
      "stateMutability": "pure",
      "type": "function"
    },
    {
      "constant": false,
      "inputs": [
        {
          "name": "sellToken",
          "type": "address"
        },
        {
          "name": "buyToken",
          "type": "address"
        },
        {
          "name": "auctionIndex",
          "type": "uint256"
        },
        {
          "name": "amount",
          "type": "uint256"
        }
      ],
      "name": "postSellOrder",
      "outputs": [
        {
          "name": "",
          "type": "uint256"
        },
        {
          "name": "",
          "type": "uint256"
        }
      ],
      "payable": false,
      "stateMutability": "nonpayable",
      "type": "function"
    },
    {
      "constant": false,
      "inputs": [
        {
          "name": "sellToken",
          "type": "address"
        },
        {
          "name": "buyToken",
          "type": "address"
        },
        {
          "name": "auctionIndex",
          "type": "uint256"
        },
        {
          "name": "amount",
          "type": "uint256"
        }
      ],
      "name": "postBuyOrder",
      "outputs": [
        {
          "name": "",
          "type": "uint256"
        }
      ],
      "payable": false,
      "stateMutability": "nonpayable",
      "type": "function"
    },
    {
      "constant": true,
      "inputs": [],
      "name": "auctioneer",
      "outputs": [
        {
          "name": "",
          "type": "address"
        }
      ],
      "payable": false,
      "stateMutability": "view",
      "type": "function"
    },
    {
      "constant": false,
      "inputs": [
        {
          "name": "sellToken",
          "type": "address"
        },
        {
          "name": "buyToken",
          "type": "address"
        },
        {
          "name": "user",
          "type": "address"
        },
        {
          "name": "auctionIndex",
          "type": "uint256"
        }
      ],
      "name": "claimSellerFunds",
      "outputs": [
        {
          "name": "returned",
          "type": "uint256"
        },
        {
          "name": "frtsIssued",
          "type": "uint256"
        }
      ],
      "payable": false,
      "stateMutability": "nonpayable",
      "type": "function"
    },
    {
      "constant": false,
      "inputs": [
        {
          "name": "sellToken",
          "type": "address"
        },
        {
          "name": "buyToken",
          "type": "address"
        },
        {
          "name": "amount",
          "type": "uint256"
        }
      ],
      "name": "depositAndSell",
      "outputs": [
        {
          "name": "newBal",
          "type": "uint256"
        },
        {
          "name": "auctionIndex",
          "type": "uint256"
        },
        {
          "name": "newSellerBal",
          "type": "uint256"
        }
      ],
      "payable": false,
      "stateMutability": "nonpayable",
      "type": "function"
    },
    {
      "constant": false,
      "inputs": [
        {
          "name": "token",
          "type": "address[]"
        },
        {
          "name": "approved",
          "type": "bool"
        }
      ],
      "name": "updateApprovalOfToken",
      "outputs": [],
      "payable": false,
      "stateMutability": "nonpayable",
      "type": "function"
    },
    {
      "constant": true,
      "inputs": [
        {
          "name": "",
          "type": "address"
        }
      ],
      "name": "approvedTokens",
      "outputs": [
        {
          "name": "",
          "type": "bool"
        }
      ],
      "payable": false,
      "stateMutability": "view",
      "type": "function"
    },
    {
      "constant": true,
      "inputs": [],
      "name": "thresholdNewTokenPair",
      "outputs": [
        {
          "name": "",
          "type": "uint256"
        }
      ],
      "payable": false,
      "stateMutability": "view",
      "type": "function"
    },
    {
      "constant": true,
      "inputs": [],
      "name": "newMasterCopy",
      "outputs": [
        {
          "name": "",
          "type": "address"
        }
      ],
      "payable": false,
      "stateMutability": "view",
      "type": "function"
    },
    {
      "constant": true,
      "inputs": [],
      "name": "ethUSDOracle",
      "outputs": [
        {
          "name": "",
          "type": "address"
        }
      ],
      "payable": false,
      "stateMutability": "view",
      "type": "function"
    },
    {
      "constant": true,
      "inputs": [
        {
          "name": "a",
          "type": "uint256"
        },
        {
          "name": "b",
          "type": "uint256"
        }
      ],
      "name": "add",
      "outputs": [
        {
          "name": "",
          "type": "uint256"
        }
      ],
      "payable": false,
      "stateMutability": "pure",
      "type": "function"
    },
    {
      "constant": false,
      "inputs": [
        {
          "name": "auctionSellTokens",
          "type": "address[]"
        },
        {
          "name": "auctionBuyTokens",
          "type": "address[]"
        },
        {
          "name": "auctionIndices",
          "type": "uint256[]"
        },
        {
          "name": "user",
          "type": "address"
        }
      ],
      "name": "claimTokensFromSeveralAuctionsAsSeller",
      "outputs": [
        {
          "name": "",
          "type": "uint256[]"
        },
        {
          "name": "",
          "type": "uint256[]"
        }
      ],
      "payable": false,
      "stateMutability": "nonpayable",
      "type": "function"
    },
    {
      "constant": false,
      "inputs": [
        {
          "name": "_auctioneer",
          "type": "address"
        }
      ],
      "name": "updateAuctioneer",
      "outputs": [],
      "payable": false,
      "stateMutability": "nonpayable",
      "type": "function"
    },
    {
      "constant": true,
      "inputs": [
        {
          "name": "a",
          "type": "uint256"
        },
        {
          "name": "b",
          "type": "uint256"
        }
      ],
      "name": "min",
      "outputs": [
        {
          "name": "",
          "type": "uint256"
        }
      ],
      "payable": false,
      "stateMutability": "pure",
      "type": "function"
    },
    {
      "constant": true,
      "inputs": [],
      "name": "ethToken",
      "outputs": [
        {
          "name": "",
          "type": "address"
        }
      ],
      "payable": false,
      "stateMutability": "view",
      "type": "function"
    },
    {
      "constant": false,
      "inputs": [
        {
          "name": "sellToken",
          "type": "address"
        },
        {
          "name": "buyToken",
          "type": "address"
        },
        {
          "name": "auctionIndex",
          "type": "uint256"
        }
      ],
      "name": "closeTheoreticalClosedAuction",
      "outputs": [],
      "payable": false,
      "stateMutability": "nonpayable",
      "type": "function"
    },
    {
      "constant": true,
      "inputs": [],
      "name": "frtToken",
      "outputs": [
        {
          "name": "",
          "type": "address"
        }
      ],
      "payable": false,
      "stateMutability": "view",
      "type": "function"
    },
    {
      "constant": false,
      "inputs": [
        {
          "name": "auctionSellTokens",
          "type": "address[]"
        },
        {
          "name": "auctionBuyTokens",
          "type": "address[]"
        },
        {
          "name": "auctionIndices",
          "type": "uint256[]"
        }
      ],
      "name": "claimAndWithdrawTokensFromSeveralAuctionsAsSeller",
      "outputs": [
        {
          "name": "",
          "type": "uint256[]"
        },
        {
          "name": "frtsIssued",
          "type": "uint256"
        }
      ],
      "payable": false,
      "stateMutability": "nonpayable",
      "type": "function"
    },
    {
      "constant": true,
      "inputs": [
        {
          "name": "tokens",
          "type": "address[]"
        }
      ],
      "name": "getRunningTokenPairs",
      "outputs": [
        {
          "name": "tokens1",
          "type": "address[]"
        },
        {
          "name": "tokens2",
          "type": "address[]"
        }
      ],
      "payable": false,
      "stateMutability": "view",
      "type": "function"
    },
    {
      "constant": true,
      "inputs": [
        {
          "name": "",
          "type": "address"
        },
        {
          "name": "",
          "type": "address"
        },
        {
          "name": "",
          "type": "uint256"
        },
        {
          "name": "",
          "type": "address"
        }
      ],
      "name": "claimedAmounts",
      "outputs": [
        {
          "name": "",
          "type": "uint256"
        }
      ],
      "payable": false,
      "stateMutability": "view",
      "type": "function"
    },
    {
      "constant": true,
      "inputs": [],
      "name": "oracleInterfaceCountdown",
      "outputs": [
        {
          "name": "",
          "type": "uint256"
        }
      ],
      "payable": false,
      "stateMutability": "view",
      "type": "function"
    },
    {
      "constant": true,
      "inputs": [],
      "name": "masterCopy",
      "outputs": [
        {
          "name": "",
          "type": "address"
        }
      ],
      "payable": false,
      "stateMutability": "view",
      "type": "function"
    },
    {
      "constant": false,
      "inputs": [
        {
          "name": "_frtToken",
          "type": "address"
        },
        {
          "name": "_owlToken",
          "type": "address"
        },
        {
          "name": "_auctioneer",
          "type": "address"
        },
        {
          "name": "_ethToken",
          "type": "address"
        },
        {
          "name": "_ethUSDOracle",
          "type": "address"
        },
        {
          "name": "_thresholdNewTokenPair",
          "type": "uint256"
        },
        {
          "name": "_thresholdNewAuction",
          "type": "uint256"
        }
      ],
      "name": "setupDutchExchange",
      "outputs": [],
      "payable": false,
      "stateMutability": "nonpayable",
      "type": "function"
    },
    {
      "constant": false,
      "inputs": [
        {
          "name": "sellToken",
          "type": "address"
        },
        {
          "name": "buyToken",
          "type": "address"
        },
        {
          "name": "user",
          "type": "address"
        },
        {
          "name": "auctionIndex",
          "type": "uint256"
        }
      ],
      "name": "claimBuyerFunds",
      "outputs": [
        {
          "name": "returned",
          "type": "uint256"
        },
        {
          "name": "frtsIssued",
          "type": "uint256"
        }
      ],
      "payable": false,
      "stateMutability": "nonpayable",
      "type": "function"
    },
    {
      "constant": true,
      "inputs": [
        {
          "name": "",
          "type": "address"
        },
        {
          "name": "",
          "type": "address"
        }
      ],
      "name": "sellVolumesNext",
      "outputs": [
        {
          "name": "",
          "type": "uint256"
        }
      ],
      "payable": false,
      "stateMutability": "view",
      "type": "function"
    },
    {
      "constant": true,
      "inputs": [
        {
          "name": "",
          "type": "address"
        },
        {
          "name": "",
          "type": "address"
        }
      ],
      "name": "sellVolumesCurrent",
      "outputs": [
        {
          "name": "",
          "type": "uint256"
        }
      ],
      "payable": false,
      "stateMutability": "view",
      "type": "function"
    },
    {
      "constant": true,
      "inputs": [
        {
          "name": "a",
          "type": "uint256"
        },
        {
          "name": "b",
          "type": "uint256"
        }
      ],
      "name": "sub",
      "outputs": [
        {
          "name": "",
          "type": "uint256"
        }
      ],
      "payable": false,
      "stateMutability": "pure",
      "type": "function"
    },
    {
      "constant": true,
      "inputs": [
        {
          "name": "",
          "type": "address"
        },
        {
          "name": "",
          "type": "address"
        }
      ],
      "name": "buyVolumes",
      "outputs": [
        {
          "name": "",
          "type": "uint256"
        }
      ],
      "payable": false,
      "stateMutability": "view",
      "type": "function"
    },
    {
      "constant": true,
      "inputs": [
        {
          "name": "auctionSellTokens",
          "type": "address[]"
        },
        {
          "name": "auctionBuyTokens",
          "type": "address[]"
        },
        {
          "name": "user",
          "type": "address"
        }
      ],
      "name": "getBuyerBalancesOfCurrentAuctions",
      "outputs": [
        {
          "name": "",
          "type": "uint256[]"
        }
      ],
      "payable": false,
      "stateMutability": "view",
      "type": "function"
    },
    {
      "constant": true,
      "inputs": [
        {
          "name": "",
          "type": "address"
        },
        {
          "name": "",
          "type": "address"
        },
        {
          "name": "",
          "type": "uint256"
        },
        {
          "name": "",
          "type": "address"
        }
      ],
      "name": "sellerBalances",
      "outputs": [
        {
          "name": "",
          "type": "uint256"
        }
      ],
      "payable": false,
      "stateMutability": "view",
      "type": "function"
    },
    {
      "constant": true,
      "inputs": [
        {
          "name": "",
          "type": "address"
        },
        {
          "name": "",
          "type": "address"
        }
      ],
      "name": "balances",
      "outputs": [
        {
          "name": "",
          "type": "uint256"
        }
      ],
      "payable": false,
      "stateMutability": "view",
      "type": "function"
    },
    {
      "constant": false,
      "inputs": [
        {
          "name": "_thresholdNewAuction",
          "type": "uint256"
        }
      ],
      "name": "updateThresholdNewAuction",
      "outputs": [],
      "payable": false,
      "stateMutability": "nonpayable",
      "type": "function"
    },
    {
      "constant": true,
      "inputs": [
        {
          "name": "a",
          "type": "uint256"
        },
        {
          "name": "b",
          "type": "uint256"
        }
      ],
      "name": "mul",
      "outputs": [
        {
          "name": "",
          "type": "uint256"
        }
      ],
      "payable": false,
      "stateMutability": "pure",
      "type": "function"
    },
    {
      "constant": true,
      "inputs": [
        {
          "name": "a",
          "type": "uint256"
        },
        {
          "name": "b",
          "type": "uint256"
        }
      ],
      "name": "safeToMul",
      "outputs": [
        {
          "name": "",
          "type": "bool"
        }
      ],
      "payable": false,
      "stateMutability": "pure",
      "type": "function"
    },
    {
      "constant": true,
      "inputs": [],
      "name": "newProposalEthUSDOracle",
      "outputs": [
        {
          "name": "",
          "type": "address"
        }
      ],
      "payable": false,
      "stateMutability": "view",
      "type": "function"
    },
    {
      "constant": true,
      "inputs": [],
      "name": "owlToken",
      "outputs": [
        {
          "name": "",
          "type": "address"
        }
      ],
      "payable": false,
      "stateMutability": "view",
      "type": "function"
    },
    {
      "constant": true,
      "inputs": [
        {
          "name": "auctionSellToken",
          "type": "address"
        },
        {
          "name": "auctionBuyToken",
          "type": "address"
        },
        {
          "name": "user",
          "type": "address"
        },
        {
          "name": "lastNAuctions",
          "type": "uint256"
        }
      ],
      "name": "getIndicesWithClaimableTokensForBuyers",
      "outputs": [
        {
          "name": "indices",
          "type": "uint256[]"
        },
        {
          "name": "usersBalances",
          "type": "uint256[]"
        }
      ],
      "payable": false,
      "stateMutability": "view",
      "type": "function"
    },
    {
      "constant": false,
      "inputs": [
        {
          "name": "auctionSellTokens",
          "type": "address[]"
        },
        {
          "name": "auctionBuyTokens",
          "type": "address[]"
        },
        {
          "name": "auctionIndices",
          "type": "uint256[]"
        },
        {
          "name": "user",
          "type": "address"
        }
      ],
      "name": "claimTokensFromSeveralAuctionsAsBuyer",
      "outputs": [
        {
          "name": "",
          "type": "uint256[]"
        },
        {
          "name": "",
          "type": "uint256[]"
        }
      ],
      "payable": false,
      "stateMutability": "nonpayable",
      "type": "function"
    },
    {
      "constant": true,
      "inputs": [
        {
          "name": "token1",
          "type": "address"
        },
        {
          "name": "token2",
          "type": "address"
        }
      ],
      "name": "getAuctionStart",
      "outputs": [
        {
          "name": "auctionStart",
          "type": "uint256"
        }
      ],
      "payable": false,
      "stateMutability": "view",
      "type": "function"
    },
    {
      "constant": true,
      "inputs": [
        {
          "name": "sellToken",
          "type": "address"
        },
        {
          "name": "buyToken",
          "type": "address"
        },
        {
          "name": "user",
          "type": "address"
        },
        {
          "name": "auctionIndex",
          "type": "uint256"
        }
      ],
      "name": "getUnclaimedBuyerFunds",
      "outputs": [
        {
          "name": "unclaimedBuyerFunds",
          "type": "uint256"
        },
        {
          "name": "num",
          "type": "uint256"
        },
        {
          "name": "den",
          "type": "uint256"
        }
      ],
      "payable": false,
      "stateMutability": "view",
      "type": "function"
    },
    {
      "constant": false,
      "inputs": [
        {
          "name": "_thresholdNewTokenPair",
          "type": "uint256"
        }
      ],
      "name": "updateThresholdNewTokenPair",
      "outputs": [],
      "payable": false,
      "stateMutability": "nonpayable",
      "type": "function"
    },
    {
      "constant": true,
      "inputs": [
        {
          "name": "a",
          "type": "uint256"
        },
        {
          "name": "b",
          "type": "uint256"
        }
      ],
      "name": "safeToSub",
      "outputs": [
        {
          "name": "",
          "type": "bool"
        }
      ],
      "payable": false,
      "stateMutability": "pure",
      "type": "function"
    },
    {
      "constant": false,
      "inputs": [
        {
          "name": "token1",
          "type": "address"
        },
        {
          "name": "token2",
          "type": "address"
        },
        {
          "name": "token1Funding",
          "type": "uint256"
        },
        {
          "name": "token2Funding",
          "type": "uint256"
        },
        {
          "name": "initialClosingPriceNum",
          "type": "uint256"
        },
        {
          "name": "initialClosingPriceDen",
          "type": "uint256"
        }
      ],
      "name": "addTokenPair",
      "outputs": [],
      "payable": false,
      "stateMutability": "nonpayable",
      "type": "function"
    },
    {
      "constant": true,
      "inputs": [
        {
          "name": "",
          "type": "address"
        },
        {
          "name": "",
          "type": "address"
        },
        {
          "name": "",
          "type": "uint256"
        }
      ],
      "name": "closingPrices",
      "outputs": [
        {
          "name": "num",
          "type": "uint256"
        },
        {
          "name": "den",
          "type": "uint256"
        }
      ],
      "payable": false,
      "stateMutability": "view",
      "type": "function"
    },
    {
      "constant": true,
      "inputs": [
        {
          "name": "user",
          "type": "address"
        }
      ],
      "name": "getFeeRatio",
      "outputs": [
        {
          "name": "num",
          "type": "uint256"
        },
        {
          "name": "den",
          "type": "uint256"
        }
      ],
      "payable": false,
      "stateMutability": "view",
      "type": "function"
    },
    {
      "constant": true,
      "inputs": [],
      "name": "thresholdNewAuction",
      "outputs": [
        {
          "name": "",
          "type": "uint256"
        }
      ],
      "payable": false,
      "stateMutability": "view",
      "type": "function"
    },
    {
      "constant": false,
      "inputs": [
        {
          "name": "tokenAddress",
          "type": "address"
        },
        {
          "name": "amount",
          "type": "uint256"
        }
      ],
      "name": "withdraw",
      "outputs": [
        {
          "name": "",
          "type": "uint256"
        }
      ],
      "payable": false,
      "stateMutability": "nonpayable",
      "type": "function"
    },
    {
      "constant": true,
      "inputs": [
        {
          "name": "token",
          "type": "address"
        }
      ],
      "name": "getPriceOfTokenInLastAuction",
      "outputs": [
        {
          "name": "num",
          "type": "uint256"
        },
        {
          "name": "den",
          "type": "uint256"
        }
      ],
      "payable": false,
      "stateMutability": "view",
      "type": "function"
    },
    {
      "constant": false,
      "inputs": [],
      "name": "updateEthUSDOracle",
      "outputs": [],
      "payable": false,
      "stateMutability": "nonpayable",
      "type": "function"
    },
    {
      "constant": false,
      "inputs": [
        {
          "name": "_masterCopy",
          "type": "address"
        }
      ],
      "name": "startMasterCopyCountdown",
      "outputs": [],
      "payable": false,
      "stateMutability": "nonpayable",
      "type": "function"
    },
    {
      "constant": true,
      "inputs": [
        {
          "name": "",
          "type": "address"
        },
        {
          "name": "",
          "type": "address"
        },
        {
          "name": "",
          "type": "uint256"
        }
      ],
      "name": "extraTokens",
      "outputs": [
        {
          "name": "",
          "type": "uint256"
        }
      ],
      "payable": false,
      "stateMutability": "view",
      "type": "function"
    },
    {
      "constant": true,
      "inputs": [
        {
          "name": "auctionSellToken",
          "type": "address"
        },
        {
          "name": "auctionBuyToken",
          "type": "address"
        },
        {
          "name": "user",
          "type": "address"
        },
        {
          "name": "lastNAuctions",
          "type": "uint256"
        }
      ],
      "name": "getIndicesWithClaimableTokensForSellers",
      "outputs": [
        {
          "name": "indices",
          "type": "uint256[]"
        },
        {
          "name": "usersBalances",
          "type": "uint256[]"
        }
      ],
      "payable": false,
      "stateMutability": "view",
      "type": "function"
    },
    {
      "constant": true,
      "inputs": [
        {
          "name": "",
          "type": "address"
        },
        {
          "name": "",
          "type": "address"
        }
      ],
      "name": "latestAuctionIndices",
      "outputs": [
        {
          "name": "",
          "type": "uint256"
        }
      ],
      "payable": false,
      "stateMutability": "view",
      "type": "function"
    },
    {
      "constant": true,
      "inputs": [
        {
          "name": "sellToken",
          "type": "address"
        },
        {
          "name": "buyToken",
          "type": "address"
        },
        {
          "name": "auctionIndex",
          "type": "uint256"
        }
      ],
      "name": "getCurrentAuctionPrice",
      "outputs": [
        {
          "name": "num",
          "type": "uint256"
        },
        {
          "name": "den",
          "type": "uint256"
        }
      ],
      "payable": false,
      "stateMutability": "view",
      "type": "function"
    },
    {
      "inputs": [
        {
          "name": "_FRT",
          "type": "address"
        },
        {
          "name": "_OWL",
          "type": "address"
        },
        {
          "name": "_owner",
          "type": "address"
        },
        {
          "name": "_ETH",
          "type": "address"
        },
        {
          "name": "_ETHUSDOracle",
          "type": "address"
        },
        {
          "name": "_thresholdNewTokenPair",
          "type": "uint256"
        },
        {
          "name": "_thresholdNewAuction",
          "type": "uint256"
        }
      ],
      "payable": false,
      "stateMutability": "nonpayable",
      "type": "constructor"
    },
    {
      "anonymous": false,
      "inputs": [
        {
          "indexed": true,
          "name": "token",
          "type": "address"
        },
        {
          "indexed": false,
          "name": "amount",
          "type": "uint256"
        }
      ],
      "name": "NewDeposit",
      "type": "event"
    },
    {
      "anonymous": false,
      "inputs": [
        {
          "indexed": true,
          "name": "token",
          "type": "address"
        },
        {
          "indexed": false,
          "name": "amount",
          "type": "uint256"
        }
      ],
      "name": "NewWithdrawal",
      "type": "event"
    },
    {
      "anonymous": false,
      "inputs": [
        {
          "indexed": true,
          "name": "sellToken",
          "type": "address"
        },
        {
          "indexed": true,
          "name": "buyToken",
          "type": "address"
        },
        {
          "indexed": true,
          "name": "user",
          "type": "address"
        },
        {
          "indexed": false,
          "name": "auctionIndex",
          "type": "uint256"
        },
        {
          "indexed": false,
          "name": "amount",
          "type": "uint256"
        }
      ],
      "name": "NewSellOrder",
      "type": "event"
    },
    {
      "anonymous": false,
      "inputs": [
        {
          "indexed": true,
          "name": "sellToken",
          "type": "address"
        },
        {
          "indexed": true,
          "name": "buyToken",
          "type": "address"
        },
        {
          "indexed": true,
          "name": "user",
          "type": "address"
        },
        {
          "indexed": false,
          "name": "auctionIndex",
          "type": "uint256"
        },
        {
          "indexed": false,
          "name": "amount",
          "type": "uint256"
        }
      ],
      "name": "NewBuyOrder",
      "type": "event"
    },
    {
      "anonymous": false,
      "inputs": [
        {
          "indexed": true,
          "name": "sellToken",
          "type": "address"
        },
        {
          "indexed": true,
          "name": "buyToken",
          "type": "address"
        },
        {
          "indexed": true,
          "name": "user",
          "type": "address"
        },
        {
          "indexed": false,
          "name": "auctionIndex",
          "type": "uint256"
        },
        {
          "indexed": false,
          "name": "amount",
          "type": "uint256"
        },
        {
          "indexed": false,
          "name": "frtsIssued",
          "type": "uint256"
        }
      ],
      "name": "NewSellerFundsClaim",
      "type": "event"
    },
    {
      "anonymous": false,
      "inputs": [
        {
          "indexed": true,
          "name": "sellToken",
          "type": "address"
        },
        {
          "indexed": true,
          "name": "buyToken",
          "type": "address"
        },
        {
          "indexed": true,
          "name": "user",
          "type": "address"
        },
        {
          "indexed": false,
          "name": "auctionIndex",
          "type": "uint256"
        },
        {
          "indexed": false,
          "name": "amount",
          "type": "uint256"
        },
        {
          "indexed": false,
          "name": "frtsIssued",
          "type": "uint256"
        }
      ],
      "name": "NewBuyerFundsClaim",
      "type": "event"
    },
    {
      "anonymous": false,
      "inputs": [
        {
          "indexed": true,
          "name": "sellToken",
          "type": "address"
        },
        {
          "indexed": true,
          "name": "buyToken",
          "type": "address"
        }
      ],
      "name": "NewTokenPair",
      "type": "event"
    },
    {
      "anonymous": false,
      "inputs": [
        {
          "indexed": true,
          "name": "sellToken",
          "type": "address"
        },
        {
          "indexed": true,
          "name": "buyToken",
          "type": "address"
        },
        {
          "indexed": false,
          "name": "sellVolume",
          "type": "uint256"
        },
        {
          "indexed": false,
          "name": "buyVolume",
          "type": "uint256"
        },
        {
          "indexed": true,
          "name": "auctionIndex",
          "type": "uint256"
        }
      ],
      "name": "AuctionCleared",
      "type": "event"
    },
    {
      "anonymous": false,
      "inputs": [
        {
          "indexed": true,
          "name": "sellToken",
          "type": "address"
        },
        {
          "indexed": true,
          "name": "buyToken",
          "type": "address"
        },
        {
          "indexed": true,
          "name": "auctionIndex",
          "type": "uint256"
        },
        {
          "indexed": false,
          "name": "auctionStart",
          "type": "uint256"
        }
      ],
      "name": "AuctionStartScheduled",
      "type": "event"
    },
    {
      "anonymous": false,
      "inputs": [
        {
          "indexed": true,
          "name": "primaryToken",
          "type": "address"
        },
        {
          "indexed": true,
          "name": "secondarToken",
          "type": "address"
        },
        {
          "indexed": true,
          "name": "user",
          "type": "address"
        },
        {
          "indexed": false,
          "name": "auctionIndex",
          "type": "uint256"
        },
        {
          "indexed": false,
          "name": "fee",
          "type": "uint256"
        }
      ],
      "name": "Fee",
      "type": "event"
    },
    {
      "anonymous": false,
      "inputs": [
        {
          "indexed": false,
          "name": "priceOracleInterface",
          "type": "address"
        }
      ],
      "name": "NewOracleProposal",
      "type": "event"
    },
    {
      "anonymous": false,
      "inputs": [
        {
          "indexed": true,
          "name": "token",
          "type": "address"
        },
        {
          "indexed": false,
          "name": "approved",
          "type": "bool"
        }
      ],
      "name": "Approval",
      "type": "event"
    },
    {
      "anonymous": false,
      "inputs": [
        {
          "indexed": false,
          "name": "newMasterCopy",
          "type": "address"
        }
      ],
      "name": "NewMasterCopyProposal",
      "type": "event"
    },
    {
      "constant": false,
      "inputs": [
        {
          "name": "primaryToken",
          "type": "address"
        },
        {
          "name": "secondaryToken",
          "type": "address"
        },
        {
          "name": "auctionIndex",
          "type": "uint256"
        },
        {
          "name": "user",
          "type": "address"
        },
        {
          "name": "amount",
          "type": "uint256"
        }
      ],
      "name": "settleFeePub",
      "outputs": [
        {
          "name": "",
          "type": "uint256"
        }
      ],
      "payable": false,
      "stateMutability": "nonpayable",
      "type": "function"
    },
    {
      "constant": true,
      "inputs": [
        {
          "name": "user",
          "type": "address"
        }
      ],
      "name": "getFeeRatioForJS",
      "outputs": [
        {
          "name": "feeRatioNum",
          "type": "uint256"
        },
        {
          "name": "feeRatioDen",
          "type": "uint256"
        }
      ],
      "payable": false,
      "stateMutability": "view",
      "type": "function"
    }
  ],
  "bytecode": "0x60806040523480156200001157600080fd5b5060405160e080620062d883398101604090815281516020830151918301516060840151608085015160a086015160c0909601519395929391929091620000678787878787878764010000000062000074810204565b50505050505050620003fa565b600854600160a060020a0316156200011357604080517f08c379a000000000000000000000000000000000000000000000000000000000815260206004820152602260248201527f54686520636f6e7472616374206d75737420626520756e696e697469616c697a60448201527f6564000000000000000000000000000000000000000000000000000000000000606482015290519081900360840190fd5b600160a060020a03861615156200018b57604080517f08c379a000000000000000000000000000000000000000000000000000000000815260206004820152601d60248201527f546865204f574c2061646472657373206d7573742062652076616c6964000000604482015290519081900360640190fd5b600160a060020a03871615156200020357604080517f08c379a000000000000000000000000000000000000000000000000000000000815260206004820152601d60248201527f546865204652542061646472657373206d7573742062652076616c6964000000604482015290519081900360640190fd5b600160a060020a0385161515620002a057604080517f08c379a0000000000000000000000000000000000000000000000000000000008152602060048201526024808201527f5468652061756374696f6e6565722061646472657373206d757374206265207660448201527f616c696400000000000000000000000000000000000000000000000000000000606482015290519081900360840190fd5b600160a060020a03841615156200031857604080517f08c379a000000000000000000000000000000000000000000000000000000000815260206004820152601e60248201527f54686520574554482061646472657373206d7573742062652076616c69640000604482015290519081900360640190fd5b600160a060020a03831615156200039057604080517f08c379a000000000000000000000000000000000000000000000000000000000815260206004820181905260248201527f546865206f7261636c652061646472657373206d7573742062652076616c6964604482015290519081900360640190fd5b600b8054600160a060020a0319908116600160a060020a03998a1617909155600c8054821697891697909717909655600180548716958816959095179094556008805486169387169390931790925560058054909416941693909317909155600991909155600a55565b615ece806200040a6000396000f3006080604052600436106103335763ffffffff60e060020a600035041662599e65811461033857806301a521d61461038557806302ffc0b01461040d57806304e80e901461042d57806306d58f2a1461045e5780630c57cfba146104af5780630e7c0f80146105425780631006a41f14610569578063128896391461059057806314584a9d146105c45780632cef4dac146105eb5780633069046814610602578063377758071461061a578063403fbf541461064b57806347e7ef241461066c5780634bf8e7a2146106905780634e30a66c146106d357806359f96ae5146107025780635e7f22c21461072f5780635ec2c7bf1461075c57806365054e5514610771578063657a37ad146107a157806365b0d711146107cb5780636d1ea3fa146108245780636e6260fa146108455780636ea683601461085a578063706eb3ab1461086f578063771602f7146108845780637895dd211461089f578063796a80761461097c5780637ae2b5c71461099d5780637bf1a627146109b8578063821b98f3146109cd5780638261eb1b146109f757806382a57b4314610a0c5780638442957914610a445780639fec8e9614610a64578063a48cef4a14610a95578063a619486e14610aaa578063acb1035114610abf578063b029385014610afe578063b3c2083f14610b2e578063b64c490514610b55578063b67d77c514610b7c578063b8beafd614610b97578063bc88adc414610bbe578063c1a21bf314610bf6578063c23f001f14610c27578063c6af43f914610c4e578063c8a4ac9c14610c66578063cb10fa7614610c81578063cd04ccfc14610c9c578063cd94a2a414610cb1578063d3062b2414610cc6578063d3cc8d1c14610cf6578063dae595e514610d3a578063df6af7d114610d61578063e1c95bb914610d91578063e31c71c414610da9578063e89a4e9214610dc4578063e9f8cd7014610de5578063ebcc0de114610e18578063edd0b5cb14610e42578063ee93114c14610e63578063f3fef3a314610e78578063f41d97fc14610e9c578063f4279d1f14610ebd578063f625ee2814610ed2578063f79710fd14610ef3578063f97ea6fc14610f1d578063fac7abe314610f4d578063fdab1b7b14610f74575b600080fd5b34801561034457600080fd5b5061035f600160a060020a0360043581169060243516610f9e565b60408051600160a060020a03938416815291909216602082015281519081900390910190f35b34801561039157600080fd5b506103bd6024600480358281019290820135918135918201910135600160a060020a0360443516610fc7565b60408051602080825283518183015283519192839290830191858101910280838360005b838110156103f95781810151838201526020016103e1565b505050509050019250505060405180910390f35b34801561041957600080fd5b506103bd6004803560248101910135611115565b34801561043957600080fd5b506104426111d4565b60408051600160a060020a039092168252519081900360200190f35b34801561046a57600080fd5b50610491600160a060020a03600435811690602435811690604435166064356084356111e3565b60408051938452602084019290925282820152519081900360600190f35b3480156104bb57600080fd5b506104e76024600480358281019290820135918135808301929082013591604435918201910135611210565b6040518080602001838152602001828103825284818151815260200191508051906020019060200280838360005b8381101561052d578181015183820152602001610515565b50505050905001935050505060405180910390f35b34801561054e57600080fd5b506105576113c0565b60408051918252519081900360200190f35b34801561057557600080fd5b50610557600160a060020a03600435811690602435166113c6565b34801561059c57600080fd5b50610557600160a060020a0360043581169060243581169060443590606435166084356113e3565b3480156105d057600080fd5b50610557600160a060020a03600435811690602435166113fb565b3480156105f757600080fd5b50610600611436565b005b34801561060e57600080fd5b506105576004356115d6565b34801561062657600080fd5b50610557600160a060020a0360043581169060243581169060443590606435166115f0565b34801561065757600080fd5b50610600600160a060020a036004351661161c565b34801561067857600080fd5b50610557600160a060020a0360043516602435611757565b34801561069c57600080fd5b506106ba600160a060020a0360043581169060243516604435611903565b6040805192835260208301919091528051918290030190f35b3480156106df57600080fd5b506106ee600435602435611aa5565b604080519115158252519081900360200190f35b34801561070e57600080fd5b506106ba600160a060020a0360043581169060243516604435606435611ab2565b34801561073b57600080fd5b50610557600160a060020a0360043581169060243516604435606435612020565b34801561076857600080fd5b50610442612513565b34801561077d57600080fd5b506106ba600160a060020a0360043581169060243581169060443516606435612522565b3480156107ad57600080fd5b50610491600160a060020a03600435811690602435166044356126fe565b3480156107d757600080fd5b50604080516020600480358082013583810280860185019096528085526106009536959394602494938501929182918501908490808284375094975050505091351515925061272b915050565b34801561083057600080fd5b506106ee600160a060020a036004351661284d565b34801561085157600080fd5b50610557612862565b34801561086657600080fd5b50610442612868565b34801561087b57600080fd5b50610442612877565b34801561089057600080fd5b50610557600435602435612886565b3480156108ab57600080fd5b506108e36024600480358281019290820135918135808301929082013591604435918201910135600160a060020a03606435166128a2565b604051808060200180602001838103835285818151815260200191508051906020019060200280838360005b8381101561092757818101518382015260200161090f565b50505050905001838103825284818151815260200191508051906020019060200280838360005b8381101561096657818101518382015260200161094e565b5050505090500194505050505060405180910390f35b34801561098857600080fd5b50610600600160a060020a0360043516612a50565b3480156109a957600080fd5b50610557600435602435612b69565b3480156109c457600080fd5b50610442612b81565b3480156109d957600080fd5b50610600600160a060020a0360043581169060243516604435612b90565b348015610a0357600080fd5b50610442612c6d565b348015610a1857600080fd5b506104e76024600480358281019290820135918135808301929082013591604435918201910135612c7c565b348015610a5057600080fd5b506108e36004803560248101910135612de1565b348015610a7057600080fd5b50610557600160a060020a036004358116906024358116906044359060643516612fb0565b348015610aa157600080fd5b50610557612fdc565b348015610ab657600080fd5b50610442612fe2565b348015610acb57600080fd5b50610600600160a060020a036004358116906024358116906044358116906064358116906084351660a43560c435612ff1565b348015610b0a57600080fd5b506106ba600160a060020a03600435811690602435811690604435166064356132f4565b348015610b3a57600080fd5b50610557600160a060020a036004358116906024351661374b565b348015610b6157600080fd5b50610557600160a060020a0360043581169060243516613768565b348015610b8857600080fd5b50610557600435602435613785565b348015610ba357600080fd5b50610557600160a060020a03600435811690602435166137a2565b348015610bca57600080fd5b506103bd6024600480358281019290820135918135918201910135600160a060020a03604435166137bf565b348015610c0257600080fd5b50610557600160a060020a0360043581169060243581169060443590606435166138cb565b348015610c3357600080fd5b50610557600160a060020a03600435811690602435166138f7565b348015610c5a57600080fd5b50610600600435613914565b348015610c7257600080fd5b5061055760043560243561397d565b348015610c8d57600080fd5b506106ee600435602435613999565b348015610ca857600080fd5b506104426139bb565b348015610cbd57600080fd5b506104426139ca565b348015610cd257600080fd5b506108e3600160a060020a03600435811690602435811690604435166064356139d9565b348015610d0257600080fd5b506108e36024600480358281019290820135918135808301929082013591604435918201910135600160a060020a0360643516613b84565b348015610d4657600080fd5b50610557600160a060020a0360043581169060243516613d14565b348015610d6d57600080fd5b50610491600160a060020a0360043581169060243581169060443516606435613d4f565b348015610d9d57600080fd5b50610600600435613e7c565b348015610db557600080fd5b506106ee600435602435613ee5565b348015610dd057600080fd5b506106ba600160a060020a0360043516613eea565b348015610df157600080fd5b50610600600160a060020a036004358116906024351660443560643560843560a435613f00565b348015610e2457600080fd5b506106ba600160a060020a03600435811690602435166044356145e9565b348015610e4e57600080fd5b506106ba600160a060020a0360043516614613565b348015610e6f57600080fd5b506105576147ae565b348015610e8457600080fd5b50610557600160a060020a03600435166024356147b4565b348015610ea857600080fd5b506106ba600160a060020a03600435166149e2565b348015610ec957600080fd5b50610600614a2a565b348015610ede57600080fd5b50610600600160a060020a0360043516614bc9565b348015610eff57600080fd5b50610557600160a060020a0360043581169060243516604435614d2a565b348015610f2957600080fd5b506108e3600160a060020a0360043581169060243581169060443516606435614d4d565b348015610f5957600080fd5b50610557600160a060020a0360043581169060243516614ef8565b348015610f8057600080fd5b506106ba600160a060020a0360043581169060243516604435614f15565b60008083600160a060020a031683600160a060020a03161015610fbf579192915b509192909150565b6060848382600080838514610fdb57600080fd5b84604051908082528060200260200182016040528015611005578160200160208202803883390190505b509250600091505b84821015611106576110578b8b8481811061102457fe5b90506020020135600160a060020a03168a8a85818110151561104257fe5b90506020020135600160a060020a03166113fb565b9050601560008c8c8581811061106957fe5b90506020020135600160a060020a0316600160a060020a0316600160a060020a0316815260200190815260200160002060008a8a8581811015156110a957fe5b600160a060020a0360209182029390930135831684528381019490945250604091820160009081208582528452828120918b168152925290205483518490849081106110f157fe5b6020908102909101015260019091019061100d565b50909998505050505050505050565b60408051828152602080840282010190915260609082908290600090838015611148578160200160208202803883390190505b509150600090505b828110156111cb576004600087878481811061116857fe5b90506020020135600160a060020a0316600160a060020a0316600160a060020a0316815260200190815260200160002060009054906101000a900460ff1682828151811015156111b457fe5b911515602092830290910190910152600101611150565b50949350505050565b600054600160a060020a031690565b60008060006111f488888888612522565b909350915061120387856147b4565b9050955095509592505050565b606060008060606000806112b08c8c808060200260200160405190810160405280939291908181526020018383602002808284378201915050505050508b8b808060200260200160405190810160405280939291908181526020018383602002808284378201915050505050508a8a808060200260200160405190810160405280939291908181526020018383602002808284375061509c945050505050565b9350836040519080825280602002602001820160405280156112dc578160200160208202803883390190505b50925060009150600090505b838110156113ae576113488c8c838181106112ff57fe5b90506020020135600160a060020a03168b8b84818110151561131d57fe5b90506020020135600160a060020a0316338b8b86818110151561133c57fe5b905060200201356132f4565b848381518110151561135657fe5b602090810290910101919091529485019491506113a58c8c8381811061137857fe5b90506020020135600160a060020a0316848381518110151561139657fe5b906020019060200201516147b4565b506001016112e8565b50909a92995091975050505050505050565b60035481565b600e60209081526000928352604080842090915290825290205481565b60006113f1868686856150c6565b9695505050505050565b60006114078383610f9e565b600160a060020a039182166000908152600d602090815260408083209390941682529190915220549392505050565b600154600160a060020a0316331461149a576040805160e560020a62461bcd02815260206004820152602a6024820152600080516020615e638339815191526044820152600080516020615e83833981519152606482015290519081900360840190fd5b600254600160a060020a03161515611522576040805160e560020a62461bcd02815260206004820152602b60248201527f546865206e6577206d617374657220636f7079206d757374206265206120766160448201527f6c69642061646472657373000000000000000000000000000000000000000000606482015290519081900360840190fd5b6003544210156115a2576040805160e560020a62461bcd02815260206004820152603960248201527f546865206d617374657220636f6e74726163742063616e6e6f7420626520757060448201527f646174656420696e20612077616974696e6720706572696f6400000000000000606482015290519081900360840190fd5b600280546000805473ffffffffffffffffffffffffffffffffffffffff19908116600160a060020a03841617909155169055565b6000808212156115e8575060006115eb565b50805b919050565b601660209081526000948552604080862082529385528385208152918452828420909152825290205481565b600154600160a060020a03163314611680576040805160e560020a62461bcd02815260206004820152602a6024820152600080516020615e638339815191526044820152600080516020615e83833981519152606482015290519081900360840190fd5b600160a060020a03811615156116e0576040805160e560020a62461bcd02815260206004820181905260248201527f546865206f7261636c652061646472657373206d7573742062652076616c6964604482015290519081900360640190fd5b6006805473ffffffffffffffffffffffffffffffffffffffff1916600160a060020a0383161790556117154262278d00612886565b60075560408051600160a060020a038316815290517f3f174cfd713408ca6e4620d1efcc241b23fc39aa7d4694bd98610d3384dc001c9181900360200190a150565b604080517f23b872dd0000000000000000000000000000000000000000000000000000000081523360048201523060248201526044810183905290516000918291600160a060020a038616916323b872dd91606480830192602092919082900301818787803b1580156117c957600080fd5b505af11580156117dd573d6000803e3d6000fd5b505050506040513d60208110156117f357600080fd5b50511515611870576040805160e560020a62461bcd028152602060048201526024808201527f546865206465706f736974207472616e73616374696f6e206d7573742073756360448201527f6365656400000000000000000000000000000000000000000000000000000000606482015290519081900360840190fd5b600160a060020a038416600090815260136020908152604080832033845290915290205461189e9084612886565b600160a060020a03851660008181526013602090815260408083203384528252918290208490558151878152915193945091927f2cb77763bc1e8490c1a904905c4d74b4269919aca114464f4bb4d911e60de364929181900390910190a29392505050565b600080600080611911615e4b565b611919615e4b565b87600160a060020a031689600160a060020a03161415611940576001955060019450611a99565b600087101561194e57600080fd5b61195889896113fb565b87111561196457600080fd5b60009350600092505b821515611a32575050600160a060020a038087166000818152600f60208181526040808420958d16808552958252808420888c038086529083528185208251808401845281548152600191820154818601529786529383528185209585529482528084209484529381528383208451808601909552805480865292015490840152919291118015611a02575060008260200151115b80611a1d575080516000108015611a1d575060008160200151115b15611a2757600192505b60019093019261196d565b81511580611a4257506020820151155b15611a5857602081015181519096509450611a99565b80511580611a6857506020810151155b15611a7e57815160208301519096509450611a99565b81600001518160200151019550816020015181600001510194505b50505050935093915050565b8082018211155b92915050565b600160a060020a03841660009081526013602090815260408083203384529091528120548190819081908190819081908190611aef908a90612b69565b985060008911611b6e576040805160e560020a62461bcd028152602060048201526024808201527f53656c6c20616d6f756e742073686f756c64206265206772656174657220746860448201527f616e203000000000000000000000000000000000000000000000000000000000606482015290519081900360840190fd5b611b788c8c6113fb565b955060008611611b8757600080fd5b611b918c8c613d14565b94506001851480611ba157504285115b15611c8057891515611bb557859950611c32565b898614611c32576040805160e560020a62461bcd02815260206004820152603560248201527f41756374696f6e20696e6465782073686f756c6420626520657175616c20746f60448201527f206c61746573742061756374696f6e20696e6465780000000000000000000000606482015290519081900360840190fd5b600160a060020a03808d166000908152601060209081526040808320938f16835292905220546c0c9f2c9cd04674edea4000000090611c71908b612886565b10611c7b57600080fd5b611cea565b891515611c9257856001019950611ca1565b600186018a14611ca157600080fd5b600160a060020a03808d166000908152601160209081526040808320938f16835292905220546c0c9f2c9cd04674edea4000000090611ce0908b612886565b10611cea57600080fd5b611cf68c8c8c8c6150c6565b600160a060020a038d166000908152601360209081526040808320338452909152902054909450611d27908a613785565b601360008e600160a060020a0316600160a060020a03168152602001908152602001600020600033600160a060020a0316600160a060020a0316815260200190815260200160002081905550611df9601560008e600160a060020a0316600160a060020a0316815260200190815260200160002060008d600160a060020a0316600160a060020a0316815260200190815260200160002060008c8152602001908152602001600020600033600160a060020a0316600160a060020a031681526020019081526020016000205485612886565b925082601560008e600160a060020a0316600160a060020a0316815260200190815260200160002060008d600160a060020a0316600160a060020a0316815260200190815260200160002060008c8152602001908152602001600020600033600160a060020a0316600160a060020a03168152602001908152602001600020819055506001851480611e8a57504285115b15611f1257600160a060020a03808d166000908152601060209081526040808320938f16835292905220549150611ec18285612886565b601060008e600160a060020a0316600160a060020a0316815260200190815260200160002060008d600160a060020a0316600160a060020a0316815260200190815260200160002081905550611f9a565b50600160a060020a03808c166000908152601160209081526040808320938e1683529290522054611f438185612886565b601160008e600160a060020a0316600160a060020a0316815260200190815260200160002060008d600160a060020a0316600160a060020a0316815260200190815260200160002081905550611f9a8c8c88612b90565b6001851415611fad57611fad8c8c6151ce565b33600160a060020a03168b600160a060020a03168d600160a060020a03167f3681d6f6ad159bac260c32828859f6df545bbf841c6e70787bcf0acbc390512a8d88604051808381526020018281526020019250505060405180910390a48983975097505b50505050505094509492505050565b600160a060020a038085166000908152600f602090815260408083209387168352928152828220858352905290812060010154819081908190819081908190819081901561206d57600080fd5b6120778d8d613d14565b97504288111561208657600080fd5b6120908d8d6113fb565b8b1461209b57600080fd5b600188116120a857600080fd5b6000601060008f600160a060020a0316600160a060020a0316815260200190815260200160002060008e600160a060020a0316600160a060020a03168152602001908152602001600020541115156120ff57600080fd5b601260008e600160a060020a0316600160a060020a0316815260200190815260200160002060008d600160a060020a0316600160a060020a0316815260200190815260200160002054965061219c8a601360008f600160a060020a0316600160a060020a03168152602001908152602001600020600033600160a060020a0316600160a060020a0316815260200190815260200160002054612b69565b99506c0c9f2c9cd04674edea400000006121b6888c612886565b106121c057600080fd5b601060008e600160a060020a0316600160a060020a0316815260200190815260200160002060008d600160a060020a0316600160a060020a031681526020019081526020016000205495506122168d8d8d614f15565b909550935061223a878561222a898961397d565b81151561223357fe5b04036115d6565b9250828a10156122615760008a111561225c576122598c8e8d8d6150c6565b91505b612268565b8299508291505b60008a11156124f057600160a060020a038c16600090815260136020908152604080832033845290915290205461229f908b613785565b601360008e600160a060020a0316600160a060020a03168152602001908152602001600020600033600160a060020a0316600160a060020a0316815260200190815260200160002081905550612371601660008f600160a060020a0316600160a060020a0316815260200190815260200160002060008e600160a060020a0316600160a060020a0316815260200190815260200160002060008d8152602001908152602001600020600033600160a060020a0316600160a060020a031681526020019081526020016000205483612886565b905080601660008f600160a060020a0316600160a060020a0316815260200190815260200160002060008e600160a060020a0316600160a060020a0316815260200190815260200160002060008d8152602001908152602001600020600033600160a060020a0316600160a060020a0316815260200190815260200160002081905550612446601260008f600160a060020a0316600160a060020a0316815260200190815260200160002060008e600160a060020a0316600160a060020a031681526020019081526020016000205483612886565b601260008f600160a060020a0316600160a060020a0316815260200190815260200160002060008e600160a060020a0316600160a060020a031681526020019081526020016000208190555033600160a060020a03168c600160a060020a03168e600160a060020a03167ff1751a362067564d5feb9ed26f1898bb14c17e1254e3724d454bc2ae80195c258e86604051808381526020018281526020019250505060405180910390a45b828a10612503576125038d8d8d89615337565b9c9b505050505050505050505050565b600154600160a060020a031681565b600080600061252f615e4b565b60008061253d8a8a89612b90565b600160a060020a03808b1660009081526015602090815260408083208d8516845282528083208b84528252808320938c168352929052908120549450841161258457600080fd5b505050600160a060020a038088166000908152600f60209081526040808320938a1683529281528282208783528152828220835180850190945280548085526001909101549184018290529181116125db57600080fd5b806125e6858461397d565b8115156125ef57fe5b0495506126008a8a888a888d6156c8565b600160a060020a03808c1660009081526015602090815260408083208e8516845282528083208c84528252808320938d16835292905290812081905590955086111561269d57600160a060020a03808a166000908152601360209081526040808320938c16835292905220546126769087612886565b600160a060020a03808b166000908152601360209081526040808320938d16835292905220555b60408051888152602081018890528082018790529051600160a060020a03808b16928c821692918e16917fa3ac9b53d029621ef95693b5f9b1d0b0da75029fe8530389271be02715e24c139181900360600190a45050505094509492505050565b600080600061270d8685611757565b925061271c8686600087611ab2565b93979096509294509192505050565b600154600090600160a060020a03163314612792576040805160e560020a62461bcd02815260206004820152602a6024820152600080516020615e638339815191526044820152600080516020615e83833981519152606482015290519081900360840190fd5b5060005b825181101561284857816004600085848151811015156127b257fe5b602090810291909101810151600160a060020a03168252810191909152604001600020805460ff191691151591909117905582518390829081106127f257fe5b90602001906020020151600160a060020a03167fc091bf3abd3a42f670f8ad1a6ad5b849311210403e1d85d6ac31f43114d5ca6e83604051808215151515815260200191505060405180910390a2600101612796565b505050565b60046020526000908152604090205460ff1681565b60095481565b600254600160a060020a031681565b600554600160a060020a031681565b60006128928383611aa5565b151561289d57600080fd5b500190565b606080600060608060006129428d8d808060200260200160405190810160405280939291908181526020018383602002808284378201915050505050508c8c808060200260200160405190810160405280939291908181526020018383602002808284378201915050505050508b8b808060200260200160405190810160405280939291908181526020018383602002808284375061509c945050505050565b93508360405190808252806020026020018201604052801561296e578160200160208202803883390190505b5092508360405190808252806020026020018201604052801561299b578160200160208202803883390190505b509150600090505b83811015612a3e57612a038d8d838181106129ba57fe5b90506020020135600160a060020a03168c8c8481811015156129d857fe5b90506020020135600160a060020a0316898c8c8681811015156129f757fe5b90506020020135612522565b8483815181101515612a1157fe5b9060200190602002018484815181101515612a2857fe5b60209081029091010191909152526001016129a3565b50909b909a5098505050505050505050565b600154600160a060020a03163314612ab4576040805160e560020a62461bcd02815260206004820152602a6024820152600080516020615e638339815191526044820152600080516020615e83833981519152606482015290519081900360840190fd5b600160a060020a0381161515612b3a576040805160e560020a62461bcd02815260206004820152602660248201527f5468652061756374696f6e656572206d75737420626520612076616c6964206160448201527f6464726573730000000000000000000000000000000000000000000000000000606482015290519081900360840190fd5b6001805473ffffffffffffffffffffffffffffffffffffffff1916600160a060020a0392909216919091179055565b600081831015612b7a575081611aac565b5080611aac565b600854600160a060020a031681565b6000806000806000612ba287896113fb565b86148015612bdb5750600160a060020a038089166000908152600f60209081526040808320938b16835292815282822089835290522054155b15612c6357600160a060020a038089166000818152601260209081526040808320948c16808452948252808320549383526010825280832094835293905291909120549095509350612c2e888888614f15565b90935091506000841115612c6357612c4b858361222a878761397d565b9050801515612c6357612c618888886000612020565b505b5050505050505050565b600b54600160a060020a031681565b60606000806060600080612d1c8c8c808060200260200160405190810160405280939291908181526020018383602002808284378201915050505050508b8b808060200260200160405190810160405280939291908181526020018383602002808284378201915050505050508a8a808060200260200160405190810160405280939291908181526020018383602002808284375061509c945050505050565b935083604051908082528060200260200182016040528015612d48578160200160208202803883390190505b50925060009150600090505b838110156113ae57612da88c8c83818110612d6b57fe5b90506020020135600160a060020a03168b8b848181101515612d8957fe5b90506020020135600160a060020a0316338b8b8681811015156129f757fe5b8483815181101515612db657fe5b60209081029091010191909152948501949150612dd88a8a8381811061137857fe5b50600101612d54565b606080600080808080805b6000198901851015612e59578460010193505b88841015612e4e576000612e368b8b88818110612e1857fe5b90506020020135600160a060020a03168c8c88818110151561104257fe5b1115612e43576001909501945b600190930192612dff565b600190940193612dec565b85604051908082528060200260200182016040528015612e83578160200160208202803883390190505b50975085604051908082528060200260200182016040528015612eb0578160200160208202803883390190505b509650600091505b6000198901821015612fa35750600181015b88811015612f98576000612f018b8b85818110612ee357fe5b90506020020135600160a060020a03168c8c85818110151561104257fe5b1115612f9057898983818110612f1357fe5b90506020020135600160a060020a03168884815181101515612f3157fe5b600160a060020a03909216602092830290910190910152898982818110612f5457fe5b90506020020135600160a060020a03168784815181101515612f7257fe5b600160a060020a039092166020928302909101909101526001909201915b600101612eca565b600190910190612eb8565b5050505050509250929050565b601760209081526000948552604080862082529385528385208152918452828420909152825290205481565b60075481565b600054600160a060020a031681565b600854600160a060020a031615613078576040805160e560020a62461bcd02815260206004820152602260248201527f54686520636f6e7472616374206d75737420626520756e696e697469616c697a60448201527f6564000000000000000000000000000000000000000000000000000000000000606482015290519081900360840190fd5b600160a060020a03861615156130d8576040805160e560020a62461bcd02815260206004820152601d60248201527f546865204f574c2061646472657373206d7573742062652076616c6964000000604482015290519081900360640190fd5b600160a060020a0387161515613138576040805160e560020a62461bcd02815260206004820152601d60248201527f546865204652542061646472657373206d7573742062652076616c6964000000604482015290519081900360640190fd5b600160a060020a03851615156131bd576040805160e560020a62461bcd028152602060048201526024808201527f5468652061756374696f6e6565722061646472657373206d757374206265207660448201527f616c696400000000000000000000000000000000000000000000000000000000606482015290519081900360840190fd5b600160a060020a038416151561321d576040805160e560020a62461bcd02815260206004820152601e60248201527f54686520574554482061646472657373206d7573742062652076616c69640000604482015290519081900360640190fd5b600160a060020a038316151561327d576040805160e560020a62461bcd02815260206004820181905260248201527f546865206f7261636c652061646472657373206d7573742062652076616c6964604482015290519081900360640190fd5b600b805473ffffffffffffffffffffffffffffffffffffffff19908116600160a060020a03998a1617909155600c8054821697891697909717909655600180548716958816959095179094556008805486169387169390931790925560058054909416941693909317909155600991909155600a55565b600080600080600080600061330a8b8b8a612b90565b6133168b8b8b8b613d4f565b809650819750829950505050600f60008c600160a060020a0316600160a060020a0316815260200190815260200160002060008b600160a060020a0316600160a060020a031681526020019081526020016000206000898152602001908152602001600020600101546000141561340657600160a060020a03808c1660009081526017602090815260408083208e8516845282528083208c84528252808320938d16835292905220546133c99088612886565b600160a060020a03808d1660009081526017602090815260408083208f8516845282528083208d84528252808320938e1683529290522055613689565b601460008c600160a060020a0316600160a060020a0316815260200190815260200160002060008b600160a060020a0316600160a060020a031681526020019081526020016000206000898152602001908152602001600020549250601660008c600160a060020a0316600160a060020a0316815260200190815260200160002060008b600160a060020a0316600160a060020a03168152602001908152602001600020600089815260200190815260200160002060008a600160a060020a0316600160a060020a03168152602001908152602001600020549150600f60008c600160a060020a0316600160a060020a0316815260200190815260200160002060008b600160a060020a0316600160a060020a03168152602001908152602001600020600089815260200190815260200160002060000154613548838561397d565b81151561355157fe5b04905061355e8782612886565b96506135828a8c87613570868961397d565b81151561357957fe5b048b868e6156c8565b95506000601660008d600160a060020a0316600160a060020a0316815260200190815260200160002060008c600160a060020a0316600160a060020a0316815260200190815260200160002060008a815260200190815260200160002060008b600160a060020a0316600160a060020a03168152602001908152602001600020819055506000601760008d600160a060020a0316600160a060020a0316815260200190815260200160002060008c600160a060020a0316600160a060020a0316815260200190815260200160002060008a815260200190815260200160002060008b600160a060020a0316600160a060020a03168152602001908152602001600020819055505b60008711156136e957600160a060020a03808c166000908152601360209081526040808320938d16835292905220546136c29088612886565b600160a060020a03808d166000908152601360209081526040808320938e16835292905220555b60408051898152602081018990528082018890529051600160a060020a03808c16928d821692918f16917f4d1c39fd1a9c74f88b9f90c7b439b7e5dc6f26b6ff280fd497fdec5c538aaf529181900360600190a4505050505094509492505050565b601160209081526000928352604080842090915290825290205481565b601060209081526000928352604080842090915290825290205481565b60006137918383613ee5565b151561379c57600080fd5b50900390565b601260209081526000928352604080842090915290825290205481565b60608483826000808385146137d357600080fd5b846040519080825280602002602001820160405280156137fd578160200160208202803883390190505b509250600091505b848210156111065761381c8b8b8481811061102457fe5b9050601660008c8c8581811061382e57fe5b90506020020135600160a060020a0316600160a060020a0316600160a060020a0316815260200190815260200160002060008a8a85818110151561386e57fe5b600160a060020a0360209182029390930135831684528381019490945250604091820160009081208582528452828120918b168152925290205483518490849081106138b657fe5b60209081029091010152600190910190613805565b601560209081526000948552604080862082529385528385208152918452828420909152825290205481565b601360209081526000928352604080842090915290825290205481565b600154600160a060020a03163314613978576040805160e560020a62461bcd02815260206004820152602a6024820152600080516020615e638339815191526044820152600080516020615e83833981519152606482015290519081900360840190fd5b600a55565b60006139898383613999565b151561399457600080fd5b500290565b60008115806139b4575082828385028115156139b157fe5b04145b9392505050565b600654600160a060020a031681565b600c54600160a060020a031681565b6060806000806000806000806139ef8c8c6113fb565b95508815613a0257888603600101613a05565b60015b93508392505b858311613a6457600160a060020a03808d1660009081526016602090815260408083208f8516845282528083208784528252808320938e168352929052908120541115613a59576001909401935b600190920191613a0b565b84604051908082528060200260200182016040528015613a8e578160200160208202803883390190505b50975084604051908082528060200260200182016040528015613abb578160200160208202803883390190505b5096508390505b85811161201157600160a060020a03808d1660009081526016602090815260408083208f8516845282528083208584528252808320938e168352929052908120541115613b7c57808883815181101515613b1857fe5b6020908102909101810191909152600160a060020a03808e1660009081526016835260408082208f8416835284528082208583528452808220928e168252919092529020548751889084908110613b6b57fe5b602090810290910101526001909101905b600101613ac2565b60608060006060806000613c248d8d808060200260200160405190810160405280939291908181526020018383602002808284378201915050505050508c8c808060200260200160405190810160405280939291908181526020018383602002808284378201915050505050508b8b808060200260200160405190810160405280939291908181526020018383602002808284375061509c945050505050565b935083604051908082528060200260200182016040528015613c50578160200160208202803883390190505b50925083604051908082528060200260200182016040528015613c7d578160200160208202803883390190505b509150600090505b83811015612a3e57613cd98d8d83818110613c9c57fe5b90506020020135600160a060020a03168c8c848181101515613cba57fe5b90506020020135600160a060020a0316898c8c86818110151561133c57fe5b8483815181101515613ce757fe5b9060200190602002018484815181101515613cfe57fe5b6020908102909101019190915252600101613c85565b6000613d208383610f9e565b600160a060020a039182166000908152600e602090815260408083209390941682529190915220549392505050565b600080600080613d5f88886113fb565b851115613ddc576040805160e560020a62461bcd02815260206004820152603760248201527f50726f76696465642061756374696f6e496e646578206d757374206265203c3d60448201527f20746f2063757272656e7441756374696f6e496e646578000000000000000000606482015290519081900360840190fd5b613de7888887614f15565b9093509150821515613dfc5760009350613e71565b50600160a060020a0380881660008181526016602090815260408083208b86168085529083528184208a85528352818420958b168085529583528184205494845260178352818420908452825280832089845282528083209483529390529190912054613e6e908461222a848661397d565b93505b509450945094915050565b600154600160a060020a03163314613ee0576040805160e560020a62461bcd02815260206004820152602a6024820152600080516020615e638339815191526044820152600080516020615e83833981519152606482015290519081900360840190fd5b600955565b111590565b600080613ef683614613565b9094909350915050565b60008080600160a060020a038981169089161415613f8e576040805160e560020a62461bcd02815260206004820152603060248201527f596f752063616e6e6f7420616464206120746f6b656e2070616972207573696e60448201527f67207468652073616d6520746f6b656e00000000000000000000000000000000606482015290519081900360840190fd5b84151561400b576040805160e560020a62461bcd02815260206004820152603060248201527f596f75206d7573742073657420746865206e756d657261746f7220666f72207460448201527f686520696e697469616c20707269636500000000000000000000000000000000606482015290519081900360840190fd5b831515614088576040805160e560020a62461bcd02815260206004820152603260248201527f596f75206d75737420736574207468652064656e6f6d696e61746f7220666f7260448201527f2074686520696e697469616c2070726963650000000000000000000000000000606482015290519081900360840190fd5b61409289896113fb565b156140e7576040805160e560020a62461bcd02815260206004820181905260248201527f54686520746f6b656e20706169722077617320616c7265616479206164646564604482015290519081900360640190fd5b670de0b6b3a7640000851061416c576040805160e560020a62461bcd02815260206004820152603660248201527f596f75206d75737420736574206120736d616c6c6572206e756d657261746f7260448201527f20666f722074686520696e697469616c20707269636500000000000000000000606482015290519081900360840190fd5b670de0b6b3a764000084106141f1576040805160e560020a62461bcd02815260206004820152603860248201527f596f75206d75737420736574206120736d616c6c65722064656e6f6d696e617460448201527f6f7220666f722074686520696e697469616c2070726963650000000000000000606482015290519081900360840190fd5b6141fb898961581e565b600160a060020a038916600090815260136020908152604080832033845290915290205461422a908890612b69565b600160a060020a038916600090815260136020908152604080832033845290915290205490975061425c908790612b69565b95506c0c9f2c9cd04674edea4000000087106142e8576040805160e560020a62461bcd02815260206004820152602c60248201527f596f752073686f756c6420757365206120736d616c6c65722066756e64696e6760448201527f20666f7220746f6b656e20310000000000000000000000000000000000000000606482015290519081900360840190fd5b6c0c9f2c9cd04674edea400000008610614372576040805160e560020a62461bcd02815260206004820152602c60248201527f596f752073686f756c6420757365206120736d616c6c65722066756e64696e6760448201527f20666f7220746f6b656e20320000000000000000000000000000000000000000606482015290519081900360840190fd5b600560009054906101000a9004600160a060020a0316600160a060020a031663a3ca17b26040518163ffffffff1660e060020a028152600401602060405180830381600087803b1580156143c557600080fd5b505af11580156143d9573d6000803e3d6000fd5b505050506040513d60208110156143ef57600080fd5b5051600854909250600160a060020a039081169150891681141561441e57614417878361397d565b9250614453565b80600160a060020a031688600160a060020a0316141561444257614417868361397d565b61445089898989858761585a565b92505b6009548310156144d3576040805160e560020a62461bcd02815260206004820152603760248201527f596f752073686f756c6420737572706c757320746865207468726573686f6c6460448201527f20666f7220616464696e6720746f6b656e207061697273000000000000000000606482015290519081900360840190fd5b604080519081016040528086815260200185815250600f60008b600160a060020a0316600160a060020a0316815260200190815260200160002060008a600160a060020a0316600160a060020a0316815260200190815260200160002060008081526020019081526020016000206000820151816000015560208201518160010155905050604080519081016040528085815260200186815250600f60008a600160a060020a0316600160a060020a0316815260200190815260200160002060008b600160a060020a0316600160a060020a0316815260200190815260200160002060008081526020019081526020016000206000820151816000015560208201518160010155905050612c61898989896158e2565b600f6020908152600093845260408085208252928452828420905282529020805460019091015482565b600080600080600b60009054906101000a9004600160a060020a0316600160a060020a03166318160ddd6040518163ffffffff1660e060020a028152600401602060405180830381600087803b15801561466c57600080fd5b505af1158015614680573d6000803e3d6000fd5b505050506040513d602081101561469657600080fd5b5051600b54604080517f8b525d0c000000000000000000000000000000000000000000000000000000008152600160a060020a0389811660048301529151939550911691638b525d0c916024808201926020929091908290030181600087803b15801561470257600080fd5b505af1158015614716573d6000803e3d6000fd5b505050506040513d602081101561472c57600080fd5b505190506127108102821180614740575081155b15614752576001935060c892506147a7565b81816103e802101561476b576001935060fa92506147a7565b8181606402101561478457600393506103e892506147a7565b8181600a02101561479d57600193506101f492506147a7565b600193506103e892505b5050915091565b600a5481565b600160a060020a0382166000908152601360209081526040808320338452909152812054816147e38483612b69565b935060008411614863576040805160e560020a62461bcd02815260206004820152602160248201527f54686520616d6f756e74206d7573742062652067726561746572207468616e2060448201527f3000000000000000000000000000000000000000000000000000000000000000606482015290519081900360840190fd5b61486d8285613785565b600160a060020a03861660008181526013602090815260408083203380855290835281842086905581517fa9059cbb0000000000000000000000000000000000000000000000000000000081526004810191909152602481018a90529051949550929363a9059cbb93604480820194918390030190829087803b1580156148f357600080fd5b505af1158015614907573d6000803e3d6000fd5b505050506040513d602081101561491d57600080fd5b5051151561499b576040805160e560020a62461bcd02815260206004820152602260248201527f546865207769746864726177207472616e73666572206d75737420737563636560448201527f6564000000000000000000000000000000000000000000000000000000000000606482015290519081900360840190fd5b604080518581529051600160a060020a038716917f6e2e05fb6a732995d6952d9158ca6b75f11cc6bf5a4af943aa1eb475a249440b919081900360200190a2949350505050565b60085460009081908190614a00908590600160a060020a03166113fb565b600854909150614a1f908590600160a060020a03166000198401611903565b909590945092505050565b600154600160a060020a03163314614a8e576040805160e560020a62461bcd02815260206004820152602a6024820152600080516020615e638339815191526044820152600080516020615e83833981519152606482015290519081900360840190fd5b600654600160a060020a03161515614b16576040805160e560020a62461bcd02815260206004820152602760248201527f546865206e65772070726f706f73616c206d75737420626520612076616c696460448201527f2061646472657300000000000000000000000000000000000000000000000000606482015290519081900360840190fd5b6007544211614b95576040805160e560020a62461bcd02815260206004820152602481018290527f49742773206e6f7420706f737369626c6520746f20757064617465207468652060448201527f6f7261636c6520647572696e67207468652077616974696e6720706572696f64606482015290519081900360840190fd5b600680546005805473ffffffffffffffffffffffffffffffffffffffff19908116600160a060020a03841617909155169055565b600154600160a060020a03163314614c2d576040805160e560020a62461bcd02815260206004820152602a6024820152600080516020615e638339815191526044820152600080516020615e83833981519152606482015290519081900360840190fd5b600160a060020a0381161515614cb3576040805160e560020a62461bcd02815260206004820152602b60248201527f546865206e6577206d617374657220636f7079206d757374206265206120766160448201527f6c69642061646472657373000000000000000000000000000000000000000000606482015290519081900360840190fd5b6002805473ffffffffffffffffffffffffffffffffffffffff1916600160a060020a038316179055614ce84262278d00612886565b60035560408051600160a060020a038316815290517f36dceb79f427eda3edba9ac3c1d4db7a6e4d0b8637d97320847d93fa8e2f7a049181900360200190a150565b601460209081526000938452604080852082529284528284209052825290205481565b606080600080600080600080614d638c8c6113fb565b95508815614d7657888603600101614d79565b60015b93508392505b858311614dd857600160a060020a03808d1660009081526015602090815260408083208f8516845282528083208784528252808320938e168352929052908120541115614dcd576001909401935b600190920191614d7f565b84604051908082528060200260200182016040528015614e02578160200160208202803883390190505b50975084604051908082528060200260200182016040528015614e2f578160200160208202803883390190505b5096508390505b85811161201157600160a060020a03808d1660009081526015602090815260408083208f8516845282528083208584528252808320938e168352929052908120541115614ef057808883815181101515614e8c57fe5b6020908102909101810191909152600160a060020a03808e1660009081526015835260408082208f8416835284528082208583528452808220928e168252919092529020548751889084908110614edf57fe5b602090810290910101526001909101905b600101614e36565b600d60209081526000928352604080842090915290825290205481565b600080614f20615e4b565b50600160a060020a038086166000908152600f6020908152604080832093881683529281528282208683528152828220835180850190945280548452600101549083018190528190819015614f8057835160208501519096509450611a99565b614f8a89896113fb565b871115614f9d5760009550859450611a99565b614fab898960018a03611903565b9093509150614fc4614fbd8a8a613d14565b42036115d6565b9050614fd683826201518003026115d6565b9550614fe68161a8c0018361397d565b600160a060020a03808b166000908152601260209081526040808320938d168352929052205490955061501a90869061397d565b600160a060020a03808b166000908152601060209081526040808320938d168352929052205461504b90889061397d565b11611a995750505050600160a060020a039485166000818152601260209081526040808320979098168083529681528782205492825260108152878220968252959095529490932054939492505050565b8251825160008183146150ae57600080fd5b5082518181146150bd57600080fd5b50509392505050565b60008060008060006150d733614613565b9094509250826150e7878661397d565b8115156150f057fe5b04915060008211156151b7576151068983615a7c565b600160a060020a03808b166000908152601460209081526040808320938d16835292815282822060018c0183529052205490925090506151468183612886565b600160a060020a03808b166000818152601460209081526040808320948e1680845294825280832060018e0184528252918290209490945580518b8152938401869052805133947f30c4d3fe752442ffa2415fd4e6398cb9e378bab963f042ce30ef4363b6ad93b692908290030190a45b6151c18683613785565b9998505050505050505050565b6000806000806000806000600560009054906101000a9004600160a060020a0316600160a060020a031663a3ca17b26040518163ffffffff1660e060020a028152600401602060405180830381600087803b15801561522c57600080fd5b505af1158015615240573d6000803e3d6000fd5b505050506040513d602081101561525657600080fd5b50519650615263896149e2565b9096509450615271886149e2565b600160a060020a03808c166000908152601060209081526040808320938e1683529290522054919550935085906152b2906152ac908961397d565b8961397d565b8115156152bb57fe5b600160a060020a03808b166000908152601060209081526040808320938f1683529290522054919004925083906152f6906152ac908761397d565b8115156152ff57fe5b049050600a5482101580156153165750600a548110155b1561532d576153288989610258615d47565b612c61565b612c618989615de1565b600160a060020a0380851660008181526012602090815260408083209488168084529482528083205460108352818420858552835281842054958452600f8352818420948452938252808320878452909152812060010154919291908080806153a08b8b613d14565b9350600088111561543157604080519081016040528088815260200189815250600f60008d600160a060020a0316600160a060020a0316815260200190815260200160002060008c600160a060020a0316600160a060020a0316815260200190815260200160002060008b815260200190815260200160002060008201518160000155602082015181600101559050505b85158061544357508362015180014210155b8061544e5750600085115b1561566757600160a060020a03808b166000908152601260209081526040808320938f16835292905220549250841580156154895750600086115b1561551457604080519081016040528084815260200187815250600f60008c600160a060020a0316600160a060020a0316815260200190815260200160002060008d600160a060020a0316600160a060020a0316815260200190815260200160002060008b815260200190815260200160002060008201518160000155602082015181600101559050505b5050600160a060020a03808a166000818152601160208181526040808420958e1680855295825280842054928252808420948452938152838320546010825284842095845294905291812082905590919082111561559557600160a060020a03808c166000908152601160209081526040808320938e168352929052908120555b60008711156155c757600160a060020a03808c166000908152601260209081526040808320938e168352929052908120555b600160a060020a03808b166000908152601060209081526040808320938f16835292905290812082905581111561562157600160a060020a03808b166000908152601160209081526040808320938f168352929052908120555b600083111561565357600160a060020a03808b166000908152601260209081526040808320938f168352929052908120555b61565d8b8b61581e565b6156678b8b6151ce565b888a600160a060020a03168c600160a060020a03167fb5806f8610464e96807c2b147620cc721c65309647f16cfccdf9fb7bd95152ac8b8b604051808381526020018281526020019250505060405180910390a45050505050505050505050565b600160a060020a03861660009081526004602052604081205481908190819060ff16801561570e5750600160a060020a03891660009081526004602052604090205460ff165b1561581157600854600160a060020a0390811693508a1683141561573457859350615781565b82600160a060020a031689600160a060020a0316141561575657879350615781565b6157648a8460018a03611903565b909250905080615774878461397d565b81151561577d57fe5b0493505b600084111561581157600b54604080517ff0dda65c000000000000000000000000000000000000000000000000000000008152600160a060020a038881166004830152602482018890529151919092169163f0dda65c91604480830192600092919082900301818387803b1580156157f857600080fd5b505af115801561580c573d6000803e3d6000fd5b505050505b5050509695505050505050565b6158288282610f9e565b600160a060020a039182166000908152600d602090815260408083209390941682529190915220805460010190555050565b600080600080600080600061586f8d8a6113fb565b1161587957600080fd5b60006158858c8a6113fb565b1161588f57600080fd5b6158988c6149e2565b90955093506158a68b6149e2565b90935091506158d6846158b98c8861397d565b8115156158c257fe5b0483858c028115156158d057fe5b04612886565b9050612503818861397d565b600160a060020a038416600090815260136020908152604080832033845290915281205481906159129085613785565b600160a060020a0380881660009081526013602081815260408084203380865290835281852096909655938a1683529081528282209382529290925290205461595b9084613785565b600160a060020a038616600090815260136020908152604080832033845290915290205561598c86866001876150c6565b915061599b85876001866150c6565b600160a060020a038088166000818152601060208181526040808420958c168085529582528084208990559181528183208484528152818320869055601580825282842086855282528284206001808652908352838520338087529084528486208b905596855290825282842094845293815281832093835292835280822093825292909152208190559050615a348686615460615d47565b84600160a060020a031686600160a060020a03167f6f4b2adffa0c3e90e47fdcd9d2c36f48b57eb3271dce519997271073dac17be960405160405180910390a3505050505050565b600080600080600080600080615a918a6149e2565b909750955085615aa18a8961397d565b811515615aaa57fe5b049450600560009054906101000a9004600160a060020a0316600160a060020a031663a3ca17b26040518163ffffffff1660e060020a028152600401602060405180830381600087803b158015615b0057600080fd5b505af1158015615b14573d6000803e3d6000fd5b505050506040513d6020811015615b2a57600080fd5b50519350615b38858561397d565b600c54604080517fdd62ed3e0000000000000000000000000000000000000000000000000000000081523360048201523060248201529051929550615be092600160a060020a039092169163dd62ed3e916044808201926020929091908290030181600087803b158015615bab57600080fd5b505af1158015615bbf573d6000803e3d6000fd5b505050506040513d6020811015615bd557600080fd5b505160028504612b69565b600c54604080517f70a082310000000000000000000000000000000000000000000000000000000081523360048201529051929450615c7f92600160a060020a03909216916370a08231916024808201926020929091908290030181600087803b158015615c4d57600080fd5b505af1158015615c61573d6000803e3d6000fd5b505050506040513d6020811015615c7757600080fd5b505183612b69565b91506000821115615d3657600c54604080517f4417f4db000000000000000000000000000000000000000000000000000000008152336004820152602481018590529051600160a060020a0390921691634417f4db9160448082019260009290919082900301818387803b158015615cf657600080fd5b505af1158015615d0a573d6000803e3d6000fd5b5050505082615d19838b61397d565b811515615d2257fe5b049050615d2f8982613785565b9750615d3a565b8897505b5050505050505092915050565b600080615d548585610f9e565b600160a060020a038083166000818152600d6020908152604080832094861680845294825280832054848452600e8352818420868552835292819020428b019081905581518181529151979c50959a509497509095508594929391927f20017e7b1ef8e7882103f55ff346ca3135c4afe13dff1da2f01b482aece766a59281900390910190a45050505050565b615deb8282610f9e565b600160a060020a038083166000908152600e60209081526040808320938516835292905220549193509150600114615e4757600160a060020a038083166000908152600e60209081526040808320938516835292905220600190555b5050565b60408051808201909152600080825260208201529056004f6e6c79207468652061756374696f6e6565722063616e206e6f6d696e6174652061206e6577206f6e6500000000000000000000000000000000000000000000a165627a7a72305820814e52b963c476e609cae873179cea557759076198d73a6bcb649b3ce9f5e4930029",
  "source": "pragma solidity ^0.4.24;\n\nimport \"../DutchExchange.sol\";\n\ncontract InternalTests is DutchExchange {\n  function settleFeePub(\n    address primaryToken,\n    address secondaryToken,\n    uint auctionIndex,\n    address user,\n    uint amount\n  )\n    public\n    returns (uint)\n  {\n    return super.settleFee(primaryToken, secondaryToken, auctionIndex, amount);\n  }\n  \n  constructor(\n        TokenFRT _FRT,\n        TokenOWL _OWL,\n        address _owner, \n        address _ETH,\n        PriceOracleInterface _ETHUSDOracle,\n        uint _thresholdNewTokenPair,\n        uint _thresholdNewAuction\n    ) public\n    {\n    setupDutchExchange( \n          _FRT,\n          _OWL,\n          _owner,\n          _ETH,\n          _ETHUSDOracle,\n          _thresholdNewTokenPair,\n          _thresholdNewAuction);\n    }\n\n  function getFeeRatioForJS(\n    address user\n  ) public view returns (uint feeRatioNum, uint feeRatioDen)\n  {\n    (feeRatioNum, feeRatioDen) = super.getFeeRatio(user);\n  }\n\n}",
  "sourcePath": "/mnt/bf1642c6-3903-4bb8-b254-88a427e7ab47/Home/David/Documents/Work/Gnosis/dx-contracts/contracts/ForTestingOnly/InternalTests.sol",
  "compiler": {
    "name": "solc",
    "version": "0.4.25+commit.59dbf8f1.Emscripten.clang"
  },
  "schemaVersion": "2.0.2",
  "updatedAt": "2019-01-04T11:06:42.173Z"
}