{
  "contractName": "Medianizer",
  "abi": [
    {
      "constant": false,
      "inputs": [
        {
          "name": "owner_",
          "type": "address"
        }
      ],
      "name": "setOwner",
      "outputs": [],
      "payable": false,
      "stateMutability": "nonpayable",
      "type": "function"
    },
    {
      "constant": true,
      "inputs": [
        {
          "name": "",
          "type": "address"
        }
      ],
      "name": "indexes",
      "outputs": [
        {
          "name": "",
          "type": "bytes12"
        }
      ],
      "payable": false,
      "stateMutability": "view",
      "type": "function"
    },
    {
      "constant": true,
      "inputs": [],
      "name": "next",
      "outputs": [
        {
          "name": "",
          "type": "bytes12"
        }
      ],
      "payable": false,
      "stateMutability": "view",
      "type": "function"
    },
    {
      "constant": true,
      "inputs": [],
      "name": "read",
      "outputs": [
        {
          "name": "",
          "type": "bytes32"
        }
      ],
      "payable": false,
      "stateMutability": "view",
      "type": "function"
    },
    {
      "constant": true,
      "inputs": [],
      "name": "peek",
      "outputs": [
        {
          "name": "",
          "type": "bytes32"
        },
        {
          "name": "",
          "type": "bool"
        }
      ],
      "payable": false,
      "stateMutability": "view",
      "type": "function"
    },
    {
      "constant": true,
      "inputs": [
        {
          "name": "",
          "type": "bytes12"
        }
      ],
      "name": "values",
      "outputs": [
        {
          "name": "",
          "type": "address"
        }
      ],
      "payable": false,
      "stateMutability": "view",
      "type": "function"
    },
    {
      "constant": false,
      "inputs": [
        {
          "name": "authority_",
          "type": "address"
        }
      ],
      "name": "setAuthority",
      "outputs": [],
      "payable": false,
      "stateMutability": "nonpayable",
      "type": "function"
    },
    {
      "constant": true,
      "inputs": [],
      "name": "owner",
      "outputs": [
        {
          "name": "",
          "type": "address"
        }
      ],
      "payable": false,
      "stateMutability": "view",
      "type": "function"
    },
    {
      "constant": false,
      "inputs": [],
      "name": "void",
      "outputs": [],
      "payable": true,
      "stateMutability": "payable",
      "type": "function"
    },
    {
      "constant": true,
      "inputs": [],
      "name": "minimun",
      "outputs": [
        {
          "name": "",
          "type": "uint96"
        }
      ],
      "payable": false,
      "stateMutability": "view",
      "type": "function"
    },
    {
      "constant": true,
      "inputs": [],
      "name": "authority",
      "outputs": [
        {
          "name": "",
          "type": "address"
        }
      ],
      "payable": false,
      "stateMutability": "view",
      "type": "function"
    },
    {
      "anonymous": false,
      "inputs": [
        {
          "indexed": true,
          "name": "sig",
          "type": "bytes4"
        },
        {
          "indexed": true,
          "name": "guy",
          "type": "address"
        },
        {
          "indexed": true,
          "name": "foo",
          "type": "bytes32"
        },
        {
          "indexed": false,
          "name": "bar",
          "type": "bytes32"
        },
        {
          "indexed": false,
          "name": "wad",
          "type": "uint256"
        },
        {
          "indexed": false,
          "name": "fax",
          "type": "bytes"
        }
      ],
      "name": "LogNote",
      "type": "event"
    },
    {
      "anonymous": false,
      "inputs": [
        {
          "indexed": true,
          "name": "authority",
          "type": "address"
        }
      ],
      "name": "LogSetAuthority",
      "type": "event"
    },
    {
      "anonymous": false,
      "inputs": [
        {
          "indexed": true,
          "name": "owner",
          "type": "address"
        }
      ],
      "name": "LogSetOwner",
      "type": "event"
    },
    {
      "constant": false,
      "inputs": [
        {
          "name": "wat",
          "type": "address"
        }
      ],
      "name": "set",
      "outputs": [],
      "payable": false,
      "stateMutability": "nonpayable",
      "type": "function"
    },
    {
      "constant": false,
      "inputs": [
        {
          "name": "pos",
          "type": "bytes12"
        },
        {
          "name": "wat",
          "type": "address"
        }
      ],
      "name": "set",
      "outputs": [],
      "payable": true,
      "stateMutability": "payable",
      "type": "function"
    },
    {
      "constant": false,
      "inputs": [
        {
          "name": "min_",
          "type": "uint96"
        }
      ],
      "name": "setMin",
      "outputs": [],
      "payable": true,
      "stateMutability": "payable",
      "type": "function"
    },
    {
      "constant": false,
      "inputs": [
        {
          "name": "next_",
          "type": "bytes12"
        }
      ],
      "name": "setNext",
      "outputs": [],
      "payable": true,
      "stateMutability": "payable",
      "type": "function"
    },
    {
      "constant": false,
      "inputs": [
        {
          "name": "wat",
          "type": "address"
        }
      ],
      "name": "unset",
      "outputs": [],
      "payable": false,
      "stateMutability": "nonpayable",
      "type": "function"
    },
    {
      "constant": false,
      "inputs": [
        {
          "name": "pos",
          "type": "bytes12"
        }
      ],
      "name": "unset",
      "outputs": [],
      "payable": false,
      "stateMutability": "nonpayable",
      "type": "function"
    },
    {
      "constant": false,
      "inputs": [
        {
          "name": "",
          "type": "bytes32"
        }
      ],
      "name": "poke",
      "outputs": [],
      "payable": true,
      "stateMutability": "payable",
      "type": "function"
    },
    {
      "constant": false,
      "inputs": [],
      "name": "poke",
      "outputs": [],
      "payable": false,
      "stateMutability": "nonpayable",
      "type": "function"
    },
    {
      "constant": true,
      "inputs": [],
      "name": "compute",
      "outputs": [
        {
          "name": "",
          "type": "bytes32"
        },
        {
          "name": "",
          "type": "bool"
        }
      ],
      "payable": false,
      "stateMutability": "view",
      "type": "function"
    }
  ],
  "bytecode": "0x60806040819052600580546c0100000000000000000000000060016001606060020a03199092168217606060020a60c060020a03191617909155805433600160a060020a03199091168117909155907fce241d7ca1f669fee44b6fc00b8eba2df3bb514eed0f6f668f8f89096e81ed9490600090a26114c1806100836000396000f3fe60806040526004361061013c576000357c010000000000000000000000000000000000000000000000000000000090048063651dd0de116100bd578063b069b60311610081578063b069b603146103a3578063beb38b43146103d4578063bf7e214f1461040a578063e0a1fdad1461041f578063f2c5925d146104535761013c565b8063651dd0de146102dd5780636ba5ef0d1461032d5780637a9e5e4b146103535780638da5cb5b14610386578063ac4c25b21461039b5761013c565b80632966d1b9116101045780632966d1b9146102095780632db78d931461023c5780634c8fe5261461028c57806357de26a4146102a157806359e02dd7146102c85761013c565b806313af4035146101415780631504460f1461017657806318178358146101935780631a43c338146101a85780632801617e146101d6575b600080fd5b34801561014d57600080fd5b506101746004803603602081101561016457600080fd5b5035600160a060020a031661047a565b005b6101746004803603602081101561018c57600080fd5b5035610524565b34801561019f57600080fd5b506101746105ef565b3480156101b457600080fd5b506101bd6105fb565b6040805192835290151560208301528051918290030190f35b3480156101e257600080fd5b50610174600480360360208110156101f957600080fd5b5035600160a060020a03166109b3565b34801561021557600080fd5b506101746004803603602081101561022c57600080fd5b5035600160a060020a0316610a69565b34801561024857600080fd5b5061026f6004803603602081101561025f57600080fd5b5035600160a060020a0316610a97565b60408051600160a060020a03199092168252519081900360200190f35b34801561029857600080fd5b5061026f610aaf565b3480156102ad57600080fd5b506102b6610abb565b60408051918252519081900360200190f35b3480156102d457600080fd5b506101bd610adb565b3480156102e957600080fd5b506103116004803603602081101561030057600080fd5b5035600160a060020a031916610af0565b60408051600160a060020a039092168252519081900360200190f35b6101746004803603602081101561034357600080fd5b50356001606060020a0316610b0b565b34801561035f57600080fd5b506101746004803603602081101561037657600080fd5b5035600160a060020a0316610c98565b34801561039257600080fd5b50610311610d3e565b610174610d4d565b3480156103af57600080fd5b506103b8610e57565b604080516001606060020a039092168252519081900360200190f35b610174600480360360408110156103ea57600080fd5b50600160a060020a03198135169060200135600160a060020a0316610e76565b34801561041657600080fd5b506103116110ed565b34801561042b57600080fd5b506101746004803603602081101561044257600080fd5b5035600160a060020a0319166110fc565b6101746004803603602081101561046957600080fd5b5035600160a060020a031916611107565b61049033600035600160e060020a031916611275565b15156104d4576040805160e560020a62461bcd02815260206004820152601d6024820152600080516020611451833981519152604482015290519081900360640190fd5b60018054600160a060020a031916600160a060020a0383811691909117918290556040519116907fce241d7ca1f669fee44b6fc00b8eba2df3bb514eed0f6f668f8f89096e81ed9490600090a250565b600080600435915060243590508133600160a060020a0316600035600160e060020a031916600160e060020a031916600080516020611431833981519152843460003660405180858152602001848152602001806020018281038252848482818152602001925080828437600083820152604051601f909101601f191690920182900397509095505050505050a46105ba6105fb565b6001805491151560a060020a0274ff000000000000000000000000000000000000000019909216919091179055600255505050565b6105f96000610524565b565b60008060606001600560009054906101000a900460a060020a0260a060020a9004036001606060020a031660405190808252806020026020018201604052801561064f578160200160208202803883390190505b509050600060015b60055460a060020a908102046001606060020a03908116908216101561089257600160a060020a031960a060020a820216600090815260036020526040902054600160a060020a03161561088a5760a060020a8102600160a060020a0319166000908152600360205260408082205481517f59e02dd700000000000000000000000000000000000000000000000000000000815282518493600160a060020a03909316926359e02dd79260048082019391829003018186803b15801561071c57600080fd5b505afa158015610730573d6000803e3d6000fd5b505050506040513d604081101561074657600080fd5b50805160209091015190925090508015610887576001606060020a0384161580610793575084600185036001606060020a031681518110151561078557fe5b906020019060200201518210155b156107bf578185856001606060020a03168151811015156107b057fe5b60209081029091010152610880565b60005b85816001606060020a03168151811015156107d957fe5b6020908102909101015183106107f1576001016107c2565b845b816001606060020a0316816001606060020a0316111561085b5786600182036001606060020a031681518110151561082757fe5b9060200190602002015187826001606060020a031681518110151561084857fe5b60209081029091010152600019016107f3565b508286826001606060020a031681518110151561087457fe5b60209081029091010152505b6001909301925b50505b600101610657565b506005546001606060020a036c01000000000000000000000000909104811690821610156108ca5760025460009350935050506109af565b600060018216151561097257600083600160026001606060020a03861604036001606060020a03168151811015156108fe57fe5b60209081029091010151905060008460026001606060020a038616046001606060020a031681518110151561092f57fe5b6020908102909101015190506109566109488383611379565b671bc16d674ec8000061139b565b6fffffffffffffffffffffffffffffffff1692506109a6915050565b8260026001606060020a03600019850116046001606060020a031681518110151561099957fe5b9060200190602002015190505b93506001925050505b9091565b6109c933600035600160e060020a031916611275565b1515610a0d576040805160e560020a62461bcd02815260206004820152601d6024820152600080516020611451833981519152604482015290519081900360640190fd5b60055460a060020a90810281900460010102600160a060020a031981161515610a3257fe5b600554610a459060a060020a0283610e76565b600580546bffffffffffffffffffffffff191660a060020a90920491909117905550565b600160a060020a038116600090815260046020526040812054610a949160a060020a90910290610e76565b50565b60046020526000908152604090205460a060020a0281565b60055460a060020a0281565b6000806000610ac8610adb565b91509150801515610ad557fe5b50905090565b60025460015460ff60a060020a909104169091565b600360205260009081526040902054600160a060020a031681565b600080600435915060243590508133600160a060020a0316600035600160e060020a031916600160e060020a031916600080516020611431833981519152843460003660405180858152602001848152602001806020018281038252848482818152602001925080828437600083820152604051601f909101601f191690920182900397509095505050505050a4610baf33600035600160e060020a031916611275565b1515610bf3576040805160e560020a62461bcd02815260206004820152601d6024820152600080516020611451833981519152604482015290519081900360640190fd5b6001606060020a0383161515610c53576040805160e560020a62461bcd02815260206004820152601160248201527f6d696e2063616e6e6f7420626520307830000000000000000000000000000000604482015290519081900360640190fd5b5050600580546001606060020a039092166c010000000000000000000000000277ffffffffffffffffffffffff00000000000000000000000019909216919091179055565b610cae33600035600160e060020a031916611275565b1515610cf2576040805160e560020a62461bcd02815260206004820152601d6024820152600080516020611451833981519152604482015290519081900360640190fd5b60008054600160a060020a031916600160a060020a03838116919091178083556040519116917f1abebea81bfa2637f28358c371278fb15ede7ea8dd28d2e03b112ff6d936ada491a250565b600154600160a060020a031681565b600080600435915060243590508133600160a060020a0316600035600160e060020a031916600160e060020a031916600080516020611431833981519152843460003660405180858152602001848152602001806020018281038252848482818152602001925080828437600083820152604051601f909101601f191690920182900397509095505050505050a4610df133600035600160e060020a031916611275565b1515610e35576040805160e560020a62461bcd02815260206004820152601d6024820152600080516020611451833981519152604482015290519081900360640190fd5b50506001805474ff000000000000000000000000000000000000000019169055565b6005546c0100000000000000000000000090046001606060020a031681565b600080600435915060243590508133600160a060020a0316600035600160e060020a031916600160e060020a031916600080516020611431833981519152843460003660405180858152602001848152602001806020018281038252848482818152602001925080828437600083820152604051601f909101601f191690920182900397509095505050505050a4610f1a33600035600160e060020a031916611275565b1515610f5e576040805160e560020a62461bcd02815260206004820152601d6024820152600080516020611451833981519152604482015290519081900360640190fd5b600160a060020a031984161515610fbf576040805160e560020a62461bcd02815260206004820152601160248201527f706f732063616e6e6f7420626520307830000000000000000000000000000000604482015290519081900360640190fd5b600160a060020a0383161580610ffb5750600160a060020a03831660009081526004602052604090205460a060020a02600160a060020a031916155b151561103b5760405160e560020a62461bcd0281526004018080602001828103825260258152602001806114716025913960400191505060405180910390fd5b600160a060020a03198416600090815260036020908152604080832054600160a060020a039081168452600490925290912080546bffffffffffffffffffffffff191690558316156110bb57600160a060020a038316600090815260046020526040902080546bffffffffffffffffffffffff191660a060020a86041790555b5050600160a060020a031991821660009081526003602052604090208054600160a060020a0390921691909216179055565b600054600160a060020a031681565b610a94816000610e76565b600080600435915060243590508133600160a060020a0316600035600160e060020a031916600160e060020a031916600080516020611431833981519152843460003660405180858152602001848152602001806020018281038252848482818152602001925080828437600083820152604051601f909101601f191690920182900397509095505050505050a46111ab33600035600160e060020a031916611275565b15156111ef576040805160e560020a62461bcd02815260206004820152601d6024820152600080516020611451833981519152604482015290519081900360640190fd5b600160a060020a031983161515611250576040805160e560020a62461bcd02815260206004820152601260248201527f6e6578742063616e6e6f74206265203078300000000000000000000000000000604482015290519081900360640190fd5b5050600580546bffffffffffffffffffffffff191660a060020a909204919091179055565b6000600160a060020a03831630141561129057506001611373565b600154600160a060020a03848116911614156112ae57506001611373565b600054600160a060020a031615156112c857506000611373565b600054604080517fb7009613000000000000000000000000000000000000000000000000000000008152600160a060020a038681166004830152306024830152600160e060020a0319861660448301529151919092169163b7009613916064808301926020929190829003018186803b15801561134457600080fd5b505afa158015611358573d6000803e3d6000fd5b505050506040513d602081101561136e57600080fd5b505190505b92915050565b8082016fffffffffffffffffffffffffffffffff808416908216101561137357fe5b60006114086fffffffffffffffffffffffffffffffff8316600281046fffffffffffffffffffffffffffffffff16670de0b6b3a76400006fffffffffffffffffffffffffffffffff16866fffffffffffffffffffffffffffffffff16020181151561140257fe5b0461140f565b9392505050565b806fffffffffffffffffffffffffffffffff8116811461142b57fe5b91905056fe644843f351d3fba4abcd60109eaff9f54bac8fb8ccf0bab941009c21df21cf314974206d75737420626520616e20617574686f72697a65642063616c6c000000776174206973206e6f7420646566696e6564206f722069742068617320616e20696e646578a165627a7a72305820f5dddc11a6428554a4379ad6a99553e4489beae8c338086b282bf40537cfa5b90029",
  "source": "pragma solidity ^0.5.2;\n\nimport \"./DSValue.sol\";\n\n\ncontract Medianizer is DSValue {\n    mapping(bytes12 => address) public values;\n    mapping(address => bytes12) public indexes;\n    bytes12 public next = bytes12(uint96(1));\n    uint96 public minimun = 0x1;\n\n    function set(address wat) public auth {\n        bytes12 nextId = bytes12(uint96(next) + 1);\n        assert(nextId != 0x0);\n        set(next, wat);\n        next = nextId;\n    }\n\n    function set(bytes12 pos, address wat) public payable note auth {\n        require(pos != 0x0, \"pos cannot be 0x0\");\n        require(wat == address(0) || indexes[wat] == 0, \"wat is not defined or it has an index\");\n\n        indexes[values[pos]] = bytes12(0); // Making sure to remove a possible existing address in that position\n\n        if (wat != address(0)) {\n            indexes[wat] = pos;\n        }\n\n        values[pos] = wat;\n    }\n\n    function setMin(uint96 min_) public payable note auth {\n        require(min_ != 0x0, \"min cannot be 0x0\");\n        minimun = min_;\n    }\n\n    function setNext(bytes12 next_) public payable note auth {\n        require(next_ != 0x0, \"next cannot be 0x0\");\n        next = next_;\n    }\n\n    function unset(bytes12 pos) public {\n        set(pos, address(0));\n    }\n\n    function unset(address wat) public {\n        set(indexes[wat], address(0));\n    }\n\n    function poke() public {\n        poke(0);\n    }\n\n    function poke(bytes32) public payable note {\n        (val, has) = compute();\n    }\n\n    function compute() public view returns (bytes32, bool) {\n        bytes32[] memory wuts = new bytes32[](uint96(next) - 1);\n        uint96 ctr = 0;\n        for (uint96 i = 1; i < uint96(next); i++) {\n            if (values[bytes12(i)] != address(0)) {\n                (bytes32 wut, bool wuz) = DSValue(values[bytes12(i)]).peek();\n                if (wuz) {\n                    if (ctr == 0 || wut >= wuts[ctr - 1]) {\n                        wuts[ctr] = wut;\n                    } else {\n                        uint96 j = 0;\n                        while (wut >= wuts[j]) {\n                            j++;\n                        }\n                        for (uint96 k = ctr; k > j; k--) {\n                            wuts[k] = wuts[k - 1];\n                        }\n                        wuts[j] = wut;\n                    }\n                    ctr++;\n                }\n            }\n        }\n\n        if (ctr < minimun)\n            return (val, false);\n\n        bytes32 value;\n        if (ctr % 2 == 0) {\n            uint128 val1 = uint128(uint(wuts[(ctr / 2) - 1]));\n            uint128 val2 = uint128(uint(wuts[ctr / 2]));\n            value = bytes32(uint256(wdiv(hadd(val1, val2), 2 ether)));\n        } else {\n            value = wuts[(ctr - 1) / 2];\n        }\n\n        return (value, true);\n    }\n}\n",
  "sourcePath": "@gnosis.pm/dx-contracts/contracts/Oracle/Medianizer.sol",
  "compiler": {
    "name": "solc",
    "version": "0.5.2+commit.1df8f40c.Emscripten.clang"
  },
  "schemaVersion": "3.0.1",
  "updatedAt": "2019-01-18T08:01:22.355Z",
  "devdoc": {
    "methods": {}
  },
  "userdoc": {
    "methods": {}
  }
}