{
  "contractName": "Medianizer",
  "abi": [
    {
      "constant": false,
      "inputs": [
        {
          "name": "owner_",
          "type": "address"
        }
      ],
      "name": "setOwner",
      "outputs": [],
      "payable": false,
      "stateMutability": "nonpayable",
      "type": "function"
    },
    {
      "constant": true,
      "inputs": [
        {
          "name": "",
          "type": "address"
        }
      ],
      "name": "indexes",
      "outputs": [
        {
          "name": "",
          "type": "bytes12"
        }
      ],
      "payable": false,
      "stateMutability": "view",
      "type": "function"
    },
    {
      "constant": true,
      "inputs": [],
      "name": "next",
      "outputs": [
        {
          "name": "",
          "type": "bytes12"
        }
      ],
      "payable": false,
      "stateMutability": "view",
      "type": "function"
    },
    {
      "constant": true,
      "inputs": [],
      "name": "read",
      "outputs": [
        {
          "name": "",
          "type": "bytes32"
        }
      ],
      "payable": false,
      "stateMutability": "view",
      "type": "function"
    },
    {
      "constant": true,
      "inputs": [],
      "name": "peek",
      "outputs": [
        {
          "name": "",
          "type": "bytes32"
        },
        {
          "name": "",
          "type": "bool"
        }
      ],
      "payable": false,
      "stateMutability": "view",
      "type": "function"
    },
    {
      "constant": true,
      "inputs": [
        {
          "name": "",
          "type": "bytes12"
        }
      ],
      "name": "values",
      "outputs": [
        {
          "name": "",
          "type": "address"
        }
      ],
      "payable": false,
      "stateMutability": "view",
      "type": "function"
    },
    {
      "constant": false,
      "inputs": [
        {
          "name": "authority_",
          "type": "address"
        }
      ],
      "name": "setAuthority",
      "outputs": [],
      "payable": false,
      "stateMutability": "nonpayable",
      "type": "function"
    },
    {
      "constant": true,
      "inputs": [],
      "name": "owner",
      "outputs": [
        {
          "name": "",
          "type": "address"
        }
      ],
      "payable": false,
      "stateMutability": "view",
      "type": "function"
    },
    {
      "constant": false,
      "inputs": [],
      "name": "void",
      "outputs": [],
      "payable": false,
      "stateMutability": "nonpayable",
      "type": "function"
    },
    {
      "constant": true,
      "inputs": [],
      "name": "authority",
      "outputs": [
        {
          "name": "",
          "type": "address"
        }
      ],
      "payable": false,
      "stateMutability": "view",
      "type": "function"
    },
    {
      "constant": true,
      "inputs": [],
      "name": "min",
      "outputs": [
        {
          "name": "",
          "type": "uint96"
        }
      ],
      "payable": false,
      "stateMutability": "view",
      "type": "function"
    },
    {
      "anonymous": true,
      "inputs": [
        {
          "indexed": true,
          "name": "sig",
          "type": "bytes4"
        },
        {
          "indexed": true,
          "name": "guy",
          "type": "address"
        },
        {
          "indexed": true,
          "name": "foo",
          "type": "bytes32"
        },
        {
          "indexed": true,
          "name": "bar",
          "type": "bytes32"
        },
        {
          "indexed": false,
          "name": "wad",
          "type": "uint256"
        },
        {
          "indexed": false,
          "name": "fax",
          "type": "bytes"
        }
      ],
      "name": "LogNote",
      "type": "event"
    },
    {
      "anonymous": false,
      "inputs": [
        {
          "indexed": true,
          "name": "authority",
          "type": "address"
        }
      ],
      "name": "LogSetAuthority",
      "type": "event"
    },
    {
      "anonymous": false,
      "inputs": [
        {
          "indexed": true,
          "name": "owner",
          "type": "address"
        }
      ],
      "name": "LogSetOwner",
      "type": "event"
    },
    {
      "constant": false,
      "inputs": [
        {
          "name": "wat",
          "type": "address"
        }
      ],
      "name": "set",
      "outputs": [],
      "payable": false,
      "stateMutability": "nonpayable",
      "type": "function"
    },
    {
      "constant": false,
      "inputs": [
        {
          "name": "pos",
          "type": "bytes12"
        },
        {
          "name": "wat",
          "type": "address"
        }
      ],
      "name": "set",
      "outputs": [],
      "payable": false,
      "stateMutability": "nonpayable",
      "type": "function"
    },
    {
      "constant": false,
      "inputs": [
        {
          "name": "min_",
          "type": "uint96"
        }
      ],
      "name": "setMin",
      "outputs": [],
      "payable": false,
      "stateMutability": "nonpayable",
      "type": "function"
    },
    {
      "constant": false,
      "inputs": [
        {
          "name": "next_",
          "type": "bytes12"
        }
      ],
      "name": "setNext",
      "outputs": [],
      "payable": false,
      "stateMutability": "nonpayable",
      "type": "function"
    },
    {
      "constant": false,
      "inputs": [
        {
          "name": "wat",
          "type": "address"
        }
      ],
      "name": "unset",
      "outputs": [],
      "payable": false,
      "stateMutability": "nonpayable",
      "type": "function"
    },
    {
      "constant": false,
      "inputs": [
        {
          "name": "pos",
          "type": "bytes12"
        }
      ],
      "name": "unset",
      "outputs": [],
      "payable": false,
      "stateMutability": "nonpayable",
      "type": "function"
    },
    {
      "constant": false,
      "inputs": [
        {
          "name": "",
          "type": "bytes32"
        }
      ],
      "name": "poke",
      "outputs": [],
      "payable": false,
      "stateMutability": "nonpayable",
      "type": "function"
    },
    {
      "constant": false,
      "inputs": [],
      "name": "poke",
      "outputs": [],
      "payable": false,
      "stateMutability": "nonpayable",
      "type": "function"
    },
    {
      "constant": true,
      "inputs": [],
      "name": "compute",
      "outputs": [
        {
          "name": "",
          "type": "bytes32"
        },
        {
          "name": "",
          "type": "bool"
        }
      ],
      "payable": false,
      "stateMutability": "view",
      "type": "function"
    }
  ],
  "bytecode": "0x60806040819052600580546c0100000000000000000000000060016001606060020a03199092168217606060020a60c060020a03191617909155805433600160a060020a03199091168117909155907fce241d7ca1f669fee44b6fc00b8eba2df3bb514eed0f6f668f8f89096e81ed9490600090a26112f8806100836000396000f3006080604052600436106101115763ffffffff7c010000000000000000000000000000000000000000000000000000000060003504166313af403581146101165780631504460f1461013957806318178358146101515780631a43c338146101665780632801617e146101945780632966d1b9146101b55780632db78d93146101d65780634c8fe5261461021457806357de26a41461022957806359e02dd714610250578063651dd0de146102655780636ba5ef0d146102a35780637a9e5e4b146102c45780638da5cb5b146102e5578063ac4c25b2146102fa578063beb38b431461030f578063bf7e214f1461033d578063e0a1fdad14610352578063f2c5925d14610374578063f889794514610396575b600080fd5b34801561012257600080fd5b50610137600160a060020a03600435166103c7565b005b34801561014557600080fd5b50610137600435610471565b34801561015d57600080fd5b506101376104ff565b34801561017257600080fd5b5061017b61050b565b6040805192835290151560208301528051918290030190f35b3480156101a057600080fd5b50610137600160a060020a03600435166108df565b3480156101c157600080fd5b50610137600160a060020a0360043516610998565b3480156101e257600080fd5b506101f7600160a060020a03600435166109c6565b60408051600160a060020a03199092168252519081900360200190f35b34801561022057600080fd5b506101f76109de565b34801561023557600080fd5b5061023e6109ea565b60408051918252519081900360200190f35b34801561025c57600080fd5b5061017b610a0a565b34801561027157600080fd5b50610287600160a060020a031960043516610a1f565b60408051600160a060020a039092168252519081900360200190f35b3480156102af57600080fd5b506101376001606060020a0360043516610a3a565b3480156102d057600080fd5b50610137600160a060020a0360043516610b8a565b3480156102f157600080fd5b50610287610c30565b34801561030657600080fd5b50610137610c3f565b34801561031b57600080fd5b50610137600160a060020a031960043516602435600160a060020a0316610d0c565b34801561034957600080fd5b50610287610f82565b34801561035e57600080fd5b50610137600160a060020a031960043516610f91565b34801561038057600080fd5b50610137600160a060020a031960043516610f9c565b3480156103a257600080fd5b506103ab6110cd565b604080516001606060020a039092168252519081900360200190f35b6103dd33600035600160e060020a0319166110ec565b1515610421576040805160e560020a62461bcd02815260206004820152601d60248201526000805160206112ad833981519152604482015290519081900360640190fd5b60018054600160a060020a031916600160a060020a0383811691909117918290556040519116907fce241d7ca1f669fee44b6fc00b8eba2df3bb514eed0f6f668f8f89096e81ed9490600090a250565b60408051348082526020820183815236938301849052600435936024359384938693339360008035600160e060020a031916949092606082018484808284376040519201829003965090945050505050a46104ca61050b565b6001805491151560a060020a0274ff000000000000000000000000000000000000000019909216919091179055600255505050565b6105096000610471565b565b600080606060008060008060008060008060006001600560009054906101000a900460a060020a0260a060020a9004036001606060020a031660405190808252806020026020018201604052801561056d578160200160208202803883390190505b50995060009850600197505b60055460a060020a908102046001606060020a0390811690891610156107c157600160a060020a031960a060020a890216600090815260036020526040902054600160a060020a0316156107b65760a060020a8802600160a060020a0319166000908152600360205260408082205481517f59e02dd70000000000000000000000000000000000000000000000000000000081528251600160a060020a03909216936359e02dd79360048084019491939192918390030190829087803b15801561064257600080fd5b505af1158015610656573d6000803e3d6000fd5b505050506040513d604081101561066c57600080fd5b508051602090910151909750955085156107b6576001606060020a03891615806106b957508960018a036001606060020a03168151811015156106ab57fe5b602090810290910101518710155b156106e557868a8a6001606060020a03168151811015156106d657fe5b602090810290910101526107af565b600094505b89856001606060020a031681518110151561070157fe5b60209081029091010151871061071c576001909401936106ea565b8893505b846001606060020a0316846001606060020a0316111561078c5789600185036001606060020a031681518110151561075457fe5b906020019060200201518a856001606060020a031681518110151561077557fe5b602090810290910101526000199390930192610720565b868a866001606060020a03168151811015156107a457fe5b602090810290910101525b6001909801975b600190970196610579565b6005546001606060020a036c010000000000000000000000009091048116908a1610156107f65760025460009b509b506108d1565b6001891615156108955789600160026001606060020a038c1604036001606060020a031681518110151561082657fe5b6020908102909101015191508960026001606060020a038b16046001606060020a031681518110151561085557fe5b60209081029091010151905061087c61086e83836111f5565b671bc16d674ec80000611217565b6fffffffffffffffffffffffffffffffff1692506108c9565b8960026001606060020a036000198c0116046001606060020a03168151811015156108bc57fe5b9060200190602002015192505b8260019b509b505b505050505050505050509091565b60006108f733600035600160e060020a0319166110ec565b151561093b576040805160e560020a62461bcd02815260206004820152601d60248201526000805160206112ad833981519152604482015290519081900360640190fd5b5060055460a060020a90810281900460010102600160a060020a03198116151561096157fe5b6005546109749060a060020a0283610d0c565b600580546bffffffffffffffffffffffff191660a060020a90920491909117905550565b600160a060020a0381166000908152600460205260408120546109c39160a060020a90910290610d0c565b50565b60046020526000908152604090205460a060020a0281565b60055460a060020a0281565b60008060006109f7610a0a565b91509150801515610a0457fe5b50919050565b60025460015460ff60a060020a909104169091565b600360205260009081526040902054600160a060020a031681565b60408051348082526020820183815236938301849052600435936024359384938693339360008035600160e060020a031916949092606082018484808284376040519201829003965090945050505050a4610aa133600035600160e060020a0319166110ec565b1515610ae5576040805160e560020a62461bcd02815260206004820152601d60248201526000805160206112ad833981519152604482015290519081900360640190fd5b6001606060020a0383161515610b45576040805160e560020a62461bcd02815260206004820152601160248201527f6d696e2063616e6e6f7420626520307830000000000000000000000000000000604482015290519081900360640190fd5b5050600580546001606060020a039092166c010000000000000000000000000277ffffffffffffffffffffffff00000000000000000000000019909216919091179055565b610ba033600035600160e060020a0319166110ec565b1515610be4576040805160e560020a62461bcd02815260206004820152601d60248201526000805160206112ad833981519152604482015290519081900360640190fd5b60008054600160a060020a031916600160a060020a03838116919091178083556040519116917f1abebea81bfa2637f28358c371278fb15ede7ea8dd28d2e03b112ff6d936ada491a250565b600154600160a060020a031681565b60408051348082526020820183815236938301849052600435936024359384938693339360008035600160e060020a031916949092606082018484808284376040519201829003965090945050505050a4610ca633600035600160e060020a0319166110ec565b1515610cea576040805160e560020a62461bcd02815260206004820152601d60248201526000805160206112ad833981519152604482015290519081900360640190fd5b50506001805474ff000000000000000000000000000000000000000019169055565b60408051348082526020820183815236938301849052600435936024359384938693339360008035600160e060020a031916949092606082018484808284376040519201829003965090945050505050a4610d7333600035600160e060020a0319166110ec565b1515610db7576040805160e560020a62461bcd02815260206004820152601d60248201526000805160206112ad833981519152604482015290519081900360640190fd5b600160a060020a031984161515610e18576040805160e560020a62461bcd02815260206004820152601160248201527f706f732063616e6e6f7420626520307830000000000000000000000000000000604482015290519081900360640190fd5b600160a060020a0383161580610e545750600160a060020a03831660009081526004602052604090205460a060020a02600160a060020a031916155b1515610ed0576040805160e560020a62461bcd02815260206004820152602560248201527f776174206973206e6f7420646566696e6564206f722069742068617320616e2060448201527f696e646578000000000000000000000000000000000000000000000000000000606482015290519081900360840190fd5b600160a060020a03198416600090815260036020908152604080832054600160a060020a039081168452600490925290912080546bffffffffffffffffffffffff19169055831615610f5057600160a060020a038316600090815260046020526040902080546bffffffffffffffffffffffff191660a060020a86041790555b5050600160a060020a031991821660009081526003602052604090208054600160a060020a0390921691909216179055565b600054600160a060020a031681565b6109c3816000610d0c565b60408051348082526020820183815236938301849052600435936024359384938693339360008035600160e060020a031916949092606082018484808284376040519201829003965090945050505050a461100333600035600160e060020a0319166110ec565b1515611047576040805160e560020a62461bcd02815260206004820152601d60248201526000805160206112ad833981519152604482015290519081900360640190fd5b600160a060020a0319831615156110a8576040805160e560020a62461bcd02815260206004820152601260248201527f6e6578742063616e6e6f74206265203078300000000000000000000000000000604482015290519081900360640190fd5b5050600580546bffffffffffffffffffffffff191660a060020a909204919091179055565b6005546c0100000000000000000000000090046001606060020a031681565b6000600160a060020a038316301415611107575060016111ef565b600154600160a060020a0384811691161415611125575060016111ef565b600054600160a060020a0316151561113f575060006111ef565b60008054604080517fb7009613000000000000000000000000000000000000000000000000000000008152600160a060020a038781166004830152306024830152600160e060020a0319871660448301529151919092169263b700961392606480820193602093909283900390910190829087803b1580156111c057600080fd5b505af11580156111d4573d6000803e3d6000fd5b505050506040513d60208110156111ea57600080fd5b505190505b92915050565b8082016fffffffffffffffffffffffffffffffff80841690821610156111ef57fe5b60006112846fffffffffffffffffffffffffffffffff8316600281046fffffffffffffffffffffffffffffffff16670de0b6b3a76400006fffffffffffffffffffffffffffffffff16866fffffffffffffffffffffffffffffffff16020181151561127e57fe5b0461128b565b9392505050565b806fffffffffffffffffffffffffffffffff811681146112a757fe5b91905056004974206d75737420626520616e20617574686f72697a65642063616c6c000000a165627a7a723058209380129da17f71ed775f8e2aa727f33febecf2ac39f8bc7b0178ee083e60d6240029",
  "source": "pragma solidity ^0.4.24;\n\nimport \"../Oracle/DSValue.sol\";\n\ncontract Medianizer is DSValue {\n    mapping (bytes12 => address) public values;\n    mapping (address => bytes12) public indexes;\n    bytes12 public next = 0x1;\n\n    uint96 public min = 0x1;\n\n    function set(address wat) public auth {\n        bytes12 nextId = bytes12(uint96(next) + 1);\n        assert(nextId != 0x0);\n        set(next, wat);\n        next = nextId;\n    }\n\n    function set(bytes12 pos, address wat) public note auth {\n        require(pos != 0x0, \"pos cannot be 0x0\");\n        require(wat == 0 || indexes[wat] == 0, \"wat is not defined or it has an index\");\n\n        indexes[values[pos]] = bytes12(0); // Making sure to remove a possible existing address in that position\n\n        if (wat != 0) {\n            indexes[wat] = pos;\n        }\n\n        values[pos] = wat;\n    }\n\n    function setMin(uint96 min_) public note auth {\n        require(min_ != 0x0, \"min cannot be 0x0\");\n        min = min_;\n    }\n\n    function setNext(bytes12 next_) public note auth {\n        require(next_ != 0x0, \"next cannot be 0x0\");\n        next = next_;\n    }\n\n    function unset(bytes12 pos) public {\n        set(pos, 0);\n    }\n\n    function unset(address wat) public {\n        set(indexes[wat], 0);\n    }\n\n    function poke() public {\n        poke(0);\n    }\n\n    function poke(bytes32) public note {\n        (val, has) = compute();\n    }\n\n    function compute() public view returns (bytes32, bool) {\n        bytes32[] memory wuts = new bytes32[](uint96(next) - 1);\n        uint96 ctr = 0;\n        for (uint96 i = 1; i < uint96(next); i++) {\n            if (values[bytes12(i)] != 0) {\n                (bytes32 wut, bool wuz) = DSValue(values[bytes12(i)]).peek();\n                if (wuz) {\n                    if (ctr == 0 || wut >= wuts[ctr - 1]) {\n                        wuts[ctr] = wut;\n                    } else {\n                        uint96 j = 0;\n                        while (wut >= wuts[j]) {\n                            j++;\n                        }\n                        for (uint96 k = ctr; k > j; k--) {\n                            wuts[k] = wuts[k - 1];\n                        }\n                        wuts[j] = wut;\n                    }\n                    ctr++;\n                }\n            }\n        }\n\n        if (ctr < min) return (val, false);\n\n        bytes32 value;\n        if (ctr % 2 == 0) {\n            uint128 val1 = uint128(wuts[(ctr / 2) - 1]);\n            uint128 val2 = uint128(wuts[ctr / 2]);\n            value = bytes32(wdiv(hadd(val1, val2), 2 ether));\n        } else {\n            value = wuts[(ctr - 1) / 2];\n        }\n\n        return (value, true);\n    }\n}\n",
  "sourcePath": "/mnt/bf1642c6-3903-4bb8-b254-88a427e7ab47/Home/David/Documents/Work/Gnosis/dx-contracts/contracts/Oracle/Medianizer.sol",
  "compiler": {
    "name": "solc",
    "version": "0.4.25+commit.59dbf8f1.Emscripten.clang"
  },
  "schemaVersion": "2.0.2",
  "updatedAt": "2019-01-04T11:06:43.784Z"
}