{
  "contractName": "MockContract",
  "abi": [
    {
      "constant": true,
      "inputs": [],
      "name": "MOCKS_LIST_END_HASH",
      "outputs": [
        {
          "name": "",
          "type": "bytes32"
        }
      ],
      "payable": false,
      "stateMutability": "view",
      "type": "function",
      "signature": "0x2ed238dc"
    },
    {
      "constant": true,
      "inputs": [],
      "name": "MOCKS_LIST_START",
      "outputs": [
        {
          "name": "",
          "type": "bytes32"
        }
      ],
      "payable": false,
      "stateMutability": "view",
      "type": "function",
      "signature": "0x67aad04a"
    },
    {
      "constant": true,
      "inputs": [],
      "name": "MOCKS_LIST_END",
      "outputs": [
        {
          "name": "",
          "type": "bytes"
        }
      ],
      "payable": false,
      "stateMutability": "view",
      "type": "function",
      "signature": "0x7cd96ee4"
    },
    {
      "constant": true,
      "inputs": [],
      "name": "SENTINEL_ANY_MOCKS",
      "outputs": [
        {
          "name": "",
          "type": "bytes4"
        }
      ],
      "payable": false,
      "stateMutability": "view",
      "type": "function",
      "signature": "0xf07da229"
    },
    {
      "inputs": [],
      "payable": false,
      "stateMutability": "nonpayable",
      "type": "constructor",
      "signature": "constructor"
    },
    {
      "payable": true,
      "stateMutability": "payable",
      "type": "fallback"
    },
    {
      "constant": false,
      "inputs": [
        {
          "name": "response",
          "type": "bytes"
        }
      ],
      "name": "givenAnyReturn",
      "outputs": [],
      "payable": false,
      "stateMutability": "nonpayable",
      "type": "function",
      "signature": "0xd6fe9778"
    },
    {
      "constant": false,
      "inputs": [
        {
          "name": "response",
          "type": "bool"
        }
      ],
      "name": "givenAnyReturnBool",
      "outputs": [],
      "payable": false,
      "stateMutability": "nonpayable",
      "type": "function",
      "signature": "0x36ff0ee5"
    },
    {
      "constant": false,
      "inputs": [
        {
          "name": "response",
          "type": "uint256"
        }
      ],
      "name": "givenAnyReturnUint",
      "outputs": [],
      "payable": false,
      "stateMutability": "nonpayable",
      "type": "function",
      "signature": "0xaf21ac78"
    },
    {
      "constant": false,
      "inputs": [
        {
          "name": "response",
          "type": "address"
        }
      ],
      "name": "givenAnyReturnAddress",
      "outputs": [],
      "payable": false,
      "stateMutability": "nonpayable",
      "type": "function",
      "signature": "0x682b4797"
    },
    {
      "constant": false,
      "inputs": [],
      "name": "givenAnyRevert",
      "outputs": [],
      "payable": false,
      "stateMutability": "nonpayable",
      "type": "function",
      "signature": "0xe211b8a5"
    },
    {
      "constant": false,
      "inputs": [
        {
          "name": "message",
          "type": "string"
        }
      ],
      "name": "givenAnyRevertWithMessage",
      "outputs": [],
      "payable": false,
      "stateMutability": "nonpayable",
      "type": "function",
      "signature": "0x87abab65"
    },
    {
      "constant": false,
      "inputs": [],
      "name": "givenAnyRunOutOfGas",
      "outputs": [],
      "payable": false,
      "stateMutability": "nonpayable",
      "type": "function",
      "signature": "0x3956dc6b"
    },
    {
      "constant": false,
      "inputs": [
        {
          "name": "call",
          "type": "bytes"
        },
        {
          "name": "response",
          "type": "bytes"
        }
      ],
      "name": "givenCalldataReturn",
      "outputs": [],
      "payable": false,
      "stateMutability": "nonpayable",
      "type": "function",
      "signature": "0x61936594"
    },
    {
      "constant": false,
      "inputs": [
        {
          "name": "call",
          "type": "bytes"
        },
        {
          "name": "response",
          "type": "bool"
        }
      ],
      "name": "givenCalldataReturnBool",
      "outputs": [],
      "payable": false,
      "stateMutability": "nonpayable",
      "type": "function",
      "signature": "0x5a3855ab"
    },
    {
      "constant": false,
      "inputs": [
        {
          "name": "call",
          "type": "bytes"
        },
        {
          "name": "response",
          "type": "uint256"
        }
      ],
      "name": "givenCalldataReturnUint",
      "outputs": [],
      "payable": false,
      "stateMutability": "nonpayable",
      "type": "function",
      "signature": "0xd73ca0ac"
    },
    {
      "constant": false,
      "inputs": [
        {
          "name": "call",
          "type": "bytes"
        },
        {
          "name": "response",
          "type": "address"
        }
      ],
      "name": "givenCalldataReturnAddress",
      "outputs": [],
      "payable": false,
      "stateMutability": "nonpayable",
      "type": "function",
      "signature": "0xb3901f29"
    },
    {
      "constant": false,
      "inputs": [
        {
          "name": "call",
          "type": "bytes"
        },
        {
          "name": "response",
          "type": "bytes"
        }
      ],
      "name": "givenMethodReturn",
      "outputs": [],
      "payable": false,
      "stateMutability": "nonpayable",
      "type": "function",
      "signature": "0xc6ee167f"
    },
    {
      "constant": false,
      "inputs": [
        {
          "name": "call",
          "type": "bytes"
        },
        {
          "name": "response",
          "type": "bool"
        }
      ],
      "name": "givenMethodReturnBool",
      "outputs": [],
      "payable": false,
      "stateMutability": "nonpayable",
      "type": "function",
      "signature": "0x6f400756"
    },
    {
      "constant": false,
      "inputs": [
        {
          "name": "call",
          "type": "bytes"
        },
        {
          "name": "response",
          "type": "uint256"
        }
      ],
      "name": "givenMethodReturnUint",
      "outputs": [],
      "payable": false,
      "stateMutability": "nonpayable",
      "type": "function",
      "signature": "0xf5afa9c1"
    },
    {
      "constant": false,
      "inputs": [
        {
          "name": "call",
          "type": "bytes"
        },
        {
          "name": "response",
          "type": "address"
        }
      ],
      "name": "givenMethodReturnAddress",
      "outputs": [],
      "payable": false,
      "stateMutability": "nonpayable",
      "type": "function",
      "signature": "0xcf11ff5d"
    },
    {
      "constant": false,
      "inputs": [
        {
          "name": "call",
          "type": "bytes"
        }
      ],
      "name": "givenCalldataRevert",
      "outputs": [],
      "payable": false,
      "stateMutability": "nonpayable",
      "type": "function",
      "signature": "0xeb861f69"
    },
    {
      "constant": false,
      "inputs": [
        {
          "name": "call",
          "type": "bytes"
        }
      ],
      "name": "givenMethodRevert",
      "outputs": [],
      "payable": false,
      "stateMutability": "nonpayable",
      "type": "function",
      "signature": "0xaa788c55"
    },
    {
      "constant": false,
      "inputs": [
        {
          "name": "call",
          "type": "bytes"
        },
        {
          "name": "message",
          "type": "string"
        }
      ],
      "name": "givenCalldataRevertWithMessage",
      "outputs": [],
      "payable": false,
      "stateMutability": "nonpayable",
      "type": "function",
      "signature": "0x9eaeed75"
    },
    {
      "constant": false,
      "inputs": [
        {
          "name": "call",
          "type": "bytes"
        },
        {
          "name": "message",
          "type": "string"
        }
      ],
      "name": "givenMethodRevertWithMessage",
      "outputs": [],
      "payable": false,
      "stateMutability": "nonpayable",
      "type": "function",
      "signature": "0x9a1dc86b"
    },
    {
      "constant": false,
      "inputs": [
        {
          "name": "call",
          "type": "bytes"
        }
      ],
      "name": "givenCalldataRunOutOfGas",
      "outputs": [],
      "payable": false,
      "stateMutability": "nonpayable",
      "type": "function",
      "signature": "0x21fed4d6"
    },
    {
      "constant": false,
      "inputs": [
        {
          "name": "call",
          "type": "bytes"
        }
      ],
      "name": "givenMethodRunOutOfGas",
      "outputs": [],
      "payable": false,
      "stateMutability": "nonpayable",
      "type": "function",
      "signature": "0x68ab6f2f"
    },
    {
      "constant": false,
      "inputs": [],
      "name": "invocationCount",
      "outputs": [
        {
          "name": "",
          "type": "uint256"
        }
      ],
      "payable": false,
      "stateMutability": "nonpayable",
      "type": "function",
      "signature": "0x0a20119f"
    },
    {
      "constant": false,
      "inputs": [
        {
          "name": "call",
          "type": "bytes"
        }
      ],
      "name": "invocationCountForMethod",
      "outputs": [
        {
          "name": "",
          "type": "uint256"
        }
      ],
      "payable": false,
      "stateMutability": "nonpayable",
      "type": "function",
      "signature": "0x4937c4f6"
    },
    {
      "constant": false,
      "inputs": [
        {
          "name": "call",
          "type": "bytes"
        }
      ],
      "name": "invocationCountForCalldata",
      "outputs": [
        {
          "name": "",
          "type": "uint256"
        }
      ],
      "payable": false,
      "stateMutability": "nonpayable",
      "type": "function",
      "signature": "0x586984a4"
    },
    {
      "constant": false,
      "inputs": [],
      "name": "reset",
      "outputs": [],
      "payable": false,
      "stateMutability": "nonpayable",
      "type": "function",
      "signature": "0xd826f88f"
    },
    {
      "constant": false,
      "inputs": [
        {
          "name": "methodId",
          "type": "bytes4"
        },
        {
          "name": "originalMsgData",
          "type": "bytes"
        }
      ],
      "name": "updateInvocationCount",
      "outputs": [],
      "payable": false,
      "stateMutability": "nonpayable",
      "type": "function",
      "signature": "0x58cbc025"
    }
  ],
  "bytecode": "0x60806040523480156200001157600080fd5b5060408051808201909152600481527f307866660000000000000000000000000000000000000000000000000000000060208083019182527f0100000000000000000000000000000000000000000000000000000000000000600090815290529051620000a0917f82ac279db26a206d9ba5a94c07ff940aea4b3bfde8820ec95f4efa0acfd0d5bc9162000102565b507f010000000000000000000000000000000000000000000000000000000000000060005260056020527fde001afd1f75281f9d2ab22d4e0166be5a51dd890d7492e8fbf3e412e05eac0a805463ffffffff19166301000000179055620001a7565b828054600181600116156101000203166002900490600052602060002090601f016020900481019282601f106200014557805160ff191683800117855562000175565b8280016001018555821562000175579182015b828111156200017557825182559160200191906001019062000158565b506200018392915062000187565b5090565b620001a491905b808211156200018357600081556001016200018e565b90565b61296b80620001b76000396000f3fe6080604052600436106101d15760003560e060020a9004806387abab65116100fb578063cf11ff5d11610099578063e211b8a511610068578063e211b8a514611395578063eb861f69146113aa578063f07da22914611427578063f5afa9c114611459576101d1565b8063cf11ff5d146111f3578063d6fe977814611286578063d73ca0ac14611303578063d826f88f14611380576101d1565b8063aa788c55116100d5578063aa788c5514610fea578063af21ac7814611067578063b3901f2914611091578063c6ee167f14611124576101d1565b806387abab6514610dcf5780639a1dc86b14610e4c5780639eaeed7514610f1b576101d1565b806358cbc02511610173578063682b479711610142578063682b479714610c0957806368ab6f2f14610c495780636f40075614610cc65780637cd96ee414610d45576101d1565b806358cbc025146109e25780635a3855ab14610aa65780636193659414610b2557806367aad04a14610bf4576101d1565b806336ff0ee5116101af57806336ff0ee5146108a75780633956dc6b146108d35780634937c4f6146108e8578063586984a414610965576101d1565b80630a20119f146107ec57806321fed4d6146108135780632ed238dc14610892575b60003560018060003660405180838380828437919091019485525050604051928390036020019092205460ff16915050600281111561020c57fe5b14156102d1576003600036604051808383808284379190910194855250506040516020938190038401812060e560020a62461bcd028252600482019485528054600260018216156101000260001901909116046024830181905290949350839250604490910190849080156102c25780601f10610297576101008083540402835291602001916102c2565b820191906000526020600020905b8154815290600101906020018083116102a557829003601f168201915b50509250505060405180910390fd5b6002600160003660405180838380828437919091019485525050604051928390036020019092205460ff16915050600281111561030a57fe5b1415610318576103186114d6565b60606002600036604051808383808284379190910194855250506040805160209481900385018120805460026001821615610100026000190190911604601f810187900487028301870190935282825290949093509091508301828280156103c15780601f10610396576101008083540402835291602001916103c1565b820191906000526020600020905b8154815290600101906020018083116103a457829003601f168201915b50505050509050805160001415610558576001600160e060020a0319831660009081526006602052604090205460ff1660028111156103fc57fe5b141561047a57600160e060020a03198216600090815260086020908152604091829020915160e560020a62461bcd0281526004810191825282546002600019610100600184161502019091160460248201819052829160440190849080156102c25780601f10610297576101008083540402835291602001916102c2565b6002600160e060020a0319831660009081526006602052604090205460ff1660028111156104a457fe5b14156104b2576104b26114d6565b600160e060020a0319821660009081526007602090815260409182902080548351601f6002600019610100600186161502019093169290920491820184900484028101840190945280845290918301828280156105505780601f1061052557610100808354040283529160200191610550565b820191906000526020600020905b81548152906001019060200180831161053357829003601f168201915b505050505090505b8051151561068c576001600a5460ff16600281111561057357fe5b14156105dd5760405160e560020a62461bcd028152602060048201908152600c8054600260001961010060018416150201909116046024840181905290928291604490910190849080156102c25780601f10610297576101008083540402835291602001916102c2565b6002600a5460ff1660028111156105f057fe5b14156105fe576105fe6114d6565b600b805460408051602060026001851615610100026000190190941693909304601f810184900484028201840190925281815292918301828280156106845780601f1061065957610100808354040283529160200191610684565b820191906000526020600020905b81548152906001019060200180831161066757829003601f168201915b505050505090505b60408051600160e060020a03198416602482019081526044820192835236606483018190526060933093620186a0938893600093909260840184848082843760008382015260408051601f909201601f1990811690940182810390940182529283526020810180517bffffffffffffffffffffffffffffffffffffffffffffffffffffffff167f58cbc0250000000000000000000000000000000000000000000000000000000017815292518151919850965086955091935090915081905083835b6020831061076d5780518252601f19909201916020918201910161074e565b6001836020036101000a03801982511681845116808217855250505050505090500191505060006040518083038160008787f1925050503d80600081146107d0576040519150601f19603f3d011682016040523d82523d6000602084013e6107d5565b606091505b5080519092501590506107e457fe5b815182602001f35b3480156107f857600080fd5b506108016114f2565b60408051918252519081900360200190f35b34801561081f57600080fd5b506108906004803603602081101561083657600080fd5b81019060208101813564010000000081111561085157600080fd5b82018360208201111561086357600080fd5b8035906020019184600183028401116401000000008311171561088557600080fd5b5090925090506114f9565b005b34801561089e57600080fd5b50610801611580565b3480156108b357600080fd5b50610890600480360360208110156108ca57600080fd5b503515156115f9565b3480156108df57600080fd5b50610890611620565b3480156108f457600080fd5b506108016004803603602081101561090b57600080fd5b81019060208101813564010000000081111561092657600080fd5b82018360208201111561093857600080fd5b8035906020019184600183028401116401000000008311171561095a57600080fd5b50909250905061162f565b34801561097157600080fd5b506108016004803603602081101561098857600080fd5b8101906020810181356401000000008111156109a357600080fd5b8201836020820111156109b557600080fd5b803590602001918460018302840111640100000000831117156109d757600080fd5b5090925090506116c0565b3480156109ee57600080fd5b5061089060048036036040811015610a0557600080fd5b600160e060020a03198235169190810190604081016020820135640100000000811115610a3157600080fd5b820183602082011115610a4357600080fd5b80359060200191846001830284011164010000000083111715610a6557600080fd5b91908080601f016020809104026020016040519081016040528093929190818152602001838380828437600092019190915250929550611717945050505050565b348015610ab257600080fd5b5061089060048036036040811015610ac957600080fd5b810190602081018135640100000000811115610ae457600080fd5b820183602082011115610af657600080fd5b80359060200191846001830284011164010000000083111715610b1857600080fd5b9193509150351515611848565b348015610b3157600080fd5b5061089060048036036040811015610b4857600080fd5b810190602081018135640100000000811115610b6357600080fd5b820183602082011115610b7557600080fd5b80359060200191846001830284011164010000000083111715610b9757600080fd5b919390929091602081019035640100000000811115610bb557600080fd5b820183602082011115610bc757600080fd5b80359060200191846001830284011164010000000083111715610be957600080fd5b5090925090506118ae565b348015610c0057600080fd5b50610801611921565b348015610c1557600080fd5b5061089060048036036020811015610c2c57600080fd5b503573ffffffffffffffffffffffffffffffffffffffff16611929565b348015610c5557600080fd5b5061089060048036036020811015610c6c57600080fd5b810190602081018135640100000000811115610c8757600080fd5b820183602082011115610c9957600080fd5b80359060200191846001830284011164010000000083111715610cbb57600080fd5b509092509050611938565b348015610cd257600080fd5b5061089060048036036040811015610ce957600080fd5b810190602081018135640100000000811115610d0457600080fd5b820183602082011115610d1657600080fd5b80359060200191846001830284011164010000000083111715610d3857600080fd5b91935091503515156119b5565b348015610d5157600080fd5b50610d5a611a15565b6040805160208082528351818301528351919283929083019185019080838360005b83811015610d94578181015183820152602001610d7c565b50505050905090810190601f168015610dc15780820380516001836020036101000a031916815260200191505b509250505060405180910390f35b348015610ddb57600080fd5b5061089060048036036020811015610df257600080fd5b810190602081018135640100000000811115610e0d57600080fd5b820183602082011115610e1f57600080fd5b80359060200191846001830284011164010000000083111715610e4157600080fd5b509092509050611a36565b348015610e5857600080fd5b5061089060048036036040811015610e6f57600080fd5b810190602081018135640100000000811115610e8a57600080fd5b820183602082011115610e9c57600080fd5b80359060200191846001830284011164010000000083111715610ebe57600080fd5b919390929091602081019035640100000000811115610edc57600080fd5b820183602082011115610eee57600080fd5b80359060200191846001830284011164010000000083111715610f1057600080fd5b509092509050611a4f565b348015610f2757600080fd5b5061089060048036036040811015610f3e57600080fd5b810190602081018135640100000000811115610f5957600080fd5b820183602082011115610f6b57600080fd5b80359060200191846001830284011164010000000083111715610f8d57600080fd5b919390929091602081019035640100000000811115610fab57600080fd5b820183602082011115610fbd57600080fd5b80359060200191846001830284011164010000000083111715610fdf57600080fd5b509092509050611add565b348015610ff657600080fd5b506108906004803603602081101561100d57600080fd5b81019060208101813564010000000081111561102857600080fd5b82018360208201111561103a57600080fd5b8035906020019184600183028401116401000000008311171561105c57600080fd5b509092509050611b96565b34801561107357600080fd5b506108906004803603602081101561108a57600080fd5b5035611c03565b34801561109d57600080fd5b50610890600480360360408110156110b457600080fd5b8101906020810181356401000000008111156110cf57600080fd5b8201836020820111156110e157600080fd5b8035906020019184600183028401116401000000008311171561110357600080fd5b91935091503573ffffffffffffffffffffffffffffffffffffffff16611c0f565b34801561113057600080fd5b506108906004803603604081101561114757600080fd5b81019060208101813564010000000081111561116257600080fd5b82018360208201111561117457600080fd5b8035906020019184600183028401116401000000008311171561119657600080fd5b9193909290916020810190356401000000008111156111b457600080fd5b8201836020820111156111c657600080fd5b803590602001918460018302840111640100000000831117156111e857600080fd5b509092509050611c54565b3480156111ff57600080fd5b506108906004803603604081101561121657600080fd5b81019060208101813564010000000081111561123157600080fd5b82018360208201111561124357600080fd5b8035906020019184600183028401116401000000008311171561126557600080fd5b91935091503573ffffffffffffffffffffffffffffffffffffffff16611cc7565b34801561129257600080fd5b50610890600480360360208110156112a957600080fd5b8101906020810181356401000000008111156112c457600080fd5b8201836020820111156112d657600080fd5b803590602001918460018302840111640100000000831117156112f857600080fd5b509092509050611d0c565b34801561130f57600080fd5b506108906004803603604081101561132657600080fd5b81019060208101813564010000000081111561134157600080fd5b82018360208201111561135357600080fd5b8035906020019184600183028401116401000000008311171561137557600080fd5b919350915035611d4b565b34801561138c57600080fd5b50610890611d90565b3480156113a157600080fd5b506108906122da565b3480156113b657600080fd5b50610890600480360360208110156113cd57600080fd5b8101906020810181356401000000008111156113e857600080fd5b8201836020820111156113fa57600080fd5b8035906020019184600183028401116401000000008311171561141c57600080fd5b509092509050612305565b34801561143357600080fd5b5061143c611921565b60408051600160e060020a03199092168252519081900360200190f35b34801561146557600080fd5b506108906004803603604081101561147c57600080fd5b81019060208101813564010000000081111561149757600080fd5b8201836020820111156114a957600080fd5b803590602001918460018302840111640100000000831117156114cb57600080fd5b9193509150356123d3565b5b60006060600060c060008060066107d05a03f19050506114d7565b600d545b90565b6002600183836040518083838082843791909101948552505060405192839003602001909220805490925060ff19169050600183600281111561153857fe5b021790555061157c82828080601f01602080910402602001604051908101604052809392919081815260200183838082843760009201919091525061241892505050565b5050565b604080518082018252600480825260e160020a63183c333302602083019081529251919282918083835b602083106115c95780518252601f1990920191602091820191016115aa565b6001836020036101000a038019825116818451168082178552505050505050905001915050604051809103902081565b60008161160757600061160a565b60015b60ff16905061157c61161b826124b7565b6124e1565b600a805460ff19166002179055565b60008061167184848080601f0160208091040260200160405190810160405280939291908181526020018383808284376000920191909152506124fe92505050565b600e5460408051602080820193909352600160e060020a031990931683820152805160248185030181526044909301815282519282019290922060009081526009909152205491505092915050565b600060046000600e5485856040516020018084815260200183838082843780830192505050935050505060405160208183030381529060405280519060200120815260200190815260200160002054905092915050565b3330146117585760405160e560020a62461bcd02815260040180806020018281038252602b8152602001806128f5602b913960400191505060405180910390fd5b600d80546001908101909155600e805460408051602080820193909352600160e060020a0319871681830152815160248183030181526044820183528051908401206000908152600984529182208054860190559254606484018181528651600495939492938893608490910191908401908083835b602083106117ed5780518252601f1990920191602091820191016117ce565b6001836020036101000a03801982511681845116808217855250505050505090500192505050604051602081830303815290604052805190602001208152602001908152602001600020600082825401925050819055505050565b600081611856576000611859565b60015b60ff1690506118a884848080601f0160208091040260200160405190810160405280939291908181526020018383808284376000920191909152506118a392508591506124b79050565b61256d565b50505050565b6118a884848080601f01602080910402602001604051908101604052809392919081815260200183838082843760009201919091525050604080516020601f8801819004810282018101909252868152925086915085908190840183828082843760009201919091525061256d92505050565b60f860020a81565b61193561161b82612668565b50565b600061197983838080601f0160208091040260200160405190810160405280939291908181526020018383808284376000920191909152506124fe92505050565b600160e060020a031981166000908152600660205260409020805491925060029160ff19166001835b02179055506119b081612693565b505050565b6000816119c35760006119c6565b60015b60ff1690506118a884848080601f016020809104026020016040519081016040528093929190818152602001838380828437600092019190915250611a1092508591506124b79050565b612726565b604080518082019091526004815260e160020a63183c333302602082015281565b600a805460ff191660011790556119b0600c8383612779565b6000611a9085858080601f0160208091040260200160405190810160405280939291908181526020018383808284376000920191909152506124fe92505050565b600160e060020a031981166000908152600660209081526040808320805460ff1916600117905560089091529020909150611acc908484612779565b50611ad681612693565b5050505050565b60018085856040518083838082843791909101948552505060405192839003602001909220805490925060ff191690506001836002811115611b1b57fe5b021790555081816003868660405180838380828437808301925050509250505090815260200160405180910390209190611b56929190612779565b506118a884848080601f01602080910402602001604051908101604052809392919081815260200183838082843760009201919091525061241892505050565b6000611bd783838080601f0160208091040260200160405190810160405280939291908181526020018383808284376000920191909152506124fe92505050565b600160e060020a031981166000908152600660205260409020805491925060019160ff191682806119a2565b61193561161b826124b7565b6119b083838080601f0160208091040260200160405190810160405280939291908181526020018383808284376000920191909152506118a392508591506126689050565b6118a884848080601f01602080910402602001604051908101604052809392919081815260200183838082843760009201919091525050604080516020601f8801819004810282018101909252868152925086915085908190840183828082843760009201919091525061272692505050565b6119b083838080601f016020809104026020016040519081016040528093929190818152602001838380828437600092019190915250611a1092508591506126689050565b61157c82828080601f0160208091040260200160405190810160405280939291908181526020018383808284376000920191909152506124e192505050565b6119b083838080601f0160208091040260200160405190810160405280939291908181526020018383808284376000920191909152506118a392508591506124b79050565b60f860020a6000908152602090815260008051602061292083398151915280546040805160026001841615610100026000190190931692909204601f8101859004850283018501909152808252606093919291830182828015611e345780601f10611e0957610100808354040283529160200191611e34565b820191906000526020600020905b815481529060010190602001808311611e1757829003601f168201915b5050835160208501209394505050505b604080518082018252600480825260e160020a63183c333302602083019081529251919282918083835b60208310611e8d5780518252601f199092019160209182019101611e6e565b6001836020036101000a03801982511681845116808217855250505050505090500191505060405180910390208114151561211b5760006001836040518082805190602001908083835b60208310611ef65780518252601f199092019160209182019101611ed7565b51815160209384036101000a60001901801990921691161790529201948552506040519384900301909220805490925060ff191690506001836002811115611f3a57fe5b021790555060206040519081016040528060008152506002836040518082805190602001908083835b60208310611f825780518252601f199092019160209182019101611f63565b51815160209384036101000a60001901801990921691161790529201948552506040519384900381019093208451611fc395919491909101925090506127f7565b5060206040519081016040528060008152506003836040518082805190602001908083835b602083106120075780518252601f199092019160209182019101611fe8565b51815160209384036101000a6000190180199092169116179052920194855250604051938490038101909320845161204895919491909101925090506127f7565b506000818152602081815260409182902080548351601f6002600019610100600186161502019093169290920491820184900484028101840190945280845290918301828280156120da5780601f106120af576101008083540402835291602001916120da565b820191906000526020600020905b8154815290600101906020018083116120bd57829003601f168201915b5050604080516020818101808452600080845289815291829052929020905195975061210d9590945090925090506127f7565b505080516020820120611e44565b604080518082019091526004815260e160020a63183c333302602080830191825260f860020a60009081529052905161216391600080516020612920833981519152916127f7565b5060f860020a60005260056020527fde001afd1f75281f9d2ab22d4e0166be5a51dd890d7492e8fbf3e412e05eac0a5460e060020a025b600160e060020a0319811660f860020a1461225d57600160e060020a031981166000818152600660209081526040808320805460ff1916905580518083018083528482529484526007909252909120905183926121f792916127f7565b506040805160208181018084526000808452600160e060020a0319861681526008909252929020905161222a92906127f7565b50600160e060020a0319166000908152600560205260409020805463ffffffff19811690915560e060020a02905061219a565b60f860020a6000908152600560209081527fde001afd1f75281f9d2ab22d4e0166be5a51dd890d7492e8fbf3e412e05eac0a805463ffffffff191663010000001790556040805191820190819052908290526122bc91600b91906127f7565b5050600a805460ff1916905550506000600d55600e80546001019055565b600a805460ff1916600117905560408051602081019182905260009081905261193591600c916127f7565b60018083836040518083838082843791909101948552505060405192839003602001909220805490925060ff19169050600183600281111561234357fe5b0217905550602060405190810160405280600081525060038383604051808383808284378083019250505092505050908152602001604051809103902090805190602001906123939291906127f7565b5061157c82828080601f01602080910402602001604051908101604052809392919081815260200183838082843760009201919091525061241892505050565b6119b083838080601f016020809104026020016040519081016040528093929190818152602001838380828437600092019190915250611a1092508591506124b79050565b805160208083019190912060008181529182905260409091205460026000196101006001841615020190911604151561157c576000602081905281815260409020600080516020612920833981519152805461248892919060026000196101006001841615020190911604612865565b5060f860020a6000908152602090815282516119b09160008051602061292083398151915291908501906127f7565b60408051602080825281830190925260609160208201818038833950505060208101929092525090565b600a805460ff19169055805161157c90600b9060208401906127f7565b600080805b60048110156125665780600802848281518110151561251e57fe5b60209101015160029190910a60f860020a918290049091027fff0000000000000000000000000000000000000000000000000000000000000016049190911790600101612503565b5092915050565b60006001836040518082805190602001908083835b602083106125a15780518252601f199092019160209182019101612582565b51815160209384036101000a60001901801990921691161790529201948552506040519384900301909220805490925060ff1916905060018360028111156125e557fe5b0217905550806002836040518082805190602001908083835b6020831061261d5780518252601f1990920191602091820191016125fe565b51815160209384036101000a6000190180199092169116179052920194855250604051938490038101909320845161265e95919491909101925090506127f7565b5061157c82612418565b6040805174140000000000000000000000000000000000000000909218601483015260348201905290565b600160e060020a031980821660009081526005602052604090205460e060020a021615156119355760056020527fde001afd1f75281f9d2ab22d4e0166be5a51dd890d7492e8fbf3e412e05eac0a8054600160e060020a03198316600090815260408120805460e060020a93840284900463ffffffff199182161790915560f860020a9091528254918404911617905550565b6000612731836124fe565b600160e060020a031981166000908152600660209081526040808320805460ff1916905560078252909120845192935061276f9290918501906127f7565b506119b081612693565b828054600181600116156101000203166002900490600052602060002090601f016020900481019282601f106127ba5782800160ff198235161785556127e7565b828001600101855582156127e7579182015b828111156127e75782358255916020019190600101906127cc565b506127f39291506128da565b5090565b828054600181600116156101000203166002900490600052602060002090601f016020900481019282601f1061283857805160ff19168380011785556127e7565b828001600101855582156127e7579182015b828111156127e757825182559160200191906001019061284a565b828054600181600116156101000203166002900490600052602060002090601f016020900481019282601f1061289e57805485556127e7565b828001600101855582156127e757600052602060002091601f016020900482015b828111156127e75782548255916001019190600101906128bf565b6114f691905b808211156127f357600081556001016128e056fe43616e206f6e6c792062652063616c6c65642066726f6d2074686520636f6e747261637420697473656c6682ac279db26a206d9ba5a94c07ff940aea4b3bfde8820ec95f4efa0acfd0d5bca165627a7a723058201fc5397c04fd09481384e8a1f0eb8cb0462e6bc916e172a33e4bb9a2501ccb870029",
  "source": "pragma solidity ^0.5.0;\n\ninterface MockInterface {\n\t/**\n\t * @dev After calling this method, the mock will return `response` when it is called\n\t * with any calldata that is not mocked more specifically below\n\t * (e.g. using givenMethodReturn).\n\t * @param response ABI encoded response that will be returned if method is invoked\n\t */\n\tfunction givenAnyReturn(bytes calldata response) external;\n\tfunction givenAnyReturnBool(bool response) external;\n\tfunction givenAnyReturnUint(uint response) external;\n\tfunction givenAnyReturnAddress(address response) external;\n\n\tfunction givenAnyRevert() external;\n\tfunction givenAnyRevertWithMessage(string calldata message) external;\n\tfunction givenAnyRunOutOfGas() external;\n\n\t/**\n\t * @dev After calling this method, the mock will return `response` when the given\n\t * methodId is called regardless of arguments. If the methodId and arguments\n\t * are mocked more specifically (using `givenMethodAndArguments`) the latter\n\t * will take precedence.\n\t * @param method ABI encoded methodId. It is valid to pass full calldata (including arguments). The mock will extract the methodId from it\n\t * @param response ABI encoded response that will be returned if method is invoked\n\t */\n\tfunction givenMethodReturn(bytes calldata method, bytes calldata response) external;\n\tfunction givenMethodReturnBool(bytes calldata method, bool response) external;\n\tfunction givenMethodReturnUint(bytes calldata method, uint response) external;\n\tfunction givenMethodReturnAddress(bytes calldata method, address response) external;\n\n\tfunction givenMethodRevert(bytes calldata method) external;\n\tfunction givenMethodRevertWithMessage(bytes calldata method, string calldata message) external;\n\tfunction givenMethodRunOutOfGas(bytes calldata method) external;\n\n\t/**\n\t * @dev After calling this method, the mock will return `response` when the given\n\t * methodId is called with matching arguments. These exact calldataMocks will take\n\t * precedence over all other calldataMocks.\n\t * @param call ABI encoded calldata (methodId and arguments)\n\t * @param response ABI encoded response that will be returned if contract is invoked with calldata\n\t */\n\tfunction givenCalldataReturn(bytes calldata call, bytes calldata response) external;\n\tfunction givenCalldataReturnBool(bytes calldata call, bool response) external;\n\tfunction givenCalldataReturnUint(bytes calldata call, uint response) external;\n\tfunction givenCalldataReturnAddress(bytes calldata call, address response) external;\n\n\tfunction givenCalldataRevert(bytes calldata call) external;\n\tfunction givenCalldataRevertWithMessage(bytes calldata call, string calldata message) external;\n\tfunction givenCalldataRunOutOfGas(bytes calldata call) external;\n\n\t/**\n\t * @dev Returns the number of times anything has been called on this mock since last reset\n\t */\n\tfunction invocationCount() external returns (uint);\n\n\t/**\n\t * @dev Returns the number of times the given method has been called on this mock since last reset\n\t * @param method ABI encoded methodId. It is valid to pass full calldata (including arguments). The mock will extract the methodId from it\n\t */\n\tfunction invocationCountForMethod(bytes calldata method) external returns (uint);\n\n\t/**\n\t * @dev Returns the number of times this mock has been called with the exact calldata since last reset.\n\t * @param call ABI encoded calldata (methodId and arguments)\n\t */\n\tfunction invocationCountForCalldata(bytes calldata call) external returns (uint);\n\n\t/**\n\t * @dev Resets all mocked methods and invocation counts.\n\t */\n\t function reset() external;\n}\n\n/**\n * Implementation of the MockInterface.\n */\ncontract MockContract is MockInterface {\n\tenum MockType { Return, Revert, OutOfGas }\n\t\n\tbytes32 public constant MOCKS_LIST_START = hex\"01\";\n\tbytes public constant MOCKS_LIST_END = \"0xff\";\n\tbytes32 public constant MOCKS_LIST_END_HASH = keccak256(MOCKS_LIST_END);\n\tbytes4 public constant SENTINEL_ANY_MOCKS = hex\"01\";\n\n\t// A linked list allows easy iteration and inclusion checks\n\tmapping(bytes32 => bytes) calldataMocks;\n\tmapping(bytes => MockType) calldataMockTypes;\n\tmapping(bytes => bytes) calldataExpectations;\n\tmapping(bytes => string) calldataRevertMessage;\n\tmapping(bytes32 => uint) calldataInvocations;\n\n\tmapping(bytes4 => bytes4) methodIdMocks;\n\tmapping(bytes4 => MockType) methodIdMockTypes;\n\tmapping(bytes4 => bytes) methodIdExpectations;\n\tmapping(bytes4 => string) methodIdRevertMessages;\n\tmapping(bytes32 => uint) methodIdInvocations;\n\n\tMockType fallbackMockType;\n\tbytes fallbackExpectation;\n\tstring fallbackRevertMessage;\n\tuint invocations;\n\tuint resetCount;\n\n\tconstructor() public {\n\t\tcalldataMocks[MOCKS_LIST_START] = MOCKS_LIST_END;\n\t\tmethodIdMocks[SENTINEL_ANY_MOCKS] = SENTINEL_ANY_MOCKS;\n\t}\n\n\tfunction trackCalldataMock(bytes memory call) private {\n\t\tbytes32 callHash = keccak256(call);\n\t\tif (calldataMocks[callHash].length == 0) {\n\t\t\tcalldataMocks[callHash] = calldataMocks[MOCKS_LIST_START];\n\t\t\tcalldataMocks[MOCKS_LIST_START] = call;\n\t\t}\n\t}\n\n\tfunction trackMethodIdMock(bytes4 methodId) private {\n\t\tif (methodIdMocks[methodId] == 0x0) {\n\t\t\tmethodIdMocks[methodId] = methodIdMocks[SENTINEL_ANY_MOCKS];\n\t\t\tmethodIdMocks[SENTINEL_ANY_MOCKS] = methodId;\n\t\t}\n\t}\n\n\tfunction _givenAnyReturn(bytes memory response) internal {\n\t\tfallbackMockType = MockType.Return;\n\t\tfallbackExpectation = response;\n\t}\n\n\tfunction givenAnyReturn(bytes calldata response) external {\n\t\t_givenAnyReturn(response);\n\t}\n\n\tfunction givenAnyReturnBool(bool response) external {\n\t\tuint flag = response ? 1 : 0;\n\t\t_givenAnyReturn(uintToBytes(flag));\n\t}\n\n\tfunction givenAnyReturnUint(uint response) external {\n\t\t_givenAnyReturn(uintToBytes(response));\t\n\t}\n\n\tfunction givenAnyReturnAddress(address response) external {\n\t\t_givenAnyReturn(addressToBytes(response));\n\t}\n\n\tfunction givenAnyRevert() external {\n\t\tfallbackMockType = MockType.Revert;\n\t\tfallbackRevertMessage = \"\";\n\t}\n\n\tfunction givenAnyRevertWithMessage(string calldata message) external {\n\t\tfallbackMockType = MockType.Revert;\n\t\tfallbackRevertMessage = message;\n\t}\n\n\tfunction givenAnyRunOutOfGas() external {\n\t\tfallbackMockType = MockType.OutOfGas;\n\t}\n\n\tfunction _givenCalldataReturn(bytes memory call, bytes memory response) private  {\n\t\tcalldataMockTypes[call] = MockType.Return;\n\t\tcalldataExpectations[call] = response;\n\t\ttrackCalldataMock(call);\n\t}\n\n\tfunction givenCalldataReturn(bytes calldata call, bytes calldata response) external  {\n\t\t_givenCalldataReturn(call, response);\n\t}\n\n\tfunction givenCalldataReturnBool(bytes calldata call, bool response) external {\n\t\tuint flag = response ? 1 : 0;\n\t\t_givenCalldataReturn(call, uintToBytes(flag));\n\t}\n\n\tfunction givenCalldataReturnUint(bytes calldata call, uint response) external {\n\t\t_givenCalldataReturn(call, uintToBytes(response));\n\t}\n\n\tfunction givenCalldataReturnAddress(bytes calldata call, address response) external {\n\t\t_givenCalldataReturn(call, addressToBytes(response));\n\t}\n\n\tfunction _givenMethodReturn(bytes memory call, bytes memory response) private {\n\t\tbytes4 method = bytesToBytes4(call);\n\t\tmethodIdMockTypes[method] = MockType.Return;\n\t\tmethodIdExpectations[method] = response;\n\t\ttrackMethodIdMock(method);\t\t\n\t}\n\n\tfunction givenMethodReturn(bytes calldata call, bytes calldata response) external {\n\t\t_givenMethodReturn(call, response);\n\t}\n\n\tfunction givenMethodReturnBool(bytes calldata call, bool response) external {\n\t\tuint flag = response ? 1 : 0;\n\t\t_givenMethodReturn(call, uintToBytes(flag));\n\t}\n\n\tfunction givenMethodReturnUint(bytes calldata call, uint response) external {\n\t\t_givenMethodReturn(call, uintToBytes(response));\n\t}\n\n\tfunction givenMethodReturnAddress(bytes calldata call, address response) external {\n\t\t_givenMethodReturn(call, addressToBytes(response));\n\t}\n\n\tfunction givenCalldataRevert(bytes calldata call) external {\n\t\tcalldataMockTypes[call] = MockType.Revert;\n\t\tcalldataRevertMessage[call] = \"\";\n\t\ttrackCalldataMock(call);\n\t}\n\n\tfunction givenMethodRevert(bytes calldata call) external {\n\t\tbytes4 method = bytesToBytes4(call);\n\t\tmethodIdMockTypes[method] = MockType.Revert;\n\t\ttrackMethodIdMock(method);\t\t\n\t}\n\n\tfunction givenCalldataRevertWithMessage(bytes calldata call, string calldata message) external {\n\t\tcalldataMockTypes[call] = MockType.Revert;\n\t\tcalldataRevertMessage[call] = message;\n\t\ttrackCalldataMock(call);\n\t}\n\n\tfunction givenMethodRevertWithMessage(bytes calldata call, string calldata message) external {\n\t\tbytes4 method = bytesToBytes4(call);\n\t\tmethodIdMockTypes[method] = MockType.Revert;\n\t\tmethodIdRevertMessages[method] = message;\n\t\ttrackMethodIdMock(method);\t\t\n\t}\n\n\tfunction givenCalldataRunOutOfGas(bytes calldata call) external {\n\t\tcalldataMockTypes[call] = MockType.OutOfGas;\n\t\ttrackCalldataMock(call);\n\t}\n\n\tfunction givenMethodRunOutOfGas(bytes calldata call) external {\n\t\tbytes4 method = bytesToBytes4(call);\n\t\tmethodIdMockTypes[method] = MockType.OutOfGas;\n\t\ttrackMethodIdMock(method);\t\n\t}\n\n\tfunction invocationCount() external returns (uint) {\n\t\treturn invocations;\n\t}\n\n\tfunction invocationCountForMethod(bytes calldata call) external returns (uint) {\n\t\tbytes4 method = bytesToBytes4(call);\n\t\treturn methodIdInvocations[keccak256(abi.encodePacked(resetCount, method))];\n\t}\n\n\tfunction invocationCountForCalldata(bytes calldata call) external returns (uint) {\n\t\treturn calldataInvocations[keccak256(abi.encodePacked(resetCount, call))];\n\t}\n\n\tfunction reset() external {\n\t\t// Reset all exact calldataMocks\n\t\tbytes memory nextMock = calldataMocks[MOCKS_LIST_START];\n\t\tbytes32 mockHash = keccak256(nextMock);\n\t\t// We cannot compary bytes\n\t\twhile(mockHash != MOCKS_LIST_END_HASH) {\n\t\t\t// Reset all mock maps\n\t\t\tcalldataMockTypes[nextMock] = MockType.Return;\n\t\t\tcalldataExpectations[nextMock] = hex\"\";\n\t\t\tcalldataRevertMessage[nextMock] = \"\";\n\t\t\t// Set next mock to remove\n\t\t\tnextMock = calldataMocks[mockHash];\n\t\t\t// Remove from linked list\n\t\t\tcalldataMocks[mockHash] = \"\";\n\t\t\t// Update mock hash\n\t\t\tmockHash = keccak256(nextMock);\n\t\t}\n\t\t// Clear list\n\t\tcalldataMocks[MOCKS_LIST_START] = MOCKS_LIST_END;\n\n\t\t// Reset all any calldataMocks\n\t\tbytes4 nextAnyMock = methodIdMocks[SENTINEL_ANY_MOCKS];\n\t\twhile(nextAnyMock != SENTINEL_ANY_MOCKS) {\n\t\t\tbytes4 currentAnyMock = nextAnyMock;\n\t\t\tmethodIdMockTypes[currentAnyMock] = MockType.Return;\n\t\t\tmethodIdExpectations[currentAnyMock] = hex\"\";\n\t\t\tmethodIdRevertMessages[currentAnyMock] = \"\";\n\t\t\tnextAnyMock = methodIdMocks[currentAnyMock];\n\t\t\t// Remove from linked list\n\t\t\tmethodIdMocks[currentAnyMock] = 0x0;\n\t\t}\n\t\t// Clear list\n\t\tmethodIdMocks[SENTINEL_ANY_MOCKS] = SENTINEL_ANY_MOCKS;\n\n\t\tfallbackExpectation = \"\";\n\t\tfallbackMockType = MockType.Return;\n\t\tinvocations = 0;\n\t\tresetCount += 1;\n\t}\n\n\tfunction useAllGas() private {\n\t\twhile(true) {\n\t\t\tbool s;\n\t\t\tassembly {\n\t\t\t\t//expensive call to EC multiply contract\n\t\t\t\ts := call(sub(gas, 2000), 6, 0, 0x0, 0xc0, 0x0, 0x60)\n\t\t\t}\n\t\t}\n\t}\n\n\tfunction bytesToBytes4(bytes memory b) private pure returns (bytes4) {\n\t\tbytes4 out;\n\t\tfor (uint i = 0; i < 4; i++) {\n\t\t\tout |= bytes4(b[i] & 0xFF) >> (i * 8);\n\t\t}\n\t\treturn out;\n\t}\n\n\tfunction addressToBytes(address a) private pure returns (bytes memory b){\n\t\tassembly {\n\t\t\tlet m := mload(0x40)\n\t\t\tmstore(add(m, 20), xor(0x140000000000000000000000000000000000000000, a))\n\t\t\tmstore(0x40, add(m, 52))\n\t\t\tb := m\n\t\t}\n\t}\n\n\tfunction uintToBytes(uint256 x) private pure returns (bytes memory b) {\n\t\tb = new bytes(32);\n\t\tassembly { mstore(add(b, 32), x) }\n\t}\n\n\tfunction updateInvocationCount(bytes4 methodId, bytes memory originalMsgData) public {\n\t\trequire(msg.sender == address(this), \"Can only be called from the contract itself\");\n\t\tinvocations += 1;\n\t\tmethodIdInvocations[keccak256(abi.encodePacked(resetCount, methodId))] += 1;\n\t\tcalldataInvocations[keccak256(abi.encodePacked(resetCount, originalMsgData))] += 1;\n\t}\n\n\tfunction() payable external {\n\t\tbytes4 methodId;\n\t\tassembly {\n\t\t\tmethodId := calldataload(0)\n\t\t}\n\n\t\t// First, check exact matching overrides\n\t\tif (calldataMockTypes[msg.data] == MockType.Revert) {\n\t\t\trevert(calldataRevertMessage[msg.data]);\n\t\t}\n\t\tif (calldataMockTypes[msg.data] == MockType.OutOfGas) {\n\t\t\tuseAllGas();\n\t\t}\n\t\tbytes memory result = calldataExpectations[msg.data];\n\n\t\t// Then check method Id overrides\n\t\tif (result.length == 0) {\n\t\t\tif (methodIdMockTypes[methodId] == MockType.Revert) {\n\t\t\t\trevert(methodIdRevertMessages[methodId]);\n\t\t\t}\n\t\t\tif (methodIdMockTypes[methodId] == MockType.OutOfGas) {\n\t\t\t\tuseAllGas();\n\t\t\t}\n\t\t\tresult = methodIdExpectations[methodId];\n\t\t}\n\n\t\t// Last, use the fallback override\n\t\tif (result.length == 0) {\n\t\t\tif (fallbackMockType == MockType.Revert) {\n\t\t\t\trevert(fallbackRevertMessage);\n\t\t\t}\n\t\t\tif (fallbackMockType == MockType.OutOfGas) {\n\t\t\t\tuseAllGas();\n\t\t\t}\n\t\t\tresult = fallbackExpectation;\n\t\t}\n\n\t\t// Record invocation as separate call so we don't rollback in case we are called with STATICCALL\n\t\t(, bytes memory r) = address(this).call.gas(100000)(abi.encodeWithSignature(\"updateInvocationCount(bytes4,bytes)\", methodId, msg.data));\n\t\tassert(r.length == 0);\n\t\t\n\t\tassembly {\n\t\t\treturn(add(0x20, result), mload(result))\n\t\t}\n\t}\n}\n",
  "sourcePath": "@gnosis.pm/mock-contract/contracts/MockContract.sol",
  "compiler": {
    "name": "solc",
    "version": "0.5.2+commit.1df8f40c.Emscripten.clang"
  },
  "schemaVersion": "3.0.1",
  "updatedAt": "2019-01-28T10:54:13.524Z",
  "devdoc": {
    "methods": {}
  },
  "userdoc": {
    "methods": {},
    "notice": "Implementation of the MockInterface."
  }
}