{
  "contractName": "OWLAirdrop",
  "abi": [
    {
      "constant": true,
      "inputs": [],
      "name": "endTime",
      "outputs": [
        {
          "name": "",
          "type": "uint256"
        }
      ],
      "payable": false,
      "stateMutability": "view",
      "type": "function"
    },
    {
      "constant": true,
      "inputs": [],
      "name": "tokenOWL",
      "outputs": [
        {
          "name": "",
          "type": "address"
        }
      ],
      "payable": false,
      "stateMutability": "view",
      "type": "function"
    },
    {
      "constant": true,
      "inputs": [
        {
          "name": "",
          "type": "address"
        }
      ],
      "name": "lockedGNO",
      "outputs": [
        {
          "name": "",
          "type": "uint256"
        }
      ],
      "payable": false,
      "stateMutability": "view",
      "type": "function"
    },
    {
      "constant": true,
      "inputs": [],
      "name": "tokenGNO",
      "outputs": [
        {
          "name": "",
          "type": "address"
        }
      ],
      "payable": false,
      "stateMutability": "view",
      "type": "function"
    },
    {
      "inputs": [
        {
          "name": "_tokenOWL",
          "type": "address"
        },
        {
          "name": "_tokenGNO",
          "type": "address"
        },
        {
          "name": "_endTime",
          "type": "uint256"
        }
      ],
      "payable": false,
      "stateMutability": "nonpayable",
      "type": "constructor"
    },
    {
      "constant": false,
      "inputs": [
        {
          "name": "amount",
          "type": "uint256"
        }
      ],
      "name": "lockGNO",
      "outputs": [],
      "payable": false,
      "stateMutability": "nonpayable",
      "type": "function"
    },
    {
      "constant": false,
      "inputs": [],
      "name": "withdrawGNO",
      "outputs": [],
      "payable": false,
      "stateMutability": "nonpayable",
      "type": "function"
    }
  ],
  "bytecode": "0x608060405234801561001057600080fd5b506040516060806106b8833981016040908152815160208301519190920151428110156100c457604080517f08c379a000000000000000000000000000000000000000000000000000000000815260206004820152602260248201527f54686520656e642074696d652063616e6e6f7420626520696e2074686520706160448201527f7374000000000000000000000000000000000000000000000000000000000000606482015290519081900360840190fd5b60008054600160a060020a03948516600160a060020a03199182161790915560018054939094169216919091179091556003556105b2806101066000396000f3006080604052600436106100775763ffffffff7c0100000000000000000000000000000000000000000000000000000000600035041663162d563d811461007c5780633197cbb6146100935780633540e96c146100ba57806364748294146100eb578063b6ba600a1461010c578063f0cafe0e14610124575b600080fd5b34801561008857600080fd5b50610091610139565b005b34801561009f57600080fd5b506100a86102c4565b60408051918252519081900360200190f35b3480156100c657600080fd5b506100cf6102ca565b60408051600160a060020a039092168252519081900360200190f35b3480156100f757600080fd5b506100a8600160a060020a03600435166102d9565b34801561011857600080fd5b506100916004356102eb565b34801561013057600080fd5b506100cf610516565b60035442116101b8576040805160e560020a62461bcd02815260206004820152603460248201527f49742773206e6f7420616c6c6f77656420746f2077697468647261772064757260448201527f696e6720746865206c6f636b696e672074696d65000000000000000000000000606482015290519081900360840190fd5b6001543360008181526002602090815260408083205481517fa9059cbb0000000000000000000000000000000000000000000000000000000081526004810195909552602485015251600160a060020a039094169363a9059cbb93604480820194918390030190829087803b15801561023057600080fd5b505af1158015610244573d6000803e3d6000fd5b505050506040513d602081101561025a57600080fd5b505115156102b2576040805160e560020a62461bcd02815260206004820152601f60248201527f54686520474e4f207769746864726177616c206d757374207375636365656400604482015290519081900360640190fd5b33600090815260026020526040812055565b60035481565b600054600160a060020a031681565b60026020526000908152604090205481565b600354421115610345576040805160e560020a62461bcd02815260206004820152601c60248201527f546865206c6f636b696e6720706572696f642068617320656e64656400000000604482015290519081900360640190fd5b600154604080517f23b872dd000000000000000000000000000000000000000000000000000000008152336004820152306024820152604481018490529051600160a060020a03909216916323b872dd916064808201926020929091908290030181600087803b1580156103b857600080fd5b505af11580156103cc573d6000803e3d6000fd5b505050506040513d60208110156103e257600080fd5b5051151561043a576040805160e560020a62461bcd02815260206004820152601d60248201527f54686520474e4f207472616e73666572206d7573742073756363656564000000604482015290519081900360640190fd5b3360009081526002602052604090205461045a908263ffffffff61052516565b336000818152600260205260408120929092559054600160a060020a03169063f52a41f39061049084600a63ffffffff61054116565b6040518363ffffffff167c01000000000000000000000000000000000000000000000000000000000281526004018083600160a060020a0316600160a060020a0316815260200182815260200192505050600060405180830381600087803b1580156104fb57600080fd5b505af115801561050f573d6000803e3d6000fd5b5050505050565b600154600160a060020a031681565b6000610531838361055d565b151561053c57600080fd5b500190565b600061054d8383610564565b151561055857600080fd5b500290565b8101101590565b600081158061057f5750828283850281151561057c57fe5b04145b93925050505600a165627a7a7230582076608f53fd6801d0f1b0c00725bcf0707238bd1cfcb37fd4676d8c128c8451fc0029",
  "source": "pragma solidity ^0.4.24;\n\nimport \"@gnosis.pm/gno-token/contracts/TokenGNO.sol\";\nimport \"./TokenOWL.sol\";\n\ncontract OWLAirdrop {\n    using Math for *;\n\n    TokenOWL public tokenOWL;\n    TokenGNO public tokenGNO;\n    mapping(address => uint) public lockedGNO;\n    uint public endTime;\n\n    /// @dev Creates and starts the airdrop\n    /// @param _tokenOWL The OWL token contract\n    /// @param _tokenGNO The GNO token contract\n    /// @param _endTime The unix epoch timestamp in seconds of the time airdrop ends\n    constructor (TokenOWL _tokenOWL, TokenGNO _tokenGNO, uint _endTime)\n        public\n    {\n        require(block.timestamp <= _endTime, \"The end time cannot be in the past\");\n        tokenOWL = _tokenOWL;\n        tokenGNO = _tokenGNO;\n        endTime = _endTime;\n    }\n\n    /// @dev Locks GNO inside this contract and mints OWL for GNO if endTime is not past\n    /// @param amount Amount of GNO to lock\n    function lockGNO(uint amount)\n        public\n    {\n        require(block.timestamp <= endTime, \"The locking period has ended\");\n        require(tokenGNO.transferFrom(msg.sender, this, amount), \"The GNO transfer must succeed\");\n        lockedGNO[msg.sender] = lockedGNO[msg.sender].add(amount);\n        tokenOWL.mintOWL(msg.sender, amount.mul(10));\n    }\n\n    /// @dev Withdraws locked GNO if endTime is past\n    function withdrawGNO()\n        public\n    {\n        require(block.timestamp > endTime, \"It's not allowed to withdraw during the locking time\");\n        require(tokenGNO.transfer(msg.sender, lockedGNO[msg.sender]), \"The GNO withdrawal must succeed\");\n        lockedGNO[msg.sender] = 0;\n    }\n}",
  "sourcePath": "@gnosis.pm/owl-token/contracts/OWLAirdrop.sol",
  "compiler": {
    "name": "solc",
    "version": "0.4.25+commit.59dbf8f1.Emscripten.clang"
  },
  "schemaVersion": "2.0.2",
  "updatedAt": "2019-01-04T11:06:43.337Z"
}