{
  "contractName": "OWLAirdrop",
  "abi": [
    {
      "constant": true,
      "inputs": [],
      "name": "endTime",
      "outputs": [
        {
          "name": "",
          "type": "uint256"
        }
      ],
      "payable": false,
      "stateMutability": "view",
      "type": "function"
    },
    {
      "constant": true,
      "inputs": [],
      "name": "tokenOWL",
      "outputs": [
        {
          "name": "",
          "type": "address"
        }
      ],
      "payable": false,
      "stateMutability": "view",
      "type": "function"
    },
    {
      "constant": true,
      "inputs": [
        {
          "name": "",
          "type": "address"
        }
      ],
      "name": "lockedGNO",
      "outputs": [
        {
          "name": "",
          "type": "uint256"
        }
      ],
      "payable": false,
      "stateMutability": "view",
      "type": "function"
    },
    {
      "constant": true,
      "inputs": [],
      "name": "tokenGNO",
      "outputs": [
        {
          "name": "",
          "type": "address"
        }
      ],
      "payable": false,
      "stateMutability": "view",
      "type": "function"
    },
    {
      "inputs": [
        {
          "name": "_tokenOWL",
          "type": "address"
        },
        {
          "name": "_tokenGNO",
          "type": "address"
        },
        {
          "name": "_endTime",
          "type": "uint256"
        }
      ],
      "payable": false,
      "stateMutability": "nonpayable",
      "type": "constructor"
    },
    {
      "constant": false,
      "inputs": [
        {
          "name": "amount",
          "type": "uint256"
        }
      ],
      "name": "lockGNO",
      "outputs": [],
      "payable": false,
      "stateMutability": "nonpayable",
      "type": "function"
    },
    {
      "constant": false,
      "inputs": [],
      "name": "withdrawGNO",
      "outputs": [],
      "payable": false,
      "stateMutability": "nonpayable",
      "type": "function"
    }
  ],
  "bytecode": "0x608060405234801561001057600080fd5b506040516060806106858339810180604052606081101561003057600080fd5b50805160208201516040909201519091904281101561009a576040517f08c379a00000000000000000000000000000000000000000000000000000000081526004018080602001828103825260228152602001806106636022913960400191505060405180910390fd5b60008054600160a060020a03948516600160a060020a0319918216179091556001805493909416921691909117909155600355610587806100dc6000396000f3fe608060405234801561001057600080fd5b506004361061007e577c01000000000000000000000000000000000000000000000000000000006000350463162d563d81146100835780633197cbb61461008d5780633540e96c146100a757806364748294146100cb578063b6ba600a146100f1578063f0cafe0e1461010e575b600080fd5b61008b610116565b005b610095610265565b60408051918252519081900360200190f35b6100af61026b565b60408051600160a060020a039092168252519081900360200190f35b610095600480360360208110156100e157600080fd5b5035600160a060020a031661027a565b61008b6004803603602081101561010757600080fd5b503561028c565b6100af6104b7565b60035442116101595760405160e560020a62461bcd0281526004018080602001828103825260348152602001806105286034913960400191505060405180910390fd5b6001543360008181526002602090815260408083205481517fa9059cbb0000000000000000000000000000000000000000000000000000000081526004810195909552602485015251600160a060020a039094169363a9059cbb93604480820194918390030190829087803b1580156101d157600080fd5b505af11580156101e5573d6000803e3d6000fd5b505050506040513d60208110156101fb57600080fd5b50511515610253576040805160e560020a62461bcd02815260206004820152601f60248201527f54686520474e4f207769746864726177616c206d757374207375636365656400604482015290519081900360640190fd5b33600090815260026020526040812055565b60035481565b600054600160a060020a031681565b60026020526000908152604090205481565b6003544211156102e6576040805160e560020a62461bcd02815260206004820152601c60248201527f546865206c6f636b696e6720706572696f642068617320656e64656400000000604482015290519081900360640190fd5b600154604080517f23b872dd000000000000000000000000000000000000000000000000000000008152336004820152306024820152604481018490529051600160a060020a03909216916323b872dd916064808201926020929091908290030181600087803b15801561035957600080fd5b505af115801561036d573d6000803e3d6000fd5b505050506040513d602081101561038357600080fd5b505115156103db576040805160e560020a62461bcd02815260206004820152601d60248201527f54686520474e4f207472616e73666572206d7573742073756363656564000000604482015290519081900360640190fd5b336000908152600260205260409020546103fb908263ffffffff6104c616565b336000818152600260205260408120929092559054600160a060020a03169063f52a41f39061043184600a63ffffffff6104e216565b6040518363ffffffff167c01000000000000000000000000000000000000000000000000000000000281526004018083600160a060020a0316600160a060020a0316815260200182815260200192505050600060405180830381600087803b15801561049c57600080fd5b505af11580156104b0573d6000803e3d6000fd5b5050505050565b600154600160a060020a031681565b60006104d283836104fe565b15156104dd57600080fd5b500190565b60006104ee8383610505565b15156104f957600080fd5b500290565b8101101590565b60008115806105205750828283850281151561051d57fe5b04145b939250505056fe49742773206e6f7420616c6c6f77656420746f20776974686472617720647572696e6720746865206c6f636b696e672074696d65a165627a7a72305820243b0d72718dcf8fc5db609d294730cec23cedeaeb9d313c83714542ff69a068002954686520656e642074696d652063616e6e6f7420626520696e207468652070617374",
  "source": "pragma solidity ^0.5.2;\n\nimport \"@gnosis.pm/gno-token/contracts/TokenGNO.sol\";\nimport \"./TokenOWL.sol\";\n\ncontract OWLAirdrop {\n    using Math for *;\n\n    TokenOWL public tokenOWL;\n    TokenGNO public tokenGNO;\n    mapping(address => uint) public lockedGNO;\n    uint public endTime;\n\n    /// @dev Creates and starts the airdrop\n    /// @param _tokenOWL The OWL token contract\n    /// @param _tokenGNO The GNO token contract\n    /// @param _endTime The unix epoch timestamp in seconds of the time airdrop ends\n    constructor(TokenOWL _tokenOWL, TokenGNO _tokenGNO, uint _endTime) public {\n        require(block.timestamp <= _endTime, \"The end time cannot be in the past\");\n        tokenOWL = _tokenOWL;\n        tokenGNO = _tokenGNO;\n        endTime = _endTime;\n    }\n\n    /// @dev Locks GNO inside this contract and mints OWL for GNO if endTime is not past\n    /// @param amount Amount of GNO to lock\n    function lockGNO(uint amount) public {\n        require(block.timestamp <= endTime, \"The locking period has ended\");\n        require(tokenGNO.transferFrom(msg.sender, address(this), amount), \"The GNO transfer must succeed\");\n        lockedGNO[msg.sender] = lockedGNO[msg.sender].add(amount);\n        tokenOWL.mintOWL(msg.sender, amount.mul(10));\n    }\n\n    /// @dev Withdraws locked GNO if endTime is past\n    function withdrawGNO() public {\n        require(block.timestamp > endTime, \"It's not allowed to withdraw during the locking time\");\n        require(tokenGNO.transfer(msg.sender, lockedGNO[msg.sender]), \"The GNO withdrawal must succeed\");\n        lockedGNO[msg.sender] = 0;\n    }\n}\n",
  "sourcePath": "@gnosis.pm/owl-token/contracts/OWLAirdrop.sol",
  "compiler": {
    "name": "solc",
    "version": "0.5.2+commit.1df8f40c.Emscripten.clang"
  },
  "schemaVersion": "3.0.1",
  "updatedAt": "2019-01-18T08:01:22.372Z",
  "devdoc": {
    "methods": {
      "constructor": {
        "details": "Creates and starts the airdrop",
        "params": {
          "_endTime": "The unix epoch timestamp in seconds of the time airdrop ends",
          "_tokenGNO": "The GNO token contract",
          "_tokenOWL": "The OWL token contract"
        }
      },
      "lockGNO(uint256)": {
        "details": "Locks GNO inside this contract and mints OWL for GNO if endTime is not past",
        "params": {
          "amount": "Amount of GNO to lock"
        }
      },
      "withdrawGNO()": {
        "details": "Withdraws locked GNO if endTime is past"
      }
    }
  },
  "userdoc": {
    "methods": {}
  }
}