{
  "contractName": "PriceOracleInterface",
  "abi": [
    {
      "constant": true,
      "inputs": [],
      "name": "emergencyMode",
      "outputs": [
        {
          "name": "",
          "type": "bool"
        }
      ],
      "payable": false,
      "stateMutability": "view",
      "type": "function"
    },
    {
      "constant": true,
      "inputs": [],
      "name": "owner",
      "outputs": [
        {
          "name": "",
          "type": "address"
        }
      ],
      "payable": false,
      "stateMutability": "view",
      "type": "function"
    },
    {
      "constant": true,
      "inputs": [],
      "name": "priceFeedSource",
      "outputs": [
        {
          "name": "",
          "type": "address"
        }
      ],
      "payable": false,
      "stateMutability": "view",
      "type": "function"
    },
    {
      "inputs": [
        {
          "name": "_owner",
          "type": "address"
        },
        {
          "name": "_priceFeedSource",
          "type": "address"
        }
      ],
      "payable": false,
      "stateMutability": "nonpayable",
      "type": "constructor"
    },
    {
      "anonymous": false,
      "inputs": [
        {
          "indexed": false,
          "name": "priceFeedSource",
          "type": "address"
        }
      ],
      "name": "NonValidPriceFeed",
      "type": "event"
    },
    {
      "constant": false,
      "inputs": [
        {
          "name": "_emergencyMode",
          "type": "bool"
        }
      ],
      "name": "raiseEmergency",
      "outputs": [],
      "payable": false,
      "stateMutability": "nonpayable",
      "type": "function"
    },
    {
      "constant": false,
      "inputs": [
        {
          "name": "_owner",
          "type": "address"
        }
      ],
      "name": "updateCurator",
      "outputs": [],
      "payable": false,
      "stateMutability": "nonpayable",
      "type": "function"
    },
    {
      "constant": false,
      "inputs": [],
      "name": "getUSDETHPrice",
      "outputs": [
        {
          "name": "",
          "type": "uint256"
        }
      ],
      "payable": false,
      "stateMutability": "nonpayable",
      "type": "function"
    }
  ],
  "bytecode": "0x608060405234801561001057600080fd5b5060405160408061051883398101604052805160209091015160018054600160a060020a03938416600160a060020a031991821617909155600080549390921692169190911790556104b1806100676000396000f3006080604052600436106100775763ffffffff7c01000000000000000000000000000000000000000000000000000000006000350416630905f560811461007c5780630c6a62dd146100a55780638da5cb5b146100c85780639e385fa4146100f9578063a3ca17b214610113578063c5ace4431461013a575b600080fd5b34801561008857600080fd5b5061009161014f565b604080519115158252519081900360200190f35b3480156100b157600080fd5b506100c6600160a060020a0360043516610170565b005b3480156100d457600080fd5b506100dd61023e565b60408051600160a060020a039092168252519081900360200190f35b34801561010557600080fd5b506100c6600435151561024d565b34801561011f57600080fd5b5061012861032c565b60408051918252519081900360200190f35b34801561014657600080fd5b506100dd610476565b60015474010000000000000000000000000000000000000000900460ff1681565b600154600160a060020a0316331461020f57604080517f08c379a000000000000000000000000000000000000000000000000000000000815260206004820152602360248201527f4f6e6c7920746865206f776e65722063616e20646f20746865206f706572617460448201527f696f6e0000000000000000000000000000000000000000000000000000000000606482015290519081900360840190fd5b6001805473ffffffffffffffffffffffffffffffffffffffff1916600160a060020a0392909216919091179055565b600154600160a060020a031681565b600154600160a060020a031633146102ec57604080517f08c379a000000000000000000000000000000000000000000000000000000000815260206004820152602360248201527f4f6e6c7920746865206f776e65722063616e20646f20746865206f706572617460448201527f696f6e0000000000000000000000000000000000000000000000000000000000606482015290519081900360840190fd5b60018054911515740100000000000000000000000000000000000000000274ff000000000000000000000000000000000000000019909216919091179055565b600080600080600160149054906101000a900460ff1615610351576102589350610470565b6000809054906101000a9004600160a060020a0316600160a060020a03166359e02dd76040518163ffffffff167c01000000000000000000000000000000000000000000000000000000000281526004016040805180830381600087803b1580156103bb57600080fd5b505af11580156103cf573d6000803e3d6000fd5b505050506040513d60408110156103e557600080fd5b508051602090910151909350915081151561043a5760005460408051600160a060020a039092168252517f364c0d3d8c056dff125868f781751ed53d48fb1b927b60ab972436741b61e3c99181900360200190a15b50670de0b6b3a764000082048015156104565760019350610470565b620f424081111561046c57620f42409350610470565b8093505b50505090565b600054600160a060020a0316815600a165627a7a72305820e455c7fbc9887b5a320d9d983e97953dc80a1c1f47c9d81b6b728eb7cb9c39220029",
  "source": "pragma solidity ^0.4.24;\n\n/*\nThis contract is the interface between the MakerDAO priceFeed and our DX platform.\n*/\n\nimport \"../Oracle/PriceFeed.sol\";\nimport \"../Oracle/Medianizer.sol\";\n\ncontract PriceOracleInterface {\n\n    address public priceFeedSource;\n    address public owner;\n    bool public emergencyMode;\n\n    event NonValidPriceFeed(address priceFeedSource);\n\n    // Modifiers\n    modifier onlyOwner() {\n        require(msg.sender == owner, \"Only the owner can do the operation\");\n        _;\n    }\n\n    /// @dev constructor of the contract\n    /// @param _priceFeedSource address of price Feed Source -> should be maker feeds Medianizer contract\n    constructor(\n        address _owner,\n        address _priceFeedSource\n    )\n        public\n    {\n        owner = _owner;\n        priceFeedSource = _priceFeedSource;\n    }\n    /// @dev gives the owner the possibility to put the Interface into an emergencyMode, which will \n    /// output always a price of 600 USD. This gives everyone time to set up a new pricefeed.\n    function raiseEmergency(bool _emergencyMode)\n        public\n        onlyOwner()\n    {\n        emergencyMode = _emergencyMode;\n    }\n\n    /// @dev updates the priceFeedSource\n    /// @param _owner address of owner\n    function updateCurator(\n        address _owner\n    )\n        public\n        onlyOwner()\n    {\n        owner = _owner;\n    }\n\n    /// @dev returns the USDETH price, ie gets the USD price from Maker feed with 18 digits, but last 18 digits are cut off\n    function getUSDETHPrice() \n        public\n        returns (uint256)\n    {\n        // if the contract is in the emergencyMode, because there is an issue with the oracle, we will simply return a price of 600 USD\n        if(emergencyMode){\n            return 600;\n        }\n        (bytes32 price, bool valid) = Medianizer(priceFeedSource).peek();\n        if (!valid) {\n            emit NonValidPriceFeed(priceFeedSource);\n        }\n        // ensuring that there is no underflow or overflow possible,\n        // even if the price is compromised\n        uint priceUint = uint256(price)/(1 ether);\n        if (priceUint == 0) return 1;\n        if (priceUint > 1000000) return 1000000; \n        return priceUint;\n    }  \n}\n",
  "sourcePath": "/mnt/bf1642c6-3903-4bb8-b254-88a427e7ab47/Home/David/Documents/Work/Gnosis/dx-contracts/contracts/Oracle/PriceOracleInterface.sol",
  "compiler": {
    "name": "solc",
    "version": "0.4.25+commit.59dbf8f1.Emscripten.clang"
  },
  "schemaVersion": "2.0.2",
  "updatedAt": "2019-01-04T11:06:45.006Z"
}