{
  "contractName": "PriceOracleInterface",
  "abi": [
    {
      "constant": true,
      "inputs": [],
      "name": "emergencyMode",
      "outputs": [
        {
          "name": "",
          "type": "bool"
        }
      ],
      "payable": false,
      "stateMutability": "view",
      "type": "function"
    },
    {
      "constant": true,
      "inputs": [],
      "name": "owner",
      "outputs": [
        {
          "name": "",
          "type": "address"
        }
      ],
      "payable": false,
      "stateMutability": "view",
      "type": "function"
    },
    {
      "constant": true,
      "inputs": [],
      "name": "priceFeedSource",
      "outputs": [
        {
          "name": "",
          "type": "address"
        }
      ],
      "payable": false,
      "stateMutability": "view",
      "type": "function"
    },
    {
      "inputs": [
        {
          "name": "_owner",
          "type": "address"
        },
        {
          "name": "_priceFeedSource",
          "type": "address"
        }
      ],
      "payable": false,
      "stateMutability": "nonpayable",
      "type": "constructor"
    },
    {
      "constant": false,
      "inputs": [
        {
          "name": "_emergencyMode",
          "type": "bool"
        }
      ],
      "name": "raiseEmergency",
      "outputs": [],
      "payable": false,
      "stateMutability": "nonpayable",
      "type": "function"
    },
    {
      "constant": false,
      "inputs": [
        {
          "name": "_owner",
          "type": "address"
        }
      ],
      "name": "updateCurator",
      "outputs": [],
      "payable": false,
      "stateMutability": "nonpayable",
      "type": "function"
    },
    {
      "constant": true,
      "inputs": [],
      "name": "getUsdEthPricePeek",
      "outputs": [
        {
          "name": "price",
          "type": "bytes32"
        },
        {
          "name": "valid",
          "type": "bool"
        }
      ],
      "payable": false,
      "stateMutability": "view",
      "type": "function"
    },
    {
      "constant": true,
      "inputs": [],
      "name": "getUSDETHPrice",
      "outputs": [
        {
          "name": "",
          "type": "uint256"
        }
      ],
      "payable": false,
      "stateMutability": "view",
      "type": "function"
    }
  ],
  "bytecode": "0x608060405234801561001057600080fd5b5060405160408061052e8339810180604052604081101561003057600080fd5b50805160209091015160018054600160a060020a03938416600160a060020a031991821617909155600080549390921692169190911790556104b7806100776000396000f3fe608060405234801561001057600080fd5b506004361061009a576000357c0100000000000000000000000000000000000000000000000000000000900480638da5cb5b116100785780638da5cb5b146101045780639e385fa414610128578063a3ca17b214610147578063c5ace443146101615761009a565b80630905f5601461009f5780630c6a62dd146100bb5780630c8fe9db146100e3575b600080fd5b6100a7610169565b604080519115158252519081900360200190f35b6100e1600480360360208110156100d157600080fd5b5035600160a060020a031661018a565b005b6100eb61021c565b6040805192835290151560208301528051918290030190f35b61010c6102b2565b60408051600160a060020a039092168252519081900360200190f35b6100e16004803603602081101561013e57600080fd5b503515156102c1565b61014f610364565b60408051918252519081900360200190f35b61010c610459565b60015474010000000000000000000000000000000000000000900460ff1681565b600154600160a060020a031633146101ed576040517f08c379a00000000000000000000000000000000000000000000000000000000081526004018080602001828103825260238152602001806104696023913960400191505060405180910390fd5b6001805473ffffffffffffffffffffffffffffffffffffffff1916600160a060020a0392909216919091179055565b60008054604080517f59e02dd700000000000000000000000000000000000000000000000000000000815281518493600160a060020a0316926359e02dd79260048082019391829003018186803b15801561027657600080fd5b505afa15801561028a573d6000803e3d6000fd5b505050506040513d60408110156102a057600080fd5b50805160209091015190925090509091565b600154600160a060020a031681565b600154600160a060020a03163314610324576040517f08c379a00000000000000000000000000000000000000000000000000000000081526004018080602001828103825260238152602001806104696023913960400191505060405180910390fd5b60018054911515740100000000000000000000000000000000000000000274ff000000000000000000000000000000000000000019909216919091179055565b60015460009074010000000000000000000000000000000000000000900460ff16156103935750610258610456565b60008054604080517f59e02dd70000000000000000000000000000000000000000000000000000000081528151600160a060020a03909316926359e02dd792600480840193919291829003018186803b1580156103ef57600080fd5b505afa158015610403573d6000803e3d6000fd5b505050506040513d604081101561041957600080fd5b50519050670de0b6b3a7640000810480151561043a57600192505050610456565b620f424081111561045257620f424092505050610456565b9150505b90565b600054600160a060020a03168156fe4f6e6c7920746865206f776e65722063616e20646f20746865206f7065726174696f6ea165627a7a723058205156f04dbf4d81ff0ca7dd233baf783542f8414363d5d555dd3e8b41fd346ee30029",
  "source": "pragma solidity ^0.5.2;\n\n/*\nThis contract is the interface between the MakerDAO priceFeed and our DX platform.\n*/\n\nimport \"../Oracle/PriceFeed.sol\";\nimport \"../Oracle/Medianizer.sol\";\n\n\ncontract PriceOracleInterface {\n    address public priceFeedSource;\n    address public owner;\n    bool public emergencyMode;\n\n    // Modifiers\n    modifier onlyOwner() {\n        require(msg.sender == owner, \"Only the owner can do the operation\");\n        _;\n    }\n\n    /// @dev constructor of the contract\n    /// @param _priceFeedSource address of price Feed Source -> should be maker feeds Medianizer contract\n    constructor(address _owner, address _priceFeedSource) public {\n        owner = _owner;\n        priceFeedSource = _priceFeedSource;\n    }\n    \n    /// @dev gives the owner the possibility to put the Interface into an emergencyMode, which will\n    /// output always a price of 600 USD. This gives everyone time to set up a new pricefeed.\n    function raiseEmergency(bool _emergencyMode) public onlyOwner {\n        emergencyMode = _emergencyMode;\n    }\n\n    /// @dev updates the priceFeedSource\n    /// @param _owner address of owner\n    function updateCurator(address _owner) public onlyOwner {\n        owner = _owner;\n    }\n\n    /// @dev returns the USDETH price\n    function getUsdEthPricePeek() public view returns (bytes32 price, bool valid) {\n        return Medianizer(priceFeedSource).peek();\n    }\n\n    /// @dev returns the USDETH price, ie gets the USD price from Maker feed with 18 digits, but last 18 digits are cut off\n    function getUSDETHPrice() public view returns (uint256) {\n        // if the contract is in the emergencyMode, because there is an issue with the oracle, we will simply return a price of 600 USD\n        if (emergencyMode) {\n            return 600;\n        }\n        (bytes32 price, ) = Medianizer(priceFeedSource).peek();\n\n        // ensuring that there is no underflow or overflow possible,\n        // even if the price is compromised\n        uint priceUint = uint256(price)/(1 ether);\n        if (priceUint == 0) {\n            return 1;\n        }\n        if (priceUint > 1000000) {\n            return 1000000; \n        }\n        return priceUint;\n    }\n}\n",
  "sourcePath": "@gnosis.pm/dx-contracts/contracts/Oracle/PriceOracleInterface.sol",
  "compiler": {
    "name": "solc",
    "version": "0.5.2+commit.1df8f40c.Emscripten.clang"
  },
  "schemaVersion": "3.0.1",
  "updatedAt": "2019-01-18T08:01:22.357Z",
  "devdoc": {
    "methods": {
      "constructor": {
        "details": "constructor of the contract",
        "params": {
          "_priceFeedSource": "address of price Feed Source -> should be maker feeds Medianizer contract"
        }
      },
      "getUSDETHPrice()": {
        "details": "returns the USDETH price, ie gets the USD price from Maker feed with 18 digits, but last 18 digits are cut off"
      },
      "getUsdEthPricePeek()": {
        "details": "returns the USDETH price"
      },
      "raiseEmergency(bool)": {
        "details": "gives the owner the possibility to put the Interface into an emergencyMode, which will output always a price of 600 USD. This gives everyone time to set up a new pricefeed."
      },
      "updateCurator(address)": {
        "details": "updates the priceFeedSource",
        "params": {
          "_owner": "address of owner"
        }
      }
    }
  },
  "userdoc": {
    "methods": {}
  }
}