{
  "contractName": "PriceFeed",
  "abi": [
    {
      "constant": false,
      "inputs": [
        {
          "name": "owner_",
          "type": "address"
        }
      ],
      "name": "setOwner",
      "outputs": [],
      "payable": false,
      "stateMutability": "nonpayable",
      "type": "function"
    },
    {
      "constant": false,
      "inputs": [
        {
          "name": "authority_",
          "type": "address"
        }
      ],
      "name": "setAuthority",
      "outputs": [],
      "payable": false,
      "stateMutability": "nonpayable",
      "type": "function"
    },
    {
      "constant": true,
      "inputs": [],
      "name": "owner",
      "outputs": [
        {
          "name": "",
          "type": "address"
        }
      ],
      "payable": false,
      "stateMutability": "view",
      "type": "function"
    },
    {
      "constant": true,
      "inputs": [],
      "name": "zzz",
      "outputs": [
        {
          "name": "",
          "type": "uint32"
        }
      ],
      "payable": false,
      "stateMutability": "view",
      "type": "function"
    },
    {
      "constant": true,
      "inputs": [],
      "name": "authority",
      "outputs": [
        {
          "name": "",
          "type": "address"
        }
      ],
      "payable": false,
      "stateMutability": "view",
      "type": "function"
    },
    {
      "anonymous": false,
      "inputs": [
        {
          "indexed": true,
          "name": "sig",
          "type": "bytes4"
        },
        {
          "indexed": true,
          "name": "guy",
          "type": "address"
        },
        {
          "indexed": true,
          "name": "foo",
          "type": "bytes32"
        },
        {
          "indexed": false,
          "name": "bar",
          "type": "bytes32"
        },
        {
          "indexed": false,
          "name": "wad",
          "type": "uint256"
        },
        {
          "indexed": false,
          "name": "fax",
          "type": "bytes"
        }
      ],
      "name": "LogNote",
      "type": "event"
    },
    {
      "anonymous": false,
      "inputs": [
        {
          "indexed": true,
          "name": "authority",
          "type": "address"
        }
      ],
      "name": "LogSetAuthority",
      "type": "event"
    },
    {
      "anonymous": false,
      "inputs": [
        {
          "indexed": true,
          "name": "owner",
          "type": "address"
        }
      ],
      "name": "LogSetOwner",
      "type": "event"
    },
    {
      "constant": true,
      "inputs": [],
      "name": "peek",
      "outputs": [
        {
          "name": "",
          "type": "bytes32"
        },
        {
          "name": "",
          "type": "bool"
        }
      ],
      "payable": false,
      "stateMutability": "view",
      "type": "function"
    },
    {
      "constant": true,
      "inputs": [],
      "name": "read",
      "outputs": [
        {
          "name": "",
          "type": "bytes32"
        }
      ],
      "payable": false,
      "stateMutability": "view",
      "type": "function"
    },
    {
      "constant": false,
      "inputs": [
        {
          "name": "val_",
          "type": "uint128"
        },
        {
          "name": "zzz_",
          "type": "uint32"
        },
        {
          "name": "med_",
          "type": "address"
        }
      ],
      "name": "post",
      "outputs": [],
      "payable": true,
      "stateMutability": "payable",
      "type": "function"
    },
    {
      "constant": false,
      "inputs": [],
      "name": "void",
      "outputs": [],
      "payable": true,
      "stateMutability": "payable",
      "type": "function"
    }
  ],
  "bytecode": "0x6080604081905260018054600160a060020a03191633908117909155907fce241d7ca1f669fee44b6fc00b8eba2df3bb514eed0f6f668f8f89096e81ed9490600090a2610995806100516000396000f3fe6080604052600436106100a3576000357c0100000000000000000000000000000000000000000000000000000000900480637a9e5e4b116100765780637a9e5e4b1461017c5780638da5cb5b146101af578063a4dff0a2146101e0578063ac4c25b21461020e578063bf7e214f14610216576100a3565b806313af4035146100a857806357de26a4146100dd57806359e02dd7146101045780635a68669914610132575b600080fd5b3480156100b457600080fd5b506100db600480360360208110156100cb57600080fd5b5035600160a060020a031661022b565b005b3480156100e957600080fd5b506100f26102e2565b60408051918252519081900360200190f35b34801561011057600080fd5b50610119610323565b6040805192835290151560208301528051918290030190f35b6100db6004803603606081101561014857600080fd5b5080356fffffffffffffffffffffffffffffffff1690602081013563ffffffff169060400135600160a060020a031661035a565b34801561018857600080fd5b506100db6004803603602081101561019f57600080fd5b5035600160a060020a0316610624565b3480156101bb57600080fd5b506101c46106d7565b60408051600160a060020a039092168252519081900360200190f35b3480156101ec57600080fd5b506101f56106e6565b6040805163ffffffff9092168252519081900360200190f35b6100db610706565b34801561022257600080fd5b506101c4610836565b61024133600035600160e060020a031916610845565b1515610285576040805160e560020a62461bcd02815260206004820152601d602482015260008051602061094a833981519152604482015290519081900360640190fd5b6001805473ffffffffffffffffffffffffffffffffffffffff1916600160a060020a0383811691909117918290556040519116907fce241d7ca1f669fee44b6fc00b8eba2df3bb514eed0f6f668f8f89096e81ed9490600090a250565b600254600090700100000000000000000000000000000000900463ffffffff16421061030a57fe5b506002546fffffffffffffffffffffffffffffffff1690565b6002546fffffffffffffffffffffffffffffffff81169170010000000000000000000000000000000090910463ffffffff16421090565b600080600435915060243590508133600160a060020a0316600035600160e060020a0319167bffffffffffffffffffffffffffffffffffffffffffffffffffffffff19167f644843f351d3fba4abcd60109eaff9f54bac8fb8ccf0bab941009c21df21cf31843460003660405180858152602001848152602001806020018281038252848482818152602001925080828437600083820152604051601f909101601f191690920182900397509095505050505050a461042533600035600160e060020a031916610845565b1515610469576040805160e560020a62461bcd02815260206004820152601d602482015260008051602061094a833981519152604482015290519081900360640190fd5b600280546fffffffffffffffffffffffffffffffff19166fffffffffffffffffffffffffffffffff87161773ffffffff00000000000000000000000000000000191670010000000000000000000000000000000063ffffffff87160217905560408051600481526024810182526020810180517f18178358000000000000000000000000000000000000000000000000000000007bffffffffffffffffffffffffffffffffffffffffffffffffffffffff90911617815291518151600093600160a060020a0388169392918291908083835b6020831061055a5780518252601f19909201916020918201910161053b565b6001836020036101000a0380198251168184511680821785525050505050509050019150506000604051808303816000865af19150503d80600081146105bc576040519150601f19603f3d011682016040523d82523d6000602084013e6105c1565b606091505b5050905080151561061c576040805160e560020a62461bcd02815260206004820152601560248201527f54686520706f6b65206d75737420737563636565640000000000000000000000604482015290519081900360640190fd5b505050505050565b61063a33600035600160e060020a031916610845565b151561067e576040805160e560020a62461bcd02815260206004820152601d602482015260008051602061094a833981519152604482015290519081900360640190fd5b6000805473ffffffffffffffffffffffffffffffffffffffff1916600160a060020a03838116919091178083556040519116917f1abebea81bfa2637f28358c371278fb15ede7ea8dd28d2e03b112ff6d936ada491a250565b600154600160a060020a031681565b600254700100000000000000000000000000000000900463ffffffff1681565b600080600435915060243590508133600160a060020a0316600035600160e060020a0319167bffffffffffffffffffffffffffffffffffffffffffffffffffffffff19167f644843f351d3fba4abcd60109eaff9f54bac8fb8ccf0bab941009c21df21cf31843460003660405180858152602001848152602001806020018281038252848482818152602001925080828437600083820152604051601f909101601f191690920182900397509095505050505050a46107d133600035600160e060020a031916610845565b1515610815576040805160e560020a62461bcd02815260206004820152601d602482015260008051602061094a833981519152604482015290519081900360640190fd5b50506002805473ffffffff0000000000000000000000000000000019169055565b600054600160a060020a031681565b6000600160a060020a03831630141561086057506001610943565b600154600160a060020a038481169116141561087e57506001610943565b600054600160a060020a0316151561089857506000610943565b600054604080517fb7009613000000000000000000000000000000000000000000000000000000008152600160a060020a038681166004830152306024830152600160e060020a0319861660448301529151919092169163b7009613916064808301926020929190829003018186803b15801561091457600080fd5b505afa158015610928573d6000803e3d6000fd5b505050506040513d602081101561093e57600080fd5b505190505b9291505056fe4974206d75737420626520616e20617574686f72697a65642063616c6c000000a165627a7a723058205ad561f8614a1bee1f848d253f15a68bad99f46b29278a6e0c5a5612850945280029",
  "source": "pragma solidity ^0.5.2;\n/// price-feed.sol\n\n// Copyright (C) 2017  DappHub, LLC\n\n// Licensed under the Apache License, Version 2.0 (the \"License\").\n// You may not use this file except in compliance with the License.\n\n// Unless required by applicable law or agreed to in writing, software\n// distributed under the License is distributed on an \"AS IS\" BASIS,\n// WITHOUT WARRANTIES OR CONDITIONS OF ANY KIND (express or implied).\n\nimport \"../Oracle/DSThing.sol\";\n\n\ncontract PriceFeed is DSThing {\n    uint128 val;\n    uint32 public zzz;\n\n    function peek() public view returns (bytes32, bool) {\n        return (bytes32(uint256(val)), block.timestamp < zzz);\n    }\n\n    function read() public view returns (bytes32) {\n        assert(block.timestamp < zzz);\n        return bytes32(uint256(val));\n    }\n\n    function post(uint128 val_, uint32 zzz_, address med_) public payable note auth {\n        val = val_;\n        zzz = zzz_;\n        (bool success, ) = med_.call(abi.encodeWithSignature(\"poke()\"));\n        require(success, \"The poke must succeed\");\n    }\n\n    function void() public payable note auth {\n        zzz = 0;\n    }\n\n}\n",
  "sourcePath": "@gnosis.pm/dx-contracts/contracts/Oracle/PriceFeed.sol",
  "compiler": {
    "name": "solc",
    "version": "0.5.2+commit.1df8f40c.Emscripten.clang"
  },
  "schemaVersion": "3.0.1",
  "updatedAt": "2019-01-18T08:01:22.357Z",
  "devdoc": {
    "methods": {}
  },
  "userdoc": {
    "methods": {}
  }
}