{
  "contractName": "PriceFeed",
  "abi": [
    {
      "constant": false,
      "inputs": [
        {
          "name": "owner_",
          "type": "address"
        }
      ],
      "name": "setOwner",
      "outputs": [],
      "payable": false,
      "stateMutability": "nonpayable",
      "type": "function"
    },
    {
      "constant": false,
      "inputs": [
        {
          "name": "authority_",
          "type": "address"
        }
      ],
      "name": "setAuthority",
      "outputs": [],
      "payable": false,
      "stateMutability": "nonpayable",
      "type": "function"
    },
    {
      "constant": true,
      "inputs": [],
      "name": "owner",
      "outputs": [
        {
          "name": "",
          "type": "address"
        }
      ],
      "payable": false,
      "stateMutability": "view",
      "type": "function"
    },
    {
      "constant": true,
      "inputs": [],
      "name": "zzz",
      "outputs": [
        {
          "name": "",
          "type": "uint32"
        }
      ],
      "payable": false,
      "stateMutability": "view",
      "type": "function"
    },
    {
      "constant": true,
      "inputs": [],
      "name": "authority",
      "outputs": [
        {
          "name": "",
          "type": "address"
        }
      ],
      "payable": false,
      "stateMutability": "view",
      "type": "function"
    },
    {
      "anonymous": true,
      "inputs": [
        {
          "indexed": true,
          "name": "sig",
          "type": "bytes4"
        },
        {
          "indexed": true,
          "name": "guy",
          "type": "address"
        },
        {
          "indexed": true,
          "name": "foo",
          "type": "bytes32"
        },
        {
          "indexed": true,
          "name": "bar",
          "type": "bytes32"
        },
        {
          "indexed": false,
          "name": "wad",
          "type": "uint256"
        },
        {
          "indexed": false,
          "name": "fax",
          "type": "bytes"
        }
      ],
      "name": "LogNote",
      "type": "event"
    },
    {
      "anonymous": false,
      "inputs": [
        {
          "indexed": true,
          "name": "authority",
          "type": "address"
        }
      ],
      "name": "LogSetAuthority",
      "type": "event"
    },
    {
      "anonymous": false,
      "inputs": [
        {
          "indexed": true,
          "name": "owner",
          "type": "address"
        }
      ],
      "name": "LogSetOwner",
      "type": "event"
    },
    {
      "constant": true,
      "inputs": [],
      "name": "peek",
      "outputs": [
        {
          "name": "",
          "type": "bytes32"
        },
        {
          "name": "",
          "type": "bool"
        }
      ],
      "payable": false,
      "stateMutability": "view",
      "type": "function"
    },
    {
      "constant": true,
      "inputs": [],
      "name": "read",
      "outputs": [
        {
          "name": "",
          "type": "bytes32"
        }
      ],
      "payable": false,
      "stateMutability": "view",
      "type": "function"
    },
    {
      "constant": false,
      "inputs": [
        {
          "name": "val_",
          "type": "uint128"
        },
        {
          "name": "zzz_",
          "type": "uint32"
        },
        {
          "name": "med_",
          "type": "address"
        }
      ],
      "name": "post",
      "outputs": [],
      "payable": false,
      "stateMutability": "nonpayable",
      "type": "function"
    },
    {
      "constant": false,
      "inputs": [],
      "name": "void",
      "outputs": [],
      "payable": false,
      "stateMutability": "nonpayable",
      "type": "function"
    }
  ],
  "bytecode": "0x6080604081905260018054600160a060020a03191633908117909155907fce241d7ca1f669fee44b6fc00b8eba2df3bb514eed0f6f668f8f89096e81ed9490600090a26107e1806100516000396000f3006080604052600436106100985763ffffffff7c010000000000000000000000000000000000000000000000000000000060003504166313af4035811461009d57806357de26a4146100c057806359e02dd7146100e75780635a686699146101155780637a9e5e4b146101545780638da5cb5b14610175578063a4dff0a2146101a6578063ac4c25b2146101d4578063bf7e214f146101e9575b600080fd5b3480156100a957600080fd5b506100be600160a060020a03600435166101fe565b005b3480156100cc57600080fd5b506100d56102b5565b60408051918252519081900360200190f35b3480156100f357600080fd5b506100fc6102f6565b6040805192835290151560208301528051918290030190f35b34801561012157600080fd5b506100be6fffffffffffffffffffffffffffffffff6004351663ffffffff60243516600160a060020a036044351661032d565b34801561016057600080fd5b506100be600160a060020a03600435166104cf565b34801561018157600080fd5b5061018a610582565b60408051600160a060020a039092168252519081900360200190f35b3480156101b257600080fd5b506101bb610591565b6040805163ffffffff9092168252519081900360200190f35b3480156101e057600080fd5b506100be6105b1565b3480156101f557600080fd5b5061018a61067d565b61021433600035600160e060020a03191661068c565b1515610258576040805160e560020a62461bcd02815260206004820152601d6024820152600080516020610796833981519152604482015290519081900360640190fd5b6001805473ffffffffffffffffffffffffffffffffffffffff1916600160a060020a0383811691909117918290556040519116907fce241d7ca1f669fee44b6fc00b8eba2df3bb514eed0f6f668f8f89096e81ed9490600090a250565b600254600090700100000000000000000000000000000000900463ffffffff1642106102dd57fe5b506002546fffffffffffffffffffffffffffffffff1690565b6002546fffffffffffffffffffffffffffffffff81169170010000000000000000000000000000000090910463ffffffff16421090565b604080513480825260208201838152369383018490526000936004359360243593849386933393600160e060020a03198a351693928a929190606082018484808284376040519201829003965090945050505050a461039833600035600160e060020a03191661068c565b15156103dc576040805160e560020a62461bcd02815260206004820152601d6024820152600080516020610796833981519152604482015290519081900360640190fd5b600280546fffffffffffffffffffffffffffffffff19166fffffffffffffffffffffffffffffffff88161773ffffffff00000000000000000000000000000000191670010000000000000000000000000000000063ffffffff8881169190910291909117909155604080517f706f6b6528290000000000000000000000000000000000000000000000000000815281516006918190039190910181207c0100000000000000000000000000000000000000000000000000000000908190049384160281529051600160a060020a0387169291600480820192600092909190829003018183875af150505050505050505050565b6104e533600035600160e060020a03191661068c565b1515610529576040805160e560020a62461bcd02815260206004820152601d6024820152600080516020610796833981519152604482015290519081900360640190fd5b6000805473ffffffffffffffffffffffffffffffffffffffff1916600160a060020a03838116919091178083556040519116917f1abebea81bfa2637f28358c371278fb15ede7ea8dd28d2e03b112ff6d936ada491a250565b600154600160a060020a031681565b600254700100000000000000000000000000000000900463ffffffff1681565b60408051348082526020820183815236938301849052600435936024359384938693339360008035600160e060020a031916949092606082018484808284376040519201829003965090945050505050a461061833600035600160e060020a03191661068c565b151561065c576040805160e560020a62461bcd02815260206004820152601d6024820152600080516020610796833981519152604482015290519081900360640190fd5b50506002805473ffffffff0000000000000000000000000000000019169055565b600054600160a060020a031681565b6000600160a060020a0383163014156106a75750600161078f565b600154600160a060020a03848116911614156106c55750600161078f565b600054600160a060020a031615156106df5750600061078f565b60008054604080517fb7009613000000000000000000000000000000000000000000000000000000008152600160a060020a038781166004830152306024830152600160e060020a0319871660448301529151919092169263b700961392606480820193602093909283900390910190829087803b15801561076057600080fd5b505af1158015610774573d6000803e3d6000fd5b505050506040513d602081101561078a57600080fd5b505190505b9291505056004974206d75737420626520616e20617574686f72697a65642063616c6c000000a165627a7a723058204e27314b7b84490aba0f2470f7ad451fbc875b56f8d69bdfc786b3984bb0c6a90029",
  "source": "pragma solidity ^0.4.24;\n/// price-feed.sol\n\n// Copyright (C) 2017  DappHub, LLC\n\n// Licensed under the Apache License, Version 2.0 (the \"License\").\n// You may not use this file except in compliance with the License.\n\n// Unless required by applicable law or agreed to in writing, software\n// distributed under the License is distributed on an \"AS IS\" BASIS,\n// WITHOUT WARRANTIES OR CONDITIONS OF ANY KIND (express or implied).\n\nimport \"../Oracle/DSThing.sol\";\n\n\ncontract PriceFeed is DSThing {\n\n    uint128 val;\n    uint32 public zzz;\n\n    function peek() public view\n        returns (bytes32, bool)\n    {\n        return (bytes32(val), block.timestamp < zzz);\n    }\n\n    function read() public view\n        returns (bytes32)\n    {\n        assert(block.timestamp < zzz);\n        return bytes32(val);\n    }\n\n    function post(uint128 val_, uint32 zzz_, address med_) public note auth\n    {\n        val = val_;\n        zzz = zzz_;\n        bool ret = med_.call(bytes4(keccak256(\"poke()\")));\n        ret;\n    }\n\n    function void() public note auth\n    {\n        zzz = 0;\n    }\n\n}",
  "sourcePath": "/mnt/bf1642c6-3903-4bb8-b254-88a427e7ab47/Home/David/Documents/Work/Gnosis/dx-contracts/contracts/Oracle/PriceFeed.sol",
  "compiler": {
    "name": "solc",
    "version": "0.4.25+commit.59dbf8f1.Emscripten.clang"
  },
  "schemaVersion": "2.0.2",
  "updatedAt": "2019-01-04T11:06:43.779Z"
}