{
  "contractName": "Proxy",
  "abi": [
    {
      "constant": true,
      "inputs": [],
      "name": "masterCopy",
      "outputs": [
        {
          "name": "",
          "type": "address"
        }
      ],
      "payable": false,
      "stateMutability": "view",
      "type": "function"
    },
    {
      "inputs": [
        {
          "name": "_masterCopy",
          "type": "address"
        }
      ],
      "payable": false,
      "stateMutability": "nonpayable",
      "type": "constructor"
    },
    {
      "payable": true,
      "stateMutability": "payable",
      "type": "fallback"
    }
  ],
  "bytecode": "0x608060405234801561001057600080fd5b506040516020806101d18339810180604052602081101561003057600080fd5b5051600160a060020a03811615156100a957604080517f08c379a000000000000000000000000000000000000000000000000000000000815260206004820152601b60248201527f546865206d617374657220636f70792069732072657175697265640000000000604482015290519081900360640190fd5b60008054600160a060020a03909216600160a060020a031990921691909117905560f9806100d86000396000f3fe6080604052600436106038577c01000000000000000000000000000000000000000000000000000000006000350463a619486e81146076575b6000805473ffffffffffffffffffffffffffffffffffffffff169036908037600080368184600019f43d6000803e8080156071573d6000f35b3d6000fd5b348015608157600080fd5b50608860b1565b6040805173ffffffffffffffffffffffffffffffffffffffff9092168252519081900360200190f35b60005473ffffffffffffffffffffffffffffffffffffffff168156fea165627a7a723058207669882a6884dfdd6eabc8cdc8e27a8093c6cfa8dec57bce9c68879a2ef3928f0029",
  "source": "pragma solidity ^0.5.0;\n\n/// @title Proxied - indicates that a contract will be proxied. Also defines storage requirements for Proxy.\n/// @author Alan Lu - <alan@gnosis.pm>\ncontract Proxied {\n    address public masterCopy;\n}\n\n\n/// @title Proxy - Generic proxy contract allows to execute all transactions applying the code of a master contract.\n/// @author Stefan George - <stefan@gnosis.pm>\ncontract Proxy is Proxied {\n    /// @dev Constructor function sets address of master copy contract.\n    /// @param _masterCopy Master copy address.\n    constructor (address _masterCopy)\n        public\n    {\n        require(_masterCopy != address(0), \"The master copy is required\");\n        masterCopy = _masterCopy;\n    }\n\n    /// @dev Fallback function forwards all transactions and returns all received return data.\n    function ()\n        external\n        payable\n    {\n        address _masterCopy = masterCopy;\n        assembly {\n            calldatacopy(0, 0, calldatasize())\n            let success := delegatecall(not(0), _masterCopy, 0, calldatasize(), 0, 0)\n            returndatacopy(0, 0, returndatasize())\n            switch success\n            case 0 { revert(0, returndatasize()) }\n            default { return(0, returndatasize()) }\n        }\n    }\n}\n",
  "sourcePath": "@gnosis.pm/util-contracts/contracts/Proxy.sol",
  "compiler": {
    "name": "solc",
    "version": "0.5.2+commit.1df8f40c.Emscripten.clang"
  },
  "schemaVersion": "3.0.1",
  "updatedAt": "2019-01-18T08:01:22.386Z",
  "devdoc": {
    "author": "Stefan George - <stefan@gnosis.pm>",
    "methods": {
      "constructor": {
        "details": "Constructor function sets address of master copy contract.",
        "params": {
          "_masterCopy": "Master copy address."
        }
      }
    },
    "title": "Proxy - Generic proxy contract allows to execute all transactions applying the code of a master contract."
  },
  "userdoc": {
    "methods": {}
  }
}