{
  "contractName": "Proxy",
  "abi": [
    {
      "constant": true,
      "inputs": [],
      "name": "masterCopy",
      "outputs": [
        {
          "name": "",
          "type": "address"
        }
      ],
      "payable": false,
      "stateMutability": "view",
      "type": "function"
    },
    {
      "inputs": [
        {
          "name": "_masterCopy",
          "type": "address"
        }
      ],
      "payable": false,
      "stateMutability": "nonpayable",
      "type": "constructor"
    },
    {
      "payable": true,
      "stateMutability": "payable",
      "type": "fallback"
    }
  ],
  "bytecode": "0x608060405234801561001057600080fd5b506040516020806101c78339810160405251600160a060020a038116151561009957604080517f08c379a000000000000000000000000000000000000000000000000000000000815260206004820152601b60248201527f546865206d617374657220636f70792069732072657175697265640000000000604482015290519081900360640190fd5b60008054600160a060020a03909216600160a060020a031990921691909117905560ff806100c86000396000f300608060405260043610603e5763ffffffff7c0100000000000000000000000000000000000000000000000000000000600035041663a619486e8114607c575b6000805473ffffffffffffffffffffffffffffffffffffffff169036908037600080368184600019f43d6000803e8080156077573d6000f35b3d6000fd5b348015608757600080fd5b50608e60b7565b6040805173ffffffffffffffffffffffffffffffffffffffff9092168252519081900360200190f35b60005473ffffffffffffffffffffffffffffffffffffffff16815600a165627a7a72305820dd8201bb8b850389a213b97735ba622a91d82452793c951ad2b55689f49fcf6d0029",
  "source": "pragma solidity ^0.4.24;\n\n\n/// @title Proxied - indicates that a contract will be proxied. Also defines storage requirements for Proxy.\n/// @author Alan Lu - <alan@gnosis.pm>\ncontract Proxied {\n    address public masterCopy;\n}\n\n\n/// @title Proxy - Generic proxy contract allows to execute all transactions applying the code of a master contract.\n/// @author Stefan George - <stefan@gnosis.pm>\ncontract Proxy is Proxied {\n    /// @dev Constructor function sets address of master copy contract.\n    /// @param _masterCopy Master copy address.\n    constructor (address _masterCopy)\n        public\n    {\n        require(_masterCopy != 0, \"The master copy is required\");\n        masterCopy = _masterCopy;\n    }\n\n    /// @dev Fallback function forwards all transactions and returns all received return data.\n    function ()\n        external\n        payable\n    {\n        address _masterCopy = masterCopy;\n        assembly {\n            calldatacopy(0, 0, calldatasize())\n            let success := delegatecall(not(0), _masterCopy, 0, calldatasize(), 0, 0)\n            returndatacopy(0, 0, returndatasize())\n            switch success\n            case 0 { revert(0, returndatasize()) }\n            default { return(0, returndatasize()) }\n        }\n    }\n}\n",
  "sourcePath": "@gnosis.pm/util-contracts/contracts/Proxy.sol",
  "compiler": {
    "name": "solc",
    "version": "0.4.25+commit.59dbf8f1.Emscripten.clang"
  },
  "schemaVersion": "2.0.2",
  "updatedAt": "2019-01-04T11:06:42.147Z"
}