{
  "contractName": "TokenFRT",
  "abi": [
    {
      "constant": true,
      "inputs": [],
      "name": "name",
      "outputs": [
        {
          "name": "",
          "type": "string"
        }
      ],
      "payable": false,
      "stateMutability": "view",
      "type": "function"
    },
    {
      "constant": true,
      "inputs": [],
      "name": "minter",
      "outputs": [
        {
          "name": "",
          "type": "address"
        }
      ],
      "payable": false,
      "stateMutability": "view",
      "type": "function"
    },
    {
      "constant": false,
      "inputs": [
        {
          "name": "spender",
          "type": "address"
        },
        {
          "name": "value",
          "type": "uint256"
        }
      ],
      "name": "approve",
      "outputs": [
        {
          "name": "",
          "type": "bool"
        }
      ],
      "payable": false,
      "stateMutability": "nonpayable",
      "type": "function"
    },
    {
      "constant": true,
      "inputs": [],
      "name": "totalSupply",
      "outputs": [
        {
          "name": "",
          "type": "uint256"
        }
      ],
      "payable": false,
      "stateMutability": "view",
      "type": "function"
    },
    {
      "constant": false,
      "inputs": [
        {
          "name": "from",
          "type": "address"
        },
        {
          "name": "to",
          "type": "address"
        },
        {
          "name": "value",
          "type": "uint256"
        }
      ],
      "name": "transferFrom",
      "outputs": [
        {
          "name": "",
          "type": "bool"
        }
      ],
      "payable": false,
      "stateMutability": "nonpayable",
      "type": "function"
    },
    {
      "constant": true,
      "inputs": [],
      "name": "decimals",
      "outputs": [
        {
          "name": "",
          "type": "uint8"
        }
      ],
      "payable": false,
      "stateMutability": "view",
      "type": "function"
    },
    {
      "constant": true,
      "inputs": [
        {
          "name": "owner",
          "type": "address"
        }
      ],
      "name": "balanceOf",
      "outputs": [
        {
          "name": "",
          "type": "uint256"
        }
      ],
      "payable": false,
      "stateMutability": "view",
      "type": "function"
    },
    {
      "constant": true,
      "inputs": [
        {
          "name": "",
          "type": "address"
        }
      ],
      "name": "unlockedTokens",
      "outputs": [
        {
          "name": "amountUnlocked",
          "type": "uint256"
        },
        {
          "name": "withdrawalTime",
          "type": "uint256"
        }
      ],
      "payable": false,
      "stateMutability": "view",
      "type": "function"
    },
    {
      "constant": true,
      "inputs": [
        {
          "name": "",
          "type": "address"
        }
      ],
      "name": "lockedTokenBalances",
      "outputs": [
        {
          "name": "",
          "type": "uint256"
        }
      ],
      "payable": false,
      "stateMutability": "view",
      "type": "function"
    },
    {
      "constant": true,
      "inputs": [],
      "name": "owner",
      "outputs": [
        {
          "name": "",
          "type": "address"
        }
      ],
      "payable": false,
      "stateMutability": "view",
      "type": "function"
    },
    {
      "constant": true,
      "inputs": [],
      "name": "symbol",
      "outputs": [
        {
          "name": "",
          "type": "string"
        }
      ],
      "payable": false,
      "stateMutability": "view",
      "type": "function"
    },
    {
      "constant": true,
      "inputs": [],
      "name": "masterCopy",
      "outputs": [
        {
          "name": "",
          "type": "address"
        }
      ],
      "payable": false,
      "stateMutability": "view",
      "type": "function"
    },
    {
      "constant": false,
      "inputs": [
        {
          "name": "to",
          "type": "address"
        },
        {
          "name": "value",
          "type": "uint256"
        }
      ],
      "name": "transfer",
      "outputs": [
        {
          "name": "",
          "type": "bool"
        }
      ],
      "payable": false,
      "stateMutability": "nonpayable",
      "type": "function"
    },
    {
      "constant": true,
      "inputs": [
        {
          "name": "owner",
          "type": "address"
        },
        {
          "name": "spender",
          "type": "address"
        }
      ],
      "name": "allowance",
      "outputs": [
        {
          "name": "",
          "type": "uint256"
        }
      ],
      "payable": false,
      "stateMutability": "view",
      "type": "function"
    },
    {
      "anonymous": false,
      "inputs": [
        {
          "indexed": true,
          "name": "from",
          "type": "address"
        },
        {
          "indexed": true,
          "name": "to",
          "type": "address"
        },
        {
          "indexed": false,
          "name": "value",
          "type": "uint256"
        }
      ],
      "name": "Transfer",
      "type": "event"
    },
    {
      "anonymous": false,
      "inputs": [
        {
          "indexed": true,
          "name": "owner",
          "type": "address"
        },
        {
          "indexed": true,
          "name": "spender",
          "type": "address"
        },
        {
          "indexed": false,
          "name": "value",
          "type": "uint256"
        }
      ],
      "name": "Approval",
      "type": "event"
    },
    {
      "constant": false,
      "inputs": [
        {
          "name": "_minter",
          "type": "address"
        }
      ],
      "name": "updateMinter",
      "outputs": [],
      "payable": false,
      "stateMutability": "nonpayable",
      "type": "function"
    },
    {
      "constant": false,
      "inputs": [
        {
          "name": "_owner",
          "type": "address"
        }
      ],
      "name": "updateOwner",
      "outputs": [],
      "payable": false,
      "stateMutability": "nonpayable",
      "type": "function"
    },
    {
      "constant": false,
      "inputs": [
        {
          "name": "user",
          "type": "address"
        },
        {
          "name": "amount",
          "type": "uint256"
        }
      ],
      "name": "mintTokens",
      "outputs": [],
      "payable": false,
      "stateMutability": "nonpayable",
      "type": "function"
    },
    {
      "constant": false,
      "inputs": [
        {
          "name": "amount",
          "type": "uint256"
        }
      ],
      "name": "lockTokens",
      "outputs": [
        {
          "name": "totalAmountLocked",
          "type": "uint256"
        }
      ],
      "payable": false,
      "stateMutability": "nonpayable",
      "type": "function"
    },
    {
      "constant": false,
      "inputs": [],
      "name": "unlockTokens",
      "outputs": [
        {
          "name": "totalAmountUnlocked",
          "type": "uint256"
        },
        {
          "name": "withdrawalTime",
          "type": "uint256"
        }
      ],
      "payable": false,
      "stateMutability": "nonpayable",
      "type": "function"
    },
    {
      "constant": false,
      "inputs": [],
      "name": "withdrawUnlockedTokens",
      "outputs": [],
      "payable": false,
      "stateMutability": "nonpayable",
      "type": "function"
    },
    {
      "constant": true,
      "inputs": [
        {
          "name": "a",
          "type": "uint256"
        },
        {
          "name": "b",
          "type": "uint256"
        }
      ],
      "name": "min",
      "outputs": [
        {
          "name": "",
          "type": "uint256"
        }
      ],
      "payable": false,
      "stateMutability": "pure",
      "type": "function"
    },
    {
      "constant": true,
      "inputs": [
        {
          "name": "a",
          "type": "uint256"
        },
        {
          "name": "b",
          "type": "uint256"
        }
      ],
      "name": "safeToAdd",
      "outputs": [
        {
          "name": "",
          "type": "bool"
        }
      ],
      "payable": false,
      "stateMutability": "pure",
      "type": "function"
    },
    {
      "constant": true,
      "inputs": [
        {
          "name": "a",
          "type": "uint256"
        },
        {
          "name": "b",
          "type": "uint256"
        }
      ],
      "name": "safeToSub",
      "outputs": [
        {
          "name": "",
          "type": "bool"
        }
      ],
      "payable": false,
      "stateMutability": "pure",
      "type": "function"
    },
    {
      "constant": true,
      "inputs": [
        {
          "name": "a",
          "type": "uint256"
        },
        {
          "name": "b",
          "type": "uint256"
        }
      ],
      "name": "add",
      "outputs": [
        {
          "name": "",
          "type": "uint256"
        }
      ],
      "payable": false,
      "stateMutability": "pure",
      "type": "function"
    },
    {
      "constant": true,
      "inputs": [
        {
          "name": "a",
          "type": "uint256"
        },
        {
          "name": "b",
          "type": "uint256"
        }
      ],
      "name": "sub",
      "outputs": [
        {
          "name": "",
          "type": "uint256"
        }
      ],
      "payable": false,
      "stateMutability": "pure",
      "type": "function"
    }
  ],
  "bytecode": "0x608060405234801561001057600080fd5b50610e9d806100206000396000f3006080604052600436106101485763ffffffff7c010000000000000000000000000000000000000000000000000000000060003504166306fdde03811461014d57806307546172146101d7578063095ea7b31461020857806318160ddd1461024057806323b872dd14610267578063313ce567146102915780634e30a66c146102bc5780634eb03f6e146102d75780636e27d889146102fa57806370a0823114610312578063771602f7146103335780637ae2b5c71461034e578063836115fe14610369578063880cdc31146103a35780638b525d0c146103c45780638da5cb5b146103e557806395d89b41146103fa578063a619486e1461040f578063a9059cbb14610424578063b67d77c514610448578063c17ccc6c14610463578063dd62ed3e14610478578063e31c71c41461049f578063f0dda65c146104ba578063f968f493146104de575b600080fd5b34801561015957600080fd5b506101626104f3565b6040805160208082528351818301528351919283929083019185019080838360005b8381101561019c578181015183820152602001610184565b50505050905090810190601f1680156101c95780820380516001836020036101000a031916815260200191505b509250505060405180910390f35b3480156101e357600080fd5b506101ec61052a565b60408051600160a060020a039092168252519081900360200190f35b34801561021457600080fd5b5061022c600160a060020a0360043516602435610539565b604080519115158252519081900360200190f35b34801561024c57600080fd5b506102556105a0565b60408051918252519081900360200190f35b34801561027357600080fd5b5061022c600160a060020a03600435811690602435166044356105a6565b34801561029d57600080fd5b506102a66106d3565b6040805160ff9092168252519081900360200190f35b3480156102c857600080fd5b5061022c6004356024356106d8565b3480156102e357600080fd5b506102f8600160a060020a03600435166106df565b005b34801561030657600080fd5b5061025560043561081c565b34801561031e57600080fd5b50610255600160a060020a0360043516610895565b34801561033f57600080fd5b506102556004356024356108b0565b34801561035a57600080fd5b50610255600435602435610917565b34801561037557600080fd5b5061038a600160a060020a036004351661092f565b6040805192835260208301919091528051918290030190f35b3480156103af57600080fd5b506102f8600160a060020a0360043516610948565b3480156103d057600080fd5b50610255600160a060020a0360043516610a85565b3480156103f157600080fd5b506101ec610a97565b34801561040657600080fd5b50610162610aa6565b34801561041b57600080fd5b506101ec610add565b34801561043057600080fd5b5061022c600160a060020a0360043516602435610aec565b34801561045457600080fd5b50610255600435602435610bb9565b34801561046f57600080fd5b506102f8610c21565b34801561048457600080fd5b50610255600160a060020a0360043581169060243516610cf6565b3480156104ab57600080fd5b5061022c600435602435610d21565b3480156104c657600080fd5b506102f8600160a060020a0360043516602435610d26565b3480156104ea57600080fd5b5061038a610dd8565b60408051808201909152600e81527f4d61676e6f6c696120546f6b656e000000000000000000000000000000000000602082015281565b600554600160a060020a031681565b336000818152600260209081526040808320600160a060020a038716808552908352818420869055815186815291519394909390927f8c5be1e5ebec7d5bd14f71427d1e84f3dd0314c0f7b2291e5b200ac8c7c3b925928290030190a35060015b92915050565b60035490565b600160a060020a0383166000908152600160205260408120546105cf908363ffffffff610d2116565b158061060c5750600160a060020a038416600090815260026020908152604080832033845290915290205461060a908363ffffffff610d2116565b155b8061063d5750600160a060020a03831660009081526001602052604090205461063b908363ffffffff6106d816565b155b1561064a575060006106cc565b600160a060020a0380851660008181526001602081815260408084208054899003905560028252808420338552825280842080548990039055948816808452918152918490208054870190558351868152935190937fddf252ad1be2c89b69c2b068fc378daa952ba7f163c4a11628f55a4df523b3ef92908290030190a35060015b9392505050565b601281565b8101101590565b600454600160a060020a03163314610767576040805160e560020a62461bcd02815260206004820152602160248201527f4f6e6c7920746865206d696e7465722063616e207365742061206e6577206f6e60448201527f6500000000000000000000000000000000000000000000000000000000000000606482015290519081900360840190fd5b600160a060020a03811615156107ed576040805160e560020a62461bcd02815260206004820152602660248201527f546865206e6577206d696e746572206d75737420626520612076616c6964206160448201527f6464726573730000000000000000000000000000000000000000000000000000606482015290519081900360840190fd5b6005805473ffffffffffffffffffffffffffffffffffffffff1916600160a060020a0392909216919091179055565b336000908152600160205260408120548190610839908490610917565b336000908152600160205260409020549091506108569082610bb9565b3360009081526001602090815260408083209390935560079052205461087c90826108b0565b3360009081526007602052604090208190559392505050565b600160a060020a031660009081526001602052604090205490565b60006108bc83836106d8565b1515610912576040805160e560020a62461bcd02815260206004820152601960248201527f4974206d757374206265206120736166652061646974696f6e00000000000000604482015290519081900360640190fd5b500190565b60008183101561092857508161059a565b508061059a565b6006602052600090815260409020805460019091015482565b600454600160a060020a031633146109d0576040805160e560020a62461bcd02815260206004820152602360248201527f4f6e6c7920746865206f776e65722063616e2075706461746520746865206f7760448201527f6e65720000000000000000000000000000000000000000000000000000000000606482015290519081900360840190fd5b600160a060020a0381161515610a56576040805160e560020a62461bcd02815260206004820152602560248201527f546865206e6577206f776e6572206d75737420626520612076616c696420616460448201527f6472657373000000000000000000000000000000000000000000000000000000606482015290519081900360840190fd5b6004805473ffffffffffffffffffffffffffffffffffffffff1916600160a060020a0392909216919091179055565b60076020526000908152604090205481565b600454600160a060020a031681565b60408051808201909152600381527f4d474e0000000000000000000000000000000000000000000000000000000000602082015281565b600054600160a060020a031681565b33600090815260016020526040812054610b0c908363ffffffff610d2116565b1580610b3e5750600160a060020a038316600090815260016020526040902054610b3c908363ffffffff6106d816565b155b15610b4b5750600061059a565b33600081815260016020908152604080832080548790039055600160a060020a03871680845292819020805487019055805186815290519293927fddf252ad1be2c89b69c2b068fc378daa952ba7f163c4a11628f55a4df523b3ef929181900390910190a350600192915050565b6000610bc58383610d21565b1515610c1b576040805160e560020a62461bcd02815260206004820152601e60248201527f4974206d7573742062652061207361666520737562737472616374696f6e0000604482015290519081900360640190fd5b50900390565b336000908152600660205260409020600101544211610cb0576040805160e560020a62461bcd02815260206004820152602260248201527f54686520746f6b656e732063616e6e6f742062652077697468647261776e207960448201527f6574000000000000000000000000000000000000000000000000000000000000606482015290519081900360840190fd5b33600090815260016020908152604080832054600690925290912054610cd691906108b0565b336000908152600160209081526040808320939093556006905290812055565b600160a060020a03918216600090815260026020908152604080832093909416825291909152205490565b111590565b600554600160a060020a03163314610d88576040805160e560020a62461bcd02815260206004820152601f60248201527f4f6e6c7920746865206d696e7465722063616e206d696e7420746f6b656e7300604482015290519081900360640190fd5b600160a060020a038216600090815260076020526040902054610dab90826108b0565b600160a060020a038316600090815260076020526040902055600354610dd190826108b0565b6003555050565b33600090815260076020526040812054819081811115610e515733600090815260076020526040902054610e0c9082610bb9565b33600090815260076020908152604080832093909355600690522054610e3290826108b0565b3360009081526006602052604090209081556201518042016001909101555b5050336000908152600660205260409020805460019091015490929091505600a165627a7a723058207c06d0034f28619cb85c62820736e0705ca18f368063725251f09eaa674f26630029",
  "source": "pragma solidity ^0.4.24;\n\nimport \"@gnosis.pm/util-contracts/contracts/Proxy.sol\";\nimport \"@gnosis.pm/util-contracts/contracts/GnosisStandardToken.sol\";\n\n/// @title Standard token contract with overflow protection\ncontract TokenFRT is Proxied, GnosisStandardToken {\n    string public constant symbol = \"MGN\";\n    string public constant name = \"Magnolia Token\";\n    uint8 public constant decimals = 18;\n\n    struct unlockedToken {\n        uint amountUnlocked;\n        uint withdrawalTime;\n    }\n\n    /*\n     *  Storage\n     */\n    address public owner;\n    address public minter;\n\n    // user => unlockedToken\n    mapping (address => unlockedToken) public unlockedTokens;\n\n    // user => amount\n    mapping (address => uint) public lockedTokenBalances;\n\n    /*\n     *  Public functions\n     */\n    \n    // @dev allows to set the minter of Magnolia tokens once.\n    // @param   _minter the minter of the Magnolia tokens, should be the DX-proxy\n    function updateMinter(\n        address _minter\n    )\n        public\n    {\n        require(msg.sender == owner, \"Only the minter can set a new one\");\n        require(_minter != address(0), \"The new minter must be a valid address\");\n\n        minter = _minter;\n    }\n\n    // @dev the intention is to set the owner as the DX-proxy, once it is deployed\n    // Then only an update of the DX-proxy contract after a 30 days delay could change the minter again.\n    function updateOwner(\n        address _owner\n    )\n        public\n    {\n        require(msg.sender == owner, \"Only the owner can update the owner\");\n        require(_owner != address(0), \"The new owner must be a valid address\");\n        owner = _owner;\n    }\n\n    function mintTokens(\n        address user,\n        uint amount\n    )\n        public\n    {\n        require(msg.sender == minter, \"Only the minter can mint tokens\");\n\n        lockedTokenBalances[user] = add(lockedTokenBalances[user], amount);\n        totalTokens = add(totalTokens, amount);\n    }\n\n    /// @dev Lock Token\n    function lockTokens(\n        uint amount\n    )\n        public\n        returns (uint totalAmountLocked)\n    {\n        // Adjust amount by balance\n        uint actualAmount = min(amount, balances[msg.sender]);\n\n        // Update state variables\n        balances[msg.sender] = sub(balances[msg.sender], actualAmount);\n        lockedTokenBalances[msg.sender] = add(lockedTokenBalances[msg.sender], actualAmount);\n\n        // Get return variable\n        totalAmountLocked = lockedTokenBalances[msg.sender];\n    }\n\n    function unlockTokens()\n        public\n        returns (uint totalAmountUnlocked, uint withdrawalTime)\n    {\n        // Adjust amount by locked balances\n        uint amount = lockedTokenBalances[msg.sender];\n\n        if (amount > 0) {\n            // Update state variables\n            lockedTokenBalances[msg.sender] = sub(lockedTokenBalances[msg.sender], amount);\n            unlockedTokens[msg.sender].amountUnlocked = add(\n              unlockedTokens[msg.sender].amountUnlocked,\n              amount\n            );\n            unlockedTokens[msg.sender].withdrawalTime = now + 24 hours;\n        }\n\n        // Get return variables\n        totalAmountUnlocked = unlockedTokens[msg.sender].amountUnlocked;\n        withdrawalTime = unlockedTokens[msg.sender].withdrawalTime;\n    }\n\n    function withdrawUnlockedTokens()\n        public\n    {\n        require(unlockedTokens[msg.sender].withdrawalTime < now, \"The tokens cannot be withdrawn yet\");\n        balances[msg.sender] = add(balances[msg.sender], unlockedTokens[msg.sender].amountUnlocked);\n        unlockedTokens[msg.sender].amountUnlocked = 0;\n    }\n\n    function min(uint a, uint b)\n        public\n        pure\n        returns (uint)\n    {\n        if (a < b) {\n            return a;\n        } else {\n            return b;\n        }\n    }\n        /// @dev Returns whether an add operation causes an overflow\n    /// @param a First addend\n    /// @param b Second addend\n    /// @return Did no overflow occur?\n    function safeToAdd(uint a, uint b)\n        public\n        pure\n        returns (bool)\n    {\n        return a + b >= a;\n    }\n\n    /// @dev Returns whether a subtraction operation causes an underflow\n    /// @param a Minuend\n    /// @param b Subtrahend\n    /// @return Did no underflow occur?\n    function safeToSub(uint a, uint b)\n        public\n        pure\n        returns (bool)\n    {\n        return a >= b;\n    }\n\n\n    /// @dev Returns sum if no overflow occurred\n    /// @param a First addend\n    /// @param b Second addend\n    /// @return Sum\n    function add(uint a, uint b)\n        public\n        pure\n        returns (uint)\n    {\n        require(safeToAdd(a, b), \"It must be a safe adition\");\n        return a + b;\n    }\n\n    /// @dev Returns difference if no overflow occurred\n    /// @param a Minuend\n    /// @param b Subtrahend\n    /// @return Difference\n    function sub(uint a, uint b)\n        public\n        pure\n        returns (uint)\n    {\n        require(safeToSub(a, b), \"It must be a safe substraction\");\n        return a - b;\n    }\n}\n",
  "sourcePath": "/mnt/bf1642c6-3903-4bb8-b254-88a427e7ab47/Home/David/Documents/Work/Gnosis/dx-contracts/contracts/TokenFRT.sol",
  "compiler": {
    "name": "solc",
    "version": "0.4.25+commit.59dbf8f1.Emscripten.clang"
  },
  "schemaVersion": "2.0.2",
  "updatedAt": "2019-01-04T11:06:45.303Z"
}