{
  "contractName": "TokenWhitelist",
  "abi": [
    {
      "constant": true,
      "inputs": [],
      "name": "auctioneer",
      "outputs": [
        {
          "name": "",
          "type": "address"
        }
      ],
      "payable": false,
      "stateMutability": "view",
      "type": "function"
    },
    {
      "constant": true,
      "inputs": [
        {
          "name": "",
          "type": "address"
        }
      ],
      "name": "approvedTokens",
      "outputs": [
        {
          "name": "",
          "type": "bool"
        }
      ],
      "payable": false,
      "stateMutability": "view",
      "type": "function"
    },
    {
      "constant": false,
      "inputs": [
        {
          "name": "_auctioneer",
          "type": "address"
        }
      ],
      "name": "updateAuctioneer",
      "outputs": [],
      "payable": false,
      "stateMutability": "nonpayable",
      "type": "function"
    },
    {
      "anonymous": false,
      "inputs": [
        {
          "indexed": true,
          "name": "token",
          "type": "address"
        },
        {
          "indexed": false,
          "name": "approved",
          "type": "bool"
        }
      ],
      "name": "Approval",
      "type": "event"
    },
    {
      "constant": true,
      "inputs": [
        {
          "name": "addressesToCheck",
          "type": "address[]"
        }
      ],
      "name": "getApprovedAddressesOfList",
      "outputs": [
        {
          "name": "",
          "type": "bool[]"
        }
      ],
      "payable": false,
      "stateMutability": "view",
      "type": "function"
    },
    {
      "constant": false,
      "inputs": [
        {
          "name": "token",
          "type": "address[]"
        },
        {
          "name": "approved",
          "type": "bool"
        }
      ],
      "name": "updateApprovalOfToken",
      "outputs": [],
      "payable": false,
      "stateMutability": "nonpayable",
      "type": "function"
    }
  ],
  "bytecode": "0x608060405234801561001057600080fd5b506105cd806100206000396000f3fe608060405234801561001057600080fd5b5060043610610073577c0100000000000000000000000000000000000000000000000000000000600035046302ffc0b081146100785780635ec2c7bf1461013857806365b0d7111461015c5780636d1ea3fa14610203578063796a80761461023d575b600080fd5b6100e86004803603602081101561008e57600080fd5b8101906020810181356401000000008111156100a957600080fd5b8201836020820111156100bb57600080fd5b803590602001918460208302840111640100000000831117156100dd57600080fd5b509092509050610263565b60408051602080825283518183015283519192839290830191858101910280838360005b8381101561012457818101518382015260200161010c565b505050509050019250505060405180910390f35b61014061031d565b60408051600160a060020a039092168252519081900360200190f35b6102016004803603604081101561017257600080fd5b81019060208101813564010000000081111561018d57600080fd5b82018360208201111561019f57600080fd5b803590602001918460208302840111640100000000831117156101c157600080fd5b919080806020026020016040519081016040528093929190818152602001838360200280828437600092019190915250929550505050351515905061032c565b005b6102296004803603602081101561021957600080fd5b5035600160a060020a0316610449565b604080519115158252519081900360200190f35b6102016004803603602081101561025357600080fd5b5035600160a060020a031661045e565b60408051828152602080840282010190915260609082908290828015610293578160200160208202803883390190505b50905060005b8281101561031457600160008787848181106102b157fe5b90506020020135600160a060020a0316600160a060020a0316600160a060020a0316815260200190815260200160002060009054906101000a900460ff1682828151811015156102fd57fe5b911515602092830290910190910152600101610299565b50949350505050565b600054600160a060020a031681565b600054600160a060020a0316331461038f576040517f08c379a000000000000000000000000000000000000000000000000000000000815260040180806020018281038252602a815260200180610578602a913960400191505060405180910390fd5b60005b825181101561044457816001600085848151811015156103ae57fe5b602090810291909101810151600160a060020a03168252810191909152604001600020805460ff191691151591909117905582518390829081106103ee57fe5b90602001906020020151600160a060020a03167fc091bf3abd3a42f670f8ad1a6ad5b849311210403e1d85d6ac31f43114d5ca6e83604051808215151515815260200191505060405180910390a2600101610392565b505050565b60016020526000908152604090205460ff1681565b600054600160a060020a031633146104c1576040517f08c379a000000000000000000000000000000000000000000000000000000000815260040180806020018281038252602a815260200180610578602a913960400191505060405180910390fd5b600160a060020a0381161515610522576040517f08c379a00000000000000000000000000000000000000000000000000000000081526004018080602001828103825260268152602001806105526026913960400191505060405180910390fd5b6000805473ffffffffffffffffffffffffffffffffffffffff1916600160a060020a039290921691909117905556fe5468652061756374696f6e656572206d75737420626520612076616c696420616464726573734f6e6c79207468652061756374696f6e6565722063616e206e6f6d696e6174652061206e6577206f6e65a165627a7a7230582086226f4df2e78421d2e3556257092cde52bac6010ab3904e5343a64d95884ed00029",
  "source": "pragma solidity ^0.5.2;\n\nimport \"./AuctioneerManaged.sol\";\n\n\ncontract TokenWhitelist is AuctioneerManaged {\n    // Mapping that stores the tokens, which are approved\n    // Only tokens approved by auctioneer generate frtToken tokens\n    // addressToken => boolApproved\n    mapping(address => bool) public approvedTokens;\n\n    event Approval(address indexed token, bool approved);\n\n    /// @dev for quick overview of approved Tokens\n    /// @param addressesToCheck are the ERC-20 token addresses to be checked whether they are approved\n    function getApprovedAddressesOfList(address[] calldata addressesToCheck) external view returns (bool[] memory) {\n        uint length = addressesToCheck.length;\n\n        bool[] memory isApproved = new bool[](length);\n\n        for (uint i = 0; i < length; i++) {\n            isApproved[i] = approvedTokens[addressesToCheck[i]];\n        }\n\n        return isApproved;\n    }\n    \n    function updateApprovalOfToken(address[] memory token, bool approved) public onlyAuctioneer {\n        for (uint i = 0; i < token.length; i++) {\n            approvedTokens[token[i]] = approved;\n            emit Approval(token[i], approved);\n        }\n    }\n\n}\n",
  "sourcePath": "@gnosis.pm/dx-contracts/contracts/base/TokenWhitelist.sol",
  "compiler": {
    "name": "solc",
    "version": "0.5.2+commit.1df8f40c.Emscripten.clang"
  },
  "schemaVersion": "3.0.1",
  "updatedAt": "2019-01-18T08:01:22.362Z",
  "devdoc": {
    "methods": {
      "getApprovedAddressesOfList(address[])": {
        "details": "for quick overview of approved Tokens",
        "params": {
          "addressesToCheck": "are the ERC-20 token addresses to be checked whether they are approved"
        }
      }
    }
  },
  "userdoc": {
    "methods": {}
  }
}