{
  "contractName": "TokenOWL",
  "abi": [
    {
      "constant": true,
      "inputs": [],
      "name": "creator",
      "outputs": [
        {
          "name": "",
          "type": "address"
        }
      ],
      "payable": false,
      "stateMutability": "view",
      "type": "function"
    },
    {
      "constant": true,
      "inputs": [],
      "name": "name",
      "outputs": [
        {
          "name": "",
          "type": "string"
        }
      ],
      "payable": false,
      "stateMutability": "view",
      "type": "function"
    },
    {
      "constant": true,
      "inputs": [],
      "name": "minter",
      "outputs": [
        {
          "name": "",
          "type": "address"
        }
      ],
      "payable": false,
      "stateMutability": "view",
      "type": "function"
    },
    {
      "constant": false,
      "inputs": [
        {
          "name": "spender",
          "type": "address"
        },
        {
          "name": "value",
          "type": "uint256"
        }
      ],
      "name": "approve",
      "outputs": [
        {
          "name": "",
          "type": "bool"
        }
      ],
      "payable": false,
      "stateMutability": "nonpayable",
      "type": "function"
    },
    {
      "constant": true,
      "inputs": [],
      "name": "totalSupply",
      "outputs": [
        {
          "name": "",
          "type": "uint256"
        }
      ],
      "payable": false,
      "stateMutability": "view",
      "type": "function"
    },
    {
      "constant": false,
      "inputs": [
        {
          "name": "from",
          "type": "address"
        },
        {
          "name": "to",
          "type": "address"
        },
        {
          "name": "value",
          "type": "uint256"
        }
      ],
      "name": "transferFrom",
      "outputs": [
        {
          "name": "",
          "type": "bool"
        }
      ],
      "payable": false,
      "stateMutability": "nonpayable",
      "type": "function"
    },
    {
      "constant": true,
      "inputs": [],
      "name": "decimals",
      "outputs": [
        {
          "name": "",
          "type": "uint8"
        }
      ],
      "payable": false,
      "stateMutability": "view",
      "type": "function"
    },
    {
      "constant": true,
      "inputs": [
        {
          "name": "owner",
          "type": "address"
        }
      ],
      "name": "balanceOf",
      "outputs": [
        {
          "name": "",
          "type": "uint256"
        }
      ],
      "payable": false,
      "stateMutability": "view",
      "type": "function"
    },
    {
      "constant": true,
      "inputs": [],
      "name": "symbol",
      "outputs": [
        {
          "name": "",
          "type": "string"
        }
      ],
      "payable": false,
      "stateMutability": "view",
      "type": "function"
    },
    {
      "constant": true,
      "inputs": [],
      "name": "masterCopy",
      "outputs": [
        {
          "name": "",
          "type": "address"
        }
      ],
      "payable": false,
      "stateMutability": "view",
      "type": "function"
    },
    {
      "constant": false,
      "inputs": [
        {
          "name": "to",
          "type": "address"
        },
        {
          "name": "value",
          "type": "uint256"
        }
      ],
      "name": "transfer",
      "outputs": [
        {
          "name": "",
          "type": "bool"
        }
      ],
      "payable": false,
      "stateMutability": "nonpayable",
      "type": "function"
    },
    {
      "constant": true,
      "inputs": [
        {
          "name": "owner",
          "type": "address"
        },
        {
          "name": "spender",
          "type": "address"
        }
      ],
      "name": "allowance",
      "outputs": [
        {
          "name": "",
          "type": "uint256"
        }
      ],
      "payable": false,
      "stateMutability": "view",
      "type": "function"
    },
    {
      "anonymous": false,
      "inputs": [
        {
          "indexed": true,
          "name": "to",
          "type": "address"
        },
        {
          "indexed": false,
          "name": "amount",
          "type": "uint256"
        }
      ],
      "name": "Minted",
      "type": "event"
    },
    {
      "anonymous": false,
      "inputs": [
        {
          "indexed": true,
          "name": "from",
          "type": "address"
        },
        {
          "indexed": true,
          "name": "user",
          "type": "address"
        },
        {
          "indexed": false,
          "name": "amount",
          "type": "uint256"
        }
      ],
      "name": "Burnt",
      "type": "event"
    },
    {
      "anonymous": false,
      "inputs": [
        {
          "indexed": true,
          "name": "from",
          "type": "address"
        },
        {
          "indexed": true,
          "name": "to",
          "type": "address"
        },
        {
          "indexed": false,
          "name": "value",
          "type": "uint256"
        }
      ],
      "name": "Transfer",
      "type": "event"
    },
    {
      "anonymous": false,
      "inputs": [
        {
          "indexed": true,
          "name": "owner",
          "type": "address"
        },
        {
          "indexed": true,
          "name": "spender",
          "type": "address"
        },
        {
          "indexed": false,
          "name": "value",
          "type": "uint256"
        }
      ],
      "name": "Approval",
      "type": "event"
    },
    {
      "constant": false,
      "inputs": [
        {
          "name": "_masterCopy",
          "type": "address"
        }
      ],
      "name": "startMasterCopyCountdown",
      "outputs": [],
      "payable": false,
      "stateMutability": "nonpayable",
      "type": "function"
    },
    {
      "constant": false,
      "inputs": [],
      "name": "updateMasterCopy",
      "outputs": [],
      "payable": false,
      "stateMutability": "nonpayable",
      "type": "function"
    },
    {
      "constant": true,
      "inputs": [],
      "name": "getMasterCopy",
      "outputs": [
        {
          "name": "",
          "type": "address"
        }
      ],
      "payable": false,
      "stateMutability": "view",
      "type": "function"
    },
    {
      "constant": false,
      "inputs": [
        {
          "name": "newMinter",
          "type": "address"
        }
      ],
      "name": "setMinter",
      "outputs": [],
      "payable": false,
      "stateMutability": "nonpayable",
      "type": "function"
    },
    {
      "constant": false,
      "inputs": [
        {
          "name": "newOwner",
          "type": "address"
        }
      ],
      "name": "setNewOwner",
      "outputs": [],
      "payable": false,
      "stateMutability": "nonpayable",
      "type": "function"
    },
    {
      "constant": false,
      "inputs": [
        {
          "name": "to",
          "type": "address"
        },
        {
          "name": "amount",
          "type": "uint256"
        }
      ],
      "name": "mintOWL",
      "outputs": [],
      "payable": false,
      "stateMutability": "nonpayable",
      "type": "function"
    },
    {
      "constant": false,
      "inputs": [
        {
          "name": "user",
          "type": "address"
        },
        {
          "name": "amount",
          "type": "uint256"
        }
      ],
      "name": "burnOWL",
      "outputs": [],
      "payable": false,
      "stateMutability": "nonpayable",
      "type": "function"
    }
  ],
  "bytecode": "0x608060405234801561001057600080fd5b50610e5b806100206000396000f3006080604052600436106101065763ffffffff7c010000000000000000000000000000000000000000000000000000000060003504166302d05d3f811461010b57806304e80e901461013c57806306fdde031461015157806307546172146101db578063095ea7b3146101f057806318160ddd1461022857806323b872dd1461024f5780632cef4dac14610279578063313ce567146102905780634417f4db146102bb57806370a08231146102df57806395d89b4114610300578063a619486e14610315578063a9059cbb1461032a578063dd62ed3e1461034e578063f52a41f314610375578063f5a1f5b414610399578063f625ee28146103ba578063fca3b5aa146103db575b600080fd5b34801561011757600080fd5b506101206103fc565b60408051600160a060020a039092168252519081900360200190f35b34801561014857600080fd5b5061012061040b565b34801561015d57600080fd5b5061016661041a565b6040805160208082528351818301528351919283929083019185019080838360005b838110156101a0578181015183820152602001610188565b50505050905090810190601f1680156101cd5780820380516001836020036101000a031916815260200191505b509250505060405180910390f35b3480156101e757600080fd5b50610120610451565b3480156101fc57600080fd5b50610214600160a060020a0360043516602435610460565b604080519115158252519081900360200190f35b34801561023457600080fd5b5061023d6104c7565b60408051918252519081900360200190f35b34801561025b57600080fd5b50610214600160a060020a03600435811690602435166044356104cd565b34801561028557600080fd5b5061028e6105fa565b005b34801561029c57600080fd5b506102a56107bd565b6040805160ff9092168252519081900360200190f35b3480156102c757600080fd5b5061028e600160a060020a03600435166024356107c2565b3480156102eb57600080fd5b5061023d600160a060020a03600435166108aa565b34801561030c57600080fd5b506101666108c5565b34801561032157600080fd5b506101206108fc565b34801561033657600080fd5b50610214600160a060020a036004351660243561090b565b34801561035a57600080fd5b5061023d600160a060020a03600435811690602435166109d8565b34801561038157600080fd5b5061028e600160a060020a0360043516602435610a03565b3480156103a557600080fd5b5061028e600160a060020a0360043516610b62565b3480156103c657600080fd5b5061028e600160a060020a0360043516610bf5565b3480156103e757600080fd5b5061028e600160a060020a0360043516610d17565b600654600160a060020a031681565b600054600160a060020a031690565b60408051808201909152600981527f4f574c20546f6b656e0000000000000000000000000000000000000000000000602082015281565b600754600160a060020a031681565b336000818152600260209081526040808320600160a060020a038716808552908352818420869055815186815291519394909390927f8c5be1e5ebec7d5bd14f71427d1e84f3dd0314c0f7b2291e5b200ac8c7c3b925928290030190a35060015b92915050565b60035490565b600160a060020a0383166000908152600160205260408120546104f6908363ffffffff610daa16565b15806105335750600160a060020a0384166000908152600260209081526040808320338452909152902054610531908363ffffffff610daa16565b155b806105645750600160a060020a038316600090815260016020526040902054610562908363ffffffff610daf16565b155b15610571575060006105f3565b600160a060020a0380851660008181526001602081815260408084208054899003905560028252808420338552825280842080548990039055948816808452918152918490208054870190558351868152935190937fddf252ad1be2c89b69c2b068fc378daa952ba7f163c4a11628f55a4df523b3ef92908290030190a35060015b9392505050565b600654600160a060020a0316331461065e576040805160e560020a62461bcd02815260206004820152602c6024820152600080516020610e108339815191526044820152600080516020610df0833981519152606482015290519081900360840190fd5b600454600160a060020a031615156106e6576040805160e560020a62461bcd02815260206004820152602760248201527f546865206d617374657220636f7079206d75737420626520612076616c69642060448201527f6164647265737300000000000000000000000000000000000000000000000000606482015290519081900360840190fd5b60055442101561078c576040805160e560020a62461bcd02815260206004820152604560248201527f49742773206e6f7420706f737369626c6520746f20757064617465207468652060448201527f6d617374657220636f707920647572696e67207468652077616974696e67207060648201527f6572696f64000000000000000000000000000000000000000000000000000000608482015290519081900360a40190fd5b6004546000805473ffffffffffffffffffffffffffffffffffffffff1916600160a060020a03909216919091179055565b601281565b600160a060020a03821660009081526002602090815260408083203384529091529020546107f6908263ffffffff610db616565b600160a060020a038316600081815260026020908152604080832033845282528083209490945591815260019091522054610837908263ffffffff610db616565b600160a060020a038316600090815260016020526040902055600354610863908263ffffffff610db616565b600355604080518281529051600160a060020a0384169133917fe8a89cc6e5096f9d9f43de82c077c1f4cfe707c0e0c2032176c68813b9ae6a5c9181900360200190a35050565b600160a060020a031660009081526001602052604090205490565b60408051808201909152600381527f4f574c0000000000000000000000000000000000000000000000000000000000602082015281565b600054600160a060020a031681565b3360009081526001602052604081205461092b908363ffffffff610daa16565b158061095d5750600160a060020a03831660009081526001602052604090205461095b908363ffffffff610daf16565b155b1561096a575060006104c1565b33600081815260016020908152604080832080548790039055600160a060020a03871680845292819020805487019055805186815290519293927fddf252ad1be2c89b69c2b068fc378daa952ba7f163c4a11628f55a4df523b3ef929181900390910190a350600192915050565b600160a060020a03918216600090815260026020908152604080832093909416825291909152205490565b600754600160a060020a03161515610a65576040805160e560020a62461bcd02815260206004820152601e60248201527f546865206d696e746572206d75737420626520696e697469616c697a65640000604482015290519081900360640190fd5b600754600160a060020a03163314610ac7576040805160e560020a62461bcd02815260206004820152601c60248201527f4f6e6c7920746865206d696e7465722063616e206d696e74204f574c00000000604482015290519081900360640190fd5b600160a060020a038216600090815260016020526040902054610af0908263ffffffff610dd316565b600160a060020a038316600090815260016020526040902055600354610b1c908263ffffffff610dd316565b600355604080518281529051600160a060020a038416917f30385c845b448a36257a6a1716e6ad2e1bc2cbe333cde1e69fe849ad6511adfe919081900360200190a25050565b600654600160a060020a03163314610bc6576040805160e560020a62461bcd02815260206004820152602c6024820152600080516020610e108339815191526044820152600080516020610df0833981519152606482015290519081900360840190fd5b6006805473ffffffffffffffffffffffffffffffffffffffff1916600160a060020a0392909216919091179055565b600654600160a060020a03163314610c59576040805160e560020a62461bcd02815260206004820152602c6024820152600080516020610e108339815191526044820152600080516020610df0833981519152606482015290519081900360840190fd5b600160a060020a0381161515610cdf576040805160e560020a62461bcd02815260206004820152602760248201527f546865206d617374657220636f7079206d75737420626520612076616c69642060448201527f6164647265737300000000000000000000000000000000000000000000000000606482015290519081900360840190fd5b6004805473ffffffffffffffffffffffffffffffffffffffff1916600160a060020a03929092169190911790554262278d0001600555565b600654600160a060020a03163314610d7b576040805160e560020a62461bcd02815260206004820152602c6024820152600080516020610e108339815191526044820152600080516020610df0833981519152606482015290519081900360840190fd5b6007805473ffffffffffffffffffffffffffffffffffffffff1916600160a060020a0392909216919091179055565b111590565b8101101590565b6000610dc28383610daa565b1515610dcd57600080fd5b50900390565b6000610ddf8383610daf565b1515610dea57600080fd5b5001905600207472616e73616374696f6e00000000000000000000000000000000000000004f6e6c79207468652063726561746f722063616e20706572666f726d20746865a165627a7a72305820c9923e1b1064cee12acaf6e798ec4e23deab230f2bff95435e9389d1edd0d4bb0029",
  "source": "pragma solidity ^0.4.24;\n\nimport \"@gnosis.pm/util-contracts/contracts/Math.sol\";\nimport \"@gnosis.pm/util-contracts/contracts/GnosisStandardToken.sol\";\nimport \"@gnosis.pm/util-contracts/contracts/Proxy.sol\";\n\ncontract TokenOWL is Proxied, GnosisStandardToken {\n    using Math for *;\n\n    string public constant name = \"OWL Token\";\n    string public constant symbol = \"OWL\";\n    uint8 public constant decimals = 18;\n\n    struct masterCopyCountdownType {\n        address masterCopy;\n        uint timeWhenAvailable;\n    }\n\n    masterCopyCountdownType masterCopyCountdown;\n\n    address public creator;\n    address public minter;\n\n    event Minted(address indexed to, uint256 amount);\n    event Burnt(address indexed from, address indexed user, uint256 amount);\n\n    modifier onlyCreator() {\n        // R1\n        require(msg.sender == creator, \"Only the creator can perform the transaction\");\n        _;\n    }\n    /// @dev trickers the update process via the proxyMaster for a new address _masterCopy \n    /// updating is only possible after 30 days\n    function startMasterCopyCountdown (\n        address _masterCopy\n     )\n        public\n        onlyCreator()\n    {\n        require(address(_masterCopy) != 0, \"The master copy must be a valid address\");\n\n        // Update masterCopyCountdown\n        masterCopyCountdown.masterCopy = _masterCopy;\n        masterCopyCountdown.timeWhenAvailable = now + 30 days;\n    }\n\n     /// @dev executes the update process via the proxyMaster for a new address _masterCopy\n    function updateMasterCopy()\n        public\n        onlyCreator()\n    {   \n        require(address(masterCopyCountdown.masterCopy) != 0, \"The master copy must be a valid address\");\n        require(block.timestamp >= masterCopyCountdown.timeWhenAvailable, \"It's not possible to update the master copy during the waiting period\");\n\n        // Update masterCopy\n        masterCopy = masterCopyCountdown.masterCopy;\n    }\n\n    function getMasterCopy()\n        public\n        view\n        returns (address)\n    {\n        return masterCopy;\n    }\n\n    /// @dev Set minter. Only the creator of this contract can call this.\n    /// @param newMinter The new address authorized to mint this token\n    function setMinter(address newMinter)\n        public\n        onlyCreator()\n    {\n        minter = newMinter;\n    }\n\n\n    /// @dev change owner/creator of the contract. Only the creator/owner of this contract can call this.\n    /// @param newOwner The new address, which should become the owner\n    function setNewOwner(address newOwner)\n        public\n        onlyCreator()\n    {\n        creator = newOwner;\n    }\n\n    /// @dev Mints OWL.\n    /// @param to Address to which the minted token will be given\n    /// @param amount Amount of OWL to be minted\n    function mintOWL(address to, uint amount)\n        public\n    {\n        require(minter != 0, \"The minter must be initialized\");\n        require(msg.sender == minter, \"Only the minter can mint OWL\");\n        balances[to] = balances[to].add(amount);\n        totalTokens = totalTokens.add(amount);\n        emit Minted(to, amount);\n    }\n\n    /// @dev Burns OWL.\n    /// @param user Address of OWL owner\n    /// @param amount Amount of OWL to be burnt\n    function burnOWL(address user, uint amount)\n        public\n    {\n        allowances[user][msg.sender] = allowances[user][msg.sender].sub(amount);\n        balances[user] = balances[user].sub(amount);\n        totalTokens = totalTokens.sub(amount);\n        emit Burnt(msg.sender, user, amount);\n    }\n}\n",
  "sourcePath": "@gnosis.pm/owl-token/contracts/TokenOWL.sol",
  "compiler": {
    "name": "solc",
    "version": "0.4.25+commit.59dbf8f1.Emscripten.clang"
  },
  "schemaVersion": "2.0.2",
  "updatedAt": "2019-01-04T11:06:43.341Z"
}