{
  "contractName": "TokenWhitelist",
  "abi": [
    {
      "constant": true,
      "inputs": [],
      "name": "auctioneer",
      "outputs": [
        {
          "name": "",
          "type": "address"
        }
      ],
      "payable": false,
      "stateMutability": "view",
      "type": "function"
    },
    {
      "constant": true,
      "inputs": [
        {
          "name": "",
          "type": "address"
        }
      ],
      "name": "approvedTokens",
      "outputs": [
        {
          "name": "",
          "type": "bool"
        }
      ],
      "payable": false,
      "stateMutability": "view",
      "type": "function"
    },
    {
      "constant": false,
      "inputs": [
        {
          "name": "_auctioneer",
          "type": "address"
        }
      ],
      "name": "updateAuctioneer",
      "outputs": [],
      "payable": false,
      "stateMutability": "nonpayable",
      "type": "function"
    },
    {
      "anonymous": false,
      "inputs": [
        {
          "indexed": true,
          "name": "token",
          "type": "address"
        },
        {
          "indexed": false,
          "name": "approved",
          "type": "bool"
        }
      ],
      "name": "Approval",
      "type": "event"
    },
    {
      "constant": false,
      "inputs": [
        {
          "name": "token",
          "type": "address[]"
        },
        {
          "name": "approved",
          "type": "bool"
        }
      ],
      "name": "updateApprovalOfToken",
      "outputs": [],
      "payable": false,
      "stateMutability": "nonpayable",
      "type": "function"
    },
    {
      "constant": true,
      "inputs": [
        {
          "name": "addressToCheck",
          "type": "address[]"
        }
      ],
      "name": "getApprovedAddressesOfList",
      "outputs": [
        {
          "name": "",
          "type": "bool[]"
        }
      ],
      "payable": false,
      "stateMutability": "view",
      "type": "function"
    }
  ],
  "bytecode": "0x608060405234801561001057600080fd5b50610598806100206000396000f30060806040526004361061006c5763ffffffff7c010000000000000000000000000000000000000000000000000000000060003504166302ffc0b081146100715780635ec2c7bf146100e157806365b0d711146101125780636d1ea3fa1461016d578063796a8076146101a2575b600080fd5b34801561007d57600080fd5b5061009160048035602481019101356101c3565b60408051602080825283518183015283519192839290830191858101910280838360005b838110156100cd5781810151838201526020016100b5565b505050509050019250505060405180910390f35b3480156100ed57600080fd5b506100f6610282565b60408051600160a060020a039092168252519081900360200190f35b34801561011e57600080fd5b506040805160206004803580820135838102808601850190965280855261016b95369593946024949385019291829185019084908082843750949750505050913515159250610291915050565b005b34801561017957600080fd5b5061018e600160a060020a03600435166103ec565b604080519115158252519081900360200190f35b3480156101ae57600080fd5b5061016b600160a060020a0360043516610401565b604080518281526020808402820101909152606090829082906000908380156101f6578160200160208202803883390190505b509150600090505b82811015610279576001600087878481811061021657fe5b90506020020135600160a060020a0316600160a060020a0316600160a060020a0316815260200190815260200160002060009054906101000a900460ff16828281518110151561026257fe5b9115156020928302909101909101526001016101fe565b50949350505050565b600054600160a060020a031681565b60008054600160a060020a0316331461033157604080517f08c379a000000000000000000000000000000000000000000000000000000000815260206004820152602a60248201527f4f6e6c79207468652061756374696f6e6565722063616e206e6f6d696e61746560448201527f2061206e6577206f6e6500000000000000000000000000000000000000000000606482015290519081900360840190fd5b5060005b82518110156103e7578160016000858481518110151561035157fe5b602090810291909101810151600160a060020a03168252810191909152604001600020805460ff1916911515919091179055825183908290811061039157fe5b90602001906020020151600160a060020a03167fc091bf3abd3a42f670f8ad1a6ad5b849311210403e1d85d6ac31f43114d5ca6e83604051808215151515815260200191505060405180910390a2600101610335565b505050565b60016020526000908152604090205460ff1681565b600054600160a060020a031633146104a057604080517f08c379a000000000000000000000000000000000000000000000000000000000815260206004820152602a60248201527f4f6e6c79207468652061756374696f6e6565722063616e206e6f6d696e61746560448201527f2061206e6577206f6e6500000000000000000000000000000000000000000000606482015290519081900360840190fd5b600160a060020a038116151561053d57604080517f08c379a000000000000000000000000000000000000000000000000000000000815260206004820152602660248201527f5468652061756374696f6e656572206d75737420626520612076616c6964206160448201527f6464726573730000000000000000000000000000000000000000000000000000606482015290519081900360840190fd5b6000805473ffffffffffffffffffffffffffffffffffffffff1916600160a060020a03929092169190911790555600a165627a7a7230582062bdac4470da5a16085b7dd2fbd72b389331d42ea4c999539e1503b285c03fe30029",
  "source": "pragma solidity ^0.4.11;\n\nimport \"./AuctioneerManaged.sol\";\n\ncontract TokenWhitelist is AuctioneerManaged {\n    // mapping that stores the tokens, which are approved\n    // Token => approved\n    // Only tokens approved by auctioneer generate frtToken tokens\n    mapping (address => bool) public approvedTokens;\n\n    event Approval(\n        address indexed token,\n        bool approved\n    );\n\n    function updateApprovalOfToken(\n        address[] token,\n        bool approved\n    ) public onlyAuctioneer {  \n        for(uint i = 0; i < token.length; i++) {\n            approvedTokens[token[i]] = approved;\n            emit Approval(token[i], approved);\n        }\n    }\n\n     //@dev for quick overview of approved Tokens\n    //@param addressesToCheck are the ERC-20 token addresses to be checked whether they are approved\n    function getApprovedAddressesOfList(\n        address[] addressToCheck\n    )\n        external\n        view\n        returns (bool[])\n    {\n        uint length = addressToCheck.length;\n\n        bool[] memory isApproved = new bool[](length);\n\n        for (uint i = 0; i < length; i++) {\n            isApproved[i] = approvedTokens[addressToCheck[i]];\n        }\n\n        return isApproved;\n    }\n}\n",
  "sourcePath": "/mnt/bf1642c6-3903-4bb8-b254-88a427e7ab47/Home/David/Documents/Work/Gnosis/dx-contracts/contracts/base/TokenWhitelist.sol",
  "compiler": {
    "name": "solc",
    "version": "0.4.25+commit.59dbf8f1.Emscripten.clang"
  },
  "schemaVersion": "2.0.2",
  "updatedAt": "2019-01-04T11:06:42.156Z"
}