{
  "contractName": "TokenFRTProxy",
  "abi": [
    {
      "constant": true,
      "inputs": [],
      "name": "name",
      "outputs": [
        {
          "name": "",
          "type": "string"
        }
      ],
      "payable": false,
      "stateMutability": "view",
      "type": "function"
    },
    {
      "constant": true,
      "inputs": [],
      "name": "minter",
      "outputs": [
        {
          "name": "",
          "type": "address"
        }
      ],
      "payable": false,
      "stateMutability": "view",
      "type": "function"
    },
    {
      "constant": false,
      "inputs": [
        {
          "name": "spender",
          "type": "address"
        },
        {
          "name": "value",
          "type": "uint256"
        }
      ],
      "name": "approve",
      "outputs": [
        {
          "name": "",
          "type": "bool"
        }
      ],
      "payable": false,
      "stateMutability": "nonpayable",
      "type": "function"
    },
    {
      "constant": true,
      "inputs": [],
      "name": "totalSupply",
      "outputs": [
        {
          "name": "",
          "type": "uint256"
        }
      ],
      "payable": false,
      "stateMutability": "view",
      "type": "function"
    },
    {
      "constant": false,
      "inputs": [
        {
          "name": "from",
          "type": "address"
        },
        {
          "name": "to",
          "type": "address"
        },
        {
          "name": "value",
          "type": "uint256"
        }
      ],
      "name": "transferFrom",
      "outputs": [
        {
          "name": "",
          "type": "bool"
        }
      ],
      "payable": false,
      "stateMutability": "nonpayable",
      "type": "function"
    },
    {
      "constant": true,
      "inputs": [],
      "name": "decimals",
      "outputs": [
        {
          "name": "",
          "type": "uint8"
        }
      ],
      "payable": false,
      "stateMutability": "view",
      "type": "function"
    },
    {
      "constant": true,
      "inputs": [
        {
          "name": "owner",
          "type": "address"
        }
      ],
      "name": "balanceOf",
      "outputs": [
        {
          "name": "",
          "type": "uint256"
        }
      ],
      "payable": false,
      "stateMutability": "view",
      "type": "function"
    },
    {
      "constant": true,
      "inputs": [
        {
          "name": "",
          "type": "address"
        }
      ],
      "name": "unlockedTokens",
      "outputs": [
        {
          "name": "amountUnlocked",
          "type": "uint256"
        },
        {
          "name": "withdrawalTime",
          "type": "uint256"
        }
      ],
      "payable": false,
      "stateMutability": "view",
      "type": "function"
    },
    {
      "constant": true,
      "inputs": [
        {
          "name": "",
          "type": "address"
        }
      ],
      "name": "lockedTokenBalances",
      "outputs": [
        {
          "name": "",
          "type": "uint256"
        }
      ],
      "payable": false,
      "stateMutability": "view",
      "type": "function"
    },
    {
      "constant": true,
      "inputs": [],
      "name": "owner",
      "outputs": [
        {
          "name": "",
          "type": "address"
        }
      ],
      "payable": false,
      "stateMutability": "view",
      "type": "function"
    },
    {
      "constant": true,
      "inputs": [],
      "name": "symbol",
      "outputs": [
        {
          "name": "",
          "type": "string"
        }
      ],
      "payable": false,
      "stateMutability": "view",
      "type": "function"
    },
    {
      "constant": true,
      "inputs": [],
      "name": "masterCopy",
      "outputs": [
        {
          "name": "",
          "type": "address"
        }
      ],
      "payable": false,
      "stateMutability": "view",
      "type": "function"
    },
    {
      "constant": false,
      "inputs": [
        {
          "name": "to",
          "type": "address"
        },
        {
          "name": "value",
          "type": "uint256"
        }
      ],
      "name": "transfer",
      "outputs": [
        {
          "name": "",
          "type": "bool"
        }
      ],
      "payable": false,
      "stateMutability": "nonpayable",
      "type": "function"
    },
    {
      "constant": true,
      "inputs": [
        {
          "name": "owner",
          "type": "address"
        },
        {
          "name": "spender",
          "type": "address"
        }
      ],
      "name": "allowance",
      "outputs": [
        {
          "name": "",
          "type": "uint256"
        }
      ],
      "payable": false,
      "stateMutability": "view",
      "type": "function"
    },
    {
      "inputs": [
        {
          "name": "proxied",
          "type": "address"
        },
        {
          "name": "_owner",
          "type": "address"
        }
      ],
      "payable": false,
      "stateMutability": "nonpayable",
      "type": "constructor"
    },
    {
      "payable": true,
      "stateMutability": "payable",
      "type": "fallback"
    },
    {
      "anonymous": false,
      "inputs": [
        {
          "indexed": true,
          "name": "from",
          "type": "address"
        },
        {
          "indexed": true,
          "name": "to",
          "type": "address"
        },
        {
          "indexed": false,
          "name": "value",
          "type": "uint256"
        }
      ],
      "name": "Transfer",
      "type": "event"
    },
    {
      "anonymous": false,
      "inputs": [
        {
          "indexed": true,
          "name": "owner",
          "type": "address"
        },
        {
          "indexed": true,
          "name": "spender",
          "type": "address"
        },
        {
          "indexed": false,
          "name": "value",
          "type": "uint256"
        }
      ],
      "name": "Approval",
      "type": "event"
    }
  ],
  "bytecode": "0x608060405234801561001057600080fd5b5060405160408061082083398101604052805160209091015181600160a060020a03811615156100a157604080517f08c379a000000000000000000000000000000000000000000000000000000000815260206004820152601b60248201527f546865206d617374657220636f70792069732072657175697265640000000000604482015290519081900360640190fd5b60008054600160a060020a031916600160a060020a03928316179055811615156100ca57600080fd5b60048054600160a060020a031916600160a060020a039290921691909117905550610726806100fa6000396000f3006080604052600436106100cf5763ffffffff7c010000000000000000000000000000000000000000000000000000000060003504166306fdde038114610101578063075461721461018b578063095ea7b3146101bc57806318160ddd146101f457806323b872dd1461021b578063313ce5671461024557806370a0823114610270578063836115fe146102915780638b525d0c146102cb5780638da5cb5b146102ec57806395d89b4114610301578063a619486e14610316578063a9059cbb1461032b578063dd62ed3e1461034f575b60008054600160a060020a03169036908037600080368184600019f43d6000803e8080156100fc573d6000f35b3d6000fd5b34801561010d57600080fd5b50610116610376565b6040805160208082528351818301528351919283929083019185019080838360005b83811015610150578181015183820152602001610138565b50505050905090810190601f16801561017d5780820380516001836020036101000a031916815260200191505b509250505060405180910390f35b34801561019757600080fd5b506101a06103ad565b60408051600160a060020a039092168252519081900360200190f35b3480156101c857600080fd5b506101e0600160a060020a03600435166024356103bc565b604080519115158252519081900360200190f35b34801561020057600080fd5b50610209610423565b60408051918252519081900360200190f35b34801561022757600080fd5b506101e0600160a060020a0360043581169060243516604435610429565b34801561025157600080fd5b5061025a610556565b6040805160ff9092168252519081900360200190f35b34801561027c57600080fd5b50610209600160a060020a036004351661055b565b34801561029d57600080fd5b506102b2600160a060020a0360043516610576565b6040805192835260208301919091528051918290030190f35b3480156102d757600080fd5b50610209600160a060020a036004351661058f565b3480156102f857600080fd5b506101a06105a1565b34801561030d57600080fd5b506101166105b0565b34801561032257600080fd5b506101a06105e7565b34801561033757600080fd5b506101e0600160a060020a03600435166024356105f6565b34801561035b57600080fd5b50610209600160a060020a03600435811690602435166106c3565b60408051808201909152600e81527f4d61676e6f6c696120546f6b656e000000000000000000000000000000000000602082015281565b600554600160a060020a031681565b336000818152600260209081526040808320600160a060020a038716808552908352818420869055815186815291519394909390927f8c5be1e5ebec7d5bd14f71427d1e84f3dd0314c0f7b2291e5b200ac8c7c3b925928290030190a35060015b92915050565b60035490565b600160a060020a038316600090815260016020526040812054610452908363ffffffff6106ee16565b158061048f5750600160a060020a038416600090815260026020908152604080832033845290915290205461048d908363ffffffff6106ee16565b155b806104c05750600160a060020a0383166000908152600160205260409020546104be908363ffffffff6106f316565b155b156104cd5750600061054f565b600160a060020a0380851660008181526001602081815260408084208054899003905560028252808420338552825280842080548990039055948816808452918152918490208054870190558351868152935190937fddf252ad1be2c89b69c2b068fc378daa952ba7f163c4a11628f55a4df523b3ef92908290030190a35060015b9392505050565b601281565b600160a060020a031660009081526001602052604090205490565b6006602052600090815260409020805460019091015482565b60076020526000908152604090205481565b600454600160a060020a031681565b60408051808201909152600381527f4d474e0000000000000000000000000000000000000000000000000000000000602082015281565b600054600160a060020a031681565b33600090815260016020526040812054610616908363ffffffff6106ee16565b15806106485750600160a060020a038316600090815260016020526040902054610646908363ffffffff6106f316565b155b156106555750600061041d565b33600081815260016020908152604080832080548790039055600160a060020a03871680845292819020805487019055805186815290519293927fddf252ad1be2c89b69c2b068fc378daa952ba7f163c4a11628f55a4df523b3ef929181900390910190a350600192915050565b600160a060020a03918216600090815260026020908152604080832093909416825291909152205490565b111590565b81011015905600a165627a7a72305820be04ab3c3c8ed47559bc08c99263a36c4dea8d7068751c6656bf75d556c6b82c0029",
  "source": "pragma solidity ^0.4.24;\n\nimport \"@gnosis.pm/util-contracts/contracts/Proxy.sol\";\nimport \"@gnosis.pm/util-contracts/contracts/GnosisStandardToken.sol\";\n\ncontract TokenFRTProxy is Proxy, GnosisStandardToken {\n    ///@dev State variables remain for Block explorer compatibility\n    string public constant symbol = \"MGN\";\n    string public constant name = \"Magnolia Token\";\n    uint8 public constant decimals = 18;\n\n    struct unlockedToken {\n        uint amountUnlocked;\n        uint withdrawalTime;\n    }\n\n    /*\n     *  Storage\n     */\n    address public owner;\n    address public minter;\n\n    // user => unlockedToken\n    mapping (address => unlockedToken) public unlockedTokens;\n\n    // user => amount\n    mapping (address => uint) public lockedTokenBalances;\n\n    constructor (\n        address proxied,\n        address _owner\n    )   \n        Proxy(proxied)\n        public\n    {\n        require(_owner != address(0));\n        owner = _owner;\n    }\n}",
  "sourcePath": "/mnt/bf1642c6-3903-4bb8-b254-88a427e7ab47/Home/David/Documents/Work/Gnosis/dx-contracts/contracts/TokenFRTProxy.sol",
  "compiler": {
    "name": "solc",
    "version": "0.4.25+commit.59dbf8f1.Emscripten.clang"
  },
  "schemaVersion": "2.0.2",
  "updatedAt": "2019-01-04T11:06:45.300Z"
}